{
	"contracts/jurorSelection.sol": {
		"JurorSelection": {
			"abi": [
				{
					"inputs": [
						{
							"internalType": "address",
							"name": "_grullTokenAddress",
							"type": "address"
						},
						{
							"internalType": "address",
							"name": "_vrfCoordinator",
							"type": "address"
						},
						{
							"internalType": "address",
							"name": "_linkToken",
							"type": "address"
						},
						{
							"internalType": "bytes32",
							"name": "_keyHash",
							"type": "bytes32"
						},
						{
							"internalType": "uint256",
							"name": "_fee",
							"type": "uint256"
						}
					],
					"stateMutability": "nonpayable",
					"type": "constructor"
				},
				{
					"anonymous": false,
					"inputs": [
						{
							"indexed": false,
							"internalType": "address[]",
							"name": "selectedJurors",
							"type": "address[]"
						}
					],
					"name": "JurorsSelected",
					"type": "event"
				},
				{
					"inputs": [],
					"name": "grullToken",
					"outputs": [
						{
							"internalType": "contract IERC20",
							"name": "",
							"type": "address"
						}
					],
					"stateMutability": "view",
					"type": "function"
				},
				{
					"inputs": [
						{
							"internalType": "uint256",
							"name": "",
							"type": "uint256"
						}
					],
					"name": "jurors",
					"outputs": [
						{
							"internalType": "address",
							"name": "",
							"type": "address"
						}
					],
					"stateMutability": "view",
					"type": "function"
				},
				{
					"inputs": [],
					"name": "numJurorsToSelect",
					"outputs": [
						{
							"internalType": "uint256",
							"name": "",
							"type": "uint256"
						}
					],
					"stateMutability": "view",
					"type": "function"
				},
				{
					"inputs": [
						{
							"internalType": "bytes32",
							"name": "requestId",
							"type": "bytes32"
						},
						{
							"internalType": "uint256",
							"name": "randomness",
							"type": "uint256"
						}
					],
					"name": "rawFulfillRandomness",
					"outputs": [],
					"stateMutability": "nonpayable",
					"type": "function"
				},
				{
					"inputs": [
						{
							"internalType": "uint256",
							"name": "_numJurors",
							"type": "uint256"
						}
					],
					"name": "selectJurors",
					"outputs": [
						{
							"internalType": "bytes32",
							"name": "",
							"type": "bytes32"
						}
					],
					"stateMutability": "nonpayable",
					"type": "function"
				},
				{
					"inputs": [
						{
							"internalType": "uint256",
							"name": "_amount",
							"type": "uint256"
						}
					],
					"name": "stakeTokens",
					"outputs": [],
					"stateMutability": "nonpayable",
					"type": "function"
				},
				{
					"inputs": [
						{
							"internalType": "address",
							"name": "",
							"type": "address"
						}
					],
					"name": "stakes",
					"outputs": [
						{
							"internalType": "uint256",
							"name": "",
							"type": "uint256"
						}
					],
					"stateMutability": "view",
					"type": "function"
				}
			],
			"devdoc": {
				"kind": "dev",
				"methods": {},
				"version": 1
			},
			"evm": {
				"assembly": "    /* \"contracts/jurorSelection.sol\":182:1829  contract JurorSelection is VRFConsumerBase {... */\n  mstore(0x40, 0xc0)\n    /* \"contracts/jurorSelection.sol\":495:817  constructor(... */\n  callvalue\n  dup1\n  iszero\n  tag_1\n  jumpi\n  0x00\n  dup1\n  revert\ntag_1:\n  pop\n  mload(0x40)\n  sub(codesize, bytecodeSize)\n  dup1\n  bytecodeSize\n  dup4\n  codecopy\n  dup2\n  dup2\n  add\n  0x40\n  mstore\n  dup2\n  add\n  swap1\n  tag_2\n  swap2\n  swap1\n  tag_3\n  jump\t// in\ntag_2:\n    /* \"contracts/jurorSelection.sol\":680:695  _vrfCoordinator */\n  dup4\n    /* \"contracts/jurorSelection.sol\":697:707  _linkToken */\n  dup4\n    /* \"@chainlink/contracts/src/v0.8/VRFConsumerBase.sol\":9323:9338  _vrfCoordinator */\n  dup2\n    /* \"@chainlink/contracts/src/v0.8/VRFConsumerBase.sol\":9306:9338  vrfCoordinator = _vrfCoordinator */\n  0xffffffffffffffffffffffffffffffffffffffff\n  and\n  0xa0\n  dup2\n  0xffffffffffffffffffffffffffffffffffffffff\n  and\n  dup2\n  mstore\n  pop\n  pop\n    /* \"@chainlink/contracts/src/v0.8/VRFConsumerBase.sol\":9370:9375  _link */\n  dup1\n    /* \"@chainlink/contracts/src/v0.8/VRFConsumerBase.sol\":9344:9376  LINK = LinkTokenInterface(_link) */\n  0xffffffffffffffffffffffffffffffffffffffff\n  and\n  0x80\n  dup2\n  0xffffffffffffffffffffffffffffffffffffffff\n  and\n  dup2\n  mstore\n  pop\n  pop\n    /* \"@chainlink/contracts/src/v0.8/VRFConsumerBase.sol\":9248:9381  constructor(address _vrfCoordinator, address _link) {... */\n  pop\n  pop\n    /* \"contracts/jurorSelection.sol\":740:758  _grullTokenAddress */\n  dup5\n    /* \"contracts/jurorSelection.sol\":720:730  grullToken */\n  0x01\n  0x00\n    /* \"contracts/jurorSelection.sol\":720:759  grullToken = IERC20(_grullTokenAddress) */\n  0x0100\n  exp\n  dup2\n  sload\n  dup2\n  0xffffffffffffffffffffffffffffffffffffffff\n  mul\n  not\n  and\n  swap1\n  dup4\n  0xffffffffffffffffffffffffffffffffffffffff\n  and\n  mul\n  or\n  swap1\n  sstore\n  pop\n    /* \"contracts/jurorSelection.sol\":780:788  _keyHash */\n  dup2\n    /* \"contracts/jurorSelection.sol\":770:777  keyHash */\n  0x04\n    /* \"contracts/jurorSelection.sol\":770:788  keyHash = _keyHash */\n  dup2\n  swap1\n  sstore\n  pop\n    /* \"contracts/jurorSelection.sol\":805:809  _fee */\n  dup1\n    /* \"contracts/jurorSelection.sol\":799:802  fee */\n  0x05\n    /* \"contracts/jurorSelection.sol\":799:809  fee = _fee */\n  dup2\n  swap1\n  sstore\n  pop\n    /* \"contracts/jurorSelection.sol\":495:817  constructor(... */\n  pop\n  pop\n  pop\n  pop\n  pop\n    /* \"contracts/jurorSelection.sol\":182:1829  contract JurorSelection is VRFConsumerBase {... */\n  jump(tag_8)\n    /* \"#utility.yul\":88:205   */\ntag_10:\n    /* \"#utility.yul\":197:198   */\n  0x00\n    /* \"#utility.yul\":194:195   */\n  dup1\n    /* \"#utility.yul\":187:199   */\n  revert\n    /* \"#utility.yul\":334:460   */\ntag_12:\n    /* \"#utility.yul\":371:378   */\n  0x00\n    /* \"#utility.yul\":411:453   */\n  0xffffffffffffffffffffffffffffffffffffffff\n    /* \"#utility.yul\":404:409   */\n  dup3\n    /* \"#utility.yul\":400:454   */\n  and\n    /* \"#utility.yul\":389:454   */\n  swap1\n  pop\n    /* \"#utility.yul\":334:460   */\n  swap2\n  swap1\n  pop\n  jump\t// out\n    /* \"#utility.yul\":466:562   */\ntag_13:\n    /* \"#utility.yul\":503:510   */\n  0x00\n    /* \"#utility.yul\":532:556   */\n  tag_28\n    /* \"#utility.yul\":550:555   */\n  dup3\n    /* \"#utility.yul\":532:556   */\n  tag_12\n  jump\t// in\ntag_28:\n    /* \"#utility.yul\":521:556   */\n  swap1\n  pop\n    /* \"#utility.yul\":466:562   */\n  swap2\n  swap1\n  pop\n  jump\t// out\n    /* \"#utility.yul\":568:690   */\ntag_14:\n    /* \"#utility.yul\":641:665   */\n  tag_30\n    /* \"#utility.yul\":659:664   */\n  dup2\n    /* \"#utility.yul\":641:665   */\n  tag_13\n  jump\t// in\ntag_30:\n    /* \"#utility.yul\":634:639   */\n  dup2\n    /* \"#utility.yul\":631:666   */\n  eq\n    /* \"#utility.yul\":621:684   */\n  tag_31\n  jumpi\n    /* \"#utility.yul\":680:681   */\n  0x00\n    /* \"#utility.yul\":677:678   */\n  dup1\n    /* \"#utility.yul\":670:682   */\n  revert\n    /* \"#utility.yul\":621:684   */\ntag_31:\n    /* \"#utility.yul\":568:690   */\n  pop\n  jump\t// out\n    /* \"#utility.yul\":696:839   */\ntag_15:\n    /* \"#utility.yul\":753:758   */\n  0x00\n    /* \"#utility.yul\":784:790   */\n  dup2\n    /* \"#utility.yul\":778:791   */\n  mload\n    /* \"#utility.yul\":769:791   */\n  swap1\n  pop\n    /* \"#utility.yul\":800:833   */\n  tag_33\n    /* \"#utility.yul\":827:832   */\n  dup2\n    /* \"#utility.yul\":800:833   */\n  tag_14\n  jump\t// in\ntag_33:\n    /* \"#utility.yul\":696:839   */\n  swap3\n  swap2\n  pop\n  pop\n  jump\t// out\n    /* \"#utility.yul\":845:922   */\ntag_16:\n    /* \"#utility.yul\":882:889   */\n  0x00\n    /* \"#utility.yul\":911:916   */\n  dup2\n    /* \"#utility.yul\":900:916   */\n  swap1\n  pop\n    /* \"#utility.yul\":845:922   */\n  swap2\n  swap1\n  pop\n  jump\t// out\n    /* \"#utility.yul\":928:1050   */\ntag_17:\n    /* \"#utility.yul\":1001:1025   */\n  tag_36\n    /* \"#utility.yul\":1019:1024   */\n  dup2\n    /* \"#utility.yul\":1001:1025   */\n  tag_16\n  jump\t// in\ntag_36:\n    /* \"#utility.yul\":994:999   */\n  dup2\n    /* \"#utility.yul\":991:1026   */\n  eq\n    /* \"#utility.yul\":981:1044   */\n  tag_37\n  jumpi\n    /* \"#utility.yul\":1040:1041   */\n  0x00\n    /* \"#utility.yul\":1037:1038   */\n  dup1\n    /* \"#utility.yul\":1030:1042   */\n  revert\n    /* \"#utility.yul\":981:1044   */\ntag_37:\n    /* \"#utility.yul\":928:1050   */\n  pop\n  jump\t// out\n    /* \"#utility.yul\":1056:1199   */\ntag_18:\n    /* \"#utility.yul\":1113:1118   */\n  0x00\n    /* \"#utility.yul\":1144:1150   */\n  dup2\n    /* \"#utility.yul\":1138:1151   */\n  mload\n    /* \"#utility.yul\":1129:1151   */\n  swap1\n  pop\n    /* \"#utility.yul\":1160:1193   */\n  tag_39\n    /* \"#utility.yul\":1187:1192   */\n  dup2\n    /* \"#utility.yul\":1160:1193   */\n  tag_17\n  jump\t// in\ntag_39:\n    /* \"#utility.yul\":1056:1199   */\n  swap3\n  swap2\n  pop\n  pop\n  jump\t// out\n    /* \"#utility.yul\":1205:1282   */\ntag_19:\n    /* \"#utility.yul\":1242:1249   */\n  0x00\n    /* \"#utility.yul\":1271:1276   */\n  dup2\n    /* \"#utility.yul\":1260:1276   */\n  swap1\n  pop\n    /* \"#utility.yul\":1205:1282   */\n  swap2\n  swap1\n  pop\n  jump\t// out\n    /* \"#utility.yul\":1288:1410   */\ntag_20:\n    /* \"#utility.yul\":1361:1385   */\n  tag_42\n    /* \"#utility.yul\":1379:1384   */\n  dup2\n    /* \"#utility.yul\":1361:1385   */\n  tag_19\n  jump\t// in\ntag_42:\n    /* \"#utility.yul\":1354:1359   */\n  dup2\n    /* \"#utility.yul\":1351:1386   */\n  eq\n    /* \"#utility.yul\":1341:1404   */\n  tag_43\n  jumpi\n    /* \"#utility.yul\":1400:1401   */\n  0x00\n    /* \"#utility.yul\":1397:1398   */\n  dup1\n    /* \"#utility.yul\":1390:1402   */\n  revert\n    /* \"#utility.yul\":1341:1404   */\ntag_43:\n    /* \"#utility.yul\":1288:1410   */\n  pop\n  jump\t// out\n    /* \"#utility.yul\":1416:1559   */\ntag_21:\n    /* \"#utility.yul\":1473:1478   */\n  0x00\n    /* \"#utility.yul\":1504:1510   */\n  dup2\n    /* \"#utility.yul\":1498:1511   */\n  mload\n    /* \"#utility.yul\":1489:1511   */\n  swap1\n  pop\n    /* \"#utility.yul\":1520:1553   */\n  tag_45\n    /* \"#utility.yul\":1547:1552   */\n  dup2\n    /* \"#utility.yul\":1520:1553   */\n  tag_20\n  jump\t// in\ntag_45:\n    /* \"#utility.yul\":1416:1559   */\n  swap3\n  swap2\n  pop\n  pop\n  jump\t// out\n    /* \"#utility.yul\":1565:2542   */\ntag_3:\n    /* \"#utility.yul\":1671:1677   */\n  0x00\n    /* \"#utility.yul\":1679:1685   */\n  dup1\n    /* \"#utility.yul\":1687:1693   */\n  0x00\n    /* \"#utility.yul\":1695:1701   */\n  dup1\n    /* \"#utility.yul\":1703:1709   */\n  0x00\n    /* \"#utility.yul\":1752:1755   */\n  0xa0\n    /* \"#utility.yul\":1740:1749   */\n  dup7\n    /* \"#utility.yul\":1731:1738   */\n  dup9\n    /* \"#utility.yul\":1727:1750   */\n  sub\n    /* \"#utility.yul\":1723:1756   */\n  slt\n    /* \"#utility.yul\":1720:1840   */\n  iszero\n  tag_47\n  jumpi\n    /* \"#utility.yul\":1759:1838   */\n  tag_48\n  tag_10\n  jump\t// in\ntag_48:\n    /* \"#utility.yul\":1720:1840   */\ntag_47:\n    /* \"#utility.yul\":1879:1880   */\n  0x00\n    /* \"#utility.yul\":1904:1968   */\n  tag_49\n    /* \"#utility.yul\":1960:1967   */\n  dup9\n    /* \"#utility.yul\":1951:1957   */\n  dup3\n    /* \"#utility.yul\":1940:1949   */\n  dup10\n    /* \"#utility.yul\":1936:1958   */\n  add\n    /* \"#utility.yul\":1904:1968   */\n  tag_15\n  jump\t// in\ntag_49:\n    /* \"#utility.yul\":1894:1968   */\n  swap6\n  pop\n    /* \"#utility.yul\":1850:1978   */\n  pop\n    /* \"#utility.yul\":2017:2019   */\n  0x20\n    /* \"#utility.yul\":2043:2107   */\n  tag_50\n    /* \"#utility.yul\":2099:2106   */\n  dup9\n    /* \"#utility.yul\":2090:2096   */\n  dup3\n    /* \"#utility.yul\":2079:2088   */\n  dup10\n    /* \"#utility.yul\":2075:2097   */\n  add\n    /* \"#utility.yul\":2043:2107   */\n  tag_15\n  jump\t// in\ntag_50:\n    /* \"#utility.yul\":2033:2107   */\n  swap5\n  pop\n    /* \"#utility.yul\":1988:2117   */\n  pop\n    /* \"#utility.yul\":2156:2158   */\n  0x40\n    /* \"#utility.yul\":2182:2246   */\n  tag_51\n    /* \"#utility.yul\":2238:2245   */\n  dup9\n    /* \"#utility.yul\":2229:2235   */\n  dup3\n    /* \"#utility.yul\":2218:2227   */\n  dup10\n    /* \"#utility.yul\":2214:2236   */\n  add\n    /* \"#utility.yul\":2182:2246   */\n  tag_15\n  jump\t// in\ntag_51:\n    /* \"#utility.yul\":2172:2246   */\n  swap4\n  pop\n    /* \"#utility.yul\":2127:2256   */\n  pop\n    /* \"#utility.yul\":2295:2297   */\n  0x60\n    /* \"#utility.yul\":2321:2385   */\n  tag_52\n    /* \"#utility.yul\":2377:2384   */\n  dup9\n    /* \"#utility.yul\":2368:2374   */\n  dup3\n    /* \"#utility.yul\":2357:2366   */\n  dup10\n    /* \"#utility.yul\":2353:2375   */\n  add\n    /* \"#utility.yul\":2321:2385   */\n  tag_18\n  jump\t// in\ntag_52:\n    /* \"#utility.yul\":2311:2385   */\n  swap3\n  pop\n    /* \"#utility.yul\":2266:2395   */\n  pop\n    /* \"#utility.yul\":2434:2437   */\n  0x80\n    /* \"#utility.yul\":2461:2525   */\n  tag_53\n    /* \"#utility.yul\":2517:2524   */\n  dup9\n    /* \"#utility.yul\":2508:2514   */\n  dup3\n    /* \"#utility.yul\":2497:2506   */\n  dup10\n    /* \"#utility.yul\":2493:2515   */\n  add\n    /* \"#utility.yul\":2461:2525   */\n  tag_21\n  jump\t// in\ntag_53:\n    /* \"#utility.yul\":2451:2525   */\n  swap2\n  pop\n    /* \"#utility.yul\":2405:2535   */\n  pop\n    /* \"#utility.yul\":1565:2542   */\n  swap3\n  swap6\n  pop\n  swap3\n  swap6\n  swap1\n  swap4\n  pop\n  jump\t// out\n    /* \"contracts/jurorSelection.sol\":182:1829  contract JurorSelection is VRFConsumerBase {... */\ntag_8:\n  mload(0x80)\n  mload(0xa0)\n  codecopy(0x00, dataOffset(sub_0), dataSize(sub_0))\n  0x00\n  assignImmutable(\"0x6dbb33232cde86c8a04f90a8bed9fc1c5ef520188a14538d96eb100d69bc2a94\")\n  0x00\n  assignImmutable(\"0xb2219b801710730437d0358146c829b62297a059eceaa0b40b27aea2daecf595\")\n  return(0x00, dataSize(sub_0))\nstop\n\nsub_0: assembly {\n        /* \"contracts/jurorSelection.sol\":182:1829  contract JurorSelection is VRFConsumerBase {... */\n      mstore(0x40, 0x80)\n      callvalue\n      dup1\n      iszero\n      tag_1\n      jumpi\n      0x00\n      dup1\n      revert\n    tag_1:\n      pop\n      jumpi(tag_2, lt(calldatasize, 0x04))\n      shr(0xe0, calldataload(0x00))\n      dup1\n      0x7cd38ff8\n      gt\n      tag_10\n      jumpi\n      dup1\n      0x7cd38ff8\n      eq\n      tag_6\n      jumpi\n      dup1\n      0x9233be0d\n      eq\n      tag_7\n      jumpi\n      dup1\n      0x94985ddd\n      eq\n      tag_8\n      jumpi\n      dup1\n      0xc9cf5ddf\n      eq\n      tag_9\n      jumpi\n      jump(tag_2)\n    tag_10:\n      dup1\n      0x16934fc4\n      eq\n      tag_3\n      jumpi\n      dup1\n      0x266d3730\n      eq\n      tag_4\n      jumpi\n      dup1\n      0x7547c7a3\n      eq\n      tag_5\n      jumpi\n    tag_2:\n      0x00\n      dup1\n      revert\n        /* \"contracts/jurorSelection.sol\":263:304  mapping(address => uint256) public stakes */\n    tag_3:\n      tag_11\n      0x04\n      dup1\n      calldatasize\n      sub\n      dup2\n      add\n      swap1\n      tag_12\n      swap2\n      swap1\n      tag_13\n      jump\t// in\n    tag_12:\n      tag_14\n      jump\t// in\n    tag_11:\n      mload(0x40)\n      tag_15\n      swap2\n      swap1\n      tag_16\n      jump\t// in\n    tag_15:\n      mload(0x40)\n      dup1\n      swap2\n      sub\n      swap1\n      return\n        /* \"contracts/jurorSelection.sol\":399:431  uint256 public numJurorsToSelect */\n    tag_4:\n      tag_17\n      tag_18\n      jump\t// in\n    tag_17:\n      mload(0x40)\n      tag_19\n      swap2\n      swap1\n      tag_16\n      jump\t// in\n    tag_19:\n      mload(0x40)\n      dup1\n      swap2\n      sub\n      swap1\n      return\n        /* \"contracts/jurorSelection.sol\":825:1089  function stakeTokens(uint256 _amount) public {... */\n    tag_5:\n      tag_20\n      0x04\n      dup1\n      calldatasize\n      sub\n      dup2\n      add\n      swap1\n      tag_21\n      swap2\n      swap1\n      tag_22\n      jump\t// in\n    tag_21:\n      tag_23\n      jump\t// in\n    tag_20:\n      stop\n        /* \"contracts/jurorSelection.sol\":311:334  address[] public jurors */\n    tag_6:\n      tag_24\n      0x04\n      dup1\n      calldatasize\n      sub\n      dup2\n      add\n      swap1\n      tag_25\n      swap2\n      swap1\n      tag_22\n      jump\t// in\n    tag_25:\n      tag_26\n      jump\t// in\n    tag_24:\n      mload(0x40)\n      tag_27\n      swap2\n      swap1\n      tag_28\n      jump\t// in\n    tag_27:\n      mload(0x40)\n      dup1\n      swap2\n      sub\n      swap1\n      return\n        /* \"contracts/jurorSelection.sol\":1097:1365  function selectJurors(uint256 _numJurors) public returns (bytes32) {... */\n    tag_7:\n      tag_29\n      0x04\n      dup1\n      calldatasize\n      sub\n      dup2\n      add\n      swap1\n      tag_30\n      swap2\n      swap1\n      tag_22\n      jump\t// in\n    tag_30:\n      tag_31\n      jump\t// in\n    tag_29:\n      mload(0x40)\n      tag_32\n      swap2\n      swap1\n      tag_33\n      jump\t// in\n    tag_32:\n      mload(0x40)\n      dup1\n      swap2\n      sub\n      swap1\n      return\n        /* \"@chainlink/contracts/src/v0.8/VRFConsumerBase.sol\":9576:9783  function rawFulfillRandomness(bytes32 requestId, uint256 randomness) external {... */\n    tag_8:\n      tag_34\n      0x04\n      dup1\n      calldatasize\n      sub\n      dup2\n      add\n      swap1\n      tag_35\n      swap2\n      swap1\n      tag_36\n      jump\t// in\n    tag_35:\n      tag_37\n      jump\t// in\n    tag_34:\n      stop\n        /* \"contracts/jurorSelection.sol\":232:256  IERC20 public grullToken */\n    tag_9:\n      tag_38\n      tag_39\n      jump\t// in\n    tag_38:\n      mload(0x40)\n      tag_40\n      swap2\n      swap1\n      tag_41\n      jump\t// in\n    tag_40:\n      mload(0x40)\n      dup1\n      swap2\n      sub\n      swap1\n      return\n        /* \"contracts/jurorSelection.sol\":263:304  mapping(address => uint256) public stakes */\n    tag_14:\n      mstore(0x20, 0x02)\n      dup1\n      0x00\n      mstore\n      keccak256(0x00, 0x40)\n      0x00\n      swap2\n      pop\n      swap1\n      pop\n      sload\n      dup2\n      jump\t// out\n        /* \"contracts/jurorSelection.sol\":399:431  uint256 public numJurorsToSelect */\n    tag_18:\n      sload(0x06)\n      dup2\n      jump\t// out\n        /* \"contracts/jurorSelection.sol\":825:1089  function stakeTokens(uint256 _amount) public {... */\n    tag_23:\n        /* \"contracts/jurorSelection.sol\":899:900  0 */\n      0x00\n        /* \"contracts/jurorSelection.sol\":889:896  _amount */\n      dup2\n        /* \"contracts/jurorSelection.sol\":889:900  _amount > 0 */\n      gt\n        /* \"contracts/jurorSelection.sol\":881:937  require(_amount > 0, \"Amount must be greater than zero\") */\n      tag_43\n      jumpi\n      mload(0x40)\n      0x08c379a000000000000000000000000000000000000000000000000000000000\n      dup2\n      mstore\n      0x04\n      add\n      tag_44\n      swap1\n      tag_45\n      jump\t// in\n    tag_44:\n      mload(0x40)\n      dup1\n      swap2\n      sub\n      swap1\n      revert\n    tag_43:\n        /* \"contracts/jurorSelection.sol\":948:958  grullToken */\n      0x01\n      0x00\n      swap1\n      sload\n      swap1\n      0x0100\n      exp\n      swap1\n      div\n      0xffffffffffffffffffffffffffffffffffffffff\n      and\n        /* \"contracts/jurorSelection.sol\":948:971  grullToken.transferFrom */\n      0xffffffffffffffffffffffffffffffffffffffff\n      and\n      0x23b872dd\n        /* \"contracts/jurorSelection.sol\":972:982  msg.sender */\n      caller\n        /* \"contracts/jurorSelection.sol\":992:996  this */\n      address\n        /* \"contracts/jurorSelection.sol\":999:1006  _amount */\n      dup5\n        /* \"contracts/jurorSelection.sol\":948:1007  grullToken.transferFrom(msg.sender, address(this), _amount) */\n      mload(0x40)\n      dup5\n      0xffffffff\n      and\n      0xe0\n      shl\n      dup2\n      mstore\n      0x04\n      add\n      tag_46\n      swap4\n      swap3\n      swap2\n      swap1\n      tag_47\n      jump\t// in\n    tag_46:\n      0x20\n      mload(0x40)\n      dup1\n      dup4\n      sub\n      dup2\n      0x00\n      dup8\n      gas\n      call\n      iszero\n      dup1\n      iszero\n      tag_49\n      jumpi\n      returndatasize\n      0x00\n      dup1\n      returndatacopy\n      revert(0x00, returndatasize)\n    tag_49:\n      pop\n      pop\n      pop\n      pop\n      mload(0x40)\n      returndatasize\n      not(0x1f)\n      0x1f\n      dup3\n      add\n      and\n      dup3\n      add\n      dup1\n      0x40\n      mstore\n      pop\n      dup2\n      add\n      swap1\n      tag_50\n      swap2\n      swap1\n      tag_51\n      jump\t// in\n    tag_50:\n      pop\n        /* \"contracts/jurorSelection.sol\":1040:1047  _amount */\n      dup1\n        /* \"contracts/jurorSelection.sol\":1018:1024  stakes */\n      0x02\n        /* \"contracts/jurorSelection.sol\":1018:1036  stakes[msg.sender] */\n      0x00\n        /* \"contracts/jurorSelection.sol\":1025:1035  msg.sender */\n      caller\n        /* \"contracts/jurorSelection.sol\":1018:1036  stakes[msg.sender] */\n      0xffffffffffffffffffffffffffffffffffffffff\n      and\n      0xffffffffffffffffffffffffffffffffffffffff\n      and\n      dup2\n      mstore\n      0x20\n      add\n      swap1\n      dup2\n      mstore\n      0x20\n      add\n      0x00\n      keccak256\n      0x00\n        /* \"contracts/jurorSelection.sol\":1018:1047  stakes[msg.sender] += _amount */\n      dup3\n      dup3\n      sload\n      tag_52\n      swap2\n      swap1\n      tag_53\n      jump\t// in\n    tag_52:\n      swap3\n      pop\n      pop\n      dup2\n      swap1\n      sstore\n      pop\n        /* \"contracts/jurorSelection.sol\":1058:1064  jurors */\n      0x03\n        /* \"contracts/jurorSelection.sol\":1070:1080  msg.sender */\n      caller\n        /* \"contracts/jurorSelection.sol\":1058:1081  jurors.push(msg.sender) */\n      swap1\n      dup1\n      0x01\n      dup2\n      sload\n      add\n      dup1\n      dup3\n      sstore\n      dup1\n      swap2\n      pop\n      pop\n      0x01\n      swap1\n      sub\n      swap1\n      0x00\n      mstore\n      keccak256(0x00, 0x20)\n      add\n      0x00\n      swap1\n      swap2\n      swap1\n      swap2\n      swap1\n      swap2\n      0x0100\n      exp\n      dup2\n      sload\n      dup2\n      0xffffffffffffffffffffffffffffffffffffffff\n      mul\n      not\n      and\n      swap1\n      dup4\n      0xffffffffffffffffffffffffffffffffffffffff\n      and\n      mul\n      or\n      swap1\n      sstore\n      pop\n        /* \"contracts/jurorSelection.sol\":825:1089  function stakeTokens(uint256 _amount) public {... */\n      pop\n      jump\t// out\n        /* \"contracts/jurorSelection.sol\":311:334  address[] public jurors */\n    tag_26:\n      0x03\n      dup2\n      dup2\n      sload\n      dup2\n      lt\n      tag_55\n      jumpi\n      0x00\n      dup1\n      revert\n    tag_55:\n      swap1\n      0x00\n      mstore\n      keccak256(0x00, 0x20)\n      add\n      0x00\n      swap2\n      pop\n      sload\n      swap1\n      0x0100\n      exp\n      swap1\n      div\n      0xffffffffffffffffffffffffffffffffffffffff\n      and\n      dup2\n      jump\t// out\n        /* \"contracts/jurorSelection.sol\":1097:1365  function selectJurors(uint256 _numJurors) public returns (bytes32) {... */\n    tag_31:\n        /* \"contracts/jurorSelection.sol\":1155:1162  bytes32 */\n      0x00\n        /* \"contracts/jurorSelection.sol\":1216:1219  fee */\n      sload(0x05)\n        /* \"contracts/jurorSelection.sol\":1183:1187  LINK */\n      immutable(\"0xb2219b801710730437d0358146c829b62297a059eceaa0b40b27aea2daecf595\")\n        /* \"contracts/jurorSelection.sol\":1183:1197  LINK.balanceOf */\n      0xffffffffffffffffffffffffffffffffffffffff\n      and\n      0x70a08231\n        /* \"contracts/jurorSelection.sol\":1206:1210  this */\n      address\n        /* \"contracts/jurorSelection.sol\":1183:1212  LINK.balanceOf(address(this)) */\n      mload(0x40)\n      dup3\n      0xffffffff\n      and\n      0xe0\n      shl\n      dup2\n      mstore\n      0x04\n      add\n      tag_58\n      swap2\n      swap1\n      tag_28\n      jump\t// in\n    tag_58:\n      0x20\n      mload(0x40)\n      dup1\n      dup4\n      sub\n      dup2\n      dup7\n      gas\n      staticcall\n      iszero\n      dup1\n      iszero\n      tag_60\n      jumpi\n      returndatasize\n      0x00\n      dup1\n      returndatacopy\n      revert(0x00, returndatasize)\n    tag_60:\n      pop\n      pop\n      pop\n      pop\n      mload(0x40)\n      returndatasize\n      not(0x1f)\n      0x1f\n      dup3\n      add\n      and\n      dup3\n      add\n      dup1\n      0x40\n      mstore\n      pop\n      dup2\n      add\n      swap1\n      tag_61\n      swap2\n      swap1\n      tag_62\n      jump\t// in\n    tag_61:\n        /* \"contracts/jurorSelection.sol\":1183:1219  LINK.balanceOf(address(this)) >= fee */\n      lt\n      iszero\n        /* \"contracts/jurorSelection.sol\":1175:1267  require(LINK.balanceOf(address(this)) >= fee, \"Not enough LINK - fill contract with faucet\") */\n      tag_63\n      jumpi\n      mload(0x40)\n      0x08c379a000000000000000000000000000000000000000000000000000000000\n      dup2\n      mstore\n      0x04\n      add\n      tag_64\n      swap1\n      tag_65\n      jump\t// in\n    tag_64:\n      mload(0x40)\n      dup1\n      swap2\n      sub\n      swap1\n      revert\n    tag_63:\n        /* \"contracts/jurorSelection.sol\":1298:1308  _numJurors */\n      dup2\n        /* \"contracts/jurorSelection.sol\":1278:1295  numJurorsToSelect */\n      0x06\n        /* \"contracts/jurorSelection.sol\":1278:1308  numJurorsToSelect = _numJurors */\n      dup2\n      swap1\n      sstore\n      pop\n        /* \"contracts/jurorSelection.sol\":1326:1357  requestRandomness(keyHash, fee) */\n      tag_66\n        /* \"contracts/jurorSelection.sol\":1344:1351  keyHash */\n      sload(0x04)\n        /* \"contracts/jurorSelection.sol\":1353:1356  fee */\n      sload(0x05)\n        /* \"contracts/jurorSelection.sol\":1326:1343  requestRandomness */\n      tag_67\n        /* \"contracts/jurorSelection.sol\":1326:1357  requestRandomness(keyHash, fee) */\n      jump\t// in\n    tag_66:\n        /* \"contracts/jurorSelection.sol\":1319:1357  return requestRandomness(keyHash, fee) */\n      swap1\n      pop\n        /* \"contracts/jurorSelection.sol\":1097:1365  function selectJurors(uint256 _numJurors) public returns (bytes32) {... */\n      swap2\n      swap1\n      pop\n      jump\t// out\n        /* \"@chainlink/contracts/src/v0.8/VRFConsumerBase.sol\":9576:9783  function rawFulfillRandomness(bytes32 requestId, uint256 randomness) external {... */\n    tag_37:\n        /* \"@chainlink/contracts/src/v0.8/VRFConsumerBase.sol\":9682:9696  vrfCoordinator */\n      immutable(\"0x6dbb33232cde86c8a04f90a8bed9fc1c5ef520188a14538d96eb100d69bc2a94\")\n        /* \"@chainlink/contracts/src/v0.8/VRFConsumerBase.sol\":9668:9696  msg.sender == vrfCoordinator */\n      0xffffffffffffffffffffffffffffffffffffffff\n      and\n        /* \"@chainlink/contracts/src/v0.8/VRFConsumerBase.sol\":9668:9678  msg.sender */\n      caller\n        /* \"@chainlink/contracts/src/v0.8/VRFConsumerBase.sol\":9668:9696  msg.sender == vrfCoordinator */\n      0xffffffffffffffffffffffffffffffffffffffff\n      and\n      eq\n        /* \"@chainlink/contracts/src/v0.8/VRFConsumerBase.sol\":9660:9732  require(msg.sender == vrfCoordinator, \"Only VRFCoordinator can fulfill\") */\n      tag_69\n      jumpi\n      mload(0x40)\n      0x08c379a000000000000000000000000000000000000000000000000000000000\n      dup2\n      mstore\n      0x04\n      add\n      tag_70\n      swap1\n      tag_71\n      jump\t// in\n    tag_70:\n      mload(0x40)\n      dup1\n      swap2\n      sub\n      swap1\n      revert\n    tag_69:\n        /* \"@chainlink/contracts/src/v0.8/VRFConsumerBase.sol\":9738:9778  fulfillRandomness(requestId, randomness) */\n      tag_72\n        /* \"@chainlink/contracts/src/v0.8/VRFConsumerBase.sol\":9756:9765  requestId */\n      dup3\n        /* \"@chainlink/contracts/src/v0.8/VRFConsumerBase.sol\":9767:9777  randomness */\n      dup3\n        /* \"@chainlink/contracts/src/v0.8/VRFConsumerBase.sol\":9738:9755  fulfillRandomness */\n      tag_73\n        /* \"@chainlink/contracts/src/v0.8/VRFConsumerBase.sol\":9738:9778  fulfillRandomness(requestId, randomness) */\n      jump\t// in\n    tag_72:\n        /* \"@chainlink/contracts/src/v0.8/VRFConsumerBase.sol\":9576:9783  function rawFulfillRandomness(bytes32 requestId, uint256 randomness) external {... */\n      pop\n      pop\n      jump\t// out\n        /* \"contracts/jurorSelection.sol\":232:256  IERC20 public grullToken */\n    tag_39:\n      0x01\n      0x00\n      swap1\n      sload\n      swap1\n      0x0100\n      exp\n      swap1\n      div\n      0xffffffffffffffffffffffffffffffffffffffff\n      and\n      dup2\n      jump\t// out\n        /* \"@chainlink/contracts/src/v0.8/VRFConsumerBase.sol\":7732:8752  function requestRandomness(bytes32 _keyHash, uint256 _fee) internal returns (bytes32 requestId) {... */\n    tag_67:\n        /* \"@chainlink/contracts/src/v0.8/VRFConsumerBase.sol\":7809:7826  bytes32 requestId */\n      0x00\n        /* \"@chainlink/contracts/src/v0.8/VRFConsumerBase.sol\":7834:7838  LINK */\n      immutable(\"0xb2219b801710730437d0358146c829b62297a059eceaa0b40b27aea2daecf595\")\n        /* \"@chainlink/contracts/src/v0.8/VRFConsumerBase.sol\":7834:7854  LINK.transferAndCall */\n      0xffffffffffffffffffffffffffffffffffffffff\n      and\n      0x4000aea0\n        /* \"@chainlink/contracts/src/v0.8/VRFConsumerBase.sol\":7855:7869  vrfCoordinator */\n      immutable(\"0x6dbb33232cde86c8a04f90a8bed9fc1c5ef520188a14538d96eb100d69bc2a94\")\n        /* \"@chainlink/contracts/src/v0.8/VRFConsumerBase.sol\":7871:7875  _fee */\n      dup5\n        /* \"@chainlink/contracts/src/v0.8/VRFConsumerBase.sol\":7888:7896  _keyHash */\n      dup7\n        /* \"@chainlink/contracts/src/v0.8/VRFConsumerBase.sol\":6589:6590  0 */\n      0x00\n        /* \"@chainlink/contracts/src/v0.8/VRFConsumerBase.sol\":7877:7920  abi.encode(_keyHash, USER_SEED_PLACEHOLDER) */\n      add(0x20, mload(0x40))\n      tag_75\n      swap3\n      swap2\n      swap1\n      tag_76\n      jump\t// in\n    tag_75:\n      mload(0x40)\n      0x20\n      dup2\n      dup4\n      sub\n      sub\n      dup2\n      mstore\n      swap1\n      0x40\n      mstore\n        /* \"@chainlink/contracts/src/v0.8/VRFConsumerBase.sol\":7834:7921  LINK.transferAndCall(vrfCoordinator, _fee, abi.encode(_keyHash, USER_SEED_PLACEHOLDER)) */\n      mload(0x40)\n      dup5\n      0xffffffff\n      and\n      0xe0\n      shl\n      dup2\n      mstore\n      0x04\n      add\n      tag_77\n      swap4\n      swap3\n      swap2\n      swap1\n      tag_78\n      jump\t// in\n    tag_77:\n      0x20\n      mload(0x40)\n      dup1\n      dup4\n      sub\n      dup2\n      0x00\n      dup8\n      gas\n      call\n      iszero\n      dup1\n      iszero\n      tag_80\n      jumpi\n      returndatasize\n      0x00\n      dup1\n      returndatacopy\n      revert(0x00, returndatasize)\n    tag_80:\n      pop\n      pop\n      pop\n      pop\n      mload(0x40)\n      returndatasize\n      not(0x1f)\n      0x1f\n      dup3\n      add\n      and\n      dup3\n      add\n      dup1\n      0x40\n      mstore\n      pop\n      dup2\n      add\n      swap1\n      tag_81\n      swap2\n      swap1\n      tag_51\n      jump\t// in\n    tag_81:\n      pop\n        /* \"@chainlink/contracts/src/v0.8/VRFConsumerBase.sol\":8152:8167  uint256 vRFSeed */\n      0x00\n        /* \"@chainlink/contracts/src/v0.8/VRFConsumerBase.sol\":8170:8252  makeVRFInputSeed(_keyHash, USER_SEED_PLACEHOLDER, address(this), nonces[_keyHash]) */\n      tag_82\n        /* \"@chainlink/contracts/src/v0.8/VRFConsumerBase.sol\":8187:8195  _keyHash */\n      dup5\n        /* \"@chainlink/contracts/src/v0.8/VRFConsumerBase.sol\":6589:6590  0 */\n      0x00\n        /* \"@chainlink/contracts/src/v0.8/VRFConsumerBase.sol\":8228:8232  this */\n      address\n        /* \"@chainlink/contracts/src/v0.8/VRFConsumerBase.sol\":8235:8241  nonces */\n      0x00\n        /* \"@chainlink/contracts/src/v0.8/VRFConsumerBase.sol\":8235:8251  nonces[_keyHash] */\n      dup1\n        /* \"@chainlink/contracts/src/v0.8/VRFConsumerBase.sol\":8242:8250  _keyHash */\n      dup10\n        /* \"@chainlink/contracts/src/v0.8/VRFConsumerBase.sol\":8235:8251  nonces[_keyHash] */\n      dup2\n      mstore\n      0x20\n      add\n      swap1\n      dup2\n      mstore\n      0x20\n      add\n      0x00\n      keccak256\n      sload\n        /* \"@chainlink/contracts/src/v0.8/VRFConsumerBase.sol\":8170:8186  makeVRFInputSeed */\n      tag_83\n        /* \"@chainlink/contracts/src/v0.8/VRFConsumerBase.sol\":8170:8252  makeVRFInputSeed(_keyHash, USER_SEED_PLACEHOLDER, address(this), nonces[_keyHash]) */\n      jump\t// in\n    tag_82:\n        /* \"@chainlink/contracts/src/v0.8/VRFConsumerBase.sol\":8152:8252  uint256 vRFSeed = makeVRFInputSeed(_keyHash, USER_SEED_PLACEHOLDER, address(this), nonces[_keyHash]) */\n      swap1\n      pop\n        /* \"@chainlink/contracts/src/v0.8/VRFConsumerBase.sol\":8701:8702  1 */\n      0x01\n        /* \"@chainlink/contracts/src/v0.8/VRFConsumerBase.sol\":8682:8688  nonces */\n      0x00\n        /* \"@chainlink/contracts/src/v0.8/VRFConsumerBase.sol\":8682:8698  nonces[_keyHash] */\n      dup1\n        /* \"@chainlink/contracts/src/v0.8/VRFConsumerBase.sol\":8689:8697  _keyHash */\n      dup7\n        /* \"@chainlink/contracts/src/v0.8/VRFConsumerBase.sol\":8682:8698  nonces[_keyHash] */\n      dup2\n      mstore\n      0x20\n      add\n      swap1\n      dup2\n      mstore\n      0x20\n      add\n      0x00\n      keccak256\n      sload\n        /* \"@chainlink/contracts/src/v0.8/VRFConsumerBase.sol\":8682:8702  nonces[_keyHash] + 1 */\n      tag_84\n      swap2\n      swap1\n      tag_53\n      jump\t// in\n    tag_84:\n        /* \"@chainlink/contracts/src/v0.8/VRFConsumerBase.sol\":8663:8669  nonces */\n      0x00\n        /* \"@chainlink/contracts/src/v0.8/VRFConsumerBase.sol\":8663:8679  nonces[_keyHash] */\n      dup1\n        /* \"@chainlink/contracts/src/v0.8/VRFConsumerBase.sol\":8670:8678  _keyHash */\n      dup7\n        /* \"@chainlink/contracts/src/v0.8/VRFConsumerBase.sol\":8663:8679  nonces[_keyHash] */\n      dup2\n      mstore\n      0x20\n      add\n      swap1\n      dup2\n      mstore\n      0x20\n      add\n      0x00\n      keccak256\n        /* \"@chainlink/contracts/src/v0.8/VRFConsumerBase.sol\":8663:8702  nonces[_keyHash] = nonces[_keyHash] + 1 */\n      dup2\n      swap1\n      sstore\n      pop\n        /* \"@chainlink/contracts/src/v0.8/VRFConsumerBase.sol\":8715:8747  makeRequestId(_keyHash, vRFSeed) */\n      tag_85\n        /* \"@chainlink/contracts/src/v0.8/VRFConsumerBase.sol\":8729:8737  _keyHash */\n      dup5\n        /* \"@chainlink/contracts/src/v0.8/VRFConsumerBase.sol\":8739:8746  vRFSeed */\n      dup3\n        /* \"@chainlink/contracts/src/v0.8/VRFConsumerBase.sol\":8715:8728  makeRequestId */\n      tag_86\n        /* \"@chainlink/contracts/src/v0.8/VRFConsumerBase.sol\":8715:8747  makeRequestId(_keyHash, vRFSeed) */\n      jump\t// in\n    tag_85:\n        /* \"@chainlink/contracts/src/v0.8/VRFConsumerBase.sol\":8708:8747  return makeRequestId(_keyHash, vRFSeed) */\n      swap2\n      pop\n      pop\n        /* \"@chainlink/contracts/src/v0.8/VRFConsumerBase.sol\":7732:8752  function requestRandomness(bytes32 _keyHash, uint256 _fee) internal returns (bytes32 requestId) {... */\n      swap3\n      swap2\n      pop\n      pop\n      jump\t// out\n        /* \"contracts/jurorSelection.sol\":1373:1826  function fulfillRandomness(bytes32, uint256 randomness) internal override {... */\n    tag_73:\n        /* \"contracts/jurorSelection.sol\":1458:1489  address[] memory selectedJurors */\n      0x00\n        /* \"contracts/jurorSelection.sol\":1506:1523  numJurorsToSelect */\n      sload(0x06)\n        /* \"contracts/jurorSelection.sol\":1492:1524  new address[](numJurorsToSelect) */\n      0xffffffffffffffff\n      dup2\n      gt\n      iszero\n      tag_88\n      jumpi\n      tag_89\n      tag_90\n      jump\t// in\n    tag_89:\n    tag_88:\n      mload(0x40)\n      swap1\n      dup1\n      dup3\n      mstore\n      dup1\n      0x20\n      mul\n      0x20\n      add\n      dup3\n      add\n      0x40\n      mstore\n      dup1\n      iszero\n      tag_91\n      jumpi\n      dup2\n      0x20\n      add\n      0x20\n      dup3\n      mul\n      dup1\n      calldatasize\n      dup4\n      calldatacopy\n      dup1\n      dup3\n      add\n      swap2\n      pop\n      pop\n      swap1\n      pop\n    tag_91:\n      pop\n        /* \"contracts/jurorSelection.sol\":1458:1524  address[] memory selectedJurors = new address[](numJurorsToSelect) */\n      swap1\n      pop\n        /* \"contracts/jurorSelection.sol\":1540:1549  uint256 i */\n      0x00\n        /* \"contracts/jurorSelection.sol\":1535:1773  for (uint256 i = 0; i < numJurorsToSelect; i++) {... */\n    tag_92:\n        /* \"contracts/jurorSelection.sol\":1559:1576  numJurorsToSelect */\n      sload(0x06)\n        /* \"contracts/jurorSelection.sol\":1555:1556  i */\n      dup2\n        /* \"contracts/jurorSelection.sol\":1555:1576  i < numJurorsToSelect */\n      lt\n        /* \"contracts/jurorSelection.sol\":1535:1773  for (uint256 i = 0; i < numJurorsToSelect; i++) {... */\n      iszero\n      tag_93\n      jumpi\n        /* \"contracts/jurorSelection.sol\":1598:1611  uint256 index */\n      0x00\n        /* \"contracts/jurorSelection.sol\":1627:1633  jurors */\n      0x03\n        /* \"contracts/jurorSelection.sol\":1627:1640  jurors.length */\n      dup1\n      sload\n      swap1\n      pop\n        /* \"contracts/jurorSelection.sol\":1614:1624  randomness */\n      dup5\n        /* \"contracts/jurorSelection.sol\":1614:1640  randomness % jurors.length */\n      tag_95\n      swap2\n      swap1\n      tag_96\n      jump\t// in\n    tag_95:\n        /* \"contracts/jurorSelection.sol\":1598:1640  uint256 index = randomness % jurors.length */\n      swap1\n      pop\n        /* \"contracts/jurorSelection.sol\":1675:1681  jurors */\n      0x03\n        /* \"contracts/jurorSelection.sol\":1682:1687  index */\n      dup2\n        /* \"contracts/jurorSelection.sol\":1675:1688  jurors[index] */\n      dup2\n      sload\n      dup2\n      lt\n      tag_97\n      jumpi\n      tag_98\n      tag_99\n      jump\t// in\n    tag_98:\n    tag_97:\n      swap1\n      0x00\n      mstore\n      keccak256(0x00, 0x20)\n      add\n      0x00\n      swap1\n      sload\n      swap1\n      0x0100\n      exp\n      swap1\n      div\n      0xffffffffffffffffffffffffffffffffffffffff\n      and\n        /* \"contracts/jurorSelection.sol\":1655:1669  selectedJurors */\n      dup4\n        /* \"contracts/jurorSelection.sol\":1670:1671  i */\n      dup4\n        /* \"contracts/jurorSelection.sol\":1655:1672  selectedJurors[i] */\n      dup2\n      mload\n      dup2\n      lt\n      tag_101\n      jumpi\n      tag_102\n      tag_99\n      jump\t// in\n    tag_102:\n    tag_101:\n      0x20\n      mul\n      0x20\n      add\n      add\n        /* \"contracts/jurorSelection.sol\":1655:1688  selectedJurors[i] = jurors[index] */\n      swap1\n      0xffffffffffffffffffffffffffffffffffffffff\n      and\n      swap1\n      dup2\n      0xffffffffffffffffffffffffffffffffffffffff\n      and\n      dup2\n      mstore\n      pop\n      pop\n        /* \"contracts/jurorSelection.sol\":1745:1755  randomness */\n      dup4\n        /* \"contracts/jurorSelection.sol\":1757:1758  i */\n      dup3\n        /* \"contracts/jurorSelection.sol\":1734:1759  abi.encode(randomness, i) */\n      add(0x20, mload(0x40))\n      tag_103\n      swap3\n      swap2\n      swap1\n      tag_104\n      jump\t// in\n    tag_103:\n      mload(0x40)\n      0x20\n      dup2\n      dup4\n      sub\n      sub\n      dup2\n      mstore\n      swap1\n      0x40\n      mstore\n        /* \"contracts/jurorSelection.sol\":1724:1760  keccak256(abi.encode(randomness, i)) */\n      dup1\n      mload\n      swap1\n      0x20\n      add\n      keccak256\n        /* \"contracts/jurorSelection.sol\":1716:1761  uint256(keccak256(abi.encode(randomness, i))) */\n      0x00\n      shr\n        /* \"contracts/jurorSelection.sol\":1703:1761  randomness = uint256(keccak256(abi.encode(randomness, i))) */\n      swap4\n      pop\n        /* \"contracts/jurorSelection.sol\":1583:1773  {... */\n      pop\n        /* \"contracts/jurorSelection.sol\":1578:1581  i++ */\n      dup1\n      dup1\n      0x01\n      add\n      swap2\n      pop\n      pop\n        /* \"contracts/jurorSelection.sol\":1535:1773  for (uint256 i = 0; i < numJurorsToSelect; i++) {... */\n      jump(tag_92)\n    tag_93:\n      pop\n        /* \"contracts/jurorSelection.sol\":1788:1818  JurorsSelected(selectedJurors) */\n      0xc97825e5374b835cdcd76e5da76fc12b913fbb7c548601763fa1abd26054f083\n        /* \"contracts/jurorSelection.sol\":1803:1817  selectedJurors */\n      dup2\n        /* \"contracts/jurorSelection.sol\":1788:1818  JurorsSelected(selectedJurors) */\n      mload(0x40)\n      tag_105\n      swap2\n      swap1\n      tag_106\n      jump\t// in\n    tag_105:\n      mload(0x40)\n      dup1\n      swap2\n      sub\n      swap1\n      log1\n        /* \"contracts/jurorSelection.sol\":1447:1826  {... */\n      pop\n        /* \"contracts/jurorSelection.sol\":1373:1826  function fulfillRandomness(bytes32, uint256 randomness) internal override {... */\n      pop\n      pop\n      jump\t// out\n        /* \"@chainlink/contracts/src/v0.8/VRFRequestIDBase.sol\":796:1036  function makeVRFInputSeed(... */\n    tag_83:\n        /* \"@chainlink/contracts/src/v0.8/VRFRequestIDBase.sol\":938:945  uint256 */\n      0x00\n        /* \"@chainlink/contracts/src/v0.8/VRFRequestIDBase.sol\":989:997  _keyHash */\n      dup5\n        /* \"@chainlink/contracts/src/v0.8/VRFRequestIDBase.sol\":999:1008  _userSeed */\n      dup5\n        /* \"@chainlink/contracts/src/v0.8/VRFRequestIDBase.sol\":1010:1020  _requester */\n      dup5\n        /* \"@chainlink/contracts/src/v0.8/VRFRequestIDBase.sol\":1022:1028  _nonce */\n      dup5\n        /* \"@chainlink/contracts/src/v0.8/VRFRequestIDBase.sol\":978:1029  abi.encode(_keyHash, _userSeed, _requester, _nonce) */\n      add(0x20, mload(0x40))\n      tag_108\n      swap5\n      swap4\n      swap3\n      swap2\n      swap1\n      tag_109\n      jump\t// in\n    tag_108:\n      mload(0x40)\n      0x20\n      dup2\n      dup4\n      sub\n      sub\n      dup2\n      mstore\n      swap1\n      0x40\n      mstore\n        /* \"@chainlink/contracts/src/v0.8/VRFRequestIDBase.sol\":968:1030  keccak256(abi.encode(_keyHash, _userSeed, _requester, _nonce)) */\n      dup1\n      mload\n      swap1\n      0x20\n      add\n      keccak256\n        /* \"@chainlink/contracts/src/v0.8/VRFRequestIDBase.sol\":960:1031  uint256(keccak256(abi.encode(_keyHash, _userSeed, _requester, _nonce))) */\n      0x00\n      shr\n        /* \"@chainlink/contracts/src/v0.8/VRFRequestIDBase.sol\":953:1031  return uint256(keccak256(abi.encode(_keyHash, _userSeed, _requester, _nonce))) */\n      swap1\n      pop\n        /* \"@chainlink/contracts/src/v0.8/VRFRequestIDBase.sol\":796:1036  function makeVRFInputSeed(... */\n      swap5\n      swap4\n      pop\n      pop\n      pop\n      pop\n      jump\t// out\n        /* \"@chainlink/contracts/src/v0.8/VRFRequestIDBase.sol\":1416:1582  function makeRequestId(bytes32 _keyHash, uint256 _vRFInputSeed) internal pure returns (bytes32) {... */\n    tag_86:\n        /* \"@chainlink/contracts/src/v0.8/VRFRequestIDBase.sol\":1503:1510  bytes32 */\n      0x00\n        /* \"@chainlink/contracts/src/v0.8/VRFRequestIDBase.sol\":1552:1560  _keyHash */\n      dup3\n        /* \"@chainlink/contracts/src/v0.8/VRFRequestIDBase.sol\":1562:1575  _vRFInputSeed */\n      dup3\n        /* \"@chainlink/contracts/src/v0.8/VRFRequestIDBase.sol\":1535:1576  abi.encodePacked(_keyHash, _vRFInputSeed) */\n      add(0x20, mload(0x40))\n      tag_111\n      swap3\n      swap2\n      swap1\n      tag_112\n      jump\t// in\n    tag_111:\n      mload(0x40)\n      0x20\n      dup2\n      dup4\n      sub\n      sub\n      dup2\n      mstore\n      swap1\n      0x40\n      mstore\n        /* \"@chainlink/contracts/src/v0.8/VRFRequestIDBase.sol\":1525:1577  keccak256(abi.encodePacked(_keyHash, _vRFInputSeed)) */\n      dup1\n      mload\n      swap1\n      0x20\n      add\n      keccak256\n        /* \"@chainlink/contracts/src/v0.8/VRFRequestIDBase.sol\":1518:1577  return keccak256(abi.encodePacked(_keyHash, _vRFInputSeed)) */\n      swap1\n      pop\n        /* \"@chainlink/contracts/src/v0.8/VRFRequestIDBase.sol\":1416:1582  function makeRequestId(bytes32 _keyHash, uint256 _vRFInputSeed) internal pure returns (bytes32) {... */\n      swap3\n      swap2\n      pop\n      pop\n      jump\t// out\n        /* \"#utility.yul\":88:205   */\n    tag_114:\n        /* \"#utility.yul\":197:198   */\n      0x00\n        /* \"#utility.yul\":194:195   */\n      dup1\n        /* \"#utility.yul\":187:199   */\n      revert\n        /* \"#utility.yul\":334:460   */\n    tag_116:\n        /* \"#utility.yul\":371:378   */\n      0x00\n        /* \"#utility.yul\":411:453   */\n      0xffffffffffffffffffffffffffffffffffffffff\n        /* \"#utility.yul\":404:409   */\n      dup3\n        /* \"#utility.yul\":400:454   */\n      and\n        /* \"#utility.yul\":389:454   */\n      swap1\n      pop\n        /* \"#utility.yul\":334:460   */\n      swap2\n      swap1\n      pop\n      jump\t// out\n        /* \"#utility.yul\":466:562   */\n    tag_117:\n        /* \"#utility.yul\":503:510   */\n      0x00\n        /* \"#utility.yul\":532:556   */\n      tag_169\n        /* \"#utility.yul\":550:555   */\n      dup3\n        /* \"#utility.yul\":532:556   */\n      tag_116\n      jump\t// in\n    tag_169:\n        /* \"#utility.yul\":521:556   */\n      swap1\n      pop\n        /* \"#utility.yul\":466:562   */\n      swap2\n      swap1\n      pop\n      jump\t// out\n        /* \"#utility.yul\":568:690   */\n    tag_118:\n        /* \"#utility.yul\":641:665   */\n      tag_171\n        /* \"#utility.yul\":659:664   */\n      dup2\n        /* \"#utility.yul\":641:665   */\n      tag_117\n      jump\t// in\n    tag_171:\n        /* \"#utility.yul\":634:639   */\n      dup2\n        /* \"#utility.yul\":631:666   */\n      eq\n        /* \"#utility.yul\":621:684   */\n      tag_172\n      jumpi\n        /* \"#utility.yul\":680:681   */\n      0x00\n        /* \"#utility.yul\":677:678   */\n      dup1\n        /* \"#utility.yul\":670:682   */\n      revert\n        /* \"#utility.yul\":621:684   */\n    tag_172:\n        /* \"#utility.yul\":568:690   */\n      pop\n      jump\t// out\n        /* \"#utility.yul\":696:835   */\n    tag_119:\n        /* \"#utility.yul\":742:747   */\n      0x00\n        /* \"#utility.yul\":780:786   */\n      dup2\n        /* \"#utility.yul\":767:787   */\n      calldataload\n        /* \"#utility.yul\":758:787   */\n      swap1\n      pop\n        /* \"#utility.yul\":796:829   */\n      tag_174\n        /* \"#utility.yul\":823:828   */\n      dup2\n        /* \"#utility.yul\":796:829   */\n      tag_118\n      jump\t// in\n    tag_174:\n        /* \"#utility.yul\":696:835   */\n      swap3\n      swap2\n      pop\n      pop\n      jump\t// out\n        /* \"#utility.yul\":841:1170   */\n    tag_13:\n        /* \"#utility.yul\":900:906   */\n      0x00\n        /* \"#utility.yul\":949:951   */\n      0x20\n        /* \"#utility.yul\":937:946   */\n      dup3\n        /* \"#utility.yul\":928:935   */\n      dup5\n        /* \"#utility.yul\":924:947   */\n      sub\n        /* \"#utility.yul\":920:952   */\n      slt\n        /* \"#utility.yul\":917:1036   */\n      iszero\n      tag_176\n      jumpi\n        /* \"#utility.yul\":955:1034   */\n      tag_177\n      tag_114\n      jump\t// in\n    tag_177:\n        /* \"#utility.yul\":917:1036   */\n    tag_176:\n        /* \"#utility.yul\":1075:1076   */\n      0x00\n        /* \"#utility.yul\":1100:1153   */\n      tag_178\n        /* \"#utility.yul\":1145:1152   */\n      dup5\n        /* \"#utility.yul\":1136:1142   */\n      dup3\n        /* \"#utility.yul\":1125:1134   */\n      dup6\n        /* \"#utility.yul\":1121:1143   */\n      add\n        /* \"#utility.yul\":1100:1153   */\n      tag_119\n      jump\t// in\n    tag_178:\n        /* \"#utility.yul\":1090:1153   */\n      swap2\n      pop\n        /* \"#utility.yul\":1046:1163   */\n      pop\n        /* \"#utility.yul\":841:1170   */\n      swap3\n      swap2\n      pop\n      pop\n      jump\t// out\n        /* \"#utility.yul\":1176:1253   */\n    tag_120:\n        /* \"#utility.yul\":1213:1220   */\n      0x00\n        /* \"#utility.yul\":1242:1247   */\n      dup2\n        /* \"#utility.yul\":1231:1247   */\n      swap1\n      pop\n        /* \"#utility.yul\":1176:1253   */\n      swap2\n      swap1\n      pop\n      jump\t// out\n        /* \"#utility.yul\":1259:1377   */\n    tag_121:\n        /* \"#utility.yul\":1346:1370   */\n      tag_181\n        /* \"#utility.yul\":1364:1369   */\n      dup2\n        /* \"#utility.yul\":1346:1370   */\n      tag_120\n      jump\t// in\n    tag_181:\n        /* \"#utility.yul\":1341:1344   */\n      dup3\n        /* \"#utility.yul\":1334:1371   */\n      mstore\n        /* \"#utility.yul\":1259:1377   */\n      pop\n      pop\n      jump\t// out\n        /* \"#utility.yul\":1383:1605   */\n    tag_16:\n        /* \"#utility.yul\":1476:1480   */\n      0x00\n        /* \"#utility.yul\":1514:1516   */\n      0x20\n        /* \"#utility.yul\":1503:1512   */\n      dup3\n        /* \"#utility.yul\":1499:1517   */\n      add\n        /* \"#utility.yul\":1491:1517   */\n      swap1\n      pop\n        /* \"#utility.yul\":1527:1598   */\n      tag_183\n        /* \"#utility.yul\":1595:1596   */\n      0x00\n        /* \"#utility.yul\":1584:1593   */\n      dup4\n        /* \"#utility.yul\":1580:1597   */\n      add\n        /* \"#utility.yul\":1571:1577   */\n      dup5\n        /* \"#utility.yul\":1527:1598   */\n      tag_121\n      jump\t// in\n    tag_183:\n        /* \"#utility.yul\":1383:1605   */\n      swap3\n      swap2\n      pop\n      pop\n      jump\t// out\n        /* \"#utility.yul\":1611:1733   */\n    tag_122:\n        /* \"#utility.yul\":1684:1708   */\n      tag_185\n        /* \"#utility.yul\":1702:1707   */\n      dup2\n        /* \"#utility.yul\":1684:1708   */\n      tag_120\n      jump\t// in\n    tag_185:\n        /* \"#utility.yul\":1677:1682   */\n      dup2\n        /* \"#utility.yul\":1674:1709   */\n      eq\n        /* \"#utility.yul\":1664:1727   */\n      tag_186\n      jumpi\n        /* \"#utility.yul\":1723:1724   */\n      0x00\n        /* \"#utility.yul\":1720:1721   */\n      dup1\n        /* \"#utility.yul\":1713:1725   */\n      revert\n        /* \"#utility.yul\":1664:1727   */\n    tag_186:\n        /* \"#utility.yul\":1611:1733   */\n      pop\n      jump\t// out\n        /* \"#utility.yul\":1739:1878   */\n    tag_123:\n        /* \"#utility.yul\":1785:1790   */\n      0x00\n        /* \"#utility.yul\":1823:1829   */\n      dup2\n        /* \"#utility.yul\":1810:1830   */\n      calldataload\n        /* \"#utility.yul\":1801:1830   */\n      swap1\n      pop\n        /* \"#utility.yul\":1839:1872   */\n      tag_188\n        /* \"#utility.yul\":1866:1871   */\n      dup2\n        /* \"#utility.yul\":1839:1872   */\n      tag_122\n      jump\t// in\n    tag_188:\n        /* \"#utility.yul\":1739:1878   */\n      swap3\n      swap2\n      pop\n      pop\n      jump\t// out\n        /* \"#utility.yul\":1884:2213   */\n    tag_22:\n        /* \"#utility.yul\":1943:1949   */\n      0x00\n        /* \"#utility.yul\":1992:1994   */\n      0x20\n        /* \"#utility.yul\":1980:1989   */\n      dup3\n        /* \"#utility.yul\":1971:1978   */\n      dup5\n        /* \"#utility.yul\":1967:1990   */\n      sub\n        /* \"#utility.yul\":1963:1995   */\n      slt\n        /* \"#utility.yul\":1960:2079   */\n      iszero\n      tag_190\n      jumpi\n        /* \"#utility.yul\":1998:2077   */\n      tag_191\n      tag_114\n      jump\t// in\n    tag_191:\n        /* \"#utility.yul\":1960:2079   */\n    tag_190:\n        /* \"#utility.yul\":2118:2119   */\n      0x00\n        /* \"#utility.yul\":2143:2196   */\n      tag_192\n        /* \"#utility.yul\":2188:2195   */\n      dup5\n        /* \"#utility.yul\":2179:2185   */\n      dup3\n        /* \"#utility.yul\":2168:2177   */\n      dup6\n        /* \"#utility.yul\":2164:2186   */\n      add\n        /* \"#utility.yul\":2143:2196   */\n      tag_123\n      jump\t// in\n    tag_192:\n        /* \"#utility.yul\":2133:2196   */\n      swap2\n      pop\n        /* \"#utility.yul\":2089:2206   */\n      pop\n        /* \"#utility.yul\":1884:2213   */\n      swap3\n      swap2\n      pop\n      pop\n      jump\t// out\n        /* \"#utility.yul\":2219:2337   */\n    tag_124:\n        /* \"#utility.yul\":2306:2330   */\n      tag_194\n        /* \"#utility.yul\":2324:2329   */\n      dup2\n        /* \"#utility.yul\":2306:2330   */\n      tag_117\n      jump\t// in\n    tag_194:\n        /* \"#utility.yul\":2301:2304   */\n      dup3\n        /* \"#utility.yul\":2294:2331   */\n      mstore\n        /* \"#utility.yul\":2219:2337   */\n      pop\n      pop\n      jump\t// out\n        /* \"#utility.yul\":2343:2565   */\n    tag_28:\n        /* \"#utility.yul\":2436:2440   */\n      0x00\n        /* \"#utility.yul\":2474:2476   */\n      0x20\n        /* \"#utility.yul\":2463:2472   */\n      dup3\n        /* \"#utility.yul\":2459:2477   */\n      add\n        /* \"#utility.yul\":2451:2477   */\n      swap1\n      pop\n        /* \"#utility.yul\":2487:2558   */\n      tag_196\n        /* \"#utility.yul\":2555:2556   */\n      0x00\n        /* \"#utility.yul\":2544:2553   */\n      dup4\n        /* \"#utility.yul\":2540:2557   */\n      add\n        /* \"#utility.yul\":2531:2537   */\n      dup5\n        /* \"#utility.yul\":2487:2558   */\n      tag_124\n      jump\t// in\n    tag_196:\n        /* \"#utility.yul\":2343:2565   */\n      swap3\n      swap2\n      pop\n      pop\n      jump\t// out\n        /* \"#utility.yul\":2571:2648   */\n    tag_125:\n        /* \"#utility.yul\":2608:2615   */\n      0x00\n        /* \"#utility.yul\":2637:2642   */\n      dup2\n        /* \"#utility.yul\":2626:2642   */\n      swap1\n      pop\n        /* \"#utility.yul\":2571:2648   */\n      swap2\n      swap1\n      pop\n      jump\t// out\n        /* \"#utility.yul\":2654:2772   */\n    tag_126:\n        /* \"#utility.yul\":2741:2765   */\n      tag_199\n        /* \"#utility.yul\":2759:2764   */\n      dup2\n        /* \"#utility.yul\":2741:2765   */\n      tag_125\n      jump\t// in\n    tag_199:\n        /* \"#utility.yul\":2736:2739   */\n      dup3\n        /* \"#utility.yul\":2729:2766   */\n      mstore\n        /* \"#utility.yul\":2654:2772   */\n      pop\n      pop\n      jump\t// out\n        /* \"#utility.yul\":2778:3000   */\n    tag_33:\n        /* \"#utility.yul\":2871:2875   */\n      0x00\n        /* \"#utility.yul\":2909:2911   */\n      0x20\n        /* \"#utility.yul\":2898:2907   */\n      dup3\n        /* \"#utility.yul\":2894:2912   */\n      add\n        /* \"#utility.yul\":2886:2912   */\n      swap1\n      pop\n        /* \"#utility.yul\":2922:2993   */\n      tag_201\n        /* \"#utility.yul\":2990:2991   */\n      0x00\n        /* \"#utility.yul\":2979:2988   */\n      dup4\n        /* \"#utility.yul\":2975:2992   */\n      add\n        /* \"#utility.yul\":2966:2972   */\n      dup5\n        /* \"#utility.yul\":2922:2993   */\n      tag_126\n      jump\t// in\n    tag_201:\n        /* \"#utility.yul\":2778:3000   */\n      swap3\n      swap2\n      pop\n      pop\n      jump\t// out\n        /* \"#utility.yul\":3006:3128   */\n    tag_127:\n        /* \"#utility.yul\":3079:3103   */\n      tag_203\n        /* \"#utility.yul\":3097:3102   */\n      dup2\n        /* \"#utility.yul\":3079:3103   */\n      tag_125\n      jump\t// in\n    tag_203:\n        /* \"#utility.yul\":3072:3077   */\n      dup2\n        /* \"#utility.yul\":3069:3104   */\n      eq\n        /* \"#utility.yul\":3059:3122   */\n      tag_204\n      jumpi\n        /* \"#utility.yul\":3118:3119   */\n      0x00\n        /* \"#utility.yul\":3115:3116   */\n      dup1\n        /* \"#utility.yul\":3108:3120   */\n      revert\n        /* \"#utility.yul\":3059:3122   */\n    tag_204:\n        /* \"#utility.yul\":3006:3128   */\n      pop\n      jump\t// out\n        /* \"#utility.yul\":3134:3273   */\n    tag_128:\n        /* \"#utility.yul\":3180:3185   */\n      0x00\n        /* \"#utility.yul\":3218:3224   */\n      dup2\n        /* \"#utility.yul\":3205:3225   */\n      calldataload\n        /* \"#utility.yul\":3196:3225   */\n      swap1\n      pop\n        /* \"#utility.yul\":3234:3267   */\n      tag_206\n        /* \"#utility.yul\":3261:3266   */\n      dup2\n        /* \"#utility.yul\":3234:3267   */\n      tag_127\n      jump\t// in\n    tag_206:\n        /* \"#utility.yul\":3134:3273   */\n      swap3\n      swap2\n      pop\n      pop\n      jump\t// out\n        /* \"#utility.yul\":3279:3753   */\n    tag_36:\n        /* \"#utility.yul\":3347:3353   */\n      0x00\n        /* \"#utility.yul\":3355:3361   */\n      dup1\n        /* \"#utility.yul\":3404:3406   */\n      0x40\n        /* \"#utility.yul\":3392:3401   */\n      dup4\n        /* \"#utility.yul\":3383:3390   */\n      dup6\n        /* \"#utility.yul\":3379:3402   */\n      sub\n        /* \"#utility.yul\":3375:3407   */\n      slt\n        /* \"#utility.yul\":3372:3491   */\n      iszero\n      tag_208\n      jumpi\n        /* \"#utility.yul\":3410:3489   */\n      tag_209\n      tag_114\n      jump\t// in\n    tag_209:\n        /* \"#utility.yul\":3372:3491   */\n    tag_208:\n        /* \"#utility.yul\":3530:3531   */\n      0x00\n        /* \"#utility.yul\":3555:3608   */\n      tag_210\n        /* \"#utility.yul\":3600:3607   */\n      dup6\n        /* \"#utility.yul\":3591:3597   */\n      dup3\n        /* \"#utility.yul\":3580:3589   */\n      dup7\n        /* \"#utility.yul\":3576:3598   */\n      add\n        /* \"#utility.yul\":3555:3608   */\n      tag_128\n      jump\t// in\n    tag_210:\n        /* \"#utility.yul\":3545:3608   */\n      swap3\n      pop\n        /* \"#utility.yul\":3501:3618   */\n      pop\n        /* \"#utility.yul\":3657:3659   */\n      0x20\n        /* \"#utility.yul\":3683:3736   */\n      tag_211\n        /* \"#utility.yul\":3728:3735   */\n      dup6\n        /* \"#utility.yul\":3719:3725   */\n      dup3\n        /* \"#utility.yul\":3708:3717   */\n      dup7\n        /* \"#utility.yul\":3704:3726   */\n      add\n        /* \"#utility.yul\":3683:3736   */\n      tag_123\n      jump\t// in\n    tag_211:\n        /* \"#utility.yul\":3673:3736   */\n      swap2\n      pop\n        /* \"#utility.yul\":3628:3746   */\n      pop\n        /* \"#utility.yul\":3279:3753   */\n      swap3\n      pop\n      swap3\n      swap1\n      pop\n      jump\t// out\n        /* \"#utility.yul\":3759:3819   */\n    tag_129:\n        /* \"#utility.yul\":3787:3790   */\n      0x00\n        /* \"#utility.yul\":3808:3813   */\n      dup2\n        /* \"#utility.yul\":3801:3813   */\n      swap1\n      pop\n        /* \"#utility.yul\":3759:3819   */\n      swap2\n      swap1\n      pop\n      jump\t// out\n        /* \"#utility.yul\":3825:3967   */\n    tag_130:\n        /* \"#utility.yul\":3875:3884   */\n      0x00\n        /* \"#utility.yul\":3908:3961   */\n      tag_214\n        /* \"#utility.yul\":3926:3960   */\n      tag_215\n        /* \"#utility.yul\":3935:3959   */\n      tag_216\n        /* \"#utility.yul\":3953:3958   */\n      dup5\n        /* \"#utility.yul\":3935:3959   */\n      tag_116\n      jump\t// in\n    tag_216:\n        /* \"#utility.yul\":3926:3960   */\n      tag_129\n      jump\t// in\n    tag_215:\n        /* \"#utility.yul\":3908:3961   */\n      tag_116\n      jump\t// in\n    tag_214:\n        /* \"#utility.yul\":3895:3961   */\n      swap1\n      pop\n        /* \"#utility.yul\":3825:3967   */\n      swap2\n      swap1\n      pop\n      jump\t// out\n        /* \"#utility.yul\":3973:4099   */\n    tag_131:\n        /* \"#utility.yul\":4023:4032   */\n      0x00\n        /* \"#utility.yul\":4056:4093   */\n      tag_218\n        /* \"#utility.yul\":4087:4092   */\n      dup3\n        /* \"#utility.yul\":4056:4093   */\n      tag_130\n      jump\t// in\n    tag_218:\n        /* \"#utility.yul\":4043:4093   */\n      swap1\n      pop\n        /* \"#utility.yul\":3973:4099   */\n      swap2\n      swap1\n      pop\n      jump\t// out\n        /* \"#utility.yul\":4105:4245   */\n    tag_132:\n        /* \"#utility.yul\":4169:4178   */\n      0x00\n        /* \"#utility.yul\":4202:4239   */\n      tag_220\n        /* \"#utility.yul\":4233:4238   */\n      dup3\n        /* \"#utility.yul\":4202:4239   */\n      tag_131\n      jump\t// in\n    tag_220:\n        /* \"#utility.yul\":4189:4239   */\n      swap1\n      pop\n        /* \"#utility.yul\":4105:4245   */\n      swap2\n      swap1\n      pop\n      jump\t// out\n        /* \"#utility.yul\":4251:4410   */\n    tag_133:\n        /* \"#utility.yul\":4352:4403   */\n      tag_222\n        /* \"#utility.yul\":4397:4402   */\n      dup2\n        /* \"#utility.yul\":4352:4403   */\n      tag_132\n      jump\t// in\n    tag_222:\n        /* \"#utility.yul\":4347:4350   */\n      dup3\n        /* \"#utility.yul\":4340:4404   */\n      mstore\n        /* \"#utility.yul\":4251:4410   */\n      pop\n      pop\n      jump\t// out\n        /* \"#utility.yul\":4416:4666   */\n    tag_41:\n        /* \"#utility.yul\":4523:4527   */\n      0x00\n        /* \"#utility.yul\":4561:4563   */\n      0x20\n        /* \"#utility.yul\":4550:4559   */\n      dup3\n        /* \"#utility.yul\":4546:4564   */\n      add\n        /* \"#utility.yul\":4538:4564   */\n      swap1\n      pop\n        /* \"#utility.yul\":4574:4659   */\n      tag_224\n        /* \"#utility.yul\":4656:4657   */\n      0x00\n        /* \"#utility.yul\":4645:4654   */\n      dup4\n        /* \"#utility.yul\":4641:4658   */\n      add\n        /* \"#utility.yul\":4632:4638   */\n      dup5\n        /* \"#utility.yul\":4574:4659   */\n      tag_133\n      jump\t// in\n    tag_224:\n        /* \"#utility.yul\":4416:4666   */\n      swap3\n      swap2\n      pop\n      pop\n      jump\t// out\n        /* \"#utility.yul\":4672:4841   */\n    tag_134:\n        /* \"#utility.yul\":4756:4767   */\n      0x00\n        /* \"#utility.yul\":4790:4796   */\n      dup3\n        /* \"#utility.yul\":4785:4788   */\n      dup3\n        /* \"#utility.yul\":4778:4797   */\n      mstore\n        /* \"#utility.yul\":4830:4834   */\n      0x20\n        /* \"#utility.yul\":4825:4828   */\n      dup3\n        /* \"#utility.yul\":4821:4835   */\n      add\n        /* \"#utility.yul\":4806:4835   */\n      swap1\n      pop\n        /* \"#utility.yul\":4672:4841   */\n      swap3\n      swap2\n      pop\n      pop\n      jump\t// out\n        /* \"#utility.yul\":4847:5029   */\n    tag_135:\n        /* \"#utility.yul\":4987:5021   */\n      0x416d6f756e74206d7573742062652067726561746572207468616e207a65726f\n        /* \"#utility.yul\":4983:4984   */\n      0x00\n        /* \"#utility.yul\":4975:4981   */\n      dup3\n        /* \"#utility.yul\":4971:4985   */\n      add\n        /* \"#utility.yul\":4964:5022   */\n      mstore\n        /* \"#utility.yul\":4847:5029   */\n      pop\n      jump\t// out\n        /* \"#utility.yul\":5035:5401   */\n    tag_136:\n        /* \"#utility.yul\":5177:5180   */\n      0x00\n        /* \"#utility.yul\":5198:5265   */\n      tag_228\n        /* \"#utility.yul\":5262:5264   */\n      0x20\n        /* \"#utility.yul\":5257:5260   */\n      dup4\n        /* \"#utility.yul\":5198:5265   */\n      tag_134\n      jump\t// in\n    tag_228:\n        /* \"#utility.yul\":5191:5265   */\n      swap2\n      pop\n        /* \"#utility.yul\":5274:5367   */\n      tag_229\n        /* \"#utility.yul\":5363:5366   */\n      dup3\n        /* \"#utility.yul\":5274:5367   */\n      tag_135\n      jump\t// in\n    tag_229:\n        /* \"#utility.yul\":5392:5394   */\n      0x20\n        /* \"#utility.yul\":5387:5390   */\n      dup3\n        /* \"#utility.yul\":5383:5395   */\n      add\n        /* \"#utility.yul\":5376:5395   */\n      swap1\n      pop\n        /* \"#utility.yul\":5035:5401   */\n      swap2\n      swap1\n      pop\n      jump\t// out\n        /* \"#utility.yul\":5407:5826   */\n    tag_45:\n        /* \"#utility.yul\":5573:5577   */\n      0x00\n        /* \"#utility.yul\":5611:5613   */\n      0x20\n        /* \"#utility.yul\":5600:5609   */\n      dup3\n        /* \"#utility.yul\":5596:5614   */\n      add\n        /* \"#utility.yul\":5588:5614   */\n      swap1\n      pop\n        /* \"#utility.yul\":5660:5669   */\n      dup2\n        /* \"#utility.yul\":5654:5658   */\n      dup2\n        /* \"#utility.yul\":5650:5670   */\n      sub\n        /* \"#utility.yul\":5646:5647   */\n      0x00\n        /* \"#utility.yul\":5635:5644   */\n      dup4\n        /* \"#utility.yul\":5631:5648   */\n      add\n        /* \"#utility.yul\":5624:5671   */\n      mstore\n        /* \"#utility.yul\":5688:5819   */\n      tag_231\n        /* \"#utility.yul\":5814:5818   */\n      dup2\n        /* \"#utility.yul\":5688:5819   */\n      tag_136\n      jump\t// in\n    tag_231:\n        /* \"#utility.yul\":5680:5819   */\n      swap1\n      pop\n        /* \"#utility.yul\":5407:5826   */\n      swap2\n      swap1\n      pop\n      jump\t// out\n        /* \"#utility.yul\":5832:6274   */\n    tag_47:\n        /* \"#utility.yul\":5981:5985   */\n      0x00\n        /* \"#utility.yul\":6019:6021   */\n      0x60\n        /* \"#utility.yul\":6008:6017   */\n      dup3\n        /* \"#utility.yul\":6004:6022   */\n      add\n        /* \"#utility.yul\":5996:6022   */\n      swap1\n      pop\n        /* \"#utility.yul\":6032:6103   */\n      tag_233\n        /* \"#utility.yul\":6100:6101   */\n      0x00\n        /* \"#utility.yul\":6089:6098   */\n      dup4\n        /* \"#utility.yul\":6085:6102   */\n      add\n        /* \"#utility.yul\":6076:6082   */\n      dup7\n        /* \"#utility.yul\":6032:6103   */\n      tag_124\n      jump\t// in\n    tag_233:\n        /* \"#utility.yul\":6113:6185   */\n      tag_234\n        /* \"#utility.yul\":6181:6183   */\n      0x20\n        /* \"#utility.yul\":6170:6179   */\n      dup4\n        /* \"#utility.yul\":6166:6184   */\n      add\n        /* \"#utility.yul\":6157:6163   */\n      dup6\n        /* \"#utility.yul\":6113:6185   */\n      tag_124\n      jump\t// in\n    tag_234:\n        /* \"#utility.yul\":6195:6267   */\n      tag_235\n        /* \"#utility.yul\":6263:6265   */\n      0x40\n        /* \"#utility.yul\":6252:6261   */\n      dup4\n        /* \"#utility.yul\":6248:6266   */\n      add\n        /* \"#utility.yul\":6239:6245   */\n      dup5\n        /* \"#utility.yul\":6195:6267   */\n      tag_121\n      jump\t// in\n    tag_235:\n        /* \"#utility.yul\":5832:6274   */\n      swap5\n      swap4\n      pop\n      pop\n      pop\n      pop\n      jump\t// out\n        /* \"#utility.yul\":6280:6370   */\n    tag_137:\n        /* \"#utility.yul\":6314:6321   */\n      0x00\n        /* \"#utility.yul\":6357:6362   */\n      dup2\n        /* \"#utility.yul\":6350:6363   */\n      iszero\n        /* \"#utility.yul\":6343:6364   */\n      iszero\n        /* \"#utility.yul\":6332:6364   */\n      swap1\n      pop\n        /* \"#utility.yul\":6280:6370   */\n      swap2\n      swap1\n      pop\n      jump\t// out\n        /* \"#utility.yul\":6376:6492   */\n    tag_138:\n        /* \"#utility.yul\":6446:6467   */\n      tag_238\n        /* \"#utility.yul\":6461:6466   */\n      dup2\n        /* \"#utility.yul\":6446:6467   */\n      tag_137\n      jump\t// in\n    tag_238:\n        /* \"#utility.yul\":6439:6444   */\n      dup2\n        /* \"#utility.yul\":6436:6468   */\n      eq\n        /* \"#utility.yul\":6426:6486   */\n      tag_239\n      jumpi\n        /* \"#utility.yul\":6482:6483   */\n      0x00\n        /* \"#utility.yul\":6479:6480   */\n      dup1\n        /* \"#utility.yul\":6472:6484   */\n      revert\n        /* \"#utility.yul\":6426:6486   */\n    tag_239:\n        /* \"#utility.yul\":6376:6492   */\n      pop\n      jump\t// out\n        /* \"#utility.yul\":6498:6635   */\n    tag_139:\n        /* \"#utility.yul\":6552:6557   */\n      0x00\n        /* \"#utility.yul\":6583:6589   */\n      dup2\n        /* \"#utility.yul\":6577:6590   */\n      mload\n        /* \"#utility.yul\":6568:6590   */\n      swap1\n      pop\n        /* \"#utility.yul\":6599:6629   */\n      tag_241\n        /* \"#utility.yul\":6623:6628   */\n      dup2\n        /* \"#utility.yul\":6599:6629   */\n      tag_138\n      jump\t// in\n    tag_241:\n        /* \"#utility.yul\":6498:6635   */\n      swap3\n      swap2\n      pop\n      pop\n      jump\t// out\n        /* \"#utility.yul\":6641:6986   */\n    tag_51:\n        /* \"#utility.yul\":6708:6714   */\n      0x00\n        /* \"#utility.yul\":6757:6759   */\n      0x20\n        /* \"#utility.yul\":6745:6754   */\n      dup3\n        /* \"#utility.yul\":6736:6743   */\n      dup5\n        /* \"#utility.yul\":6732:6755   */\n      sub\n        /* \"#utility.yul\":6728:6760   */\n      slt\n        /* \"#utility.yul\":6725:6844   */\n      iszero\n      tag_243\n      jumpi\n        /* \"#utility.yul\":6763:6842   */\n      tag_244\n      tag_114\n      jump\t// in\n    tag_244:\n        /* \"#utility.yul\":6725:6844   */\n    tag_243:\n        /* \"#utility.yul\":6883:6884   */\n      0x00\n        /* \"#utility.yul\":6908:6969   */\n      tag_245\n        /* \"#utility.yul\":6961:6968   */\n      dup5\n        /* \"#utility.yul\":6952:6958   */\n      dup3\n        /* \"#utility.yul\":6941:6950   */\n      dup6\n        /* \"#utility.yul\":6937:6959   */\n      add\n        /* \"#utility.yul\":6908:6969   */\n      tag_139\n      jump\t// in\n    tag_245:\n        /* \"#utility.yul\":6898:6969   */\n      swap2\n      pop\n        /* \"#utility.yul\":6854:6979   */\n      pop\n        /* \"#utility.yul\":6641:6986   */\n      swap3\n      swap2\n      pop\n      pop\n      jump\t// out\n        /* \"#utility.yul\":6992:7172   */\n    tag_140:\n        /* \"#utility.yul\":7040:7117   */\n      0x4e487b7100000000000000000000000000000000000000000000000000000000\n        /* \"#utility.yul\":7037:7038   */\n      0x00\n        /* \"#utility.yul\":7030:7118   */\n      mstore\n        /* \"#utility.yul\":7137:7141   */\n      0x11\n        /* \"#utility.yul\":7134:7135   */\n      0x04\n        /* \"#utility.yul\":7127:7142   */\n      mstore\n        /* \"#utility.yul\":7161:7165   */\n      0x24\n        /* \"#utility.yul\":7158:7159   */\n      0x00\n        /* \"#utility.yul\":7151:7166   */\n      revert\n        /* \"#utility.yul\":7178:7369   */\n    tag_53:\n        /* \"#utility.yul\":7218:7221   */\n      0x00\n        /* \"#utility.yul\":7237:7257   */\n      tag_248\n        /* \"#utility.yul\":7255:7256   */\n      dup3\n        /* \"#utility.yul\":7237:7257   */\n      tag_120\n      jump\t// in\n    tag_248:\n        /* \"#utility.yul\":7232:7257   */\n      swap2\n      pop\n        /* \"#utility.yul\":7271:7291   */\n      tag_249\n        /* \"#utility.yul\":7289:7290   */\n      dup4\n        /* \"#utility.yul\":7271:7291   */\n      tag_120\n      jump\t// in\n    tag_249:\n        /* \"#utility.yul\":7266:7291   */\n      swap3\n      pop\n        /* \"#utility.yul\":7314:7315   */\n      dup3\n        /* \"#utility.yul\":7311:7312   */\n      dup3\n        /* \"#utility.yul\":7307:7316   */\n      add\n        /* \"#utility.yul\":7300:7316   */\n      swap1\n      pop\n        /* \"#utility.yul\":7335:7338   */\n      dup1\n        /* \"#utility.yul\":7332:7333   */\n      dup3\n        /* \"#utility.yul\":7329:7339   */\n      gt\n        /* \"#utility.yul\":7326:7362   */\n      iszero\n      tag_250\n      jumpi\n        /* \"#utility.yul\":7342:7360   */\n      tag_251\n      tag_140\n      jump\t// in\n    tag_251:\n        /* \"#utility.yul\":7326:7362   */\n    tag_250:\n        /* \"#utility.yul\":7178:7369   */\n      swap3\n      swap2\n      pop\n      pop\n      jump\t// out\n        /* \"#utility.yul\":7375:7518   */\n    tag_141:\n        /* \"#utility.yul\":7432:7437   */\n      0x00\n        /* \"#utility.yul\":7463:7469   */\n      dup2\n        /* \"#utility.yul\":7457:7470   */\n      mload\n        /* \"#utility.yul\":7448:7470   */\n      swap1\n      pop\n        /* \"#utility.yul\":7479:7512   */\n      tag_253\n        /* \"#utility.yul\":7506:7511   */\n      dup2\n        /* \"#utility.yul\":7479:7512   */\n      tag_122\n      jump\t// in\n    tag_253:\n        /* \"#utility.yul\":7375:7518   */\n      swap3\n      swap2\n      pop\n      pop\n      jump\t// out\n        /* \"#utility.yul\":7524:7875   */\n    tag_62:\n        /* \"#utility.yul\":7594:7600   */\n      0x00\n        /* \"#utility.yul\":7643:7645   */\n      0x20\n        /* \"#utility.yul\":7631:7640   */\n      dup3\n        /* \"#utility.yul\":7622:7629   */\n      dup5\n        /* \"#utility.yul\":7618:7641   */\n      sub\n        /* \"#utility.yul\":7614:7646   */\n      slt\n        /* \"#utility.yul\":7611:7730   */\n      iszero\n      tag_255\n      jumpi\n        /* \"#utility.yul\":7649:7728   */\n      tag_256\n      tag_114\n      jump\t// in\n    tag_256:\n        /* \"#utility.yul\":7611:7730   */\n    tag_255:\n        /* \"#utility.yul\":7769:7770   */\n      0x00\n        /* \"#utility.yul\":7794:7858   */\n      tag_257\n        /* \"#utility.yul\":7850:7857   */\n      dup5\n        /* \"#utility.yul\":7841:7847   */\n      dup3\n        /* \"#utility.yul\":7830:7839   */\n      dup6\n        /* \"#utility.yul\":7826:7848   */\n      add\n        /* \"#utility.yul\":7794:7858   */\n      tag_141\n      jump\t// in\n    tag_257:\n        /* \"#utility.yul\":7784:7858   */\n      swap2\n      pop\n        /* \"#utility.yul\":7740:7868   */\n      pop\n        /* \"#utility.yul\":7524:7875   */\n      swap3\n      swap2\n      pop\n      pop\n      jump\t// out\n        /* \"#utility.yul\":7881:8111   */\n    tag_142:\n        /* \"#utility.yul\":8021:8055   */\n      0x4e6f7420656e6f756768204c494e4b202d2066696c6c20636f6e747261637420\n        /* \"#utility.yul\":8017:8018   */\n      0x00\n        /* \"#utility.yul\":8009:8015   */\n      dup3\n        /* \"#utility.yul\":8005:8019   */\n      add\n        /* \"#utility.yul\":7998:8056   */\n      mstore\n        /* \"#utility.yul\":8090:8103   */\n      0x7769746820666175636574000000000000000000000000000000000000000000\n        /* \"#utility.yul\":8085:8087   */\n      0x20\n        /* \"#utility.yul\":8077:8083   */\n      dup3\n        /* \"#utility.yul\":8073:8088   */\n      add\n        /* \"#utility.yul\":8066:8104   */\n      mstore\n        /* \"#utility.yul\":7881:8111   */\n      pop\n      jump\t// out\n        /* \"#utility.yul\":8117:8483   */\n    tag_143:\n        /* \"#utility.yul\":8259:8262   */\n      0x00\n        /* \"#utility.yul\":8280:8347   */\n      tag_260\n        /* \"#utility.yul\":8344:8346   */\n      0x2b\n        /* \"#utility.yul\":8339:8342   */\n      dup4\n        /* \"#utility.yul\":8280:8347   */\n      tag_134\n      jump\t// in\n    tag_260:\n        /* \"#utility.yul\":8273:8347   */\n      swap2\n      pop\n        /* \"#utility.yul\":8356:8449   */\n      tag_261\n        /* \"#utility.yul\":8445:8448   */\n      dup3\n        /* \"#utility.yul\":8356:8449   */\n      tag_142\n      jump\t// in\n    tag_261:\n        /* \"#utility.yul\":8474:8476   */\n      0x40\n        /* \"#utility.yul\":8469:8472   */\n      dup3\n        /* \"#utility.yul\":8465:8477   */\n      add\n        /* \"#utility.yul\":8458:8477   */\n      swap1\n      pop\n        /* \"#utility.yul\":8117:8483   */\n      swap2\n      swap1\n      pop\n      jump\t// out\n        /* \"#utility.yul\":8489:8908   */\n    tag_65:\n        /* \"#utility.yul\":8655:8659   */\n      0x00\n        /* \"#utility.yul\":8693:8695   */\n      0x20\n        /* \"#utility.yul\":8682:8691   */\n      dup3\n        /* \"#utility.yul\":8678:8696   */\n      add\n        /* \"#utility.yul\":8670:8696   */\n      swap1\n      pop\n        /* \"#utility.yul\":8742:8751   */\n      dup2\n        /* \"#utility.yul\":8736:8740   */\n      dup2\n        /* \"#utility.yul\":8732:8752   */\n      sub\n        /* \"#utility.yul\":8728:8729   */\n      0x00\n        /* \"#utility.yul\":8717:8726   */\n      dup4\n        /* \"#utility.yul\":8713:8730   */\n      add\n        /* \"#utility.yul\":8706:8753   */\n      mstore\n        /* \"#utility.yul\":8770:8901   */\n      tag_263\n        /* \"#utility.yul\":8896:8900   */\n      dup2\n        /* \"#utility.yul\":8770:8901   */\n      tag_143\n      jump\t// in\n    tag_263:\n        /* \"#utility.yul\":8762:8901   */\n      swap1\n      pop\n        /* \"#utility.yul\":8489:8908   */\n      swap2\n      swap1\n      pop\n      jump\t// out\n        /* \"#utility.yul\":8914:9095   */\n    tag_144:\n        /* \"#utility.yul\":9054:9087   */\n      0x4f6e6c7920565246436f6f7264696e61746f722063616e2066756c66696c6c00\n        /* \"#utility.yul\":9050:9051   */\n      0x00\n        /* \"#utility.yul\":9042:9048   */\n      dup3\n        /* \"#utility.yul\":9038:9052   */\n      add\n        /* \"#utility.yul\":9031:9088   */\n      mstore\n        /* \"#utility.yul\":8914:9095   */\n      pop\n      jump\t// out\n        /* \"#utility.yul\":9101:9467   */\n    tag_145:\n        /* \"#utility.yul\":9243:9246   */\n      0x00\n        /* \"#utility.yul\":9264:9331   */\n      tag_266\n        /* \"#utility.yul\":9328:9330   */\n      0x1f\n        /* \"#utility.yul\":9323:9326   */\n      dup4\n        /* \"#utility.yul\":9264:9331   */\n      tag_134\n      jump\t// in\n    tag_266:\n        /* \"#utility.yul\":9257:9331   */\n      swap2\n      pop\n        /* \"#utility.yul\":9340:9433   */\n      tag_267\n        /* \"#utility.yul\":9429:9432   */\n      dup3\n        /* \"#utility.yul\":9340:9433   */\n      tag_144\n      jump\t// in\n    tag_267:\n        /* \"#utility.yul\":9458:9460   */\n      0x20\n        /* \"#utility.yul\":9453:9456   */\n      dup3\n        /* \"#utility.yul\":9449:9461   */\n      add\n        /* \"#utility.yul\":9442:9461   */\n      swap1\n      pop\n        /* \"#utility.yul\":9101:9467   */\n      swap2\n      swap1\n      pop\n      jump\t// out\n        /* \"#utility.yul\":9473:9892   */\n    tag_71:\n        /* \"#utility.yul\":9639:9643   */\n      0x00\n        /* \"#utility.yul\":9677:9679   */\n      0x20\n        /* \"#utility.yul\":9666:9675   */\n      dup3\n        /* \"#utility.yul\":9662:9680   */\n      add\n        /* \"#utility.yul\":9654:9680   */\n      swap1\n      pop\n        /* \"#utility.yul\":9726:9735   */\n      dup2\n        /* \"#utility.yul\":9720:9724   */\n      dup2\n        /* \"#utility.yul\":9716:9736   */\n      sub\n        /* \"#utility.yul\":9712:9713   */\n      0x00\n        /* \"#utility.yul\":9701:9710   */\n      dup4\n        /* \"#utility.yul\":9697:9714   */\n      add\n        /* \"#utility.yul\":9690:9737   */\n      mstore\n        /* \"#utility.yul\":9754:9885   */\n      tag_269\n        /* \"#utility.yul\":9880:9884   */\n      dup2\n        /* \"#utility.yul\":9754:9885   */\n      tag_145\n      jump\t// in\n    tag_269:\n        /* \"#utility.yul\":9746:9885   */\n      swap1\n      pop\n        /* \"#utility.yul\":9473:9892   */\n      swap2\n      swap1\n      pop\n      jump\t// out\n        /* \"#utility.yul\":9898:10230   */\n    tag_76:\n        /* \"#utility.yul\":10019:10023   */\n      0x00\n        /* \"#utility.yul\":10057:10059   */\n      0x40\n        /* \"#utility.yul\":10046:10055   */\n      dup3\n        /* \"#utility.yul\":10042:10060   */\n      add\n        /* \"#utility.yul\":10034:10060   */\n      swap1\n      pop\n        /* \"#utility.yul\":10070:10141   */\n      tag_271\n        /* \"#utility.yul\":10138:10139   */\n      0x00\n        /* \"#utility.yul\":10127:10136   */\n      dup4\n        /* \"#utility.yul\":10123:10140   */\n      add\n        /* \"#utility.yul\":10114:10120   */\n      dup6\n        /* \"#utility.yul\":10070:10141   */\n      tag_126\n      jump\t// in\n    tag_271:\n        /* \"#utility.yul\":10151:10223   */\n      tag_272\n        /* \"#utility.yul\":10219:10221   */\n      0x20\n        /* \"#utility.yul\":10208:10217   */\n      dup4\n        /* \"#utility.yul\":10204:10222   */\n      add\n        /* \"#utility.yul\":10195:10201   */\n      dup5\n        /* \"#utility.yul\":10151:10223   */\n      tag_121\n      jump\t// in\n    tag_272:\n        /* \"#utility.yul\":9898:10230   */\n      swap4\n      swap3\n      pop\n      pop\n      pop\n      jump\t// out\n        /* \"#utility.yul\":10236:10334   */\n    tag_146:\n        /* \"#utility.yul\":10287:10293   */\n      0x00\n        /* \"#utility.yul\":10321:10326   */\n      dup2\n        /* \"#utility.yul\":10315:10327   */\n      mload\n        /* \"#utility.yul\":10305:10327   */\n      swap1\n      pop\n        /* \"#utility.yul\":10236:10334   */\n      swap2\n      swap1\n      pop\n      jump\t// out\n        /* \"#utility.yul\":10340:10508   */\n    tag_147:\n        /* \"#utility.yul\":10423:10434   */\n      0x00\n        /* \"#utility.yul\":10457:10463   */\n      dup3\n        /* \"#utility.yul\":10452:10455   */\n      dup3\n        /* \"#utility.yul\":10445:10464   */\n      mstore\n        /* \"#utility.yul\":10497:10501   */\n      0x20\n        /* \"#utility.yul\":10492:10495   */\n      dup3\n        /* \"#utility.yul\":10488:10502   */\n      add\n        /* \"#utility.yul\":10473:10502   */\n      swap1\n      pop\n        /* \"#utility.yul\":10340:10508   */\n      swap3\n      swap2\n      pop\n      pop\n      jump\t// out\n        /* \"#utility.yul\":10514:10653   */\n    tag_148:\n        /* \"#utility.yul\":10603:10609   */\n      dup3\n        /* \"#utility.yul\":10598:10601   */\n      dup2\n        /* \"#utility.yul\":10593:10596   */\n      dup4\n        /* \"#utility.yul\":10587:10610   */\n      mcopy\n        /* \"#utility.yul\":10644:10645   */\n      0x00\n        /* \"#utility.yul\":10635:10641   */\n      dup4\n        /* \"#utility.yul\":10630:10633   */\n      dup4\n        /* \"#utility.yul\":10626:10642   */\n      add\n        /* \"#utility.yul\":10619:10646   */\n      mstore\n        /* \"#utility.yul\":10514:10653   */\n      pop\n      pop\n      pop\n      jump\t// out\n        /* \"#utility.yul\":10659:10761   */\n    tag_149:\n        /* \"#utility.yul\":10700:10706   */\n      0x00\n        /* \"#utility.yul\":10751:10753   */\n      0x1f\n        /* \"#utility.yul\":10747:10754   */\n      not\n        /* \"#utility.yul\":10742:10744   */\n      0x1f\n        /* \"#utility.yul\":10735:10740   */\n      dup4\n        /* \"#utility.yul\":10731:10745   */\n      add\n        /* \"#utility.yul\":10727:10755   */\n      and\n        /* \"#utility.yul\":10717:10755   */\n      swap1\n      pop\n        /* \"#utility.yul\":10659:10761   */\n      swap2\n      swap1\n      pop\n      jump\t// out\n        /* \"#utility.yul\":10767:11140   */\n    tag_150:\n        /* \"#utility.yul\":10853:10856   */\n      0x00\n        /* \"#utility.yul\":10881:10919   */\n      tag_278\n        /* \"#utility.yul\":10913:10918   */\n      dup3\n        /* \"#utility.yul\":10881:10919   */\n      tag_146\n      jump\t// in\n    tag_278:\n        /* \"#utility.yul\":10935:11005   */\n      tag_279\n        /* \"#utility.yul\":10998:11004   */\n      dup2\n        /* \"#utility.yul\":10993:10996   */\n      dup6\n        /* \"#utility.yul\":10935:11005   */\n      tag_147\n      jump\t// in\n    tag_279:\n        /* \"#utility.yul\":10928:11005   */\n      swap4\n      pop\n        /* \"#utility.yul\":11014:11079   */\n      tag_280\n        /* \"#utility.yul\":11072:11078   */\n      dup2\n        /* \"#utility.yul\":11067:11070   */\n      dup6\n        /* \"#utility.yul\":11060:11064   */\n      0x20\n        /* \"#utility.yul\":11053:11058   */\n      dup7\n        /* \"#utility.yul\":11049:11065   */\n      add\n        /* \"#utility.yul\":11014:11079   */\n      tag_148\n      jump\t// in\n    tag_280:\n        /* \"#utility.yul\":11104:11133   */\n      tag_281\n        /* \"#utility.yul\":11126:11132   */\n      dup2\n        /* \"#utility.yul\":11104:11133   */\n      tag_149\n      jump\t// in\n    tag_281:\n        /* \"#utility.yul\":11099:11102   */\n      dup5\n        /* \"#utility.yul\":11095:11134   */\n      add\n        /* \"#utility.yul\":11088:11134   */\n      swap2\n      pop\n        /* \"#utility.yul\":10857:11140   */\n      pop\n        /* \"#utility.yul\":10767:11140   */\n      swap3\n      swap2\n      pop\n      pop\n      jump\t// out\n        /* \"#utility.yul\":11146:11675   */\n    tag_78:\n        /* \"#utility.yul\":11313:11317   */\n      0x00\n        /* \"#utility.yul\":11351:11353   */\n      0x60\n        /* \"#utility.yul\":11340:11349   */\n      dup3\n        /* \"#utility.yul\":11336:11354   */\n      add\n        /* \"#utility.yul\":11328:11354   */\n      swap1\n      pop\n        /* \"#utility.yul\":11364:11435   */\n      tag_283\n        /* \"#utility.yul\":11432:11433   */\n      0x00\n        /* \"#utility.yul\":11421:11430   */\n      dup4\n        /* \"#utility.yul\":11417:11434   */\n      add\n        /* \"#utility.yul\":11408:11414   */\n      dup7\n        /* \"#utility.yul\":11364:11435   */\n      tag_124\n      jump\t// in\n    tag_283:\n        /* \"#utility.yul\":11445:11517   */\n      tag_284\n        /* \"#utility.yul\":11513:11515   */\n      0x20\n        /* \"#utility.yul\":11502:11511   */\n      dup4\n        /* \"#utility.yul\":11498:11516   */\n      add\n        /* \"#utility.yul\":11489:11495   */\n      dup6\n        /* \"#utility.yul\":11445:11517   */\n      tag_121\n      jump\t// in\n    tag_284:\n        /* \"#utility.yul\":11564:11573   */\n      dup2\n        /* \"#utility.yul\":11558:11562   */\n      dup2\n        /* \"#utility.yul\":11554:11574   */\n      sub\n        /* \"#utility.yul\":11549:11551   */\n      0x40\n        /* \"#utility.yul\":11538:11547   */\n      dup4\n        /* \"#utility.yul\":11534:11552   */\n      add\n        /* \"#utility.yul\":11527:11575   */\n      mstore\n        /* \"#utility.yul\":11592:11668   */\n      tag_285\n        /* \"#utility.yul\":11663:11667   */\n      dup2\n        /* \"#utility.yul\":11654:11660   */\n      dup5\n        /* \"#utility.yul\":11592:11668   */\n      tag_150\n      jump\t// in\n    tag_285:\n        /* \"#utility.yul\":11584:11668   */\n      swap1\n      pop\n        /* \"#utility.yul\":11146:11675   */\n      swap5\n      swap4\n      pop\n      pop\n      pop\n      pop\n      jump\t// out\n        /* \"#utility.yul\":11681:11861   */\n    tag_90:\n        /* \"#utility.yul\":11729:11806   */\n      0x4e487b7100000000000000000000000000000000000000000000000000000000\n        /* \"#utility.yul\":11726:11727   */\n      0x00\n        /* \"#utility.yul\":11719:11807   */\n      mstore\n        /* \"#utility.yul\":11826:11830   */\n      0x41\n        /* \"#utility.yul\":11823:11824   */\n      0x04\n        /* \"#utility.yul\":11816:11831   */\n      mstore\n        /* \"#utility.yul\":11850:11854   */\n      0x24\n        /* \"#utility.yul\":11847:11848   */\n      0x00\n        /* \"#utility.yul\":11840:11855   */\n      revert\n        /* \"#utility.yul\":11867:12047   */\n    tag_151:\n        /* \"#utility.yul\":11915:11992   */\n      0x4e487b7100000000000000000000000000000000000000000000000000000000\n        /* \"#utility.yul\":11912:11913   */\n      0x00\n        /* \"#utility.yul\":11905:11993   */\n      mstore\n        /* \"#utility.yul\":12012:12016   */\n      0x12\n        /* \"#utility.yul\":12009:12010   */\n      0x04\n        /* \"#utility.yul\":12002:12017   */\n      mstore\n        /* \"#utility.yul\":12036:12040   */\n      0x24\n        /* \"#utility.yul\":12033:12034   */\n      0x00\n        /* \"#utility.yul\":12026:12041   */\n      revert\n        /* \"#utility.yul\":12053:12229   */\n    tag_96:\n        /* \"#utility.yul\":12085:12086   */\n      0x00\n        /* \"#utility.yul\":12102:12122   */\n      tag_289\n        /* \"#utility.yul\":12120:12121   */\n      dup3\n        /* \"#utility.yul\":12102:12122   */\n      tag_120\n      jump\t// in\n    tag_289:\n        /* \"#utility.yul\":12097:12122   */\n      swap2\n      pop\n        /* \"#utility.yul\":12136:12156   */\n      tag_290\n        /* \"#utility.yul\":12154:12155   */\n      dup4\n        /* \"#utility.yul\":12136:12156   */\n      tag_120\n      jump\t// in\n    tag_290:\n        /* \"#utility.yul\":12131:12156   */\n      swap3\n      pop\n        /* \"#utility.yul\":12175:12176   */\n      dup3\n        /* \"#utility.yul\":12165:12200   */\n      tag_291\n      jumpi\n        /* \"#utility.yul\":12180:12198   */\n      tag_292\n      tag_151\n      jump\t// in\n    tag_292:\n        /* \"#utility.yul\":12165:12200   */\n    tag_291:\n        /* \"#utility.yul\":12221:12222   */\n      dup3\n        /* \"#utility.yul\":12218:12219   */\n      dup3\n        /* \"#utility.yul\":12214:12223   */\n      mod\n        /* \"#utility.yul\":12209:12223   */\n      swap1\n      pop\n        /* \"#utility.yul\":12053:12229   */\n      swap3\n      swap2\n      pop\n      pop\n      jump\t// out\n        /* \"#utility.yul\":12235:12415   */\n    tag_99:\n        /* \"#utility.yul\":12283:12360   */\n      0x4e487b7100000000000000000000000000000000000000000000000000000000\n        /* \"#utility.yul\":12280:12281   */\n      0x00\n        /* \"#utility.yul\":12273:12361   */\n      mstore\n        /* \"#utility.yul\":12380:12384   */\n      0x32\n        /* \"#utility.yul\":12377:12378   */\n      0x04\n        /* \"#utility.yul\":12370:12385   */\n      mstore\n        /* \"#utility.yul\":12404:12408   */\n      0x24\n        /* \"#utility.yul\":12401:12402   */\n      0x00\n        /* \"#utility.yul\":12394:12409   */\n      revert\n        /* \"#utility.yul\":12421:12753   */\n    tag_104:\n        /* \"#utility.yul\":12542:12546   */\n      0x00\n        /* \"#utility.yul\":12580:12582   */\n      0x40\n        /* \"#utility.yul\":12569:12578   */\n      dup3\n        /* \"#utility.yul\":12565:12583   */\n      add\n        /* \"#utility.yul\":12557:12583   */\n      swap1\n      pop\n        /* \"#utility.yul\":12593:12664   */\n      tag_295\n        /* \"#utility.yul\":12661:12662   */\n      0x00\n        /* \"#utility.yul\":12650:12659   */\n      dup4\n        /* \"#utility.yul\":12646:12663   */\n      add\n        /* \"#utility.yul\":12637:12643   */\n      dup6\n        /* \"#utility.yul\":12593:12664   */\n      tag_121\n      jump\t// in\n    tag_295:\n        /* \"#utility.yul\":12674:12746   */\n      tag_296\n        /* \"#utility.yul\":12742:12744   */\n      0x20\n        /* \"#utility.yul\":12731:12740   */\n      dup4\n        /* \"#utility.yul\":12727:12745   */\n      add\n        /* \"#utility.yul\":12718:12724   */\n      dup5\n        /* \"#utility.yul\":12674:12746   */\n      tag_121\n      jump\t// in\n    tag_296:\n        /* \"#utility.yul\":12421:12753   */\n      swap4\n      swap3\n      pop\n      pop\n      pop\n      jump\t// out\n        /* \"#utility.yul\":12759:12873   */\n    tag_152:\n        /* \"#utility.yul\":12826:12832   */\n      0x00\n        /* \"#utility.yul\":12860:12865   */\n      dup2\n        /* \"#utility.yul\":12854:12866   */\n      mload\n        /* \"#utility.yul\":12844:12866   */\n      swap1\n      pop\n        /* \"#utility.yul\":12759:12873   */\n      swap2\n      swap1\n      pop\n      jump\t// out\n        /* \"#utility.yul\":12879:13063   */\n    tag_153:\n        /* \"#utility.yul\":12978:12989   */\n      0x00\n        /* \"#utility.yul\":13012:13018   */\n      dup3\n        /* \"#utility.yul\":13007:13010   */\n      dup3\n        /* \"#utility.yul\":13000:13019   */\n      mstore\n        /* \"#utility.yul\":13052:13056   */\n      0x20\n        /* \"#utility.yul\":13047:13050   */\n      dup3\n        /* \"#utility.yul\":13043:13057   */\n      add\n        /* \"#utility.yul\":13028:13057   */\n      swap1\n      pop\n        /* \"#utility.yul\":12879:13063   */\n      swap3\n      swap2\n      pop\n      pop\n      jump\t// out\n        /* \"#utility.yul\":13069:13201   */\n    tag_154:\n        /* \"#utility.yul\":13136:13140   */\n      0x00\n        /* \"#utility.yul\":13159:13162   */\n      dup2\n        /* \"#utility.yul\":13151:13162   */\n      swap1\n      pop\n        /* \"#utility.yul\":13189:13193   */\n      0x20\n        /* \"#utility.yul\":13184:13187   */\n      dup3\n        /* \"#utility.yul\":13180:13194   */\n      add\n        /* \"#utility.yul\":13172:13194   */\n      swap1\n      pop\n        /* \"#utility.yul\":13069:13201   */\n      swap2\n      swap1\n      pop\n      jump\t// out\n        /* \"#utility.yul\":13207:13315   */\n    tag_155:\n        /* \"#utility.yul\":13284:13308   */\n      tag_301\n        /* \"#utility.yul\":13302:13307   */\n      dup2\n        /* \"#utility.yul\":13284:13308   */\n      tag_117\n      jump\t// in\n    tag_301:\n        /* \"#utility.yul\":13279:13282   */\n      dup3\n        /* \"#utility.yul\":13272:13309   */\n      mstore\n        /* \"#utility.yul\":13207:13315   */\n      pop\n      pop\n      jump\t// out\n        /* \"#utility.yul\":13321:13500   */\n    tag_156:\n        /* \"#utility.yul\":13390:13400   */\n      0x00\n        /* \"#utility.yul\":13411:13457   */\n      tag_303\n        /* \"#utility.yul\":13453:13456   */\n      dup4\n        /* \"#utility.yul\":13445:13451   */\n      dup4\n        /* \"#utility.yul\":13411:13457   */\n      tag_155\n      jump\t// in\n    tag_303:\n        /* \"#utility.yul\":13489:13493   */\n      0x20\n        /* \"#utility.yul\":13484:13487   */\n      dup4\n        /* \"#utility.yul\":13480:13494   */\n      add\n        /* \"#utility.yul\":13466:13494   */\n      swap1\n      pop\n        /* \"#utility.yul\":13321:13500   */\n      swap3\n      swap2\n      pop\n      pop\n      jump\t// out\n        /* \"#utility.yul\":13506:13619   */\n    tag_157:\n        /* \"#utility.yul\":13576:13580   */\n      0x00\n        /* \"#utility.yul\":13608:13612   */\n      0x20\n        /* \"#utility.yul\":13603:13606   */\n      dup3\n        /* \"#utility.yul\":13599:13613   */\n      add\n        /* \"#utility.yul\":13591:13613   */\n      swap1\n      pop\n        /* \"#utility.yul\":13506:13619   */\n      swap2\n      swap1\n      pop\n      jump\t// out\n        /* \"#utility.yul\":13655:14387   */\n    tag_158:\n        /* \"#utility.yul\":13774:13777   */\n      0x00\n        /* \"#utility.yul\":13803:13857   */\n      tag_306\n        /* \"#utility.yul\":13851:13856   */\n      dup3\n        /* \"#utility.yul\":13803:13857   */\n      tag_152\n      jump\t// in\n    tag_306:\n        /* \"#utility.yul\":13873:13959   */\n      tag_307\n        /* \"#utility.yul\":13952:13958   */\n      dup2\n        /* \"#utility.yul\":13947:13950   */\n      dup6\n        /* \"#utility.yul\":13873:13959   */\n      tag_153\n      jump\t// in\n    tag_307:\n        /* \"#utility.yul\":13866:13959   */\n      swap4\n      pop\n        /* \"#utility.yul\":13983:14039   */\n      tag_308\n        /* \"#utility.yul\":14033:14038   */\n      dup4\n        /* \"#utility.yul\":13983:14039   */\n      tag_154\n      jump\t// in\n    tag_308:\n        /* \"#utility.yul\":14062:14069   */\n      dup1\n        /* \"#utility.yul\":14093:14094   */\n      0x00\n        /* \"#utility.yul\":14078:14362   */\n    tag_309:\n        /* \"#utility.yul\":14103:14109   */\n      dup4\n        /* \"#utility.yul\":14100:14101   */\n      dup2\n        /* \"#utility.yul\":14097:14110   */\n      lt\n        /* \"#utility.yul\":14078:14362   */\n      iszero\n      tag_311\n      jumpi\n        /* \"#utility.yul\":14179:14185   */\n      dup2\n        /* \"#utility.yul\":14173:14186   */\n      mload\n        /* \"#utility.yul\":14206:14269   */\n      tag_312\n        /* \"#utility.yul\":14265:14268   */\n      dup9\n        /* \"#utility.yul\":14250:14263   */\n      dup3\n        /* \"#utility.yul\":14206:14269   */\n      tag_156\n      jump\t// in\n    tag_312:\n        /* \"#utility.yul\":14199:14269   */\n      swap8\n      pop\n        /* \"#utility.yul\":14292:14352   */\n      tag_313\n        /* \"#utility.yul\":14345:14351   */\n      dup4\n        /* \"#utility.yul\":14292:14352   */\n      tag_157\n      jump\t// in\n    tag_313:\n        /* \"#utility.yul\":14282:14352   */\n      swap3\n      pop\n        /* \"#utility.yul\":14138:14362   */\n      pop\n        /* \"#utility.yul\":14125:14126   */\n      0x01\n        /* \"#utility.yul\":14122:14123   */\n      dup2\n        /* \"#utility.yul\":14118:14127   */\n      add\n        /* \"#utility.yul\":14113:14127   */\n      swap1\n      pop\n        /* \"#utility.yul\":14078:14362   */\n      jump(tag_309)\n    tag_311:\n        /* \"#utility.yul\":14082:14096   */\n      pop\n        /* \"#utility.yul\":14378:14381   */\n      dup6\n        /* \"#utility.yul\":14371:14381   */\n      swap4\n      pop\n        /* \"#utility.yul\":13779:14387   */\n      pop\n      pop\n      pop\n        /* \"#utility.yul\":13655:14387   */\n      swap3\n      swap2\n      pop\n      pop\n      jump\t// out\n        /* \"#utility.yul\":14393:14766   */\n    tag_106:\n        /* \"#utility.yul\":14536:14540   */\n      0x00\n        /* \"#utility.yul\":14574:14576   */\n      0x20\n        /* \"#utility.yul\":14563:14572   */\n      dup3\n        /* \"#utility.yul\":14559:14577   */\n      add\n        /* \"#utility.yul\":14551:14577   */\n      swap1\n      pop\n        /* \"#utility.yul\":14623:14632   */\n      dup2\n        /* \"#utility.yul\":14617:14621   */\n      dup2\n        /* \"#utility.yul\":14613:14633   */\n      sub\n        /* \"#utility.yul\":14609:14610   */\n      0x00\n        /* \"#utility.yul\":14598:14607   */\n      dup4\n        /* \"#utility.yul\":14594:14611   */\n      add\n        /* \"#utility.yul\":14587:14634   */\n      mstore\n        /* \"#utility.yul\":14651:14759   */\n      tag_315\n        /* \"#utility.yul\":14754:14758   */\n      dup2\n        /* \"#utility.yul\":14745:14751   */\n      dup5\n        /* \"#utility.yul\":14651:14759   */\n      tag_158\n      jump\t// in\n    tag_315:\n        /* \"#utility.yul\":14643:14759   */\n      swap1\n      pop\n        /* \"#utility.yul\":14393:14766   */\n      swap3\n      swap2\n      pop\n      pop\n      jump\t// out\n        /* \"#utility.yul\":14772:15325   */\n    tag_109:\n        /* \"#utility.yul\":14949:14953   */\n      0x00\n        /* \"#utility.yul\":14987:14990   */\n      0x80\n        /* \"#utility.yul\":14976:14985   */\n      dup3\n        /* \"#utility.yul\":14972:14991   */\n      add\n        /* \"#utility.yul\":14964:14991   */\n      swap1\n      pop\n        /* \"#utility.yul\":15001:15072   */\n      tag_317\n        /* \"#utility.yul\":15069:15070   */\n      0x00\n        /* \"#utility.yul\":15058:15067   */\n      dup4\n        /* \"#utility.yul\":15054:15071   */\n      add\n        /* \"#utility.yul\":15045:15051   */\n      dup8\n        /* \"#utility.yul\":15001:15072   */\n      tag_126\n      jump\t// in\n    tag_317:\n        /* \"#utility.yul\":15082:15154   */\n      tag_318\n        /* \"#utility.yul\":15150:15152   */\n      0x20\n        /* \"#utility.yul\":15139:15148   */\n      dup4\n        /* \"#utility.yul\":15135:15153   */\n      add\n        /* \"#utility.yul\":15126:15132   */\n      dup7\n        /* \"#utility.yul\":15082:15154   */\n      tag_121\n      jump\t// in\n    tag_318:\n        /* \"#utility.yul\":15164:15236   */\n      tag_319\n        /* \"#utility.yul\":15232:15234   */\n      0x40\n        /* \"#utility.yul\":15221:15230   */\n      dup4\n        /* \"#utility.yul\":15217:15235   */\n      add\n        /* \"#utility.yul\":15208:15214   */\n      dup6\n        /* \"#utility.yul\":15164:15236   */\n      tag_124\n      jump\t// in\n    tag_319:\n        /* \"#utility.yul\":15246:15318   */\n      tag_320\n        /* \"#utility.yul\":15314:15316   */\n      0x60\n        /* \"#utility.yul\":15303:15312   */\n      dup4\n        /* \"#utility.yul\":15299:15317   */\n      add\n        /* \"#utility.yul\":15290:15296   */\n      dup5\n        /* \"#utility.yul\":15246:15318   */\n      tag_121\n      jump\t// in\n    tag_320:\n        /* \"#utility.yul\":14772:15325   */\n      swap6\n      swap5\n      pop\n      pop\n      pop\n      pop\n      pop\n      jump\t// out\n        /* \"#utility.yul\":15331:15410   */\n    tag_159:\n        /* \"#utility.yul\":15370:15377   */\n      0x00\n        /* \"#utility.yul\":15399:15404   */\n      dup2\n        /* \"#utility.yul\":15388:15404   */\n      swap1\n      pop\n        /* \"#utility.yul\":15331:15410   */\n      swap2\n      swap1\n      pop\n      jump\t// out\n        /* \"#utility.yul\":15416:15573   */\n    tag_160:\n        /* \"#utility.yul\":15521:15566   */\n      tag_323\n        /* \"#utility.yul\":15541:15565   */\n      tag_324\n        /* \"#utility.yul\":15559:15564   */\n      dup3\n        /* \"#utility.yul\":15541:15565   */\n      tag_125\n      jump\t// in\n    tag_324:\n        /* \"#utility.yul\":15521:15566   */\n      tag_159\n      jump\t// in\n    tag_323:\n        /* \"#utility.yul\":15516:15519   */\n      dup3\n        /* \"#utility.yul\":15509:15567   */\n      mstore\n        /* \"#utility.yul\":15416:15573   */\n      pop\n      pop\n      jump\t// out\n        /* \"#utility.yul\":15579:15658   */\n    tag_161:\n        /* \"#utility.yul\":15618:15625   */\n      0x00\n        /* \"#utility.yul\":15647:15652   */\n      dup2\n        /* \"#utility.yul\":15636:15652   */\n      swap1\n      pop\n        /* \"#utility.yul\":15579:15658   */\n      swap2\n      swap1\n      pop\n      jump\t// out\n        /* \"#utility.yul\":15664:15821   */\n    tag_162:\n        /* \"#utility.yul\":15769:15814   */\n      tag_327\n        /* \"#utility.yul\":15789:15813   */\n      tag_328\n        /* \"#utility.yul\":15807:15812   */\n      dup3\n        /* \"#utility.yul\":15789:15813   */\n      tag_120\n      jump\t// in\n    tag_328:\n        /* \"#utility.yul\":15769:15814   */\n      tag_161\n      jump\t// in\n    tag_327:\n        /* \"#utility.yul\":15764:15767   */\n      dup3\n        /* \"#utility.yul\":15757:15815   */\n      mstore\n        /* \"#utility.yul\":15664:15821   */\n      pop\n      pop\n      jump\t// out\n        /* \"#utility.yul\":15827:16224   */\n    tag_112:\n        /* \"#utility.yul\":15967:15970   */\n      0x00\n        /* \"#utility.yul\":15982:16057   */\n      tag_330\n        /* \"#utility.yul\":16053:16056   */\n      dup3\n        /* \"#utility.yul\":16044:16050   */\n      dup6\n        /* \"#utility.yul\":15982:16057   */\n      tag_160\n      jump\t// in\n    tag_330:\n        /* \"#utility.yul\":16082:16084   */\n      0x20\n        /* \"#utility.yul\":16077:16080   */\n      dup3\n        /* \"#utility.yul\":16073:16085   */\n      add\n        /* \"#utility.yul\":16066:16085   */\n      swap2\n      pop\n        /* \"#utility.yul\":16095:16170   */\n      tag_331\n        /* \"#utility.yul\":16166:16169   */\n      dup3\n        /* \"#utility.yul\":16157:16163   */\n      dup5\n        /* \"#utility.yul\":16095:16170   */\n      tag_162\n      jump\t// in\n    tag_331:\n        /* \"#utility.yul\":16195:16197   */\n      0x20\n        /* \"#utility.yul\":16190:16193   */\n      dup3\n        /* \"#utility.yul\":16186:16198   */\n      add\n        /* \"#utility.yul\":16179:16198   */\n      swap2\n      pop\n        /* \"#utility.yul\":16215:16218   */\n      dup2\n        /* \"#utility.yul\":16208:16218   */\n      swap1\n      pop\n        /* \"#utility.yul\":15827:16224   */\n      swap4\n      swap3\n      pop\n      pop\n      pop\n      jump\t// out\n\n    auxdata: 0xa2646970667358221220c5b1ba23315d778589ff156c946809bde7cc2002cb45e4a1e2dba99aa7b8d86264736f6c634300081a0033\n}\n",
				"bytecode": {
					"linkReferences": {},
					"object": "60c060405234801561000f575f80fd5b506040516112f93803806112f9833981810160405281019061003191906101b9565b83838173ffffffffffffffffffffffffffffffffffffffff1660a08173ffffffffffffffffffffffffffffffffffffffff16815250508073ffffffffffffffffffffffffffffffffffffffff1660808173ffffffffffffffffffffffffffffffffffffffff168152505050508460015f6101000a81548173ffffffffffffffffffffffffffffffffffffffff021916908373ffffffffffffffffffffffffffffffffffffffff16021790555081600481905550806005819055505050505050610230565b5f80fd5b5f73ffffffffffffffffffffffffffffffffffffffff82169050919050565b5f610122826100f9565b9050919050565b61013281610118565b811461013c575f80fd5b50565b5f8151905061014d81610129565b92915050565b5f819050919050565b61016581610153565b811461016f575f80fd5b50565b5f815190506101808161015c565b92915050565b5f819050919050565b61019881610186565b81146101a2575f80fd5b50565b5f815190506101b38161018f565b92915050565b5f805f805f60a086880312156101d2576101d16100f5565b5b5f6101df8882890161013f565b95505060206101f08882890161013f565b94505060406102018882890161013f565b935050606061021288828901610172565b9250506080610223888289016101a5565b9150509295509295909350565b60805160a05161109a61025f5f395f818161046b015261056901525f8181610376015261052d015261109a5ff3fe608060405234801561000f575f80fd5b506004361061007b575f3560e01c80637cd38ff8116100595780637cd38ff8146100e95780639233be0d1461011957806394985ddd14610149578063c9cf5ddf146101655761007b565b806316934fc41461007f578063266d3730146100af5780637547c7a3146100cd575b5f80fd5b610099600480360381019061009491906108a6565b610183565b6040516100a691906108e9565b60405180910390f35b6100b7610198565b6040516100c491906108e9565b60405180910390f35b6100e760048036038101906100e2919061092c565b61019e565b005b61010360048036038101906100fe919061092c565b610335565b6040516101109190610966565b60405180910390f35b610133600480360381019061012e919061092c565b610370565b6040516101409190610997565b60405180910390f35b610163600480360381019061015e91906109da565b610469565b005b61016d610505565b60405161017a9190610a73565b60405180910390f35b6002602052805f5260405f205f915090505481565b60065481565b5f81116101e0576040517f08c379a00000000000000000000000000000000000000000000000000000000081526004016101d790610ae6565b60405180910390fd5b60015f9054906101000a900473ffffffffffffffffffffffffffffffffffffffff1673ffffffffffffffffffffffffffffffffffffffff166323b872dd3330846040518463ffffffff1660e01b815260040161023e93929190610b04565b6020604051808303815f875af115801561025a573d5f803e3d5ffd5b505050506040513d601f19601f8201168201806040525081019061027e9190610b6e565b508060025f3373ffffffffffffffffffffffffffffffffffffffff1673ffffffffffffffffffffffffffffffffffffffff1681526020019081526020015f205f8282546102cb9190610bc6565b92505081905550600333908060018154018082558091505060019003905f5260205f20015f9091909190916101000a81548173ffffffffffffffffffffffffffffffffffffffff021916908373ffffffffffffffffffffffffffffffffffffffff16021790555050565b60038181548110610344575f80fd5b905f5260205f20015f915054906101000a900473ffffffffffffffffffffffffffffffffffffffff1681565b5f6005547f000000000000000000000000000000000000000000000000000000000000000073ffffffffffffffffffffffffffffffffffffffff166370a08231306040518263ffffffff1660e01b81526004016103cd9190610966565b602060405180830381865afa1580156103e8573d5f803e3d5ffd5b505050506040513d601f19601f8201168201806040525081019061040c9190610c0d565b101561044d576040517f08c379a000000000000000000000000000000000000000000000000000000000815260040161044490610ca8565b60405180910390fd5b8160068190555061046260045460055461052a565b9050919050565b7f000000000000000000000000000000000000000000000000000000000000000073ffffffffffffffffffffffffffffffffffffffff163373ffffffffffffffffffffffffffffffffffffffff16146104f7576040517f08c379a00000000000000000000000000000000000000000000000000000000081526004016104ee90610d10565b60405180910390fd5b610501828261066d565b5050565b60015f9054906101000a900473ffffffffffffffffffffffffffffffffffffffff1681565b5f7f000000000000000000000000000000000000000000000000000000000000000073ffffffffffffffffffffffffffffffffffffffff16634000aea07f000000000000000000000000000000000000000000000000000000000000000084865f60405160200161059c929190610d2e565b6040516020818303038152906040526040518463ffffffff1660e01b81526004016105c993929190610dc5565b6020604051808303815f875af11580156105e5573d5f803e3d5ffd5b505050506040513d601f19601f820116820180604052508101906106099190610b6e565b505f610627845f305f808981526020019081526020015f20546107dc565b905060015f808681526020019081526020015f20546106469190610bc6565b5f808681526020019081526020015f20819055506106648482610816565b91505092915050565b5f60065467ffffffffffffffff81111561068a57610689610e01565b5b6040519080825280602002602001820160405280156106b85781602001602082028036833780820191505090505b5090505f5b60065481101561079f575f600380549050846106d99190610e5b565b9050600381815481106106ef576106ee610e8b565b5b905f5260205f20015f9054906101000a900473ffffffffffffffffffffffffffffffffffffffff1683838151811061072a57610729610e8b565b5b602002602001019073ffffffffffffffffffffffffffffffffffffffff16908173ffffffffffffffffffffffffffffffffffffffff16815250508382604051602001610777929190610eb8565b604051602081830303815290604052805190602001205f1c93505080806001019150506106bd565b507fc97825e5374b835cdcd76e5da76fc12b913fbb7c548601763fa1abd26054f083816040516107cf9190610f96565b60405180910390a1505050565b5f848484846040516020016107f49493929190610fb6565b604051602081830303815290604052805190602001205f1c9050949350505050565b5f828260405160200161082a929190611039565b60405160208183030381529060405280519060200120905092915050565b5f80fd5b5f73ffffffffffffffffffffffffffffffffffffffff82169050919050565b5f6108758261084c565b9050919050565b6108858161086b565b811461088f575f80fd5b50565b5f813590506108a08161087c565b92915050565b5f602082840312156108bb576108ba610848565b5b5f6108c884828501610892565b91505092915050565b5f819050919050565b6108e3816108d1565b82525050565b5f6020820190506108fc5f8301846108da565b92915050565b61090b816108d1565b8114610915575f80fd5b50565b5f8135905061092681610902565b92915050565b5f6020828403121561094157610940610848565b5b5f61094e84828501610918565b91505092915050565b6109608161086b565b82525050565b5f6020820190506109795f830184610957565b92915050565b5f819050919050565b6109918161097f565b82525050565b5f6020820190506109aa5f830184610988565b92915050565b6109b98161097f565b81146109c3575f80fd5b50565b5f813590506109d4816109b0565b92915050565b5f80604083850312156109f0576109ef610848565b5b5f6109fd858286016109c6565b9250506020610a0e85828601610918565b9150509250929050565b5f819050919050565b5f610a3b610a36610a318461084c565b610a18565b61084c565b9050919050565b5f610a4c82610a21565b9050919050565b5f610a5d82610a42565b9050919050565b610a6d81610a53565b82525050565b5f602082019050610a865f830184610a64565b92915050565b5f82825260208201905092915050565b7f416d6f756e74206d7573742062652067726561746572207468616e207a65726f5f82015250565b5f610ad0602083610a8c565b9150610adb82610a9c565b602082019050919050565b5f6020820190508181035f830152610afd81610ac4565b9050919050565b5f606082019050610b175f830186610957565b610b246020830185610957565b610b3160408301846108da565b949350505050565b5f8115159050919050565b610b4d81610b39565b8114610b57575f80fd5b50565b5f81519050610b6881610b44565b92915050565b5f60208284031215610b8357610b82610848565b5b5f610b9084828501610b5a565b91505092915050565b7f4e487b71000000000000000000000000000000000000000000000000000000005f52601160045260245ffd5b5f610bd0826108d1565b9150610bdb836108d1565b9250828201905080821115610bf357610bf2610b99565b5b92915050565b5f81519050610c0781610902565b92915050565b5f60208284031215610c2257610c21610848565b5b5f610c2f84828501610bf9565b91505092915050565b7f4e6f7420656e6f756768204c494e4b202d2066696c6c20636f6e7472616374205f8201527f7769746820666175636574000000000000000000000000000000000000000000602082015250565b5f610c92602b83610a8c565b9150610c9d82610c38565b604082019050919050565b5f6020820190508181035f830152610cbf81610c86565b9050919050565b7f4f6e6c7920565246436f6f7264696e61746f722063616e2066756c66696c6c005f82015250565b5f610cfa601f83610a8c565b9150610d0582610cc6565b602082019050919050565b5f6020820190508181035f830152610d2781610cee565b9050919050565b5f604082019050610d415f830185610988565b610d4e60208301846108da565b9392505050565b5f81519050919050565b5f82825260208201905092915050565b8281835e5f83830152505050565b5f601f19601f8301169050919050565b5f610d9782610d55565b610da18185610d5f565b9350610db1818560208601610d6f565b610dba81610d7d565b840191505092915050565b5f606082019050610dd85f830186610957565b610de560208301856108da565b8181036040830152610df78184610d8d565b9050949350505050565b7f4e487b71000000000000000000000000000000000000000000000000000000005f52604160045260245ffd5b7f4e487b71000000000000000000000000000000000000000000000000000000005f52601260045260245ffd5b5f610e65826108d1565b9150610e70836108d1565b925082610e8057610e7f610e2e565b5b828206905092915050565b7f4e487b71000000000000000000000000000000000000000000000000000000005f52603260045260245ffd5b5f604082019050610ecb5f8301856108da565b610ed860208301846108da565b9392505050565b5f81519050919050565b5f82825260208201905092915050565b5f819050602082019050919050565b610f118161086b565b82525050565b5f610f228383610f08565b60208301905092915050565b5f602082019050919050565b5f610f4482610edf565b610f4e8185610ee9565b9350610f5983610ef9565b805f5b83811015610f89578151610f708882610f17565b9750610f7b83610f2e565b925050600181019050610f5c565b5085935050505092915050565b5f6020820190508181035f830152610fae8184610f3a565b905092915050565b5f608082019050610fc95f830187610988565b610fd660208301866108da565b610fe36040830185610957565b610ff060608301846108da565b95945050505050565b5f819050919050565b61101361100e8261097f565b610ff9565b82525050565b5f819050919050565b61103361102e826108d1565b611019565b82525050565b5f6110448285611002565b6020820191506110548284611022565b602082019150819050939250505056fea2646970667358221220c5b1ba23315d778589ff156c946809bde7cc2002cb45e4a1e2dba99aa7b8d86264736f6c634300081a0033",
					"opcodes": "PUSH1 0xC0 PUSH1 0x40 MSTORE CALLVALUE DUP1 ISZERO PUSH2 0xF JUMPI PUSH0 DUP1 REVERT JUMPDEST POP PUSH1 0x40 MLOAD PUSH2 0x12F9 CODESIZE SUB DUP1 PUSH2 0x12F9 DUP4 CODECOPY DUP2 DUP2 ADD PUSH1 0x40 MSTORE DUP2 ADD SWAP1 PUSH2 0x31 SWAP2 SWAP1 PUSH2 0x1B9 JUMP JUMPDEST DUP4 DUP4 DUP2 PUSH20 0xFFFFFFFFFFFFFFFFFFFFFFFFFFFFFFFFFFFFFFFF AND PUSH1 0xA0 DUP2 PUSH20 0xFFFFFFFFFFFFFFFFFFFFFFFFFFFFFFFFFFFFFFFF AND DUP2 MSTORE POP POP DUP1 PUSH20 0xFFFFFFFFFFFFFFFFFFFFFFFFFFFFFFFFFFFFFFFF AND PUSH1 0x80 DUP2 PUSH20 0xFFFFFFFFFFFFFFFFFFFFFFFFFFFFFFFFFFFFFFFF AND DUP2 MSTORE POP POP POP POP DUP5 PUSH1 0x1 PUSH0 PUSH2 0x100 EXP DUP2 SLOAD DUP2 PUSH20 0xFFFFFFFFFFFFFFFFFFFFFFFFFFFFFFFFFFFFFFFF MUL NOT AND SWAP1 DUP4 PUSH20 0xFFFFFFFFFFFFFFFFFFFFFFFFFFFFFFFFFFFFFFFF AND MUL OR SWAP1 SSTORE POP DUP2 PUSH1 0x4 DUP2 SWAP1 SSTORE POP DUP1 PUSH1 0x5 DUP2 SWAP1 SSTORE POP POP POP POP POP POP PUSH2 0x230 JUMP JUMPDEST PUSH0 DUP1 REVERT JUMPDEST PUSH0 PUSH20 0xFFFFFFFFFFFFFFFFFFFFFFFFFFFFFFFFFFFFFFFF DUP3 AND SWAP1 POP SWAP2 SWAP1 POP JUMP JUMPDEST PUSH0 PUSH2 0x122 DUP3 PUSH2 0xF9 JUMP JUMPDEST SWAP1 POP SWAP2 SWAP1 POP JUMP JUMPDEST PUSH2 0x132 DUP2 PUSH2 0x118 JUMP JUMPDEST DUP2 EQ PUSH2 0x13C JUMPI PUSH0 DUP1 REVERT JUMPDEST POP JUMP JUMPDEST PUSH0 DUP2 MLOAD SWAP1 POP PUSH2 0x14D DUP2 PUSH2 0x129 JUMP JUMPDEST SWAP3 SWAP2 POP POP JUMP JUMPDEST PUSH0 DUP2 SWAP1 POP SWAP2 SWAP1 POP JUMP JUMPDEST PUSH2 0x165 DUP2 PUSH2 0x153 JUMP JUMPDEST DUP2 EQ PUSH2 0x16F JUMPI PUSH0 DUP1 REVERT JUMPDEST POP JUMP JUMPDEST PUSH0 DUP2 MLOAD SWAP1 POP PUSH2 0x180 DUP2 PUSH2 0x15C JUMP JUMPDEST SWAP3 SWAP2 POP POP JUMP JUMPDEST PUSH0 DUP2 SWAP1 POP SWAP2 SWAP1 POP JUMP JUMPDEST PUSH2 0x198 DUP2 PUSH2 0x186 JUMP JUMPDEST DUP2 EQ PUSH2 0x1A2 JUMPI PUSH0 DUP1 REVERT JUMPDEST POP JUMP JUMPDEST PUSH0 DUP2 MLOAD SWAP1 POP PUSH2 0x1B3 DUP2 PUSH2 0x18F JUMP JUMPDEST SWAP3 SWAP2 POP POP JUMP JUMPDEST PUSH0 DUP1 PUSH0 DUP1 PUSH0 PUSH1 0xA0 DUP7 DUP9 SUB SLT ISZERO PUSH2 0x1D2 JUMPI PUSH2 0x1D1 PUSH2 0xF5 JUMP JUMPDEST JUMPDEST PUSH0 PUSH2 0x1DF DUP9 DUP3 DUP10 ADD PUSH2 0x13F JUMP JUMPDEST SWAP6 POP POP PUSH1 0x20 PUSH2 0x1F0 DUP9 DUP3 DUP10 ADD PUSH2 0x13F JUMP JUMPDEST SWAP5 POP POP PUSH1 0x40 PUSH2 0x201 DUP9 DUP3 DUP10 ADD PUSH2 0x13F JUMP JUMPDEST SWAP4 POP POP PUSH1 0x60 PUSH2 0x212 DUP9 DUP3 DUP10 ADD PUSH2 0x172 JUMP JUMPDEST SWAP3 POP POP PUSH1 0x80 PUSH2 0x223 DUP9 DUP3 DUP10 ADD PUSH2 0x1A5 JUMP JUMPDEST SWAP2 POP POP SWAP3 SWAP6 POP SWAP3 SWAP6 SWAP1 SWAP4 POP JUMP JUMPDEST PUSH1 0x80 MLOAD PUSH1 0xA0 MLOAD PUSH2 0x109A PUSH2 0x25F PUSH0 CODECOPY PUSH0 DUP2 DUP2 PUSH2 0x46B ADD MSTORE PUSH2 0x569 ADD MSTORE PUSH0 DUP2 DUP2 PUSH2 0x376 ADD MSTORE PUSH2 0x52D ADD MSTORE PUSH2 0x109A PUSH0 RETURN INVALID PUSH1 0x80 PUSH1 0x40 MSTORE CALLVALUE DUP1 ISZERO PUSH2 0xF JUMPI PUSH0 DUP1 REVERT JUMPDEST POP PUSH1 0x4 CALLDATASIZE LT PUSH2 0x7B JUMPI PUSH0 CALLDATALOAD PUSH1 0xE0 SHR DUP1 PUSH4 0x7CD38FF8 GT PUSH2 0x59 JUMPI DUP1 PUSH4 0x7CD38FF8 EQ PUSH2 0xE9 JUMPI DUP1 PUSH4 0x9233BE0D EQ PUSH2 0x119 JUMPI DUP1 PUSH4 0x94985DDD EQ PUSH2 0x149 JUMPI DUP1 PUSH4 0xC9CF5DDF EQ PUSH2 0x165 JUMPI PUSH2 0x7B JUMP JUMPDEST DUP1 PUSH4 0x16934FC4 EQ PUSH2 0x7F JUMPI DUP1 PUSH4 0x266D3730 EQ PUSH2 0xAF JUMPI DUP1 PUSH4 0x7547C7A3 EQ PUSH2 0xCD JUMPI JUMPDEST PUSH0 DUP1 REVERT JUMPDEST PUSH2 0x99 PUSH1 0x4 DUP1 CALLDATASIZE SUB DUP2 ADD SWAP1 PUSH2 0x94 SWAP2 SWAP1 PUSH2 0x8A6 JUMP JUMPDEST PUSH2 0x183 JUMP JUMPDEST PUSH1 0x40 MLOAD PUSH2 0xA6 SWAP2 SWAP1 PUSH2 0x8E9 JUMP JUMPDEST PUSH1 0x40 MLOAD DUP1 SWAP2 SUB SWAP1 RETURN JUMPDEST PUSH2 0xB7 PUSH2 0x198 JUMP JUMPDEST PUSH1 0x40 MLOAD PUSH2 0xC4 SWAP2 SWAP1 PUSH2 0x8E9 JUMP JUMPDEST PUSH1 0x40 MLOAD DUP1 SWAP2 SUB SWAP1 RETURN JUMPDEST PUSH2 0xE7 PUSH1 0x4 DUP1 CALLDATASIZE SUB DUP2 ADD SWAP1 PUSH2 0xE2 SWAP2 SWAP1 PUSH2 0x92C JUMP JUMPDEST PUSH2 0x19E JUMP JUMPDEST STOP JUMPDEST PUSH2 0x103 PUSH1 0x4 DUP1 CALLDATASIZE SUB DUP2 ADD SWAP1 PUSH2 0xFE SWAP2 SWAP1 PUSH2 0x92C JUMP JUMPDEST PUSH2 0x335 JUMP JUMPDEST PUSH1 0x40 MLOAD PUSH2 0x110 SWAP2 SWAP1 PUSH2 0x966 JUMP JUMPDEST PUSH1 0x40 MLOAD DUP1 SWAP2 SUB SWAP1 RETURN JUMPDEST PUSH2 0x133 PUSH1 0x4 DUP1 CALLDATASIZE SUB DUP2 ADD SWAP1 PUSH2 0x12E SWAP2 SWAP1 PUSH2 0x92C JUMP JUMPDEST PUSH2 0x370 JUMP JUMPDEST PUSH1 0x40 MLOAD PUSH2 0x140 SWAP2 SWAP1 PUSH2 0x997 JUMP JUMPDEST PUSH1 0x40 MLOAD DUP1 SWAP2 SUB SWAP1 RETURN JUMPDEST PUSH2 0x163 PUSH1 0x4 DUP1 CALLDATASIZE SUB DUP2 ADD SWAP1 PUSH2 0x15E SWAP2 SWAP1 PUSH2 0x9DA JUMP JUMPDEST PUSH2 0x469 JUMP JUMPDEST STOP JUMPDEST PUSH2 0x16D PUSH2 0x505 JUMP JUMPDEST PUSH1 0x40 MLOAD PUSH2 0x17A SWAP2 SWAP1 PUSH2 0xA73 JUMP JUMPDEST PUSH1 0x40 MLOAD DUP1 SWAP2 SUB SWAP1 RETURN JUMPDEST PUSH1 0x2 PUSH1 0x20 MSTORE DUP1 PUSH0 MSTORE PUSH1 0x40 PUSH0 KECCAK256 PUSH0 SWAP2 POP SWAP1 POP SLOAD DUP2 JUMP JUMPDEST PUSH1 0x6 SLOAD DUP2 JUMP JUMPDEST PUSH0 DUP2 GT PUSH2 0x1E0 JUMPI PUSH1 0x40 MLOAD PUSH32 0x8C379A000000000000000000000000000000000000000000000000000000000 DUP2 MSTORE PUSH1 0x4 ADD PUSH2 0x1D7 SWAP1 PUSH2 0xAE6 JUMP JUMPDEST PUSH1 0x40 MLOAD DUP1 SWAP2 SUB SWAP1 REVERT JUMPDEST PUSH1 0x1 PUSH0 SWAP1 SLOAD SWAP1 PUSH2 0x100 EXP SWAP1 DIV PUSH20 0xFFFFFFFFFFFFFFFFFFFFFFFFFFFFFFFFFFFFFFFF AND PUSH20 0xFFFFFFFFFFFFFFFFFFFFFFFFFFFFFFFFFFFFFFFF AND PUSH4 0x23B872DD CALLER ADDRESS DUP5 PUSH1 0x40 MLOAD DUP5 PUSH4 0xFFFFFFFF AND PUSH1 0xE0 SHL DUP2 MSTORE PUSH1 0x4 ADD PUSH2 0x23E SWAP4 SWAP3 SWAP2 SWAP1 PUSH2 0xB04 JUMP JUMPDEST PUSH1 0x20 PUSH1 0x40 MLOAD DUP1 DUP4 SUB DUP2 PUSH0 DUP8 GAS CALL ISZERO DUP1 ISZERO PUSH2 0x25A JUMPI RETURNDATASIZE PUSH0 DUP1 RETURNDATACOPY RETURNDATASIZE PUSH0 REVERT JUMPDEST POP POP POP POP PUSH1 0x40 MLOAD RETURNDATASIZE PUSH1 0x1F NOT PUSH1 0x1F DUP3 ADD AND DUP3 ADD DUP1 PUSH1 0x40 MSTORE POP DUP2 ADD SWAP1 PUSH2 0x27E SWAP2 SWAP1 PUSH2 0xB6E JUMP JUMPDEST POP DUP1 PUSH1 0x2 PUSH0 CALLER PUSH20 0xFFFFFFFFFFFFFFFFFFFFFFFFFFFFFFFFFFFFFFFF AND PUSH20 0xFFFFFFFFFFFFFFFFFFFFFFFFFFFFFFFFFFFFFFFF AND DUP2 MSTORE PUSH1 0x20 ADD SWAP1 DUP2 MSTORE PUSH1 0x20 ADD PUSH0 KECCAK256 PUSH0 DUP3 DUP3 SLOAD PUSH2 0x2CB SWAP2 SWAP1 PUSH2 0xBC6 JUMP JUMPDEST SWAP3 POP POP DUP2 SWAP1 SSTORE POP PUSH1 0x3 CALLER SWAP1 DUP1 PUSH1 0x1 DUP2 SLOAD ADD DUP1 DUP3 SSTORE DUP1 SWAP2 POP POP PUSH1 0x1 SWAP1 SUB SWAP1 PUSH0 MSTORE PUSH1 0x20 PUSH0 KECCAK256 ADD PUSH0 SWAP1 SWAP2 SWAP1 SWAP2 SWAP1 SWAP2 PUSH2 0x100 EXP DUP2 SLOAD DUP2 PUSH20 0xFFFFFFFFFFFFFFFFFFFFFFFFFFFFFFFFFFFFFFFF MUL NOT AND SWAP1 DUP4 PUSH20 0xFFFFFFFFFFFFFFFFFFFFFFFFFFFFFFFFFFFFFFFF AND MUL OR SWAP1 SSTORE POP POP JUMP JUMPDEST PUSH1 0x3 DUP2 DUP2 SLOAD DUP2 LT PUSH2 0x344 JUMPI PUSH0 DUP1 REVERT JUMPDEST SWAP1 PUSH0 MSTORE PUSH1 0x20 PUSH0 KECCAK256 ADD PUSH0 SWAP2 POP SLOAD SWAP1 PUSH2 0x100 EXP SWAP1 DIV PUSH20 0xFFFFFFFFFFFFFFFFFFFFFFFFFFFFFFFFFFFFFFFF AND DUP2 JUMP JUMPDEST PUSH0 PUSH1 0x5 SLOAD PUSH32 0x0 PUSH20 0xFFFFFFFFFFFFFFFFFFFFFFFFFFFFFFFFFFFFFFFF AND PUSH4 0x70A08231 ADDRESS PUSH1 0x40 MLOAD DUP3 PUSH4 0xFFFFFFFF AND PUSH1 0xE0 SHL DUP2 MSTORE PUSH1 0x4 ADD PUSH2 0x3CD SWAP2 SWAP1 PUSH2 0x966 JUMP JUMPDEST PUSH1 0x20 PUSH1 0x40 MLOAD DUP1 DUP4 SUB DUP2 DUP7 GAS STATICCALL ISZERO DUP1 ISZERO PUSH2 0x3E8 JUMPI RETURNDATASIZE PUSH0 DUP1 RETURNDATACOPY RETURNDATASIZE PUSH0 REVERT JUMPDEST POP POP POP POP PUSH1 0x40 MLOAD RETURNDATASIZE PUSH1 0x1F NOT PUSH1 0x1F DUP3 ADD AND DUP3 ADD DUP1 PUSH1 0x40 MSTORE POP DUP2 ADD SWAP1 PUSH2 0x40C SWAP2 SWAP1 PUSH2 0xC0D JUMP JUMPDEST LT ISZERO PUSH2 0x44D JUMPI PUSH1 0x40 MLOAD PUSH32 0x8C379A000000000000000000000000000000000000000000000000000000000 DUP2 MSTORE PUSH1 0x4 ADD PUSH2 0x444 SWAP1 PUSH2 0xCA8 JUMP JUMPDEST PUSH1 0x40 MLOAD DUP1 SWAP2 SUB SWAP1 REVERT JUMPDEST DUP2 PUSH1 0x6 DUP2 SWAP1 SSTORE POP PUSH2 0x462 PUSH1 0x4 SLOAD PUSH1 0x5 SLOAD PUSH2 0x52A JUMP JUMPDEST SWAP1 POP SWAP2 SWAP1 POP JUMP JUMPDEST PUSH32 0x0 PUSH20 0xFFFFFFFFFFFFFFFFFFFFFFFFFFFFFFFFFFFFFFFF AND CALLER PUSH20 0xFFFFFFFFFFFFFFFFFFFFFFFFFFFFFFFFFFFFFFFF AND EQ PUSH2 0x4F7 JUMPI PUSH1 0x40 MLOAD PUSH32 0x8C379A000000000000000000000000000000000000000000000000000000000 DUP2 MSTORE PUSH1 0x4 ADD PUSH2 0x4EE SWAP1 PUSH2 0xD10 JUMP JUMPDEST PUSH1 0x40 MLOAD DUP1 SWAP2 SUB SWAP1 REVERT JUMPDEST PUSH2 0x501 DUP3 DUP3 PUSH2 0x66D JUMP JUMPDEST POP POP JUMP JUMPDEST PUSH1 0x1 PUSH0 SWAP1 SLOAD SWAP1 PUSH2 0x100 EXP SWAP1 DIV PUSH20 0xFFFFFFFFFFFFFFFFFFFFFFFFFFFFFFFFFFFFFFFF AND DUP2 JUMP JUMPDEST PUSH0 PUSH32 0x0 PUSH20 0xFFFFFFFFFFFFFFFFFFFFFFFFFFFFFFFFFFFFFFFF AND PUSH4 0x4000AEA0 PUSH32 0x0 DUP5 DUP7 PUSH0 PUSH1 0x40 MLOAD PUSH1 0x20 ADD PUSH2 0x59C SWAP3 SWAP2 SWAP1 PUSH2 0xD2E JUMP JUMPDEST PUSH1 0x40 MLOAD PUSH1 0x20 DUP2 DUP4 SUB SUB DUP2 MSTORE SWAP1 PUSH1 0x40 MSTORE PUSH1 0x40 MLOAD DUP5 PUSH4 0xFFFFFFFF AND PUSH1 0xE0 SHL DUP2 MSTORE PUSH1 0x4 ADD PUSH2 0x5C9 SWAP4 SWAP3 SWAP2 SWAP1 PUSH2 0xDC5 JUMP JUMPDEST PUSH1 0x20 PUSH1 0x40 MLOAD DUP1 DUP4 SUB DUP2 PUSH0 DUP8 GAS CALL ISZERO DUP1 ISZERO PUSH2 0x5E5 JUMPI RETURNDATASIZE PUSH0 DUP1 RETURNDATACOPY RETURNDATASIZE PUSH0 REVERT JUMPDEST POP POP POP POP PUSH1 0x40 MLOAD RETURNDATASIZE PUSH1 0x1F NOT PUSH1 0x1F DUP3 ADD AND DUP3 ADD DUP1 PUSH1 0x40 MSTORE POP DUP2 ADD SWAP1 PUSH2 0x609 SWAP2 SWAP1 PUSH2 0xB6E JUMP JUMPDEST POP PUSH0 PUSH2 0x627 DUP5 PUSH0 ADDRESS PUSH0 DUP1 DUP10 DUP2 MSTORE PUSH1 0x20 ADD SWAP1 DUP2 MSTORE PUSH1 0x20 ADD PUSH0 KECCAK256 SLOAD PUSH2 0x7DC JUMP JUMPDEST SWAP1 POP PUSH1 0x1 PUSH0 DUP1 DUP7 DUP2 MSTORE PUSH1 0x20 ADD SWAP1 DUP2 MSTORE PUSH1 0x20 ADD PUSH0 KECCAK256 SLOAD PUSH2 0x646 SWAP2 SWAP1 PUSH2 0xBC6 JUMP JUMPDEST PUSH0 DUP1 DUP7 DUP2 MSTORE PUSH1 0x20 ADD SWAP1 DUP2 MSTORE PUSH1 0x20 ADD PUSH0 KECCAK256 DUP2 SWAP1 SSTORE POP PUSH2 0x664 DUP5 DUP3 PUSH2 0x816 JUMP JUMPDEST SWAP2 POP POP SWAP3 SWAP2 POP POP JUMP JUMPDEST PUSH0 PUSH1 0x6 SLOAD PUSH8 0xFFFFFFFFFFFFFFFF DUP2 GT ISZERO PUSH2 0x68A JUMPI PUSH2 0x689 PUSH2 0xE01 JUMP JUMPDEST JUMPDEST PUSH1 0x40 MLOAD SWAP1 DUP1 DUP3 MSTORE DUP1 PUSH1 0x20 MUL PUSH1 0x20 ADD DUP3 ADD PUSH1 0x40 MSTORE DUP1 ISZERO PUSH2 0x6B8 JUMPI DUP2 PUSH1 0x20 ADD PUSH1 0x20 DUP3 MUL DUP1 CALLDATASIZE DUP4 CALLDATACOPY DUP1 DUP3 ADD SWAP2 POP POP SWAP1 POP JUMPDEST POP SWAP1 POP PUSH0 JUMPDEST PUSH1 0x6 SLOAD DUP2 LT ISZERO PUSH2 0x79F JUMPI PUSH0 PUSH1 0x3 DUP1 SLOAD SWAP1 POP DUP5 PUSH2 0x6D9 SWAP2 SWAP1 PUSH2 0xE5B JUMP JUMPDEST SWAP1 POP PUSH1 0x3 DUP2 DUP2 SLOAD DUP2 LT PUSH2 0x6EF JUMPI PUSH2 0x6EE PUSH2 0xE8B JUMP JUMPDEST JUMPDEST SWAP1 PUSH0 MSTORE PUSH1 0x20 PUSH0 KECCAK256 ADD PUSH0 SWAP1 SLOAD SWAP1 PUSH2 0x100 EXP SWAP1 DIV PUSH20 0xFFFFFFFFFFFFFFFFFFFFFFFFFFFFFFFFFFFFFFFF AND DUP4 DUP4 DUP2 MLOAD DUP2 LT PUSH2 0x72A JUMPI PUSH2 0x729 PUSH2 0xE8B JUMP JUMPDEST JUMPDEST PUSH1 0x20 MUL PUSH1 0x20 ADD ADD SWAP1 PUSH20 0xFFFFFFFFFFFFFFFFFFFFFFFFFFFFFFFFFFFFFFFF AND SWAP1 DUP2 PUSH20 0xFFFFFFFFFFFFFFFFFFFFFFFFFFFFFFFFFFFFFFFF AND DUP2 MSTORE POP POP DUP4 DUP3 PUSH1 0x40 MLOAD PUSH1 0x20 ADD PUSH2 0x777 SWAP3 SWAP2 SWAP1 PUSH2 0xEB8 JUMP JUMPDEST PUSH1 0x40 MLOAD PUSH1 0x20 DUP2 DUP4 SUB SUB DUP2 MSTORE SWAP1 PUSH1 0x40 MSTORE DUP1 MLOAD SWAP1 PUSH1 0x20 ADD KECCAK256 PUSH0 SHR SWAP4 POP POP DUP1 DUP1 PUSH1 0x1 ADD SWAP2 POP POP PUSH2 0x6BD JUMP JUMPDEST POP PUSH32 0xC97825E5374B835CDCD76E5DA76FC12B913FBB7C548601763FA1ABD26054F083 DUP2 PUSH1 0x40 MLOAD PUSH2 0x7CF SWAP2 SWAP1 PUSH2 0xF96 JUMP JUMPDEST PUSH1 0x40 MLOAD DUP1 SWAP2 SUB SWAP1 LOG1 POP POP POP JUMP JUMPDEST PUSH0 DUP5 DUP5 DUP5 DUP5 PUSH1 0x40 MLOAD PUSH1 0x20 ADD PUSH2 0x7F4 SWAP5 SWAP4 SWAP3 SWAP2 SWAP1 PUSH2 0xFB6 JUMP JUMPDEST PUSH1 0x40 MLOAD PUSH1 0x20 DUP2 DUP4 SUB SUB DUP2 MSTORE SWAP1 PUSH1 0x40 MSTORE DUP1 MLOAD SWAP1 PUSH1 0x20 ADD KECCAK256 PUSH0 SHR SWAP1 POP SWAP5 SWAP4 POP POP POP POP JUMP JUMPDEST PUSH0 DUP3 DUP3 PUSH1 0x40 MLOAD PUSH1 0x20 ADD PUSH2 0x82A SWAP3 SWAP2 SWAP1 PUSH2 0x1039 JUMP JUMPDEST PUSH1 0x40 MLOAD PUSH1 0x20 DUP2 DUP4 SUB SUB DUP2 MSTORE SWAP1 PUSH1 0x40 MSTORE DUP1 MLOAD SWAP1 PUSH1 0x20 ADD KECCAK256 SWAP1 POP SWAP3 SWAP2 POP POP JUMP JUMPDEST PUSH0 DUP1 REVERT JUMPDEST PUSH0 PUSH20 0xFFFFFFFFFFFFFFFFFFFFFFFFFFFFFFFFFFFFFFFF DUP3 AND SWAP1 POP SWAP2 SWAP1 POP JUMP JUMPDEST PUSH0 PUSH2 0x875 DUP3 PUSH2 0x84C JUMP JUMPDEST SWAP1 POP SWAP2 SWAP1 POP JUMP JUMPDEST PUSH2 0x885 DUP2 PUSH2 0x86B JUMP JUMPDEST DUP2 EQ PUSH2 0x88F JUMPI PUSH0 DUP1 REVERT JUMPDEST POP JUMP JUMPDEST PUSH0 DUP2 CALLDATALOAD SWAP1 POP PUSH2 0x8A0 DUP2 PUSH2 0x87C JUMP JUMPDEST SWAP3 SWAP2 POP POP JUMP JUMPDEST PUSH0 PUSH1 0x20 DUP3 DUP5 SUB SLT ISZERO PUSH2 0x8BB JUMPI PUSH2 0x8BA PUSH2 0x848 JUMP JUMPDEST JUMPDEST PUSH0 PUSH2 0x8C8 DUP5 DUP3 DUP6 ADD PUSH2 0x892 JUMP JUMPDEST SWAP2 POP POP SWAP3 SWAP2 POP POP JUMP JUMPDEST PUSH0 DUP2 SWAP1 POP SWAP2 SWAP1 POP JUMP JUMPDEST PUSH2 0x8E3 DUP2 PUSH2 0x8D1 JUMP JUMPDEST DUP3 MSTORE POP POP JUMP JUMPDEST PUSH0 PUSH1 0x20 DUP3 ADD SWAP1 POP PUSH2 0x8FC PUSH0 DUP4 ADD DUP5 PUSH2 0x8DA JUMP JUMPDEST SWAP3 SWAP2 POP POP JUMP JUMPDEST PUSH2 0x90B DUP2 PUSH2 0x8D1 JUMP JUMPDEST DUP2 EQ PUSH2 0x915 JUMPI PUSH0 DUP1 REVERT JUMPDEST POP JUMP JUMPDEST PUSH0 DUP2 CALLDATALOAD SWAP1 POP PUSH2 0x926 DUP2 PUSH2 0x902 JUMP JUMPDEST SWAP3 SWAP2 POP POP JUMP JUMPDEST PUSH0 PUSH1 0x20 DUP3 DUP5 SUB SLT ISZERO PUSH2 0x941 JUMPI PUSH2 0x940 PUSH2 0x848 JUMP JUMPDEST JUMPDEST PUSH0 PUSH2 0x94E DUP5 DUP3 DUP6 ADD PUSH2 0x918 JUMP JUMPDEST SWAP2 POP POP SWAP3 SWAP2 POP POP JUMP JUMPDEST PUSH2 0x960 DUP2 PUSH2 0x86B JUMP JUMPDEST DUP3 MSTORE POP POP JUMP JUMPDEST PUSH0 PUSH1 0x20 DUP3 ADD SWAP1 POP PUSH2 0x979 PUSH0 DUP4 ADD DUP5 PUSH2 0x957 JUMP JUMPDEST SWAP3 SWAP2 POP POP JUMP JUMPDEST PUSH0 DUP2 SWAP1 POP SWAP2 SWAP1 POP JUMP JUMPDEST PUSH2 0x991 DUP2 PUSH2 0x97F JUMP JUMPDEST DUP3 MSTORE POP POP JUMP JUMPDEST PUSH0 PUSH1 0x20 DUP3 ADD SWAP1 POP PUSH2 0x9AA PUSH0 DUP4 ADD DUP5 PUSH2 0x988 JUMP JUMPDEST SWAP3 SWAP2 POP POP JUMP JUMPDEST PUSH2 0x9B9 DUP2 PUSH2 0x97F JUMP JUMPDEST DUP2 EQ PUSH2 0x9C3 JUMPI PUSH0 DUP1 REVERT JUMPDEST POP JUMP JUMPDEST PUSH0 DUP2 CALLDATALOAD SWAP1 POP PUSH2 0x9D4 DUP2 PUSH2 0x9B0 JUMP JUMPDEST SWAP3 SWAP2 POP POP JUMP JUMPDEST PUSH0 DUP1 PUSH1 0x40 DUP4 DUP6 SUB SLT ISZERO PUSH2 0x9F0 JUMPI PUSH2 0x9EF PUSH2 0x848 JUMP JUMPDEST JUMPDEST PUSH0 PUSH2 0x9FD DUP6 DUP3 DUP7 ADD PUSH2 0x9C6 JUMP JUMPDEST SWAP3 POP POP PUSH1 0x20 PUSH2 0xA0E DUP6 DUP3 DUP7 ADD PUSH2 0x918 JUMP JUMPDEST SWAP2 POP POP SWAP3 POP SWAP3 SWAP1 POP JUMP JUMPDEST PUSH0 DUP2 SWAP1 POP SWAP2 SWAP1 POP JUMP JUMPDEST PUSH0 PUSH2 0xA3B PUSH2 0xA36 PUSH2 0xA31 DUP5 PUSH2 0x84C JUMP JUMPDEST PUSH2 0xA18 JUMP JUMPDEST PUSH2 0x84C JUMP JUMPDEST SWAP1 POP SWAP2 SWAP1 POP JUMP JUMPDEST PUSH0 PUSH2 0xA4C DUP3 PUSH2 0xA21 JUMP JUMPDEST SWAP1 POP SWAP2 SWAP1 POP JUMP JUMPDEST PUSH0 PUSH2 0xA5D DUP3 PUSH2 0xA42 JUMP JUMPDEST SWAP1 POP SWAP2 SWAP1 POP JUMP JUMPDEST PUSH2 0xA6D DUP2 PUSH2 0xA53 JUMP JUMPDEST DUP3 MSTORE POP POP JUMP JUMPDEST PUSH0 PUSH1 0x20 DUP3 ADD SWAP1 POP PUSH2 0xA86 PUSH0 DUP4 ADD DUP5 PUSH2 0xA64 JUMP JUMPDEST SWAP3 SWAP2 POP POP JUMP JUMPDEST PUSH0 DUP3 DUP3 MSTORE PUSH1 0x20 DUP3 ADD SWAP1 POP SWAP3 SWAP2 POP POP JUMP JUMPDEST PUSH32 0x416D6F756E74206D7573742062652067726561746572207468616E207A65726F PUSH0 DUP3 ADD MSTORE POP JUMP JUMPDEST PUSH0 PUSH2 0xAD0 PUSH1 0x20 DUP4 PUSH2 0xA8C JUMP JUMPDEST SWAP2 POP PUSH2 0xADB DUP3 PUSH2 0xA9C JUMP JUMPDEST PUSH1 0x20 DUP3 ADD SWAP1 POP SWAP2 SWAP1 POP JUMP JUMPDEST PUSH0 PUSH1 0x20 DUP3 ADD SWAP1 POP DUP2 DUP2 SUB PUSH0 DUP4 ADD MSTORE PUSH2 0xAFD DUP2 PUSH2 0xAC4 JUMP JUMPDEST SWAP1 POP SWAP2 SWAP1 POP JUMP JUMPDEST PUSH0 PUSH1 0x60 DUP3 ADD SWAP1 POP PUSH2 0xB17 PUSH0 DUP4 ADD DUP7 PUSH2 0x957 JUMP JUMPDEST PUSH2 0xB24 PUSH1 0x20 DUP4 ADD DUP6 PUSH2 0x957 JUMP JUMPDEST PUSH2 0xB31 PUSH1 0x40 DUP4 ADD DUP5 PUSH2 0x8DA JUMP JUMPDEST SWAP5 SWAP4 POP POP POP POP JUMP JUMPDEST PUSH0 DUP2 ISZERO ISZERO SWAP1 POP SWAP2 SWAP1 POP JUMP JUMPDEST PUSH2 0xB4D DUP2 PUSH2 0xB39 JUMP JUMPDEST DUP2 EQ PUSH2 0xB57 JUMPI PUSH0 DUP1 REVERT JUMPDEST POP JUMP JUMPDEST PUSH0 DUP2 MLOAD SWAP1 POP PUSH2 0xB68 DUP2 PUSH2 0xB44 JUMP JUMPDEST SWAP3 SWAP2 POP POP JUMP JUMPDEST PUSH0 PUSH1 0x20 DUP3 DUP5 SUB SLT ISZERO PUSH2 0xB83 JUMPI PUSH2 0xB82 PUSH2 0x848 JUMP JUMPDEST JUMPDEST PUSH0 PUSH2 0xB90 DUP5 DUP3 DUP6 ADD PUSH2 0xB5A JUMP JUMPDEST SWAP2 POP POP SWAP3 SWAP2 POP POP JUMP JUMPDEST PUSH32 0x4E487B7100000000000000000000000000000000000000000000000000000000 PUSH0 MSTORE PUSH1 0x11 PUSH1 0x4 MSTORE PUSH1 0x24 PUSH0 REVERT JUMPDEST PUSH0 PUSH2 0xBD0 DUP3 PUSH2 0x8D1 JUMP JUMPDEST SWAP2 POP PUSH2 0xBDB DUP4 PUSH2 0x8D1 JUMP JUMPDEST SWAP3 POP DUP3 DUP3 ADD SWAP1 POP DUP1 DUP3 GT ISZERO PUSH2 0xBF3 JUMPI PUSH2 0xBF2 PUSH2 0xB99 JUMP JUMPDEST JUMPDEST SWAP3 SWAP2 POP POP JUMP JUMPDEST PUSH0 DUP2 MLOAD SWAP1 POP PUSH2 0xC07 DUP2 PUSH2 0x902 JUMP JUMPDEST SWAP3 SWAP2 POP POP JUMP JUMPDEST PUSH0 PUSH1 0x20 DUP3 DUP5 SUB SLT ISZERO PUSH2 0xC22 JUMPI PUSH2 0xC21 PUSH2 0x848 JUMP JUMPDEST JUMPDEST PUSH0 PUSH2 0xC2F DUP5 DUP3 DUP6 ADD PUSH2 0xBF9 JUMP JUMPDEST SWAP2 POP POP SWAP3 SWAP2 POP POP JUMP JUMPDEST PUSH32 0x4E6F7420656E6F756768204C494E4B202D2066696C6C20636F6E747261637420 PUSH0 DUP3 ADD MSTORE PUSH32 0x7769746820666175636574000000000000000000000000000000000000000000 PUSH1 0x20 DUP3 ADD MSTORE POP JUMP JUMPDEST PUSH0 PUSH2 0xC92 PUSH1 0x2B DUP4 PUSH2 0xA8C JUMP JUMPDEST SWAP2 POP PUSH2 0xC9D DUP3 PUSH2 0xC38 JUMP JUMPDEST PUSH1 0x40 DUP3 ADD SWAP1 POP SWAP2 SWAP1 POP JUMP JUMPDEST PUSH0 PUSH1 0x20 DUP3 ADD SWAP1 POP DUP2 DUP2 SUB PUSH0 DUP4 ADD MSTORE PUSH2 0xCBF DUP2 PUSH2 0xC86 JUMP JUMPDEST SWAP1 POP SWAP2 SWAP1 POP JUMP JUMPDEST PUSH32 0x4F6E6C7920565246436F6F7264696E61746F722063616E2066756C66696C6C00 PUSH0 DUP3 ADD MSTORE POP JUMP JUMPDEST PUSH0 PUSH2 0xCFA PUSH1 0x1F DUP4 PUSH2 0xA8C JUMP JUMPDEST SWAP2 POP PUSH2 0xD05 DUP3 PUSH2 0xCC6 JUMP JUMPDEST PUSH1 0x20 DUP3 ADD SWAP1 POP SWAP2 SWAP1 POP JUMP JUMPDEST PUSH0 PUSH1 0x20 DUP3 ADD SWAP1 POP DUP2 DUP2 SUB PUSH0 DUP4 ADD MSTORE PUSH2 0xD27 DUP2 PUSH2 0xCEE JUMP JUMPDEST SWAP1 POP SWAP2 SWAP1 POP JUMP JUMPDEST PUSH0 PUSH1 0x40 DUP3 ADD SWAP1 POP PUSH2 0xD41 PUSH0 DUP4 ADD DUP6 PUSH2 0x988 JUMP JUMPDEST PUSH2 0xD4E PUSH1 0x20 DUP4 ADD DUP5 PUSH2 0x8DA JUMP JUMPDEST SWAP4 SWAP3 POP POP POP JUMP JUMPDEST PUSH0 DUP2 MLOAD SWAP1 POP SWAP2 SWAP1 POP JUMP JUMPDEST PUSH0 DUP3 DUP3 MSTORE PUSH1 0x20 DUP3 ADD SWAP1 POP SWAP3 SWAP2 POP POP JUMP JUMPDEST DUP3 DUP2 DUP4 MCOPY PUSH0 DUP4 DUP4 ADD MSTORE POP POP POP JUMP JUMPDEST PUSH0 PUSH1 0x1F NOT PUSH1 0x1F DUP4 ADD AND SWAP1 POP SWAP2 SWAP1 POP JUMP JUMPDEST PUSH0 PUSH2 0xD97 DUP3 PUSH2 0xD55 JUMP JUMPDEST PUSH2 0xDA1 DUP2 DUP6 PUSH2 0xD5F JUMP JUMPDEST SWAP4 POP PUSH2 0xDB1 DUP2 DUP6 PUSH1 0x20 DUP7 ADD PUSH2 0xD6F JUMP JUMPDEST PUSH2 0xDBA DUP2 PUSH2 0xD7D JUMP JUMPDEST DUP5 ADD SWAP2 POP POP SWAP3 SWAP2 POP POP JUMP JUMPDEST PUSH0 PUSH1 0x60 DUP3 ADD SWAP1 POP PUSH2 0xDD8 PUSH0 DUP4 ADD DUP7 PUSH2 0x957 JUMP JUMPDEST PUSH2 0xDE5 PUSH1 0x20 DUP4 ADD DUP6 PUSH2 0x8DA JUMP JUMPDEST DUP2 DUP2 SUB PUSH1 0x40 DUP4 ADD MSTORE PUSH2 0xDF7 DUP2 DUP5 PUSH2 0xD8D JUMP JUMPDEST SWAP1 POP SWAP5 SWAP4 POP POP POP POP JUMP JUMPDEST PUSH32 0x4E487B7100000000000000000000000000000000000000000000000000000000 PUSH0 MSTORE PUSH1 0x41 PUSH1 0x4 MSTORE PUSH1 0x24 PUSH0 REVERT JUMPDEST PUSH32 0x4E487B7100000000000000000000000000000000000000000000000000000000 PUSH0 MSTORE PUSH1 0x12 PUSH1 0x4 MSTORE PUSH1 0x24 PUSH0 REVERT JUMPDEST PUSH0 PUSH2 0xE65 DUP3 PUSH2 0x8D1 JUMP JUMPDEST SWAP2 POP PUSH2 0xE70 DUP4 PUSH2 0x8D1 JUMP JUMPDEST SWAP3 POP DUP3 PUSH2 0xE80 JUMPI PUSH2 0xE7F PUSH2 0xE2E JUMP JUMPDEST JUMPDEST DUP3 DUP3 MOD SWAP1 POP SWAP3 SWAP2 POP POP JUMP JUMPDEST PUSH32 0x4E487B7100000000000000000000000000000000000000000000000000000000 PUSH0 MSTORE PUSH1 0x32 PUSH1 0x4 MSTORE PUSH1 0x24 PUSH0 REVERT JUMPDEST PUSH0 PUSH1 0x40 DUP3 ADD SWAP1 POP PUSH2 0xECB PUSH0 DUP4 ADD DUP6 PUSH2 0x8DA JUMP JUMPDEST PUSH2 0xED8 PUSH1 0x20 DUP4 ADD DUP5 PUSH2 0x8DA JUMP JUMPDEST SWAP4 SWAP3 POP POP POP JUMP JUMPDEST PUSH0 DUP2 MLOAD SWAP1 POP SWAP2 SWAP1 POP JUMP JUMPDEST PUSH0 DUP3 DUP3 MSTORE PUSH1 0x20 DUP3 ADD SWAP1 POP SWAP3 SWAP2 POP POP JUMP JUMPDEST PUSH0 DUP2 SWAP1 POP PUSH1 0x20 DUP3 ADD SWAP1 POP SWAP2 SWAP1 POP JUMP JUMPDEST PUSH2 0xF11 DUP2 PUSH2 0x86B JUMP JUMPDEST DUP3 MSTORE POP POP JUMP JUMPDEST PUSH0 PUSH2 0xF22 DUP4 DUP4 PUSH2 0xF08 JUMP JUMPDEST PUSH1 0x20 DUP4 ADD SWAP1 POP SWAP3 SWAP2 POP POP JUMP JUMPDEST PUSH0 PUSH1 0x20 DUP3 ADD SWAP1 POP SWAP2 SWAP1 POP JUMP JUMPDEST PUSH0 PUSH2 0xF44 DUP3 PUSH2 0xEDF JUMP JUMPDEST PUSH2 0xF4E DUP2 DUP6 PUSH2 0xEE9 JUMP JUMPDEST SWAP4 POP PUSH2 0xF59 DUP4 PUSH2 0xEF9 JUMP JUMPDEST DUP1 PUSH0 JUMPDEST DUP4 DUP2 LT ISZERO PUSH2 0xF89 JUMPI DUP2 MLOAD PUSH2 0xF70 DUP9 DUP3 PUSH2 0xF17 JUMP JUMPDEST SWAP8 POP PUSH2 0xF7B DUP4 PUSH2 0xF2E JUMP JUMPDEST SWAP3 POP POP PUSH1 0x1 DUP2 ADD SWAP1 POP PUSH2 0xF5C JUMP JUMPDEST POP DUP6 SWAP4 POP POP POP POP SWAP3 SWAP2 POP POP JUMP JUMPDEST PUSH0 PUSH1 0x20 DUP3 ADD SWAP1 POP DUP2 DUP2 SUB PUSH0 DUP4 ADD MSTORE PUSH2 0xFAE DUP2 DUP5 PUSH2 0xF3A JUMP JUMPDEST SWAP1 POP SWAP3 SWAP2 POP POP JUMP JUMPDEST PUSH0 PUSH1 0x80 DUP3 ADD SWAP1 POP PUSH2 0xFC9 PUSH0 DUP4 ADD DUP8 PUSH2 0x988 JUMP JUMPDEST PUSH2 0xFD6 PUSH1 0x20 DUP4 ADD DUP7 PUSH2 0x8DA JUMP JUMPDEST PUSH2 0xFE3 PUSH1 0x40 DUP4 ADD DUP6 PUSH2 0x957 JUMP JUMPDEST PUSH2 0xFF0 PUSH1 0x60 DUP4 ADD DUP5 PUSH2 0x8DA JUMP JUMPDEST SWAP6 SWAP5 POP POP POP POP POP JUMP JUMPDEST PUSH0 DUP2 SWAP1 POP SWAP2 SWAP1 POP JUMP JUMPDEST PUSH2 0x1013 PUSH2 0x100E DUP3 PUSH2 0x97F JUMP JUMPDEST PUSH2 0xFF9 JUMP JUMPDEST DUP3 MSTORE POP POP JUMP JUMPDEST PUSH0 DUP2 SWAP1 POP SWAP2 SWAP1 POP JUMP JUMPDEST PUSH2 0x1033 PUSH2 0x102E DUP3 PUSH2 0x8D1 JUMP JUMPDEST PUSH2 0x1019 JUMP JUMPDEST DUP3 MSTORE POP POP JUMP JUMPDEST PUSH0 PUSH2 0x1044 DUP3 DUP6 PUSH2 0x1002 JUMP JUMPDEST PUSH1 0x20 DUP3 ADD SWAP2 POP PUSH2 0x1054 DUP3 DUP5 PUSH2 0x1022 JUMP JUMPDEST PUSH1 0x20 DUP3 ADD SWAP2 POP DUP2 SWAP1 POP SWAP4 SWAP3 POP POP POP JUMP INVALID LOG2 PUSH5 0x6970667358 0x22 SLT KECCAK256 0xC5 0xB1 0xBA 0x23 BALANCE TSTORE PUSH24 0x8589FF156C946809BDE7CC2002CB45E4A1E2DBA99AA7B8D8 PUSH3 0x64736F PUSH13 0x634300081A0033000000000000 "
				},
				"gasEstimates": {
					"creation": {
						"codeDepositCost": "850000",
						"executionCost": "infinite",
						"totalCost": "infinite"
					},
					"external": {
						"grullToken()": "infinite",
						"jurors(uint256)": "4944",
						"numJurorsToSelect()": "2448",
						"rawFulfillRandomness(bytes32,uint256)": "infinite",
						"selectJurors(uint256)": "infinite",
						"stakeTokens(uint256)": "infinite",
						"stakes(address)": "2803"
					},
					"internal": {
						"fulfillRandomness(bytes32,uint256)": "infinite"
					}
				},
				"methodIdentifiers": {
					"grullToken()": "c9cf5ddf",
					"jurors(uint256)": "7cd38ff8",
					"numJurorsToSelect()": "266d3730",
					"rawFulfillRandomness(bytes32,uint256)": "94985ddd",
					"selectJurors(uint256)": "9233be0d",
					"stakeTokens(uint256)": "7547c7a3",
					"stakes(address)": "16934fc4"
				}
			},
			"storageLayout": {
				"storage": [
					{
						"astId": 79,
						"contract": "contracts/jurorSelection.sol:JurorSelection",
						"label": "nonces",
						"offset": 0,
						"slot": "0",
						"type": "t_mapping(t_bytes32,t_uint256)"
					},
					{
						"astId": 352,
						"contract": "contracts/jurorSelection.sol:JurorSelection",
						"label": "grullToken",
						"offset": 0,
						"slot": "1",
						"type": "t_contract(IERC20)343"
					},
					{
						"astId": 356,
						"contract": "contracts/jurorSelection.sol:JurorSelection",
						"label": "stakes",
						"offset": 0,
						"slot": "2",
						"type": "t_mapping(t_address,t_uint256)"
					},
					{
						"astId": 359,
						"contract": "contracts/jurorSelection.sol:JurorSelection",
						"label": "jurors",
						"offset": 0,
						"slot": "3",
						"type": "t_array(t_address)dyn_storage"
					},
					{
						"astId": 361,
						"contract": "contracts/jurorSelection.sol:JurorSelection",
						"label": "keyHash",
						"offset": 0,
						"slot": "4",
						"type": "t_bytes32"
					},
					{
						"astId": 363,
						"contract": "contracts/jurorSelection.sol:JurorSelection",
						"label": "fee",
						"offset": 0,
						"slot": "5",
						"type": "t_uint256"
					},
					{
						"astId": 365,
						"contract": "contracts/jurorSelection.sol:JurorSelection",
						"label": "numJurorsToSelect",
						"offset": 0,
						"slot": "6",
						"type": "t_uint256"
					}
				],
				"types": {
					"t_address": {
						"encoding": "inplace",
						"label": "address",
						"numberOfBytes": "20"
					},
					"t_array(t_address)dyn_storage": {
						"base": "t_address",
						"encoding": "dynamic_array",
						"label": "address[]",
						"numberOfBytes": "32"
					},
					"t_bytes32": {
						"encoding": "inplace",
						"label": "bytes32",
						"numberOfBytes": "32"
					},
					"t_contract(IERC20)343": {
						"encoding": "inplace",
						"label": "contract IERC20",
						"numberOfBytes": "20"
					},
					"t_mapping(t_address,t_uint256)": {
						"encoding": "mapping",
						"key": "t_address",
						"label": "mapping(address => uint256)",
						"numberOfBytes": "32",
						"value": "t_uint256"
					},
					"t_mapping(t_bytes32,t_uint256)": {
						"encoding": "mapping",
						"key": "t_bytes32",
						"label": "mapping(bytes32 => uint256)",
						"numberOfBytes": "32",
						"value": "t_uint256"
					},
					"t_uint256": {
						"encoding": "inplace",
						"label": "uint256",
						"numberOfBytes": "32"
					}
				}
			},
			"userdoc": {
				"kind": "user",
				"methods": {},
				"version": 1
			}
		}
	}
}