{
	"contracts/votingSystem.sol": {
		"VotingSystem": {
			"abi": [
				{
					"inputs": [
						{
							"internalType": "string",
							"name": "_description",
							"type": "string"
						}
					],
					"name": "createDispute",
					"outputs": [],
					"stateMutability": "nonpayable",
					"type": "function"
				},
				{
					"inputs": [
						{
							"internalType": "uint256",
							"name": "",
							"type": "uint256"
						}
					],
					"name": "disputes",
					"outputs": [
						{
							"internalType": "uint256",
							"name": "id",
							"type": "uint256"
						},
						{
							"internalType": "string",
							"name": "description",
							"type": "string"
						},
						{
							"internalType": "uint256",
							"name": "inFavor",
							"type": "uint256"
						},
						{
							"internalType": "uint256",
							"name": "against",
							"type": "uint256"
						},
						{
							"internalType": "bool",
							"name": "resolved",
							"type": "bool"
						}
					],
					"stateMutability": "view",
					"type": "function"
				},
				{
					"inputs": [
						{
							"internalType": "uint256",
							"name": "_disputeId",
							"type": "uint256"
						}
					],
					"name": "resolveDispute",
					"outputs": [],
					"stateMutability": "nonpayable",
					"type": "function"
				},
				{
					"inputs": [
						{
							"internalType": "uint256",
							"name": "_disputeId",
							"type": "uint256"
						},
						{
							"internalType": "bool",
							"name": "_vote",
							"type": "bool"
						}
					],
					"name": "vote",
					"outputs": [],
					"stateMutability": "nonpayable",
					"type": "function"
				}
			],
			"devdoc": {
				"kind": "dev",
				"methods": {},
				"version": 1
			},
			"evm": {
				"assembly": "    /* \"contracts/votingSystem.sol\":61:1281  contract VotingSystem {... */\n  mstore(0x40, 0x80)\n  callvalue\n  dup1\n  iszero\n  tag_1\n  jumpi\n  0x00\n  dup1\n  revert\ntag_1:\n  pop\n  dataSize(sub_0)\n  dup1\n  dataOffset(sub_0)\n  0x00\n  codecopy\n  0x00\n  return\nstop\n\nsub_0: assembly {\n        /* \"contracts/votingSystem.sol\":61:1281  contract VotingSystem {... */\n      mstore(0x40, 0x80)\n      callvalue\n      dup1\n      iszero\n      tag_1\n      jumpi\n      0x00\n      dup1\n      revert\n    tag_1:\n      pop\n      jumpi(tag_2, lt(calldatasize, 0x04))\n      shr(0xe0, calldataload(0x00))\n      dup1\n      0x564a565d\n      eq\n      tag_3\n      jumpi\n      dup1\n      0x68175996\n      eq\n      tag_4\n      jumpi\n      dup1\n      0xc2b7b868\n      eq\n      tag_5\n      jumpi\n      dup1\n      0xc9d27afe\n      eq\n      tag_6\n      jumpi\n    tag_2:\n      0x00\n      dup1\n      revert\n        /* \"contracts/votingSystem.sol\":288:313  Dispute[] public disputes */\n    tag_3:\n      tag_7\n      0x04\n      dup1\n      calldatasize\n      sub\n      dup2\n      add\n      swap1\n      tag_8\n      swap2\n      swap1\n      tag_9\n      jump\t// in\n    tag_8:\n      tag_10\n      jump\t// in\n    tag_7:\n      mload(0x40)\n      tag_11\n      swap6\n      swap5\n      swap4\n      swap3\n      swap2\n      swap1\n      tag_12\n      jump\t// in\n    tag_11:\n      mload(0x40)\n      dup1\n      swap2\n      sub\n      swap1\n      return\n        /* \"contracts/votingSystem.sol\":322:641  function createDispute(string memory _description) public {... */\n    tag_4:\n      tag_13\n      0x04\n      dup1\n      calldatasize\n      sub\n      dup2\n      add\n      swap1\n      tag_14\n      swap2\n      swap1\n      tag_15\n      jump\t// in\n    tag_14:\n      tag_16\n      jump\t// in\n    tag_13:\n      stop\n        /* \"contracts/votingSystem.sol\":1063:1278  function resolveDispute(uint256 _disputeId) public {... */\n    tag_5:\n      tag_17\n      0x04\n      dup1\n      calldatasize\n      sub\n      dup2\n      add\n      swap1\n      tag_18\n      swap2\n      swap1\n      tag_9\n      jump\t// in\n    tag_18:\n      tag_19\n      jump\t// in\n    tag_17:\n      stop\n        /* \"contracts/votingSystem.sol\":649:1055  function vote(uint256 _disputeId, bool _vote) public {... */\n    tag_6:\n      tag_20\n      0x04\n      dup1\n      calldatasize\n      sub\n      dup2\n      add\n      swap1\n      tag_21\n      swap2\n      swap1\n      tag_22\n      jump\t// in\n    tag_21:\n      tag_23\n      jump\t// in\n    tag_20:\n      stop\n        /* \"contracts/votingSystem.sol\":288:313  Dispute[] public disputes */\n    tag_10:\n      0x00\n      dup2\n      dup2\n      sload\n      dup2\n      lt\n      tag_24\n      jumpi\n      0x00\n      dup1\n      revert\n    tag_24:\n      swap1\n      0x00\n      mstore\n      keccak256(0x00, 0x20)\n      swap1\n      0x06\n      mul\n      add\n      0x00\n      swap2\n      pop\n      swap1\n      pop\n      dup1\n      0x00\n      add\n      sload\n      swap1\n      dup1\n      0x01\n      add\n      dup1\n      sload\n      tag_26\n      swap1\n      tag_27\n      jump\t// in\n    tag_26:\n      dup1\n      0x1f\n      add\n      0x20\n      dup1\n      swap2\n      div\n      mul\n      0x20\n      add\n      mload(0x40)\n      swap1\n      dup2\n      add\n      0x40\n      mstore\n      dup1\n      swap3\n      swap2\n      swap1\n      dup2\n      dup2\n      mstore\n      0x20\n      add\n      dup3\n      dup1\n      sload\n      tag_28\n      swap1\n      tag_27\n      jump\t// in\n    tag_28:\n      dup1\n      iszero\n      tag_29\n      jumpi\n      dup1\n      0x1f\n      lt\n      tag_30\n      jumpi\n      0x0100\n      dup1\n      dup4\n      sload\n      div\n      mul\n      dup4\n      mstore\n      swap2\n      0x20\n      add\n      swap2\n      jump(tag_29)\n    tag_30:\n      dup3\n      add\n      swap2\n      swap1\n      0x00\n      mstore\n      keccak256(0x00, 0x20)\n      swap1\n    tag_31:\n      dup2\n      sload\n      dup2\n      mstore\n      swap1\n      0x01\n      add\n      swap1\n      0x20\n      add\n      dup1\n      dup4\n      gt\n      tag_31\n      jumpi\n      dup3\n      swap1\n      sub\n      0x1f\n      and\n      dup3\n      add\n      swap2\n    tag_29:\n      pop\n      pop\n      pop\n      pop\n      pop\n      swap1\n      dup1\n      0x02\n      add\n      sload\n      swap1\n      dup1\n      0x03\n      add\n      sload\n      swap1\n      dup1\n      0x04\n      add\n      0x00\n      swap1\n      sload\n      swap1\n      0x0100\n      exp\n      swap1\n      div\n      0xff\n      and\n      swap1\n      pop\n      dup6\n      jump\t// out\n        /* \"contracts/votingSystem.sol\":322:641  function createDispute(string memory _description) public {... */\n    tag_16:\n        /* \"contracts/votingSystem.sol\":391:417  Dispute storage newDispute */\n      0x00\n        /* \"contracts/votingSystem.sol\":420:428  disputes */\n      dup1\n        /* \"contracts/votingSystem.sol\":420:435  disputes.push() */\n      0x01\n      dup2\n      0x01\n      dup2\n      sload\n      add\n      dup1\n      dup3\n      sstore\n      dup1\n      swap2\n      pop\n      pop\n      sub\n      swap1\n      0x00\n      mstore\n      keccak256(0x00, 0x20)\n      swap1\n      0x06\n      mul\n      add\n        /* \"contracts/votingSystem.sol\":391:435  Dispute storage newDispute = disputes.push() */\n      swap1\n      pop\n        /* \"contracts/votingSystem.sol\":480:481  1 */\n      0x01\n        /* \"contracts/votingSystem.sol\":462:470  disputes */\n      0x00\n        /* \"contracts/votingSystem.sol\":462:477  disputes.length */\n      dup1\n      sload\n      swap1\n      pop\n        /* \"contracts/votingSystem.sol\":462:481  disputes.length - 1 */\n      tag_34\n      swap2\n      swap1\n      tag_35\n      jump\t// in\n    tag_34:\n        /* \"contracts/votingSystem.sol\":446:456  newDispute */\n      dup2\n        /* \"contracts/votingSystem.sol\":446:459  newDispute.id */\n      0x00\n      add\n        /* \"contracts/votingSystem.sol\":446:481  newDispute.id = disputes.length - 1 */\n      dup2\n      swap1\n      sstore\n      pop\n        /* \"contracts/votingSystem.sol\":517:529  _description */\n      dup2\n        /* \"contracts/votingSystem.sol\":492:502  newDispute */\n      dup2\n        /* \"contracts/votingSystem.sol\":492:514  newDispute.description */\n      0x01\n      add\n        /* \"contracts/votingSystem.sol\":492:529  newDispute.description = _description */\n      swap1\n      dup2\n      tag_36\n      swap2\n      swap1\n      tag_37\n      jump\t// in\n    tag_36:\n      pop\n        /* \"contracts/votingSystem.sol\":561:562  0 */\n      0x00\n        /* \"contracts/votingSystem.sol\":540:550  newDispute */\n      dup2\n        /* \"contracts/votingSystem.sol\":540:558  newDispute.inFavor */\n      0x02\n      add\n        /* \"contracts/votingSystem.sol\":540:562  newDispute.inFavor = 0 */\n      dup2\n      swap1\n      sstore\n      pop\n        /* \"contracts/votingSystem.sol\":594:595  0 */\n      0x00\n        /* \"contracts/votingSystem.sol\":573:583  newDispute */\n      dup2\n        /* \"contracts/votingSystem.sol\":573:591  newDispute.against */\n      0x03\n      add\n        /* \"contracts/votingSystem.sol\":573:595  newDispute.against = 0 */\n      dup2\n      swap1\n      sstore\n      pop\n        /* \"contracts/votingSystem.sol\":628:633  false */\n      0x00\n        /* \"contracts/votingSystem.sol\":606:616  newDispute */\n      dup2\n        /* \"contracts/votingSystem.sol\":606:625  newDispute.resolved */\n      0x04\n      add\n      0x00\n        /* \"contracts/votingSystem.sol\":606:633  newDispute.resolved = false */\n      0x0100\n      exp\n      dup2\n      sload\n      dup2\n      0xff\n      mul\n      not\n      and\n      swap1\n      dup4\n      iszero\n      iszero\n      mul\n      or\n      swap1\n      sstore\n      pop\n        /* \"contracts/votingSystem.sol\":380:641  {... */\n      pop\n        /* \"contracts/votingSystem.sol\":322:641  function createDispute(string memory _description) public {... */\n      pop\n      jump\t// out\n        /* \"contracts/votingSystem.sol\":1063:1278  function resolveDispute(uint256 _disputeId) public {... */\n    tag_19:\n        /* \"contracts/votingSystem.sol\":1125:1148  Dispute storage dispute */\n      0x00\n        /* \"contracts/votingSystem.sol\":1151:1159  disputes */\n      dup1\n        /* \"contracts/votingSystem.sol\":1160:1170  _disputeId */\n      dup3\n        /* \"contracts/votingSystem.sol\":1151:1171  disputes[_disputeId] */\n      dup2\n      sload\n      dup2\n      lt\n      tag_39\n      jumpi\n      tag_40\n      tag_41\n      jump\t// in\n    tag_40:\n    tag_39:\n      swap1\n      0x00\n      mstore\n      keccak256(0x00, 0x20)\n      swap1\n      0x06\n      mul\n      add\n        /* \"contracts/votingSystem.sol\":1125:1171  Dispute storage dispute = disputes[_disputeId] */\n      swap1\n      pop\n        /* \"contracts/votingSystem.sol\":1191:1198  dispute */\n      dup1\n        /* \"contracts/votingSystem.sol\":1191:1207  dispute.resolved */\n      0x04\n      add\n      0x00\n      swap1\n      sload\n      swap1\n      0x0100\n      exp\n      swap1\n      div\n      0xff\n      and\n        /* \"contracts/votingSystem.sol\":1190:1207  !dispute.resolved */\n      iszero\n        /* \"contracts/votingSystem.sol\":1182:1236  require(!dispute.resolved, \"Dispute already resolved\") */\n      tag_43\n      jumpi\n      mload(0x40)\n      0x08c379a000000000000000000000000000000000000000000000000000000000\n      dup2\n      mstore\n      0x04\n      add\n      tag_44\n      swap1\n      tag_45\n      jump\t// in\n    tag_44:\n      mload(0x40)\n      dup1\n      swap2\n      sub\n      swap1\n      revert\n    tag_43:\n        /* \"contracts/votingSystem.sol\":1266:1270  true */\n      0x01\n        /* \"contracts/votingSystem.sol\":1247:1254  dispute */\n      dup2\n        /* \"contracts/votingSystem.sol\":1247:1263  dispute.resolved */\n      0x04\n      add\n      0x00\n        /* \"contracts/votingSystem.sol\":1247:1270  dispute.resolved = true */\n      0x0100\n      exp\n      dup2\n      sload\n      dup2\n      0xff\n      mul\n      not\n      and\n      swap1\n      dup4\n      iszero\n      iszero\n      mul\n      or\n      swap1\n      sstore\n      pop\n        /* \"contracts/votingSystem.sol\":1114:1278  {... */\n      pop\n        /* \"contracts/votingSystem.sol\":1063:1278  function resolveDispute(uint256 _disputeId) public {... */\n      pop\n      jump\t// out\n        /* \"contracts/votingSystem.sol\":649:1055  function vote(uint256 _disputeId, bool _vote) public {... */\n    tag_23:\n        /* \"contracts/votingSystem.sol\":713:736  Dispute storage dispute */\n      0x00\n        /* \"contracts/votingSystem.sol\":739:747  disputes */\n      dup1\n        /* \"contracts/votingSystem.sol\":748:758  _disputeId */\n      dup4\n        /* \"contracts/votingSystem.sol\":739:759  disputes[_disputeId] */\n      dup2\n      sload\n      dup2\n      lt\n      tag_47\n      jumpi\n      tag_48\n      tag_41\n      jump\t// in\n    tag_48:\n    tag_47:\n      swap1\n      0x00\n      mstore\n      keccak256(0x00, 0x20)\n      swap1\n      0x06\n      mul\n      add\n        /* \"contracts/votingSystem.sol\":713:759  Dispute storage dispute = disputes[_disputeId] */\n      swap1\n      pop\n        /* \"contracts/votingSystem.sol\":779:786  dispute */\n      dup1\n        /* \"contracts/votingSystem.sol\":779:795  dispute.resolved */\n      0x04\n      add\n      0x00\n      swap1\n      sload\n      swap1\n      0x0100\n      exp\n      swap1\n      div\n      0xff\n      and\n        /* \"contracts/votingSystem.sol\":778:795  !dispute.resolved */\n      iszero\n        /* \"contracts/votingSystem.sol\":770:824  require(!dispute.resolved, \"Dispute already resolved\") */\n      tag_50\n      jumpi\n      mload(0x40)\n      0x08c379a000000000000000000000000000000000000000000000000000000000\n      dup2\n      mstore\n      0x04\n      add\n      tag_51\n      swap1\n      tag_45\n      jump\t// in\n    tag_51:\n      mload(0x40)\n      dup1\n      swap2\n      sub\n      swap1\n      revert\n    tag_50:\n        /* \"contracts/votingSystem.sol\":844:851  dispute */\n      dup1\n        /* \"contracts/votingSystem.sol\":844:857  dispute.votes */\n      0x05\n      add\n        /* \"contracts/votingSystem.sol\":844:869  dispute.votes[msg.sender] */\n      0x00\n        /* \"contracts/votingSystem.sol\":858:868  msg.sender */\n      caller\n        /* \"contracts/votingSystem.sol\":844:869  dispute.votes[msg.sender] */\n      0xffffffffffffffffffffffffffffffffffffffff\n      and\n      0xffffffffffffffffffffffffffffffffffffffff\n      and\n      dup2\n      mstore\n      0x20\n      add\n      swap1\n      dup2\n      mstore\n      0x20\n      add\n      0x00\n      keccak256\n      0x00\n      swap1\n      sload\n      swap1\n      0x0100\n      exp\n      swap1\n      div\n      0xff\n      and\n        /* \"contracts/votingSystem.sol\":843:869  !dispute.votes[msg.sender] */\n      iszero\n        /* \"contracts/votingSystem.sol\":835:887  require(!dispute.votes[msg.sender], \"Already voted\") */\n      tag_52\n      jumpi\n      mload(0x40)\n      0x08c379a000000000000000000000000000000000000000000000000000000000\n      dup2\n      mstore\n      0x04\n      add\n      tag_53\n      swap1\n      tag_54\n      jump\t// in\n    tag_53:\n      mload(0x40)\n      dup1\n      swap2\n      sub\n      swap1\n      revert\n    tag_52:\n        /* \"contracts/votingSystem.sol\":928:932  true */\n      0x01\n        /* \"contracts/votingSystem.sol\":900:907  dispute */\n      dup2\n        /* \"contracts/votingSystem.sol\":900:913  dispute.votes */\n      0x05\n      add\n        /* \"contracts/votingSystem.sol\":900:925  dispute.votes[msg.sender] */\n      0x00\n        /* \"contracts/votingSystem.sol\":914:924  msg.sender */\n      caller\n        /* \"contracts/votingSystem.sol\":900:925  dispute.votes[msg.sender] */\n      0xffffffffffffffffffffffffffffffffffffffff\n      and\n      0xffffffffffffffffffffffffffffffffffffffff\n      and\n      dup2\n      mstore\n      0x20\n      add\n      swap1\n      dup2\n      mstore\n      0x20\n      add\n      0x00\n      keccak256\n      0x00\n        /* \"contracts/votingSystem.sol\":900:932  dispute.votes[msg.sender] = true */\n      0x0100\n      exp\n      dup2\n      sload\n      dup2\n      0xff\n      mul\n      not\n      and\n      swap1\n      dup4\n      iszero\n      iszero\n      mul\n      or\n      swap1\n      sstore\n      pop\n        /* \"contracts/votingSystem.sol\":947:952  _vote */\n      dup2\n        /* \"contracts/votingSystem.sol\":943:1048  if (_vote) {... */\n      iszero\n      tag_55\n      jumpi\n        /* \"contracts/votingSystem.sol\":969:976  dispute */\n      dup1\n        /* \"contracts/votingSystem.sol\":969:984  dispute.inFavor */\n      0x02\n      add\n      0x00\n        /* \"contracts/votingSystem.sol\":969:986  dispute.inFavor++ */\n      dup2\n      sload\n      dup1\n      swap3\n      swap2\n      swap1\n      tag_56\n      swap1\n      tag_57\n      jump\t// in\n    tag_56:\n      swap2\n      swap1\n      pop\n      sstore\n      pop\n        /* \"contracts/votingSystem.sol\":943:1048  if (_vote) {... */\n      jump(tag_58)\n    tag_55:\n        /* \"contracts/votingSystem.sol\":1019:1026  dispute */\n      dup1\n        /* \"contracts/votingSystem.sol\":1019:1034  dispute.against */\n      0x03\n      add\n      0x00\n        /* \"contracts/votingSystem.sol\":1019:1036  dispute.against++ */\n      dup2\n      sload\n      dup1\n      swap3\n      swap2\n      swap1\n      tag_59\n      swap1\n      tag_57\n      jump\t// in\n    tag_59:\n      swap2\n      swap1\n      pop\n      sstore\n      pop\n        /* \"contracts/votingSystem.sol\":943:1048  if (_vote) {... */\n    tag_58:\n        /* \"contracts/votingSystem.sol\":702:1055  {... */\n      pop\n        /* \"contracts/votingSystem.sol\":649:1055  function vote(uint256 _disputeId, bool _vote) public {... */\n      pop\n      pop\n      jump\t// out\n        /* \"#utility.yul\":7:82   */\n    tag_60:\n        /* \"#utility.yul\":40:46   */\n      0x00\n        /* \"#utility.yul\":73:75   */\n      0x40\n        /* \"#utility.yul\":67:76   */\n      mload\n        /* \"#utility.yul\":57:76   */\n      swap1\n      pop\n        /* \"#utility.yul\":7:82   */\n      swap1\n      jump\t// out\n        /* \"#utility.yul\":88:205   */\n    tag_61:\n        /* \"#utility.yul\":197:198   */\n      0x00\n        /* \"#utility.yul\":194:195   */\n      dup1\n        /* \"#utility.yul\":187:199   */\n      revert\n        /* \"#utility.yul\":211:328   */\n    tag_62:\n        /* \"#utility.yul\":320:321   */\n      0x00\n        /* \"#utility.yul\":317:318   */\n      dup1\n        /* \"#utility.yul\":310:322   */\n      revert\n        /* \"#utility.yul\":334:411   */\n    tag_63:\n        /* \"#utility.yul\":371:378   */\n      0x00\n        /* \"#utility.yul\":400:405   */\n      dup2\n        /* \"#utility.yul\":389:405   */\n      swap1\n      pop\n        /* \"#utility.yul\":334:411   */\n      swap2\n      swap1\n      pop\n      jump\t// out\n        /* \"#utility.yul\":417:539   */\n    tag_64:\n        /* \"#utility.yul\":490:514   */\n      tag_112\n        /* \"#utility.yul\":508:513   */\n      dup2\n        /* \"#utility.yul\":490:514   */\n      tag_63\n      jump\t// in\n    tag_112:\n        /* \"#utility.yul\":483:488   */\n      dup2\n        /* \"#utility.yul\":480:515   */\n      eq\n        /* \"#utility.yul\":470:533   */\n      tag_113\n      jumpi\n        /* \"#utility.yul\":529:530   */\n      0x00\n        /* \"#utility.yul\":526:527   */\n      dup1\n        /* \"#utility.yul\":519:531   */\n      revert\n        /* \"#utility.yul\":470:533   */\n    tag_113:\n        /* \"#utility.yul\":417:539   */\n      pop\n      jump\t// out\n        /* \"#utility.yul\":545:684   */\n    tag_65:\n        /* \"#utility.yul\":591:596   */\n      0x00\n        /* \"#utility.yul\":629:635   */\n      dup2\n        /* \"#utility.yul\":616:636   */\n      calldataload\n        /* \"#utility.yul\":607:636   */\n      swap1\n      pop\n        /* \"#utility.yul\":645:678   */\n      tag_115\n        /* \"#utility.yul\":672:677   */\n      dup2\n        /* \"#utility.yul\":645:678   */\n      tag_64\n      jump\t// in\n    tag_115:\n        /* \"#utility.yul\":545:684   */\n      swap3\n      swap2\n      pop\n      pop\n      jump\t// out\n        /* \"#utility.yul\":690:1019   */\n    tag_9:\n        /* \"#utility.yul\":749:755   */\n      0x00\n        /* \"#utility.yul\":798:800   */\n      0x20\n        /* \"#utility.yul\":786:795   */\n      dup3\n        /* \"#utility.yul\":777:784   */\n      dup5\n        /* \"#utility.yul\":773:796   */\n      sub\n        /* \"#utility.yul\":769:801   */\n      slt\n        /* \"#utility.yul\":766:885   */\n      iszero\n      tag_117\n      jumpi\n        /* \"#utility.yul\":804:883   */\n      tag_118\n      tag_61\n      jump\t// in\n    tag_118:\n        /* \"#utility.yul\":766:885   */\n    tag_117:\n        /* \"#utility.yul\":924:925   */\n      0x00\n        /* \"#utility.yul\":949:1002   */\n      tag_119\n        /* \"#utility.yul\":994:1001   */\n      dup5\n        /* \"#utility.yul\":985:991   */\n      dup3\n        /* \"#utility.yul\":974:983   */\n      dup6\n        /* \"#utility.yul\":970:992   */\n      add\n        /* \"#utility.yul\":949:1002   */\n      tag_65\n      jump\t// in\n    tag_119:\n        /* \"#utility.yul\":939:1002   */\n      swap2\n      pop\n        /* \"#utility.yul\":895:1012   */\n      pop\n        /* \"#utility.yul\":690:1019   */\n      swap3\n      swap2\n      pop\n      pop\n      jump\t// out\n        /* \"#utility.yul\":1025:1143   */\n    tag_66:\n        /* \"#utility.yul\":1112:1136   */\n      tag_121\n        /* \"#utility.yul\":1130:1135   */\n      dup2\n        /* \"#utility.yul\":1112:1136   */\n      tag_63\n      jump\t// in\n    tag_121:\n        /* \"#utility.yul\":1107:1110   */\n      dup3\n        /* \"#utility.yul\":1100:1137   */\n      mstore\n        /* \"#utility.yul\":1025:1143   */\n      pop\n      pop\n      jump\t// out\n        /* \"#utility.yul\":1149:1248   */\n    tag_67:\n        /* \"#utility.yul\":1201:1207   */\n      0x00\n        /* \"#utility.yul\":1235:1240   */\n      dup2\n        /* \"#utility.yul\":1229:1241   */\n      mload\n        /* \"#utility.yul\":1219:1241   */\n      swap1\n      pop\n        /* \"#utility.yul\":1149:1248   */\n      swap2\n      swap1\n      pop\n      jump\t// out\n        /* \"#utility.yul\":1254:1423   */\n    tag_68:\n        /* \"#utility.yul\":1338:1349   */\n      0x00\n        /* \"#utility.yul\":1372:1378   */\n      dup3\n        /* \"#utility.yul\":1367:1370   */\n      dup3\n        /* \"#utility.yul\":1360:1379   */\n      mstore\n        /* \"#utility.yul\":1412:1416   */\n      0x20\n        /* \"#utility.yul\":1407:1410   */\n      dup3\n        /* \"#utility.yul\":1403:1417   */\n      add\n        /* \"#utility.yul\":1388:1417   */\n      swap1\n      pop\n        /* \"#utility.yul\":1254:1423   */\n      swap3\n      swap2\n      pop\n      pop\n      jump\t// out\n        /* \"#utility.yul\":1429:1568   */\n    tag_69:\n        /* \"#utility.yul\":1518:1524   */\n      dup3\n        /* \"#utility.yul\":1513:1516   */\n      dup2\n        /* \"#utility.yul\":1508:1511   */\n      dup4\n        /* \"#utility.yul\":1502:1525   */\n      mcopy\n        /* \"#utility.yul\":1559:1560   */\n      0x00\n        /* \"#utility.yul\":1550:1556   */\n      dup4\n        /* \"#utility.yul\":1545:1548   */\n      dup4\n        /* \"#utility.yul\":1541:1557   */\n      add\n        /* \"#utility.yul\":1534:1561   */\n      mstore\n        /* \"#utility.yul\":1429:1568   */\n      pop\n      pop\n      pop\n      jump\t// out\n        /* \"#utility.yul\":1574:1676   */\n    tag_70:\n        /* \"#utility.yul\":1615:1621   */\n      0x00\n        /* \"#utility.yul\":1666:1668   */\n      0x1f\n        /* \"#utility.yul\":1662:1669   */\n      not\n        /* \"#utility.yul\":1657:1659   */\n      0x1f\n        /* \"#utility.yul\":1650:1655   */\n      dup4\n        /* \"#utility.yul\":1646:1660   */\n      add\n        /* \"#utility.yul\":1642:1670   */\n      and\n        /* \"#utility.yul\":1632:1670   */\n      swap1\n      pop\n        /* \"#utility.yul\":1574:1676   */\n      swap2\n      swap1\n      pop\n      jump\t// out\n        /* \"#utility.yul\":1682:2059   */\n    tag_71:\n        /* \"#utility.yul\":1770:1773   */\n      0x00\n        /* \"#utility.yul\":1798:1837   */\n      tag_127\n        /* \"#utility.yul\":1831:1836   */\n      dup3\n        /* \"#utility.yul\":1798:1837   */\n      tag_67\n      jump\t// in\n    tag_127:\n        /* \"#utility.yul\":1853:1924   */\n      tag_128\n        /* \"#utility.yul\":1917:1923   */\n      dup2\n        /* \"#utility.yul\":1912:1915   */\n      dup6\n        /* \"#utility.yul\":1853:1924   */\n      tag_68\n      jump\t// in\n    tag_128:\n        /* \"#utility.yul\":1846:1924   */\n      swap4\n      pop\n        /* \"#utility.yul\":1933:1998   */\n      tag_129\n        /* \"#utility.yul\":1991:1997   */\n      dup2\n        /* \"#utility.yul\":1986:1989   */\n      dup6\n        /* \"#utility.yul\":1979:1983   */\n      0x20\n        /* \"#utility.yul\":1972:1977   */\n      dup7\n        /* \"#utility.yul\":1968:1984   */\n      add\n        /* \"#utility.yul\":1933:1998   */\n      tag_69\n      jump\t// in\n    tag_129:\n        /* \"#utility.yul\":2023:2052   */\n      tag_130\n        /* \"#utility.yul\":2045:2051   */\n      dup2\n        /* \"#utility.yul\":2023:2052   */\n      tag_70\n      jump\t// in\n    tag_130:\n        /* \"#utility.yul\":2018:2021   */\n      dup5\n        /* \"#utility.yul\":2014:2053   */\n      add\n        /* \"#utility.yul\":2007:2053   */\n      swap2\n      pop\n        /* \"#utility.yul\":1774:2059   */\n      pop\n        /* \"#utility.yul\":1682:2059   */\n      swap3\n      swap2\n      pop\n      pop\n      jump\t// out\n        /* \"#utility.yul\":2065:2155   */\n    tag_72:\n        /* \"#utility.yul\":2099:2106   */\n      0x00\n        /* \"#utility.yul\":2142:2147   */\n      dup2\n        /* \"#utility.yul\":2135:2148   */\n      iszero\n        /* \"#utility.yul\":2128:2149   */\n      iszero\n        /* \"#utility.yul\":2117:2149   */\n      swap1\n      pop\n        /* \"#utility.yul\":2065:2155   */\n      swap2\n      swap1\n      pop\n      jump\t// out\n        /* \"#utility.yul\":2161:2270   */\n    tag_73:\n        /* \"#utility.yul\":2242:2263   */\n      tag_133\n        /* \"#utility.yul\":2257:2262   */\n      dup2\n        /* \"#utility.yul\":2242:2263   */\n      tag_72\n      jump\t// in\n    tag_133:\n        /* \"#utility.yul\":2237:2240   */\n      dup3\n        /* \"#utility.yul\":2230:2264   */\n      mstore\n        /* \"#utility.yul\":2161:2270   */\n      pop\n      pop\n      jump\t// out\n        /* \"#utility.yul\":2276:3019   */\n    tag_12:\n        /* \"#utility.yul\":2495:2499   */\n      0x00\n        /* \"#utility.yul\":2533:2536   */\n      0xa0\n        /* \"#utility.yul\":2522:2531   */\n      dup3\n        /* \"#utility.yul\":2518:2537   */\n      add\n        /* \"#utility.yul\":2510:2537   */\n      swap1\n      pop\n        /* \"#utility.yul\":2547:2618   */\n      tag_135\n        /* \"#utility.yul\":2615:2616   */\n      0x00\n        /* \"#utility.yul\":2604:2613   */\n      dup4\n        /* \"#utility.yul\":2600:2617   */\n      add\n        /* \"#utility.yul\":2591:2597   */\n      dup9\n        /* \"#utility.yul\":2547:2618   */\n      tag_66\n      jump\t// in\n    tag_135:\n        /* \"#utility.yul\":2665:2674   */\n      dup2\n        /* \"#utility.yul\":2659:2663   */\n      dup2\n        /* \"#utility.yul\":2655:2675   */\n      sub\n        /* \"#utility.yul\":2650:2652   */\n      0x20\n        /* \"#utility.yul\":2639:2648   */\n      dup4\n        /* \"#utility.yul\":2635:2653   */\n      add\n        /* \"#utility.yul\":2628:2676   */\n      mstore\n        /* \"#utility.yul\":2693:2771   */\n      tag_136\n        /* \"#utility.yul\":2766:2770   */\n      dup2\n        /* \"#utility.yul\":2757:2763   */\n      dup8\n        /* \"#utility.yul\":2693:2771   */\n      tag_71\n      jump\t// in\n    tag_136:\n        /* \"#utility.yul\":2685:2771   */\n      swap1\n      pop\n        /* \"#utility.yul\":2781:2853   */\n      tag_137\n        /* \"#utility.yul\":2849:2851   */\n      0x40\n        /* \"#utility.yul\":2838:2847   */\n      dup4\n        /* \"#utility.yul\":2834:2852   */\n      add\n        /* \"#utility.yul\":2825:2831   */\n      dup7\n        /* \"#utility.yul\":2781:2853   */\n      tag_66\n      jump\t// in\n    tag_137:\n        /* \"#utility.yul\":2863:2935   */\n      tag_138\n        /* \"#utility.yul\":2931:2933   */\n      0x60\n        /* \"#utility.yul\":2920:2929   */\n      dup4\n        /* \"#utility.yul\":2916:2934   */\n      add\n        /* \"#utility.yul\":2907:2913   */\n      dup6\n        /* \"#utility.yul\":2863:2935   */\n      tag_66\n      jump\t// in\n    tag_138:\n        /* \"#utility.yul\":2945:3012   */\n      tag_139\n        /* \"#utility.yul\":3007:3010   */\n      0x80\n        /* \"#utility.yul\":2996:3005   */\n      dup4\n        /* \"#utility.yul\":2992:3011   */\n      add\n        /* \"#utility.yul\":2983:2989   */\n      dup5\n        /* \"#utility.yul\":2945:3012   */\n      tag_73\n      jump\t// in\n    tag_139:\n        /* \"#utility.yul\":2276:3019   */\n      swap7\n      swap6\n      pop\n      pop\n      pop\n      pop\n      pop\n      pop\n      jump\t// out\n        /* \"#utility.yul\":3025:3142   */\n    tag_74:\n        /* \"#utility.yul\":3134:3135   */\n      0x00\n        /* \"#utility.yul\":3131:3132   */\n      dup1\n        /* \"#utility.yul\":3124:3136   */\n      revert\n        /* \"#utility.yul\":3148:3265   */\n    tag_75:\n        /* \"#utility.yul\":3257:3258   */\n      0x00\n        /* \"#utility.yul\":3254:3255   */\n      dup1\n        /* \"#utility.yul\":3247:3259   */\n      revert\n        /* \"#utility.yul\":3271:3451   */\n    tag_76:\n        /* \"#utility.yul\":3319:3396   */\n      0x4e487b7100000000000000000000000000000000000000000000000000000000\n        /* \"#utility.yul\":3316:3317   */\n      0x00\n        /* \"#utility.yul\":3309:3397   */\n      mstore\n        /* \"#utility.yul\":3416:3420   */\n      0x41\n        /* \"#utility.yul\":3413:3414   */\n      0x04\n        /* \"#utility.yul\":3406:3421   */\n      mstore\n        /* \"#utility.yul\":3440:3444   */\n      0x24\n        /* \"#utility.yul\":3437:3438   */\n      0x00\n        /* \"#utility.yul\":3430:3445   */\n      revert\n        /* \"#utility.yul\":3457:3738   */\n    tag_77:\n        /* \"#utility.yul\":3540:3567   */\n      tag_144\n        /* \"#utility.yul\":3562:3566   */\n      dup3\n        /* \"#utility.yul\":3540:3567   */\n      tag_70\n      jump\t// in\n    tag_144:\n        /* \"#utility.yul\":3532:3538   */\n      dup2\n        /* \"#utility.yul\":3528:3568   */\n      add\n        /* \"#utility.yul\":3670:3676   */\n      dup2\n        /* \"#utility.yul\":3658:3668   */\n      dup2\n        /* \"#utility.yul\":3655:3677   */\n      lt\n        /* \"#utility.yul\":3634:3652   */\n      0xffffffffffffffff\n        /* \"#utility.yul\":3622:3632   */\n      dup3\n        /* \"#utility.yul\":3619:3653   */\n      gt\n        /* \"#utility.yul\":3616:3678   */\n      or\n        /* \"#utility.yul\":3613:3701   */\n      iszero\n      tag_145\n      jumpi\n        /* \"#utility.yul\":3681:3699   */\n      tag_146\n      tag_76\n      jump\t// in\n    tag_146:\n        /* \"#utility.yul\":3613:3701   */\n    tag_145:\n        /* \"#utility.yul\":3721:3731   */\n      dup1\n        /* \"#utility.yul\":3717:3719   */\n      0x40\n        /* \"#utility.yul\":3710:3732   */\n      mstore\n        /* \"#utility.yul\":3500:3738   */\n      pop\n        /* \"#utility.yul\":3457:3738   */\n      pop\n      pop\n      jump\t// out\n        /* \"#utility.yul\":3744:3873   */\n    tag_78:\n        /* \"#utility.yul\":3778:3784   */\n      0x00\n        /* \"#utility.yul\":3805:3825   */\n      tag_148\n      tag_60\n      jump\t// in\n    tag_148:\n        /* \"#utility.yul\":3795:3825   */\n      swap1\n      pop\n        /* \"#utility.yul\":3834:3867   */\n      tag_149\n        /* \"#utility.yul\":3862:3866   */\n      dup3\n        /* \"#utility.yul\":3854:3860   */\n      dup3\n        /* \"#utility.yul\":3834:3867   */\n      tag_77\n      jump\t// in\n    tag_149:\n        /* \"#utility.yul\":3744:3873   */\n      swap2\n      swap1\n      pop\n      jump\t// out\n        /* \"#utility.yul\":3879:4187   */\n    tag_79:\n        /* \"#utility.yul\":3941:3945   */\n      0x00\n        /* \"#utility.yul\":4031:4049   */\n      0xffffffffffffffff\n        /* \"#utility.yul\":4023:4029   */\n      dup3\n        /* \"#utility.yul\":4020:4050   */\n      gt\n        /* \"#utility.yul\":4017:4073   */\n      iszero\n      tag_151\n      jumpi\n        /* \"#utility.yul\":4053:4071   */\n      tag_152\n      tag_76\n      jump\t// in\n    tag_152:\n        /* \"#utility.yul\":4017:4073   */\n    tag_151:\n        /* \"#utility.yul\":4091:4120   */\n      tag_153\n        /* \"#utility.yul\":4113:4119   */\n      dup3\n        /* \"#utility.yul\":4091:4120   */\n      tag_70\n      jump\t// in\n    tag_153:\n        /* \"#utility.yul\":4083:4120   */\n      swap1\n      pop\n        /* \"#utility.yul\":4175:4179   */\n      0x20\n        /* \"#utility.yul\":4169:4173   */\n      dup2\n        /* \"#utility.yul\":4165:4180   */\n      add\n        /* \"#utility.yul\":4157:4180   */\n      swap1\n      pop\n        /* \"#utility.yul\":3879:4187   */\n      swap2\n      swap1\n      pop\n      jump\t// out\n        /* \"#utility.yul\":4193:4341   */\n    tag_80:\n        /* \"#utility.yul\":4291:4297   */\n      dup3\n        /* \"#utility.yul\":4286:4289   */\n      dup2\n        /* \"#utility.yul\":4281:4284   */\n      dup4\n        /* \"#utility.yul\":4268:4298   */\n      calldatacopy\n        /* \"#utility.yul\":4332:4333   */\n      0x00\n        /* \"#utility.yul\":4323:4329   */\n      dup4\n        /* \"#utility.yul\":4318:4321   */\n      dup4\n        /* \"#utility.yul\":4314:4330   */\n      add\n        /* \"#utility.yul\":4307:4334   */\n      mstore\n        /* \"#utility.yul\":4193:4341   */\n      pop\n      pop\n      pop\n      jump\t// out\n        /* \"#utility.yul\":4347:4772   */\n    tag_81:\n        /* \"#utility.yul\":4425:4430   */\n      0x00\n        /* \"#utility.yul\":4450:4516   */\n      tag_156\n        /* \"#utility.yul\":4466:4515   */\n      tag_157\n        /* \"#utility.yul\":4508:4514   */\n      dup5\n        /* \"#utility.yul\":4466:4515   */\n      tag_79\n      jump\t// in\n    tag_157:\n        /* \"#utility.yul\":4450:4516   */\n      tag_78\n      jump\t// in\n    tag_156:\n        /* \"#utility.yul\":4441:4516   */\n      swap1\n      pop\n        /* \"#utility.yul\":4539:4545   */\n      dup3\n        /* \"#utility.yul\":4532:4537   */\n      dup2\n        /* \"#utility.yul\":4525:4546   */\n      mstore\n        /* \"#utility.yul\":4577:4581   */\n      0x20\n        /* \"#utility.yul\":4570:4575   */\n      dup2\n        /* \"#utility.yul\":4566:4582   */\n      add\n        /* \"#utility.yul\":4615:4618   */\n      dup5\n        /* \"#utility.yul\":4606:4612   */\n      dup5\n        /* \"#utility.yul\":4601:4604   */\n      dup5\n        /* \"#utility.yul\":4597:4613   */\n      add\n        /* \"#utility.yul\":4594:4619   */\n      gt\n        /* \"#utility.yul\":4591:4703   */\n      iszero\n      tag_158\n      jumpi\n        /* \"#utility.yul\":4622:4701   */\n      tag_159\n      tag_75\n      jump\t// in\n    tag_159:\n        /* \"#utility.yul\":4591:4703   */\n    tag_158:\n        /* \"#utility.yul\":4712:4766   */\n      tag_160\n        /* \"#utility.yul\":4759:4765   */\n      dup5\n        /* \"#utility.yul\":4754:4757   */\n      dup3\n        /* \"#utility.yul\":4749:4752   */\n      dup6\n        /* \"#utility.yul\":4712:4766   */\n      tag_80\n      jump\t// in\n    tag_160:\n        /* \"#utility.yul\":4431:4772   */\n      pop\n        /* \"#utility.yul\":4347:4772   */\n      swap4\n      swap3\n      pop\n      pop\n      pop\n      jump\t// out\n        /* \"#utility.yul\":4792:5132   */\n    tag_82:\n        /* \"#utility.yul\":4848:4853   */\n      0x00\n        /* \"#utility.yul\":4897:4900   */\n      dup3\n        /* \"#utility.yul\":4890:4894   */\n      0x1f\n        /* \"#utility.yul\":4882:4888   */\n      dup4\n        /* \"#utility.yul\":4878:4895   */\n      add\n        /* \"#utility.yul\":4874:4901   */\n      slt\n        /* \"#utility.yul\":4864:4986   */\n      tag_162\n      jumpi\n        /* \"#utility.yul\":4905:4984   */\n      tag_163\n      tag_74\n      jump\t// in\n    tag_163:\n        /* \"#utility.yul\":4864:4986   */\n    tag_162:\n        /* \"#utility.yul\":5022:5028   */\n      dup2\n        /* \"#utility.yul\":5009:5029   */\n      calldataload\n        /* \"#utility.yul\":5047:5126   */\n      tag_164\n        /* \"#utility.yul\":5122:5125   */\n      dup5\n        /* \"#utility.yul\":5114:5120   */\n      dup3\n        /* \"#utility.yul\":5107:5111   */\n      0x20\n        /* \"#utility.yul\":5099:5105   */\n      dup7\n        /* \"#utility.yul\":5095:5112   */\n      add\n        /* \"#utility.yul\":5047:5126   */\n      tag_81\n      jump\t// in\n    tag_164:\n        /* \"#utility.yul\":5038:5126   */\n      swap2\n      pop\n        /* \"#utility.yul\":4854:5132   */\n      pop\n        /* \"#utility.yul\":4792:5132   */\n      swap3\n      swap2\n      pop\n      pop\n      jump\t// out\n        /* \"#utility.yul\":5138:5647   */\n    tag_15:\n        /* \"#utility.yul\":5207:5213   */\n      0x00\n        /* \"#utility.yul\":5256:5258   */\n      0x20\n        /* \"#utility.yul\":5244:5253   */\n      dup3\n        /* \"#utility.yul\":5235:5242   */\n      dup5\n        /* \"#utility.yul\":5231:5254   */\n      sub\n        /* \"#utility.yul\":5227:5259   */\n      slt\n        /* \"#utility.yul\":5224:5343   */\n      iszero\n      tag_166\n      jumpi\n        /* \"#utility.yul\":5262:5341   */\n      tag_167\n      tag_61\n      jump\t// in\n    tag_167:\n        /* \"#utility.yul\":5224:5343   */\n    tag_166:\n        /* \"#utility.yul\":5410:5411   */\n      0x00\n        /* \"#utility.yul\":5399:5408   */\n      dup3\n        /* \"#utility.yul\":5395:5412   */\n      add\n        /* \"#utility.yul\":5382:5413   */\n      calldataload\n        /* \"#utility.yul\":5440:5458   */\n      0xffffffffffffffff\n        /* \"#utility.yul\":5432:5438   */\n      dup2\n        /* \"#utility.yul\":5429:5459   */\n      gt\n        /* \"#utility.yul\":5426:5543   */\n      iszero\n      tag_168\n      jumpi\n        /* \"#utility.yul\":5462:5541   */\n      tag_169\n      tag_62\n      jump\t// in\n    tag_169:\n        /* \"#utility.yul\":5426:5543   */\n    tag_168:\n        /* \"#utility.yul\":5567:5630   */\n      tag_170\n        /* \"#utility.yul\":5622:5629   */\n      dup5\n        /* \"#utility.yul\":5613:5619   */\n      dup3\n        /* \"#utility.yul\":5602:5611   */\n      dup6\n        /* \"#utility.yul\":5598:5620   */\n      add\n        /* \"#utility.yul\":5567:5630   */\n      tag_82\n      jump\t// in\n    tag_170:\n        /* \"#utility.yul\":5557:5630   */\n      swap2\n      pop\n        /* \"#utility.yul\":5353:5640   */\n      pop\n        /* \"#utility.yul\":5138:5647   */\n      swap3\n      swap2\n      pop\n      pop\n      jump\t// out\n        /* \"#utility.yul\":5653:5769   */\n    tag_83:\n        /* \"#utility.yul\":5723:5744   */\n      tag_172\n        /* \"#utility.yul\":5738:5743   */\n      dup2\n        /* \"#utility.yul\":5723:5744   */\n      tag_72\n      jump\t// in\n    tag_172:\n        /* \"#utility.yul\":5716:5721   */\n      dup2\n        /* \"#utility.yul\":5713:5745   */\n      eq\n        /* \"#utility.yul\":5703:5763   */\n      tag_173\n      jumpi\n        /* \"#utility.yul\":5759:5760   */\n      0x00\n        /* \"#utility.yul\":5756:5757   */\n      dup1\n        /* \"#utility.yul\":5749:5761   */\n      revert\n        /* \"#utility.yul\":5703:5763   */\n    tag_173:\n        /* \"#utility.yul\":5653:5769   */\n      pop\n      jump\t// out\n        /* \"#utility.yul\":5775:5908   */\n    tag_84:\n        /* \"#utility.yul\":5818:5823   */\n      0x00\n        /* \"#utility.yul\":5856:5862   */\n      dup2\n        /* \"#utility.yul\":5843:5863   */\n      calldataload\n        /* \"#utility.yul\":5834:5863   */\n      swap1\n      pop\n        /* \"#utility.yul\":5872:5902   */\n      tag_175\n        /* \"#utility.yul\":5896:5901   */\n      dup2\n        /* \"#utility.yul\":5872:5902   */\n      tag_83\n      jump\t// in\n    tag_175:\n        /* \"#utility.yul\":5775:5908   */\n      swap3\n      swap2\n      pop\n      pop\n      jump\t// out\n        /* \"#utility.yul\":5914:6382   */\n    tag_22:\n        /* \"#utility.yul\":5979:5985   */\n      0x00\n        /* \"#utility.yul\":5987:5993   */\n      dup1\n        /* \"#utility.yul\":6036:6038   */\n      0x40\n        /* \"#utility.yul\":6024:6033   */\n      dup4\n        /* \"#utility.yul\":6015:6022   */\n      dup6\n        /* \"#utility.yul\":6011:6034   */\n      sub\n        /* \"#utility.yul\":6007:6039   */\n      slt\n        /* \"#utility.yul\":6004:6123   */\n      iszero\n      tag_177\n      jumpi\n        /* \"#utility.yul\":6042:6121   */\n      tag_178\n      tag_61\n      jump\t// in\n    tag_178:\n        /* \"#utility.yul\":6004:6123   */\n    tag_177:\n        /* \"#utility.yul\":6162:6163   */\n      0x00\n        /* \"#utility.yul\":6187:6240   */\n      tag_179\n        /* \"#utility.yul\":6232:6239   */\n      dup6\n        /* \"#utility.yul\":6223:6229   */\n      dup3\n        /* \"#utility.yul\":6212:6221   */\n      dup7\n        /* \"#utility.yul\":6208:6230   */\n      add\n        /* \"#utility.yul\":6187:6240   */\n      tag_65\n      jump\t// in\n    tag_179:\n        /* \"#utility.yul\":6177:6240   */\n      swap3\n      pop\n        /* \"#utility.yul\":6133:6250   */\n      pop\n        /* \"#utility.yul\":6289:6291   */\n      0x20\n        /* \"#utility.yul\":6315:6365   */\n      tag_180\n        /* \"#utility.yul\":6357:6364   */\n      dup6\n        /* \"#utility.yul\":6348:6354   */\n      dup3\n        /* \"#utility.yul\":6337:6346   */\n      dup7\n        /* \"#utility.yul\":6333:6355   */\n      add\n        /* \"#utility.yul\":6315:6365   */\n      tag_84\n      jump\t// in\n    tag_180:\n        /* \"#utility.yul\":6305:6365   */\n      swap2\n      pop\n        /* \"#utility.yul\":6260:6375   */\n      pop\n        /* \"#utility.yul\":5914:6382   */\n      swap3\n      pop\n      swap3\n      swap1\n      pop\n      jump\t// out\n        /* \"#utility.yul\":6388:6568   */\n    tag_85:\n        /* \"#utility.yul\":6436:6513   */\n      0x4e487b7100000000000000000000000000000000000000000000000000000000\n        /* \"#utility.yul\":6433:6434   */\n      0x00\n        /* \"#utility.yul\":6426:6514   */\n      mstore\n        /* \"#utility.yul\":6533:6537   */\n      0x22\n        /* \"#utility.yul\":6530:6531   */\n      0x04\n        /* \"#utility.yul\":6523:6538   */\n      mstore\n        /* \"#utility.yul\":6557:6561   */\n      0x24\n        /* \"#utility.yul\":6554:6555   */\n      0x00\n        /* \"#utility.yul\":6547:6562   */\n      revert\n        /* \"#utility.yul\":6574:6894   */\n    tag_27:\n        /* \"#utility.yul\":6618:6624   */\n      0x00\n        /* \"#utility.yul\":6655:6656   */\n      0x02\n        /* \"#utility.yul\":6649:6653   */\n      dup3\n        /* \"#utility.yul\":6645:6657   */\n      div\n        /* \"#utility.yul\":6635:6657   */\n      swap1\n      pop\n        /* \"#utility.yul\":6702:6703   */\n      0x01\n        /* \"#utility.yul\":6696:6700   */\n      dup3\n        /* \"#utility.yul\":6692:6704   */\n      and\n        /* \"#utility.yul\":6723:6741   */\n      dup1\n        /* \"#utility.yul\":6713:6794   */\n      tag_183\n      jumpi\n        /* \"#utility.yul\":6779:6783   */\n      0x7f\n        /* \"#utility.yul\":6771:6777   */\n      dup3\n        /* \"#utility.yul\":6767:6784   */\n      and\n        /* \"#utility.yul\":6757:6784   */\n      swap2\n      pop\n        /* \"#utility.yul\":6713:6794   */\n    tag_183:\n        /* \"#utility.yul\":6841:6843   */\n      0x20\n        /* \"#utility.yul\":6833:6839   */\n      dup3\n        /* \"#utility.yul\":6830:6844   */\n      lt\n        /* \"#utility.yul\":6810:6828   */\n      dup2\n        /* \"#utility.yul\":6807:6845   */\n      sub\n        /* \"#utility.yul\":6804:6888   */\n      tag_184\n      jumpi\n        /* \"#utility.yul\":6860:6878   */\n      tag_185\n      tag_85\n      jump\t// in\n    tag_185:\n        /* \"#utility.yul\":6804:6888   */\n    tag_184:\n        /* \"#utility.yul\":6625:6894   */\n      pop\n        /* \"#utility.yul\":6574:6894   */\n      swap2\n      swap1\n      pop\n      jump\t// out\n        /* \"#utility.yul\":6900:7080   */\n    tag_86:\n        /* \"#utility.yul\":6948:7025   */\n      0x4e487b7100000000000000000000000000000000000000000000000000000000\n        /* \"#utility.yul\":6945:6946   */\n      0x00\n        /* \"#utility.yul\":6938:7026   */\n      mstore\n        /* \"#utility.yul\":7045:7049   */\n      0x11\n        /* \"#utility.yul\":7042:7043   */\n      0x04\n        /* \"#utility.yul\":7035:7050   */\n      mstore\n        /* \"#utility.yul\":7069:7073   */\n      0x24\n        /* \"#utility.yul\":7066:7067   */\n      0x00\n        /* \"#utility.yul\":7059:7074   */\n      revert\n        /* \"#utility.yul\":7086:7280   */\n    tag_35:\n        /* \"#utility.yul\":7126:7130   */\n      0x00\n        /* \"#utility.yul\":7146:7166   */\n      tag_188\n        /* \"#utility.yul\":7164:7165   */\n      dup3\n        /* \"#utility.yul\":7146:7166   */\n      tag_63\n      jump\t// in\n    tag_188:\n        /* \"#utility.yul\":7141:7166   */\n      swap2\n      pop\n        /* \"#utility.yul\":7180:7200   */\n      tag_189\n        /* \"#utility.yul\":7198:7199   */\n      dup4\n        /* \"#utility.yul\":7180:7200   */\n      tag_63\n      jump\t// in\n    tag_189:\n        /* \"#utility.yul\":7175:7200   */\n      swap3\n      pop\n        /* \"#utility.yul\":7224:7225   */\n      dup3\n        /* \"#utility.yul\":7221:7222   */\n      dup3\n        /* \"#utility.yul\":7217:7226   */\n      sub\n        /* \"#utility.yul\":7209:7226   */\n      swap1\n      pop\n        /* \"#utility.yul\":7248:7249   */\n      dup2\n        /* \"#utility.yul\":7242:7246   */\n      dup2\n        /* \"#utility.yul\":7239:7250   */\n      gt\n        /* \"#utility.yul\":7236:7273   */\n      iszero\n      tag_190\n      jumpi\n        /* \"#utility.yul\":7253:7271   */\n      tag_191\n      tag_86\n      jump\t// in\n    tag_191:\n        /* \"#utility.yul\":7236:7273   */\n    tag_190:\n        /* \"#utility.yul\":7086:7280   */\n      swap3\n      swap2\n      pop\n      pop\n      jump\t// out\n        /* \"#utility.yul\":7286:7427   */\n    tag_87:\n        /* \"#utility.yul\":7335:7339   */\n      0x00\n        /* \"#utility.yul\":7358:7361   */\n      dup2\n        /* \"#utility.yul\":7350:7361   */\n      swap1\n      pop\n        /* \"#utility.yul\":7381:7384   */\n      dup2\n        /* \"#utility.yul\":7378:7379   */\n      0x00\n        /* \"#utility.yul\":7371:7385   */\n      mstore\n        /* \"#utility.yul\":7415:7419   */\n      0x20\n        /* \"#utility.yul\":7412:7413   */\n      0x00\n        /* \"#utility.yul\":7402:7420   */\n      keccak256\n        /* \"#utility.yul\":7394:7420   */\n      swap1\n      pop\n        /* \"#utility.yul\":7286:7427   */\n      swap2\n      swap1\n      pop\n      jump\t// out\n        /* \"#utility.yul\":7433:7526   */\n    tag_88:\n        /* \"#utility.yul\":7470:7476   */\n      0x00\n        /* \"#utility.yul\":7517:7519   */\n      0x20\n        /* \"#utility.yul\":7512:7514   */\n      0x1f\n        /* \"#utility.yul\":7505:7510   */\n      dup4\n        /* \"#utility.yul\":7501:7515   */\n      add\n        /* \"#utility.yul\":7497:7520   */\n      div\n        /* \"#utility.yul\":7487:7520   */\n      swap1\n      pop\n        /* \"#utility.yul\":7433:7526   */\n      swap2\n      swap1\n      pop\n      jump\t// out\n        /* \"#utility.yul\":7532:7639   */\n    tag_89:\n        /* \"#utility.yul\":7576:7584   */\n      0x00\n        /* \"#utility.yul\":7626:7631   */\n      dup3\n        /* \"#utility.yul\":7620:7624   */\n      dup3\n        /* \"#utility.yul\":7616:7632   */\n      shl\n        /* \"#utility.yul\":7595:7632   */\n      swap1\n      pop\n        /* \"#utility.yul\":7532:7639   */\n      swap3\n      swap2\n      pop\n      pop\n      jump\t// out\n        /* \"#utility.yul\":7645:8038   */\n    tag_90:\n        /* \"#utility.yul\":7714:7720   */\n      0x00\n        /* \"#utility.yul\":7764:7765   */\n      0x08\n        /* \"#utility.yul\":7752:7762   */\n      dup4\n        /* \"#utility.yul\":7748:7766   */\n      mul\n        /* \"#utility.yul\":7787:7884   */\n      tag_196\n        /* \"#utility.yul\":7817:7883   */\n      0xffffffffffffffffffffffffffffffffffffffffffffffffffffffffffffffff\n        /* \"#utility.yul\":7806:7815   */\n      dup3\n        /* \"#utility.yul\":7787:7884   */\n      tag_89\n      jump\t// in\n    tag_196:\n        /* \"#utility.yul\":7905:7944   */\n      tag_197\n        /* \"#utility.yul\":7935:7943   */\n      dup7\n        /* \"#utility.yul\":7924:7933   */\n      dup4\n        /* \"#utility.yul\":7905:7944   */\n      tag_89\n      jump\t// in\n    tag_197:\n        /* \"#utility.yul\":7893:7944   */\n      swap6\n      pop\n        /* \"#utility.yul\":7977:7981   */\n      dup1\n        /* \"#utility.yul\":7973:7982   */\n      not\n        /* \"#utility.yul\":7966:7971   */\n      dup5\n        /* \"#utility.yul\":7962:7983   */\n      and\n        /* \"#utility.yul\":7953:7983   */\n      swap4\n      pop\n        /* \"#utility.yul\":8026:8030   */\n      dup1\n        /* \"#utility.yul\":8016:8024   */\n      dup7\n        /* \"#utility.yul\":8012:8031   */\n      and\n        /* \"#utility.yul\":8005:8010   */\n      dup5\n        /* \"#utility.yul\":8002:8032   */\n      or\n        /* \"#utility.yul\":7992:8032   */\n      swap3\n      pop\n        /* \"#utility.yul\":7721:8038   */\n      pop\n      pop\n        /* \"#utility.yul\":7645:8038   */\n      swap4\n      swap3\n      pop\n      pop\n      pop\n      jump\t// out\n        /* \"#utility.yul\":8044:8104   */\n    tag_91:\n        /* \"#utility.yul\":8072:8075   */\n      0x00\n        /* \"#utility.yul\":8093:8098   */\n      dup2\n        /* \"#utility.yul\":8086:8098   */\n      swap1\n      pop\n        /* \"#utility.yul\":8044:8104   */\n      swap2\n      swap1\n      pop\n      jump\t// out\n        /* \"#utility.yul\":8110:8252   */\n    tag_92:\n        /* \"#utility.yul\":8160:8169   */\n      0x00\n        /* \"#utility.yul\":8193:8246   */\n      tag_200\n        /* \"#utility.yul\":8211:8245   */\n      tag_201\n        /* \"#utility.yul\":8220:8244   */\n      tag_202\n        /* \"#utility.yul\":8238:8243   */\n      dup5\n        /* \"#utility.yul\":8220:8244   */\n      tag_63\n      jump\t// in\n    tag_202:\n        /* \"#utility.yul\":8211:8245   */\n      tag_91\n      jump\t// in\n    tag_201:\n        /* \"#utility.yul\":8193:8246   */\n      tag_63\n      jump\t// in\n    tag_200:\n        /* \"#utility.yul\":8180:8246   */\n      swap1\n      pop\n        /* \"#utility.yul\":8110:8252   */\n      swap2\n      swap1\n      pop\n      jump\t// out\n        /* \"#utility.yul\":8258:8333   */\n    tag_93:\n        /* \"#utility.yul\":8301:8304   */\n      0x00\n        /* \"#utility.yul\":8322:8327   */\n      dup2\n        /* \"#utility.yul\":8315:8327   */\n      swap1\n      pop\n        /* \"#utility.yul\":8258:8333   */\n      swap2\n      swap1\n      pop\n      jump\t// out\n        /* \"#utility.yul\":8339:8608   */\n    tag_94:\n        /* \"#utility.yul\":8449:8488   */\n      tag_205\n        /* \"#utility.yul\":8480:8487   */\n      dup4\n        /* \"#utility.yul\":8449:8488   */\n      tag_92\n      jump\t// in\n    tag_205:\n        /* \"#utility.yul\":8510:8601   */\n      tag_206\n        /* \"#utility.yul\":8559:8600   */\n      tag_207\n        /* \"#utility.yul\":8583:8599   */\n      dup3\n        /* \"#utility.yul\":8559:8600   */\n      tag_93\n      jump\t// in\n    tag_207:\n        /* \"#utility.yul\":8551:8557   */\n      dup5\n        /* \"#utility.yul\":8544:8548   */\n      dup5\n        /* \"#utility.yul\":8538:8549   */\n      sload\n        /* \"#utility.yul\":8510:8601   */\n      tag_90\n      jump\t// in\n    tag_206:\n        /* \"#utility.yul\":8504:8508   */\n      dup3\n        /* \"#utility.yul\":8497:8602   */\n      sstore\n        /* \"#utility.yul\":8415:8608   */\n      pop\n        /* \"#utility.yul\":8339:8608   */\n      pop\n      pop\n      pop\n      jump\t// out\n        /* \"#utility.yul\":8614:8687   */\n    tag_95:\n        /* \"#utility.yul\":8659:8662   */\n      0x00\n        /* \"#utility.yul\":8614:8687   */\n      swap1\n      jump\t// out\n        /* \"#utility.yul\":8693:8882   */\n    tag_96:\n        /* \"#utility.yul\":8770:8802   */\n      tag_210\n      tag_95\n      jump\t// in\n    tag_210:\n        /* \"#utility.yul\":8811:8876   */\n      tag_211\n        /* \"#utility.yul\":8869:8875   */\n      dup2\n        /* \"#utility.yul\":8861:8867   */\n      dup5\n        /* \"#utility.yul\":8855:8859   */\n      dup5\n        /* \"#utility.yul\":8811:8876   */\n      tag_94\n      jump\t// in\n    tag_211:\n        /* \"#utility.yul\":8746:8882   */\n      pop\n        /* \"#utility.yul\":8693:8882   */\n      pop\n      pop\n      jump\t// out\n        /* \"#utility.yul\":8888:9074   */\n    tag_97:\n        /* \"#utility.yul\":8948:9068   */\n    tag_213:\n        /* \"#utility.yul\":8965:8968   */\n      dup2\n        /* \"#utility.yul\":8958:8963   */\n      dup2\n        /* \"#utility.yul\":8955:8969   */\n      lt\n        /* \"#utility.yul\":8948:9068   */\n      iszero\n      tag_215\n      jumpi\n        /* \"#utility.yul\":9019:9058   */\n      tag_216\n        /* \"#utility.yul\":9056:9057   */\n      0x00\n        /* \"#utility.yul\":9049:9054   */\n      dup3\n        /* \"#utility.yul\":9019:9058   */\n      tag_96\n      jump\t// in\n    tag_216:\n        /* \"#utility.yul\":8992:8993   */\n      0x01\n        /* \"#utility.yul\":8985:8990   */\n      dup2\n        /* \"#utility.yul\":8981:8994   */\n      add\n        /* \"#utility.yul\":8972:8994   */\n      swap1\n      pop\n        /* \"#utility.yul\":8948:9068   */\n      jump(tag_213)\n    tag_215:\n        /* \"#utility.yul\":8888:9074   */\n      pop\n      pop\n      jump\t// out\n        /* \"#utility.yul\":9080:9623   */\n    tag_98:\n        /* \"#utility.yul\":9181:9183   */\n      0x1f\n        /* \"#utility.yul\":9176:9179   */\n      dup3\n        /* \"#utility.yul\":9173:9184   */\n      gt\n        /* \"#utility.yul\":9170:9616   */\n      iszero\n      tag_218\n      jumpi\n        /* \"#utility.yul\":9215:9253   */\n      tag_219\n        /* \"#utility.yul\":9247:9252   */\n      dup2\n        /* \"#utility.yul\":9215:9253   */\n      tag_87\n      jump\t// in\n    tag_219:\n        /* \"#utility.yul\":9299:9328   */\n      tag_220\n        /* \"#utility.yul\":9317:9327   */\n      dup5\n        /* \"#utility.yul\":9299:9328   */\n      tag_88\n      jump\t// in\n    tag_220:\n        /* \"#utility.yul\":9289:9297   */\n      dup2\n        /* \"#utility.yul\":9285:9329   */\n      add\n        /* \"#utility.yul\":9482:9484   */\n      0x20\n        /* \"#utility.yul\":9470:9480   */\n      dup6\n        /* \"#utility.yul\":9467:9485   */\n      lt\n        /* \"#utility.yul\":9464:9513   */\n      iszero\n      tag_221\n      jumpi\n        /* \"#utility.yul\":9503:9511   */\n      dup2\n        /* \"#utility.yul\":9488:9511   */\n      swap1\n      pop\n        /* \"#utility.yul\":9464:9513   */\n    tag_221:\n        /* \"#utility.yul\":9526:9606   */\n      tag_222\n        /* \"#utility.yul\":9582:9604   */\n      tag_223\n        /* \"#utility.yul\":9600:9603   */\n      dup6\n        /* \"#utility.yul\":9582:9604   */\n      tag_88\n      jump\t// in\n    tag_223:\n        /* \"#utility.yul\":9572:9580   */\n      dup4\n        /* \"#utility.yul\":9568:9605   */\n      add\n        /* \"#utility.yul\":9555:9566   */\n      dup3\n        /* \"#utility.yul\":9526:9606   */\n      tag_97\n      jump\t// in\n    tag_222:\n        /* \"#utility.yul\":9185:9616   */\n      pop\n      pop\n        /* \"#utility.yul\":9170:9616   */\n    tag_218:\n        /* \"#utility.yul\":9080:9623   */\n      pop\n      pop\n      pop\n      jump\t// out\n        /* \"#utility.yul\":9629:9746   */\n    tag_99:\n        /* \"#utility.yul\":9683:9691   */\n      0x00\n        /* \"#utility.yul\":9733:9738   */\n      dup3\n        /* \"#utility.yul\":9727:9731   */\n      dup3\n        /* \"#utility.yul\":9723:9739   */\n      shr\n        /* \"#utility.yul\":9702:9739   */\n      swap1\n      pop\n        /* \"#utility.yul\":9629:9746   */\n      swap3\n      swap2\n      pop\n      pop\n      jump\t// out\n        /* \"#utility.yul\":9752:9921   */\n    tag_100:\n        /* \"#utility.yul\":9796:9802   */\n      0x00\n        /* \"#utility.yul\":9829:9880   */\n      tag_226\n        /* \"#utility.yul\":9877:9878   */\n      0x00\n        /* \"#utility.yul\":9873:9879   */\n      not\n        /* \"#utility.yul\":9865:9870   */\n      dup5\n        /* \"#utility.yul\":9862:9863   */\n      0x08\n        /* \"#utility.yul\":9858:9871   */\n      mul\n        /* \"#utility.yul\":9829:9880   */\n      tag_99\n      jump\t// in\n    tag_226:\n        /* \"#utility.yul\":9825:9881   */\n      not\n        /* \"#utility.yul\":9910:9914   */\n      dup1\n        /* \"#utility.yul\":9904:9908   */\n      dup4\n        /* \"#utility.yul\":9900:9915   */\n      and\n        /* \"#utility.yul\":9890:9915   */\n      swap2\n      pop\n        /* \"#utility.yul\":9803:9921   */\n      pop\n        /* \"#utility.yul\":9752:9921   */\n      swap3\n      swap2\n      pop\n      pop\n      jump\t// out\n        /* \"#utility.yul\":9926:10221   */\n    tag_101:\n        /* \"#utility.yul\":10002:10006   */\n      0x00\n        /* \"#utility.yul\":10148:10177   */\n      tag_228\n        /* \"#utility.yul\":10173:10176   */\n      dup4\n        /* \"#utility.yul\":10167:10171   */\n      dup4\n        /* \"#utility.yul\":10148:10177   */\n      tag_100\n      jump\t// in\n    tag_228:\n        /* \"#utility.yul\":10140:10177   */\n      swap2\n      pop\n        /* \"#utility.yul\":10210:10213   */\n      dup3\n        /* \"#utility.yul\":10207:10208   */\n      0x02\n        /* \"#utility.yul\":10203:10214   */\n      mul\n        /* \"#utility.yul\":10197:10201   */\n      dup3\n        /* \"#utility.yul\":10194:10215   */\n      or\n        /* \"#utility.yul\":10186:10215   */\n      swap1\n      pop\n        /* \"#utility.yul\":9926:10221   */\n      swap3\n      swap2\n      pop\n      pop\n      jump\t// out\n        /* \"#utility.yul\":10226:11621   */\n    tag_37:\n        /* \"#utility.yul\":10343:10380   */\n      tag_230\n        /* \"#utility.yul\":10376:10379   */\n      dup3\n        /* \"#utility.yul\":10343:10380   */\n      tag_67\n      jump\t// in\n    tag_230:\n        /* \"#utility.yul\":10445:10463   */\n      0xffffffffffffffff\n        /* \"#utility.yul\":10437:10443   */\n      dup2\n        /* \"#utility.yul\":10434:10464   */\n      gt\n        /* \"#utility.yul\":10431:10487   */\n      iszero\n      tag_231\n      jumpi\n        /* \"#utility.yul\":10467:10485   */\n      tag_232\n      tag_76\n      jump\t// in\n    tag_232:\n        /* \"#utility.yul\":10431:10487   */\n    tag_231:\n        /* \"#utility.yul\":10511:10549   */\n      tag_233\n        /* \"#utility.yul\":10543:10547   */\n      dup3\n        /* \"#utility.yul\":10537:10548   */\n      sload\n        /* \"#utility.yul\":10511:10549   */\n      tag_27\n      jump\t// in\n    tag_233:\n        /* \"#utility.yul\":10596:10663   */\n      tag_234\n        /* \"#utility.yul\":10656:10662   */\n      dup3\n        /* \"#utility.yul\":10648:10654   */\n      dup3\n        /* \"#utility.yul\":10642:10646   */\n      dup6\n        /* \"#utility.yul\":10596:10663   */\n      tag_98\n      jump\t// in\n    tag_234:\n        /* \"#utility.yul\":10690:10691   */\n      0x00\n        /* \"#utility.yul\":10714:10718   */\n      0x20\n        /* \"#utility.yul\":10701:10718   */\n      swap1\n      pop\n        /* \"#utility.yul\":10746:10748   */\n      0x1f\n        /* \"#utility.yul\":10738:10744   */\n      dup4\n        /* \"#utility.yul\":10735:10749   */\n      gt\n        /* \"#utility.yul\":10763:10764   */\n      0x01\n        /* \"#utility.yul\":10758:11376   */\n      dup2\n      eq\n      tag_236\n      jumpi\n        /* \"#utility.yul\":11420:11421   */\n      0x00\n        /* \"#utility.yul\":11437:11443   */\n      dup5\n        /* \"#utility.yul\":11434:11511   */\n      iszero\n      tag_237\n      jumpi\n        /* \"#utility.yul\":11486:11495   */\n      dup3\n        /* \"#utility.yul\":11481:11484   */\n      dup8\n        /* \"#utility.yul\":11477:11496   */\n      add\n        /* \"#utility.yul\":11471:11497   */\n      mload\n        /* \"#utility.yul\":11462:11497   */\n      swap1\n      pop\n        /* \"#utility.yul\":11434:11511   */\n    tag_237:\n        /* \"#utility.yul\":11537:11604   */\n      tag_238\n        /* \"#utility.yul\":11597:11603   */\n      dup6\n        /* \"#utility.yul\":11590:11595   */\n      dup3\n        /* \"#utility.yul\":11537:11604   */\n      tag_101\n      jump\t// in\n    tag_238:\n        /* \"#utility.yul\":11531:11535   */\n      dup7\n        /* \"#utility.yul\":11524:11605   */\n      sstore\n        /* \"#utility.yul\":11393:11615   */\n      pop\n        /* \"#utility.yul\":10728:11615   */\n      jump(tag_235)\n        /* \"#utility.yul\":10758:11376   */\n    tag_236:\n        /* \"#utility.yul\":10810:10814   */\n      0x1f\n        /* \"#utility.yul\":10806:10815   */\n      not\n        /* \"#utility.yul\":10798:10804   */\n      dup5\n        /* \"#utility.yul\":10794:10816   */\n      and\n        /* \"#utility.yul\":10844:10881   */\n      tag_239\n        /* \"#utility.yul\":10876:10880   */\n      dup7\n        /* \"#utility.yul\":10844:10881   */\n      tag_87\n      jump\t// in\n    tag_239:\n        /* \"#utility.yul\":10903:10904   */\n      0x00\n        /* \"#utility.yul\":10917:11125   */\n    tag_240:\n        /* \"#utility.yul\":10931:10938   */\n      dup3\n        /* \"#utility.yul\":10928:10929   */\n      dup2\n        /* \"#utility.yul\":10925:10939   */\n      lt\n        /* \"#utility.yul\":10917:11125   */\n      iszero\n      tag_242\n      jumpi\n        /* \"#utility.yul\":11010:11019   */\n      dup5\n        /* \"#utility.yul\":11005:11008   */\n      dup10\n        /* \"#utility.yul\":11001:11020   */\n      add\n        /* \"#utility.yul\":10995:11021   */\n      mload\n        /* \"#utility.yul\":10987:10993   */\n      dup3\n        /* \"#utility.yul\":10980:11022   */\n      sstore\n        /* \"#utility.yul\":11061:11062   */\n      0x01\n        /* \"#utility.yul\":11053:11059   */\n      dup3\n        /* \"#utility.yul\":11049:11063   */\n      add\n        /* \"#utility.yul\":11039:11063   */\n      swap2\n      pop\n        /* \"#utility.yul\":11108:11110   */\n      0x20\n        /* \"#utility.yul\":11097:11106   */\n      dup6\n        /* \"#utility.yul\":11093:11111   */\n      add\n        /* \"#utility.yul\":11080:11111   */\n      swap5\n      pop\n        /* \"#utility.yul\":10954:10958   */\n      0x20\n        /* \"#utility.yul\":10951:10952   */\n      dup2\n        /* \"#utility.yul\":10947:10959   */\n      add\n        /* \"#utility.yul\":10942:10959   */\n      swap1\n      pop\n        /* \"#utility.yul\":10917:11125   */\n      jump(tag_240)\n    tag_242:\n        /* \"#utility.yul\":11153:11159   */\n      dup7\n        /* \"#utility.yul\":11144:11151   */\n      dup4\n        /* \"#utility.yul\":11141:11160   */\n      lt\n        /* \"#utility.yul\":11138:11317   */\n      iszero\n      tag_243\n      jumpi\n        /* \"#utility.yul\":11211:11220   */\n      dup5\n        /* \"#utility.yul\":11206:11209   */\n      dup10\n        /* \"#utility.yul\":11202:11221   */\n      add\n        /* \"#utility.yul\":11196:11222   */\n      mload\n        /* \"#utility.yul\":11254:11302   */\n      tag_244\n        /* \"#utility.yul\":11296:11300   */\n      0x1f\n        /* \"#utility.yul\":11288:11294   */\n      dup10\n        /* \"#utility.yul\":11284:11301   */\n      and\n        /* \"#utility.yul\":11273:11282   */\n      dup3\n        /* \"#utility.yul\":11254:11302   */\n      tag_100\n      jump\t// in\n    tag_244:\n        /* \"#utility.yul\":11246:11252   */\n      dup4\n        /* \"#utility.yul\":11239:11303   */\n      sstore\n        /* \"#utility.yul\":11161:11317   */\n      pop\n        /* \"#utility.yul\":11138:11317   */\n    tag_243:\n        /* \"#utility.yul\":11363:11364   */\n      0x01\n        /* \"#utility.yul\":11359:11360   */\n      0x02\n        /* \"#utility.yul\":11351:11357   */\n      dup9\n        /* \"#utility.yul\":11347:11361   */\n      mul\n        /* \"#utility.yul\":11343:11365   */\n      add\n        /* \"#utility.yul\":11337:11341   */\n      dup9\n        /* \"#utility.yul\":11330:11366   */\n      sstore\n        /* \"#utility.yul\":10765:11376   */\n      pop\n      pop\n      pop\n        /* \"#utility.yul\":10728:11615   */\n    tag_235:\n      pop\n        /* \"#utility.yul\":10318:11621   */\n      pop\n      pop\n      pop\n        /* \"#utility.yul\":10226:11621   */\n      pop\n      pop\n      jump\t// out\n        /* \"#utility.yul\":11627:11807   */\n    tag_41:\n        /* \"#utility.yul\":11675:11752   */\n      0x4e487b7100000000000000000000000000000000000000000000000000000000\n        /* \"#utility.yul\":11672:11673   */\n      0x00\n        /* \"#utility.yul\":11665:11753   */\n      mstore\n        /* \"#utility.yul\":11772:11776   */\n      0x32\n        /* \"#utility.yul\":11769:11770   */\n      0x04\n        /* \"#utility.yul\":11762:11777   */\n      mstore\n        /* \"#utility.yul\":11796:11800   */\n      0x24\n        /* \"#utility.yul\":11793:11794   */\n      0x00\n        /* \"#utility.yul\":11786:11801   */\n      revert\n        /* \"#utility.yul\":11813:11987   */\n    tag_102:\n        /* \"#utility.yul\":11953:11979   */\n      0x4469737075746520616c7265616479207265736f6c7665640000000000000000\n        /* \"#utility.yul\":11949:11950   */\n      0x00\n        /* \"#utility.yul\":11941:11947   */\n      dup3\n        /* \"#utility.yul\":11937:11951   */\n      add\n        /* \"#utility.yul\":11930:11980   */\n      mstore\n        /* \"#utility.yul\":11813:11987   */\n      pop\n      jump\t// out\n        /* \"#utility.yul\":11993:12359   */\n    tag_103:\n        /* \"#utility.yul\":12135:12138   */\n      0x00\n        /* \"#utility.yul\":12156:12223   */\n      tag_248\n        /* \"#utility.yul\":12220:12222   */\n      0x18\n        /* \"#utility.yul\":12215:12218   */\n      dup4\n        /* \"#utility.yul\":12156:12223   */\n      tag_68\n      jump\t// in\n    tag_248:\n        /* \"#utility.yul\":12149:12223   */\n      swap2\n      pop\n        /* \"#utility.yul\":12232:12325   */\n      tag_249\n        /* \"#utility.yul\":12321:12324   */\n      dup3\n        /* \"#utility.yul\":12232:12325   */\n      tag_102\n      jump\t// in\n    tag_249:\n        /* \"#utility.yul\":12350:12352   */\n      0x20\n        /* \"#utility.yul\":12345:12348   */\n      dup3\n        /* \"#utility.yul\":12341:12353   */\n      add\n        /* \"#utility.yul\":12334:12353   */\n      swap1\n      pop\n        /* \"#utility.yul\":11993:12359   */\n      swap2\n      swap1\n      pop\n      jump\t// out\n        /* \"#utility.yul\":12365:12784   */\n    tag_45:\n        /* \"#utility.yul\":12531:12535   */\n      0x00\n        /* \"#utility.yul\":12569:12571   */\n      0x20\n        /* \"#utility.yul\":12558:12567   */\n      dup3\n        /* \"#utility.yul\":12554:12572   */\n      add\n        /* \"#utility.yul\":12546:12572   */\n      swap1\n      pop\n        /* \"#utility.yul\":12618:12627   */\n      dup2\n        /* \"#utility.yul\":12612:12616   */\n      dup2\n        /* \"#utility.yul\":12608:12628   */\n      sub\n        /* \"#utility.yul\":12604:12605   */\n      0x00\n        /* \"#utility.yul\":12593:12602   */\n      dup4\n        /* \"#utility.yul\":12589:12606   */\n      add\n        /* \"#utility.yul\":12582:12629   */\n      mstore\n        /* \"#utility.yul\":12646:12777   */\n      tag_251\n        /* \"#utility.yul\":12772:12776   */\n      dup2\n        /* \"#utility.yul\":12646:12777   */\n      tag_103\n      jump\t// in\n    tag_251:\n        /* \"#utility.yul\":12638:12777   */\n      swap1\n      pop\n        /* \"#utility.yul\":12365:12784   */\n      swap2\n      swap1\n      pop\n      jump\t// out\n        /* \"#utility.yul\":12790:12953   */\n    tag_104:\n        /* \"#utility.yul\":12930:12945   */\n      0x416c726561647920766f74656400000000000000000000000000000000000000\n        /* \"#utility.yul\":12926:12927   */\n      0x00\n        /* \"#utility.yul\":12918:12924   */\n      dup3\n        /* \"#utility.yul\":12914:12928   */\n      add\n        /* \"#utility.yul\":12907:12946   */\n      mstore\n        /* \"#utility.yul\":12790:12953   */\n      pop\n      jump\t// out\n        /* \"#utility.yul\":12959:13325   */\n    tag_105:\n        /* \"#utility.yul\":13101:13104   */\n      0x00\n        /* \"#utility.yul\":13122:13189   */\n      tag_254\n        /* \"#utility.yul\":13186:13188   */\n      0x0d\n        /* \"#utility.yul\":13181:13184   */\n      dup4\n        /* \"#utility.yul\":13122:13189   */\n      tag_68\n      jump\t// in\n    tag_254:\n        /* \"#utility.yul\":13115:13189   */\n      swap2\n      pop\n        /* \"#utility.yul\":13198:13291   */\n      tag_255\n        /* \"#utility.yul\":13287:13290   */\n      dup3\n        /* \"#utility.yul\":13198:13291   */\n      tag_104\n      jump\t// in\n    tag_255:\n        /* \"#utility.yul\":13316:13318   */\n      0x20\n        /* \"#utility.yul\":13311:13314   */\n      dup3\n        /* \"#utility.yul\":13307:13319   */\n      add\n        /* \"#utility.yul\":13300:13319   */\n      swap1\n      pop\n        /* \"#utility.yul\":12959:13325   */\n      swap2\n      swap1\n      pop\n      jump\t// out\n        /* \"#utility.yul\":13331:13750   */\n    tag_54:\n        /* \"#utility.yul\":13497:13501   */\n      0x00\n        /* \"#utility.yul\":13535:13537   */\n      0x20\n        /* \"#utility.yul\":13524:13533   */\n      dup3\n        /* \"#utility.yul\":13520:13538   */\n      add\n        /* \"#utility.yul\":13512:13538   */\n      swap1\n      pop\n        /* \"#utility.yul\":13584:13593   */\n      dup2\n        /* \"#utility.yul\":13578:13582   */\n      dup2\n        /* \"#utility.yul\":13574:13594   */\n      sub\n        /* \"#utility.yul\":13570:13571   */\n      0x00\n        /* \"#utility.yul\":13559:13568   */\n      dup4\n        /* \"#utility.yul\":13555:13572   */\n      add\n        /* \"#utility.yul\":13548:13595   */\n      mstore\n        /* \"#utility.yul\":13612:13743   */\n      tag_257\n        /* \"#utility.yul\":13738:13742   */\n      dup2\n        /* \"#utility.yul\":13612:13743   */\n      tag_105\n      jump\t// in\n    tag_257:\n        /* \"#utility.yul\":13604:13743   */\n      swap1\n      pop\n        /* \"#utility.yul\":13331:13750   */\n      swap2\n      swap1\n      pop\n      jump\t// out\n        /* \"#utility.yul\":13756:13989   */\n    tag_57:\n        /* \"#utility.yul\":13795:13798   */\n      0x00\n        /* \"#utility.yul\":13818:13842   */\n      tag_259\n        /* \"#utility.yul\":13836:13841   */\n      dup3\n        /* \"#utility.yul\":13818:13842   */\n      tag_63\n      jump\t// in\n    tag_259:\n        /* \"#utility.yul\":13809:13842   */\n      swap2\n      pop\n        /* \"#utility.yul\":13864:13930   */\n      0xffffffffffffffffffffffffffffffffffffffffffffffffffffffffffffffff\n        /* \"#utility.yul\":13857:13862   */\n      dup3\n        /* \"#utility.yul\":13854:13931   */\n      sub\n        /* \"#utility.yul\":13851:13954   */\n      tag_260\n      jumpi\n        /* \"#utility.yul\":13934:13952   */\n      tag_261\n      tag_86\n      jump\t// in\n    tag_261:\n        /* \"#utility.yul\":13851:13954   */\n    tag_260:\n        /* \"#utility.yul\":13981:13982   */\n      0x01\n        /* \"#utility.yul\":13974:13979   */\n      dup3\n        /* \"#utility.yul\":13970:13983   */\n      add\n        /* \"#utility.yul\":13963:13983   */\n      swap1\n      pop\n        /* \"#utility.yul\":13756:13989   */\n      swap2\n      swap1\n      pop\n      jump\t// out\n\n    auxdata: 0xa2646970667358221220378398c5ba11e8080ecd2fb42e0957a7fa2c8fc4915a5eedc88b0d9bad8c6bfc64736f6c634300081a0033\n}\n",
				"bytecode": {
					"linkReferences": {},
					"object": "6080604052348015600e575f80fd5b50610c2d8061001c5f395ff3fe608060405234801561000f575f80fd5b506004361061004a575f3560e01c8063564a565d1461004e5780636817599614610082578063c2b7b8681461009e578063c9d27afe146100ba575b5f80fd5b61006860048036038101906100639190610493565b6100d6565b604051610079959493929190610557565b60405180910390f35b61009c600480360381019061009791906106db565b6101a8565b005b6100b860048036038101906100b39190610493565b610223565b005b6100d460048036038101906100cf919061074c565b6102b6565b005b5f81815481106100e4575f80fd5b905f5260205f2090600602015f91509050805f015490806001018054610109906107b7565b80601f0160208091040260200160405190810160405280929190818152602001828054610135906107b7565b80156101805780601f1061015757610100808354040283529160200191610180565b820191905f5260205f20905b81548152906001019060200180831161016357829003601f168201915b505050505090806002015490806003015490806004015f9054906101000a900460ff16905085565b5f8060018160018154018082558091505003905f5260205f209060060201905060015f805490506101d99190610814565b815f0181905550818160010190816101f191906109e4565b505f81600201819055505f81600301819055505f816004015f6101000a81548160ff0219169083151502179055505050565b5f80828154811061023757610236610ab3565b5b905f5260205f2090600602019050806004015f9054906101000a900460ff1615610296576040517f08c379a000000000000000000000000000000000000000000000000000000000815260040161028d90610b2a565b60405180910390fd5b6001816004015f6101000a81548160ff0219169083151502179055505050565b5f8083815481106102ca576102c9610ab3565b5b905f5260205f2090600602019050806004015f9054906101000a900460ff1615610329576040517f08c379a000000000000000000000000000000000000000000000000000000000815260040161032090610b2a565b60405180910390fd5b806005015f3373ffffffffffffffffffffffffffffffffffffffff1673ffffffffffffffffffffffffffffffffffffffff1681526020019081526020015f205f9054906101000a900460ff16156103b5576040517f08c379a00000000000000000000000000000000000000000000000000000000081526004016103ac90610b92565b60405180910390fd5b6001816005015f3373ffffffffffffffffffffffffffffffffffffffff1673ffffffffffffffffffffffffffffffffffffffff1681526020019081526020015f205f6101000a81548160ff021916908315150217905550811561043057806002015f81548092919061042690610bb0565b919050555061044a565b806003015f81548092919061044490610bb0565b91905055505b505050565b5f604051905090565b5f80fd5b5f80fd5b5f819050919050565b61047281610460565b811461047c575f80fd5b50565b5f8135905061048d81610469565b92915050565b5f602082840312156104a8576104a7610458565b5b5f6104b58482850161047f565b91505092915050565b6104c781610460565b82525050565b5f81519050919050565b5f82825260208201905092915050565b8281835e5f83830152505050565b5f601f19601f8301169050919050565b5f61050f826104cd565b61051981856104d7565b93506105298185602086016104e7565b610532816104f5565b840191505092915050565b5f8115159050919050565b6105518161053d565b82525050565b5f60a08201905061056a5f8301886104be565b818103602083015261057c8187610505565b905061058b60408301866104be565b61059860608301856104be565b6105a56080830184610548565b9695505050505050565b5f80fd5b5f80fd5b7f4e487b71000000000000000000000000000000000000000000000000000000005f52604160045260245ffd5b6105ed826104f5565b810181811067ffffffffffffffff8211171561060c5761060b6105b7565b5b80604052505050565b5f61061e61044f565b905061062a82826105e4565b919050565b5f67ffffffffffffffff821115610649576106486105b7565b5b610652826104f5565b9050602081019050919050565b828183375f83830152505050565b5f61067f61067a8461062f565b610615565b90508281526020810184848401111561069b5761069a6105b3565b5b6106a684828561065f565b509392505050565b5f82601f8301126106c2576106c16105af565b5b81356106d284826020860161066d565b91505092915050565b5f602082840312156106f0576106ef610458565b5b5f82013567ffffffffffffffff81111561070d5761070c61045c565b5b610719848285016106ae565b91505092915050565b61072b8161053d565b8114610735575f80fd5b50565b5f8135905061074681610722565b92915050565b5f806040838503121561076257610761610458565b5b5f61076f8582860161047f565b925050602061078085828601610738565b9150509250929050565b7f4e487b71000000000000000000000000000000000000000000000000000000005f52602260045260245ffd5b5f60028204905060018216806107ce57607f821691505b6020821081036107e1576107e061078a565b5b50919050565b7f4e487b71000000000000000000000000000000000000000000000000000000005f52601160045260245ffd5b5f61081e82610460565b915061082983610460565b9250828203905081811115610841576108406107e7565b5b92915050565b5f819050815f5260205f209050919050565b5f6020601f8301049050919050565b5f82821b905092915050565b5f600883026108a37fffffffffffffffffffffffffffffffffffffffffffffffffffffffffffffffff82610868565b6108ad8683610868565b95508019841693508086168417925050509392505050565b5f819050919050565b5f6108e86108e36108de84610460565b6108c5565b610460565b9050919050565b5f819050919050565b610901836108ce565b61091561090d826108ef565b848454610874565b825550505050565b5f90565b61092961091d565b6109348184846108f8565b505050565b5b818110156109575761094c5f82610921565b60018101905061093a565b5050565b601f82111561099c5761096d81610847565b61097684610859565b81016020851015610985578190505b61099961099185610859565b830182610939565b50505b505050565b5f82821c905092915050565b5f6109bc5f19846008026109a1565b1980831691505092915050565b5f6109d483836109ad565b9150826002028217905092915050565b6109ed826104cd565b67ffffffffffffffff811115610a0657610a056105b7565b5b610a1082546107b7565b610a1b82828561095b565b5f60209050601f831160018114610a4c575f8415610a3a578287015190505b610a4485826109c9565b865550610aab565b601f198416610a5a86610847565b5f5b82811015610a8157848901518255600182019150602085019450602081019050610a5c565b86831015610a9e5784890151610a9a601f8916826109ad565b8355505b6001600288020188555050505b505050505050565b7f4e487b71000000000000000000000000000000000000000000000000000000005f52603260045260245ffd5b7f4469737075746520616c7265616479207265736f6c76656400000000000000005f82015250565b5f610b146018836104d7565b9150610b1f82610ae0565b602082019050919050565b5f6020820190508181035f830152610b4181610b08565b9050919050565b7f416c726561647920766f746564000000000000000000000000000000000000005f82015250565b5f610b7c600d836104d7565b9150610b8782610b48565b602082019050919050565b5f6020820190508181035f830152610ba981610b70565b9050919050565b5f610bba82610460565b91507fffffffffffffffffffffffffffffffffffffffffffffffffffffffffffffffff8203610bec57610beb6107e7565b5b60018201905091905056fea2646970667358221220378398c5ba11e8080ecd2fb42e0957a7fa2c8fc4915a5eedc88b0d9bad8c6bfc64736f6c634300081a0033",
					"opcodes": "PUSH1 0x80 PUSH1 0x40 MSTORE CALLVALUE DUP1 ISZERO PUSH1 0xE JUMPI PUSH0 DUP1 REVERT JUMPDEST POP PUSH2 0xC2D DUP1 PUSH2 0x1C PUSH0 CODECOPY PUSH0 RETURN INVALID PUSH1 0x80 PUSH1 0x40 MSTORE CALLVALUE DUP1 ISZERO PUSH2 0xF JUMPI PUSH0 DUP1 REVERT JUMPDEST POP PUSH1 0x4 CALLDATASIZE LT PUSH2 0x4A JUMPI PUSH0 CALLDATALOAD PUSH1 0xE0 SHR DUP1 PUSH4 0x564A565D EQ PUSH2 0x4E JUMPI DUP1 PUSH4 0x68175996 EQ PUSH2 0x82 JUMPI DUP1 PUSH4 0xC2B7B868 EQ PUSH2 0x9E JUMPI DUP1 PUSH4 0xC9D27AFE EQ PUSH2 0xBA JUMPI JUMPDEST PUSH0 DUP1 REVERT JUMPDEST PUSH2 0x68 PUSH1 0x4 DUP1 CALLDATASIZE SUB DUP2 ADD SWAP1 PUSH2 0x63 SWAP2 SWAP1 PUSH2 0x493 JUMP JUMPDEST PUSH2 0xD6 JUMP JUMPDEST PUSH1 0x40 MLOAD PUSH2 0x79 SWAP6 SWAP5 SWAP4 SWAP3 SWAP2 SWAP1 PUSH2 0x557 JUMP JUMPDEST PUSH1 0x40 MLOAD DUP1 SWAP2 SUB SWAP1 RETURN JUMPDEST PUSH2 0x9C PUSH1 0x4 DUP1 CALLDATASIZE SUB DUP2 ADD SWAP1 PUSH2 0x97 SWAP2 SWAP1 PUSH2 0x6DB JUMP JUMPDEST PUSH2 0x1A8 JUMP JUMPDEST STOP JUMPDEST PUSH2 0xB8 PUSH1 0x4 DUP1 CALLDATASIZE SUB DUP2 ADD SWAP1 PUSH2 0xB3 SWAP2 SWAP1 PUSH2 0x493 JUMP JUMPDEST PUSH2 0x223 JUMP JUMPDEST STOP JUMPDEST PUSH2 0xD4 PUSH1 0x4 DUP1 CALLDATASIZE SUB DUP2 ADD SWAP1 PUSH2 0xCF SWAP2 SWAP1 PUSH2 0x74C JUMP JUMPDEST PUSH2 0x2B6 JUMP JUMPDEST STOP JUMPDEST PUSH0 DUP2 DUP2 SLOAD DUP2 LT PUSH2 0xE4 JUMPI PUSH0 DUP1 REVERT JUMPDEST SWAP1 PUSH0 MSTORE PUSH1 0x20 PUSH0 KECCAK256 SWAP1 PUSH1 0x6 MUL ADD PUSH0 SWAP2 POP SWAP1 POP DUP1 PUSH0 ADD SLOAD SWAP1 DUP1 PUSH1 0x1 ADD DUP1 SLOAD PUSH2 0x109 SWAP1 PUSH2 0x7B7 JUMP JUMPDEST DUP1 PUSH1 0x1F ADD PUSH1 0x20 DUP1 SWAP2 DIV MUL PUSH1 0x20 ADD PUSH1 0x40 MLOAD SWAP1 DUP2 ADD PUSH1 0x40 MSTORE DUP1 SWAP3 SWAP2 SWAP1 DUP2 DUP2 MSTORE PUSH1 0x20 ADD DUP3 DUP1 SLOAD PUSH2 0x135 SWAP1 PUSH2 0x7B7 JUMP JUMPDEST DUP1 ISZERO PUSH2 0x180 JUMPI DUP1 PUSH1 0x1F LT PUSH2 0x157 JUMPI PUSH2 0x100 DUP1 DUP4 SLOAD DIV MUL DUP4 MSTORE SWAP2 PUSH1 0x20 ADD SWAP2 PUSH2 0x180 JUMP JUMPDEST DUP3 ADD SWAP2 SWAP1 PUSH0 MSTORE PUSH1 0x20 PUSH0 KECCAK256 SWAP1 JUMPDEST DUP2 SLOAD DUP2 MSTORE SWAP1 PUSH1 0x1 ADD SWAP1 PUSH1 0x20 ADD DUP1 DUP4 GT PUSH2 0x163 JUMPI DUP3 SWAP1 SUB PUSH1 0x1F AND DUP3 ADD SWAP2 JUMPDEST POP POP POP POP POP SWAP1 DUP1 PUSH1 0x2 ADD SLOAD SWAP1 DUP1 PUSH1 0x3 ADD SLOAD SWAP1 DUP1 PUSH1 0x4 ADD PUSH0 SWAP1 SLOAD SWAP1 PUSH2 0x100 EXP SWAP1 DIV PUSH1 0xFF AND SWAP1 POP DUP6 JUMP JUMPDEST PUSH0 DUP1 PUSH1 0x1 DUP2 PUSH1 0x1 DUP2 SLOAD ADD DUP1 DUP3 SSTORE DUP1 SWAP2 POP POP SUB SWAP1 PUSH0 MSTORE PUSH1 0x20 PUSH0 KECCAK256 SWAP1 PUSH1 0x6 MUL ADD SWAP1 POP PUSH1 0x1 PUSH0 DUP1 SLOAD SWAP1 POP PUSH2 0x1D9 SWAP2 SWAP1 PUSH2 0x814 JUMP JUMPDEST DUP2 PUSH0 ADD DUP2 SWAP1 SSTORE POP DUP2 DUP2 PUSH1 0x1 ADD SWAP1 DUP2 PUSH2 0x1F1 SWAP2 SWAP1 PUSH2 0x9E4 JUMP JUMPDEST POP PUSH0 DUP2 PUSH1 0x2 ADD DUP2 SWAP1 SSTORE POP PUSH0 DUP2 PUSH1 0x3 ADD DUP2 SWAP1 SSTORE POP PUSH0 DUP2 PUSH1 0x4 ADD PUSH0 PUSH2 0x100 EXP DUP2 SLOAD DUP2 PUSH1 0xFF MUL NOT AND SWAP1 DUP4 ISZERO ISZERO MUL OR SWAP1 SSTORE POP POP POP JUMP JUMPDEST PUSH0 DUP1 DUP3 DUP2 SLOAD DUP2 LT PUSH2 0x237 JUMPI PUSH2 0x236 PUSH2 0xAB3 JUMP JUMPDEST JUMPDEST SWAP1 PUSH0 MSTORE PUSH1 0x20 PUSH0 KECCAK256 SWAP1 PUSH1 0x6 MUL ADD SWAP1 POP DUP1 PUSH1 0x4 ADD PUSH0 SWAP1 SLOAD SWAP1 PUSH2 0x100 EXP SWAP1 DIV PUSH1 0xFF AND ISZERO PUSH2 0x296 JUMPI PUSH1 0x40 MLOAD PUSH32 0x8C379A000000000000000000000000000000000000000000000000000000000 DUP2 MSTORE PUSH1 0x4 ADD PUSH2 0x28D SWAP1 PUSH2 0xB2A JUMP JUMPDEST PUSH1 0x40 MLOAD DUP1 SWAP2 SUB SWAP1 REVERT JUMPDEST PUSH1 0x1 DUP2 PUSH1 0x4 ADD PUSH0 PUSH2 0x100 EXP DUP2 SLOAD DUP2 PUSH1 0xFF MUL NOT AND SWAP1 DUP4 ISZERO ISZERO MUL OR SWAP1 SSTORE POP POP POP JUMP JUMPDEST PUSH0 DUP1 DUP4 DUP2 SLOAD DUP2 LT PUSH2 0x2CA JUMPI PUSH2 0x2C9 PUSH2 0xAB3 JUMP JUMPDEST JUMPDEST SWAP1 PUSH0 MSTORE PUSH1 0x20 PUSH0 KECCAK256 SWAP1 PUSH1 0x6 MUL ADD SWAP1 POP DUP1 PUSH1 0x4 ADD PUSH0 SWAP1 SLOAD SWAP1 PUSH2 0x100 EXP SWAP1 DIV PUSH1 0xFF AND ISZERO PUSH2 0x329 JUMPI PUSH1 0x40 MLOAD PUSH32 0x8C379A000000000000000000000000000000000000000000000000000000000 DUP2 MSTORE PUSH1 0x4 ADD PUSH2 0x320 SWAP1 PUSH2 0xB2A JUMP JUMPDEST PUSH1 0x40 MLOAD DUP1 SWAP2 SUB SWAP1 REVERT JUMPDEST DUP1 PUSH1 0x5 ADD PUSH0 CALLER PUSH20 0xFFFFFFFFFFFFFFFFFFFFFFFFFFFFFFFFFFFFFFFF AND PUSH20 0xFFFFFFFFFFFFFFFFFFFFFFFFFFFFFFFFFFFFFFFF AND DUP2 MSTORE PUSH1 0x20 ADD SWAP1 DUP2 MSTORE PUSH1 0x20 ADD PUSH0 KECCAK256 PUSH0 SWAP1 SLOAD SWAP1 PUSH2 0x100 EXP SWAP1 DIV PUSH1 0xFF AND ISZERO PUSH2 0x3B5 JUMPI PUSH1 0x40 MLOAD PUSH32 0x8C379A000000000000000000000000000000000000000000000000000000000 DUP2 MSTORE PUSH1 0x4 ADD PUSH2 0x3AC SWAP1 PUSH2 0xB92 JUMP JUMPDEST PUSH1 0x40 MLOAD DUP1 SWAP2 SUB SWAP1 REVERT JUMPDEST PUSH1 0x1 DUP2 PUSH1 0x5 ADD PUSH0 CALLER PUSH20 0xFFFFFFFFFFFFFFFFFFFFFFFFFFFFFFFFFFFFFFFF AND PUSH20 0xFFFFFFFFFFFFFFFFFFFFFFFFFFFFFFFFFFFFFFFF AND DUP2 MSTORE PUSH1 0x20 ADD SWAP1 DUP2 MSTORE PUSH1 0x20 ADD PUSH0 KECCAK256 PUSH0 PUSH2 0x100 EXP DUP2 SLOAD DUP2 PUSH1 0xFF MUL NOT AND SWAP1 DUP4 ISZERO ISZERO MUL OR SWAP1 SSTORE POP DUP2 ISZERO PUSH2 0x430 JUMPI DUP1 PUSH1 0x2 ADD PUSH0 DUP2 SLOAD DUP1 SWAP3 SWAP2 SWAP1 PUSH2 0x426 SWAP1 PUSH2 0xBB0 JUMP JUMPDEST SWAP2 SWAP1 POP SSTORE POP PUSH2 0x44A JUMP JUMPDEST DUP1 PUSH1 0x3 ADD PUSH0 DUP2 SLOAD DUP1 SWAP3 SWAP2 SWAP1 PUSH2 0x444 SWAP1 PUSH2 0xBB0 JUMP JUMPDEST SWAP2 SWAP1 POP SSTORE POP JUMPDEST POP POP POP JUMP JUMPDEST PUSH0 PUSH1 0x40 MLOAD SWAP1 POP SWAP1 JUMP JUMPDEST PUSH0 DUP1 REVERT JUMPDEST PUSH0 DUP1 REVERT JUMPDEST PUSH0 DUP2 SWAP1 POP SWAP2 SWAP1 POP JUMP JUMPDEST PUSH2 0x472 DUP2 PUSH2 0x460 JUMP JUMPDEST DUP2 EQ PUSH2 0x47C JUMPI PUSH0 DUP1 REVERT JUMPDEST POP JUMP JUMPDEST PUSH0 DUP2 CALLDATALOAD SWAP1 POP PUSH2 0x48D DUP2 PUSH2 0x469 JUMP JUMPDEST SWAP3 SWAP2 POP POP JUMP JUMPDEST PUSH0 PUSH1 0x20 DUP3 DUP5 SUB SLT ISZERO PUSH2 0x4A8 JUMPI PUSH2 0x4A7 PUSH2 0x458 JUMP JUMPDEST JUMPDEST PUSH0 PUSH2 0x4B5 DUP5 DUP3 DUP6 ADD PUSH2 0x47F JUMP JUMPDEST SWAP2 POP POP SWAP3 SWAP2 POP POP JUMP JUMPDEST PUSH2 0x4C7 DUP2 PUSH2 0x460 JUMP JUMPDEST DUP3 MSTORE POP POP JUMP JUMPDEST PUSH0 DUP2 MLOAD SWAP1 POP SWAP2 SWAP1 POP JUMP JUMPDEST PUSH0 DUP3 DUP3 MSTORE PUSH1 0x20 DUP3 ADD SWAP1 POP SWAP3 SWAP2 POP POP JUMP JUMPDEST DUP3 DUP2 DUP4 MCOPY PUSH0 DUP4 DUP4 ADD MSTORE POP POP POP JUMP JUMPDEST PUSH0 PUSH1 0x1F NOT PUSH1 0x1F DUP4 ADD AND SWAP1 POP SWAP2 SWAP1 POP JUMP JUMPDEST PUSH0 PUSH2 0x50F DUP3 PUSH2 0x4CD JUMP JUMPDEST PUSH2 0x519 DUP2 DUP6 PUSH2 0x4D7 JUMP JUMPDEST SWAP4 POP PUSH2 0x529 DUP2 DUP6 PUSH1 0x20 DUP7 ADD PUSH2 0x4E7 JUMP JUMPDEST PUSH2 0x532 DUP2 PUSH2 0x4F5 JUMP JUMPDEST DUP5 ADD SWAP2 POP POP SWAP3 SWAP2 POP POP JUMP JUMPDEST PUSH0 DUP2 ISZERO ISZERO SWAP1 POP SWAP2 SWAP1 POP JUMP JUMPDEST PUSH2 0x551 DUP2 PUSH2 0x53D JUMP JUMPDEST DUP3 MSTORE POP POP JUMP JUMPDEST PUSH0 PUSH1 0xA0 DUP3 ADD SWAP1 POP PUSH2 0x56A PUSH0 DUP4 ADD DUP9 PUSH2 0x4BE JUMP JUMPDEST DUP2 DUP2 SUB PUSH1 0x20 DUP4 ADD MSTORE PUSH2 0x57C DUP2 DUP8 PUSH2 0x505 JUMP JUMPDEST SWAP1 POP PUSH2 0x58B PUSH1 0x40 DUP4 ADD DUP7 PUSH2 0x4BE JUMP JUMPDEST PUSH2 0x598 PUSH1 0x60 DUP4 ADD DUP6 PUSH2 0x4BE JUMP JUMPDEST PUSH2 0x5A5 PUSH1 0x80 DUP4 ADD DUP5 PUSH2 0x548 JUMP JUMPDEST SWAP7 SWAP6 POP POP POP POP POP POP JUMP JUMPDEST PUSH0 DUP1 REVERT JUMPDEST PUSH0 DUP1 REVERT JUMPDEST PUSH32 0x4E487B7100000000000000000000000000000000000000000000000000000000 PUSH0 MSTORE PUSH1 0x41 PUSH1 0x4 MSTORE PUSH1 0x24 PUSH0 REVERT JUMPDEST PUSH2 0x5ED DUP3 PUSH2 0x4F5 JUMP JUMPDEST DUP2 ADD DUP2 DUP2 LT PUSH8 0xFFFFFFFFFFFFFFFF DUP3 GT OR ISZERO PUSH2 0x60C JUMPI PUSH2 0x60B PUSH2 0x5B7 JUMP JUMPDEST JUMPDEST DUP1 PUSH1 0x40 MSTORE POP POP POP JUMP JUMPDEST PUSH0 PUSH2 0x61E PUSH2 0x44F JUMP JUMPDEST SWAP1 POP PUSH2 0x62A DUP3 DUP3 PUSH2 0x5E4 JUMP JUMPDEST SWAP2 SWAP1 POP JUMP JUMPDEST PUSH0 PUSH8 0xFFFFFFFFFFFFFFFF DUP3 GT ISZERO PUSH2 0x649 JUMPI PUSH2 0x648 PUSH2 0x5B7 JUMP JUMPDEST JUMPDEST PUSH2 0x652 DUP3 PUSH2 0x4F5 JUMP JUMPDEST SWAP1 POP PUSH1 0x20 DUP2 ADD SWAP1 POP SWAP2 SWAP1 POP JUMP JUMPDEST DUP3 DUP2 DUP4 CALLDATACOPY PUSH0 DUP4 DUP4 ADD MSTORE POP POP POP JUMP JUMPDEST PUSH0 PUSH2 0x67F PUSH2 0x67A DUP5 PUSH2 0x62F JUMP JUMPDEST PUSH2 0x615 JUMP JUMPDEST SWAP1 POP DUP3 DUP2 MSTORE PUSH1 0x20 DUP2 ADD DUP5 DUP5 DUP5 ADD GT ISZERO PUSH2 0x69B JUMPI PUSH2 0x69A PUSH2 0x5B3 JUMP JUMPDEST JUMPDEST PUSH2 0x6A6 DUP5 DUP3 DUP6 PUSH2 0x65F JUMP JUMPDEST POP SWAP4 SWAP3 POP POP POP JUMP JUMPDEST PUSH0 DUP3 PUSH1 0x1F DUP4 ADD SLT PUSH2 0x6C2 JUMPI PUSH2 0x6C1 PUSH2 0x5AF JUMP JUMPDEST JUMPDEST DUP2 CALLDATALOAD PUSH2 0x6D2 DUP5 DUP3 PUSH1 0x20 DUP7 ADD PUSH2 0x66D JUMP JUMPDEST SWAP2 POP POP SWAP3 SWAP2 POP POP JUMP JUMPDEST PUSH0 PUSH1 0x20 DUP3 DUP5 SUB SLT ISZERO PUSH2 0x6F0 JUMPI PUSH2 0x6EF PUSH2 0x458 JUMP JUMPDEST JUMPDEST PUSH0 DUP3 ADD CALLDATALOAD PUSH8 0xFFFFFFFFFFFFFFFF DUP2 GT ISZERO PUSH2 0x70D JUMPI PUSH2 0x70C PUSH2 0x45C JUMP JUMPDEST JUMPDEST PUSH2 0x719 DUP5 DUP3 DUP6 ADD PUSH2 0x6AE JUMP JUMPDEST SWAP2 POP POP SWAP3 SWAP2 POP POP JUMP JUMPDEST PUSH2 0x72B DUP2 PUSH2 0x53D JUMP JUMPDEST DUP2 EQ PUSH2 0x735 JUMPI PUSH0 DUP1 REVERT JUMPDEST POP JUMP JUMPDEST PUSH0 DUP2 CALLDATALOAD SWAP1 POP PUSH2 0x746 DUP2 PUSH2 0x722 JUMP JUMPDEST SWAP3 SWAP2 POP POP JUMP JUMPDEST PUSH0 DUP1 PUSH1 0x40 DUP4 DUP6 SUB SLT ISZERO PUSH2 0x762 JUMPI PUSH2 0x761 PUSH2 0x458 JUMP JUMPDEST JUMPDEST PUSH0 PUSH2 0x76F DUP6 DUP3 DUP7 ADD PUSH2 0x47F JUMP JUMPDEST SWAP3 POP POP PUSH1 0x20 PUSH2 0x780 DUP6 DUP3 DUP7 ADD PUSH2 0x738 JUMP JUMPDEST SWAP2 POP POP SWAP3 POP SWAP3 SWAP1 POP JUMP JUMPDEST PUSH32 0x4E487B7100000000000000000000000000000000000000000000000000000000 PUSH0 MSTORE PUSH1 0x22 PUSH1 0x4 MSTORE PUSH1 0x24 PUSH0 REVERT JUMPDEST PUSH0 PUSH1 0x2 DUP3 DIV SWAP1 POP PUSH1 0x1 DUP3 AND DUP1 PUSH2 0x7CE JUMPI PUSH1 0x7F DUP3 AND SWAP2 POP JUMPDEST PUSH1 0x20 DUP3 LT DUP2 SUB PUSH2 0x7E1 JUMPI PUSH2 0x7E0 PUSH2 0x78A JUMP JUMPDEST JUMPDEST POP SWAP2 SWAP1 POP JUMP JUMPDEST PUSH32 0x4E487B7100000000000000000000000000000000000000000000000000000000 PUSH0 MSTORE PUSH1 0x11 PUSH1 0x4 MSTORE PUSH1 0x24 PUSH0 REVERT JUMPDEST PUSH0 PUSH2 0x81E DUP3 PUSH2 0x460 JUMP JUMPDEST SWAP2 POP PUSH2 0x829 DUP4 PUSH2 0x460 JUMP JUMPDEST SWAP3 POP DUP3 DUP3 SUB SWAP1 POP DUP2 DUP2 GT ISZERO PUSH2 0x841 JUMPI PUSH2 0x840 PUSH2 0x7E7 JUMP JUMPDEST JUMPDEST SWAP3 SWAP2 POP POP JUMP JUMPDEST PUSH0 DUP2 SWAP1 POP DUP2 PUSH0 MSTORE PUSH1 0x20 PUSH0 KECCAK256 SWAP1 POP SWAP2 SWAP1 POP JUMP JUMPDEST PUSH0 PUSH1 0x20 PUSH1 0x1F DUP4 ADD DIV SWAP1 POP SWAP2 SWAP1 POP JUMP JUMPDEST PUSH0 DUP3 DUP3 SHL SWAP1 POP SWAP3 SWAP2 POP POP JUMP JUMPDEST PUSH0 PUSH1 0x8 DUP4 MUL PUSH2 0x8A3 PUSH32 0xFFFFFFFFFFFFFFFFFFFFFFFFFFFFFFFFFFFFFFFFFFFFFFFFFFFFFFFFFFFFFFFF DUP3 PUSH2 0x868 JUMP JUMPDEST PUSH2 0x8AD DUP7 DUP4 PUSH2 0x868 JUMP JUMPDEST SWAP6 POP DUP1 NOT DUP5 AND SWAP4 POP DUP1 DUP7 AND DUP5 OR SWAP3 POP POP POP SWAP4 SWAP3 POP POP POP JUMP JUMPDEST PUSH0 DUP2 SWAP1 POP SWAP2 SWAP1 POP JUMP JUMPDEST PUSH0 PUSH2 0x8E8 PUSH2 0x8E3 PUSH2 0x8DE DUP5 PUSH2 0x460 JUMP JUMPDEST PUSH2 0x8C5 JUMP JUMPDEST PUSH2 0x460 JUMP JUMPDEST SWAP1 POP SWAP2 SWAP1 POP JUMP JUMPDEST PUSH0 DUP2 SWAP1 POP SWAP2 SWAP1 POP JUMP JUMPDEST PUSH2 0x901 DUP4 PUSH2 0x8CE JUMP JUMPDEST PUSH2 0x915 PUSH2 0x90D DUP3 PUSH2 0x8EF JUMP JUMPDEST DUP5 DUP5 SLOAD PUSH2 0x874 JUMP JUMPDEST DUP3 SSTORE POP POP POP POP JUMP JUMPDEST PUSH0 SWAP1 JUMP JUMPDEST PUSH2 0x929 PUSH2 0x91D JUMP JUMPDEST PUSH2 0x934 DUP2 DUP5 DUP5 PUSH2 0x8F8 JUMP JUMPDEST POP POP POP JUMP JUMPDEST JUMPDEST DUP2 DUP2 LT ISZERO PUSH2 0x957 JUMPI PUSH2 0x94C PUSH0 DUP3 PUSH2 0x921 JUMP JUMPDEST PUSH1 0x1 DUP2 ADD SWAP1 POP PUSH2 0x93A JUMP JUMPDEST POP POP JUMP JUMPDEST PUSH1 0x1F DUP3 GT ISZERO PUSH2 0x99C JUMPI PUSH2 0x96D DUP2 PUSH2 0x847 JUMP JUMPDEST PUSH2 0x976 DUP5 PUSH2 0x859 JUMP JUMPDEST DUP2 ADD PUSH1 0x20 DUP6 LT ISZERO PUSH2 0x985 JUMPI DUP2 SWAP1 POP JUMPDEST PUSH2 0x999 PUSH2 0x991 DUP6 PUSH2 0x859 JUMP JUMPDEST DUP4 ADD DUP3 PUSH2 0x939 JUMP JUMPDEST POP POP JUMPDEST POP POP POP JUMP JUMPDEST PUSH0 DUP3 DUP3 SHR SWAP1 POP SWAP3 SWAP2 POP POP JUMP JUMPDEST PUSH0 PUSH2 0x9BC PUSH0 NOT DUP5 PUSH1 0x8 MUL PUSH2 0x9A1 JUMP JUMPDEST NOT DUP1 DUP4 AND SWAP2 POP POP SWAP3 SWAP2 POP POP JUMP JUMPDEST PUSH0 PUSH2 0x9D4 DUP4 DUP4 PUSH2 0x9AD JUMP JUMPDEST SWAP2 POP DUP3 PUSH1 0x2 MUL DUP3 OR SWAP1 POP SWAP3 SWAP2 POP POP JUMP JUMPDEST PUSH2 0x9ED DUP3 PUSH2 0x4CD JUMP JUMPDEST PUSH8 0xFFFFFFFFFFFFFFFF DUP2 GT ISZERO PUSH2 0xA06 JUMPI PUSH2 0xA05 PUSH2 0x5B7 JUMP JUMPDEST JUMPDEST PUSH2 0xA10 DUP3 SLOAD PUSH2 0x7B7 JUMP JUMPDEST PUSH2 0xA1B DUP3 DUP3 DUP6 PUSH2 0x95B JUMP JUMPDEST PUSH0 PUSH1 0x20 SWAP1 POP PUSH1 0x1F DUP4 GT PUSH1 0x1 DUP2 EQ PUSH2 0xA4C JUMPI PUSH0 DUP5 ISZERO PUSH2 0xA3A JUMPI DUP3 DUP8 ADD MLOAD SWAP1 POP JUMPDEST PUSH2 0xA44 DUP6 DUP3 PUSH2 0x9C9 JUMP JUMPDEST DUP7 SSTORE POP PUSH2 0xAAB JUMP JUMPDEST PUSH1 0x1F NOT DUP5 AND PUSH2 0xA5A DUP7 PUSH2 0x847 JUMP JUMPDEST PUSH0 JUMPDEST DUP3 DUP2 LT ISZERO PUSH2 0xA81 JUMPI DUP5 DUP10 ADD MLOAD DUP3 SSTORE PUSH1 0x1 DUP3 ADD SWAP2 POP PUSH1 0x20 DUP6 ADD SWAP5 POP PUSH1 0x20 DUP2 ADD SWAP1 POP PUSH2 0xA5C JUMP JUMPDEST DUP7 DUP4 LT ISZERO PUSH2 0xA9E JUMPI DUP5 DUP10 ADD MLOAD PUSH2 0xA9A PUSH1 0x1F DUP10 AND DUP3 PUSH2 0x9AD JUMP JUMPDEST DUP4 SSTORE POP JUMPDEST PUSH1 0x1 PUSH1 0x2 DUP9 MUL ADD DUP9 SSTORE POP POP POP JUMPDEST POP POP POP POP POP POP JUMP JUMPDEST PUSH32 0x4E487B7100000000000000000000000000000000000000000000000000000000 PUSH0 MSTORE PUSH1 0x32 PUSH1 0x4 MSTORE PUSH1 0x24 PUSH0 REVERT JUMPDEST PUSH32 0x4469737075746520616C7265616479207265736F6C7665640000000000000000 PUSH0 DUP3 ADD MSTORE POP JUMP JUMPDEST PUSH0 PUSH2 0xB14 PUSH1 0x18 DUP4 PUSH2 0x4D7 JUMP JUMPDEST SWAP2 POP PUSH2 0xB1F DUP3 PUSH2 0xAE0 JUMP JUMPDEST PUSH1 0x20 DUP3 ADD SWAP1 POP SWAP2 SWAP1 POP JUMP JUMPDEST PUSH0 PUSH1 0x20 DUP3 ADD SWAP1 POP DUP2 DUP2 SUB PUSH0 DUP4 ADD MSTORE PUSH2 0xB41 DUP2 PUSH2 0xB08 JUMP JUMPDEST SWAP1 POP SWAP2 SWAP1 POP JUMP JUMPDEST PUSH32 0x416C726561647920766F74656400000000000000000000000000000000000000 PUSH0 DUP3 ADD MSTORE POP JUMP JUMPDEST PUSH0 PUSH2 0xB7C PUSH1 0xD DUP4 PUSH2 0x4D7 JUMP JUMPDEST SWAP2 POP PUSH2 0xB87 DUP3 PUSH2 0xB48 JUMP JUMPDEST PUSH1 0x20 DUP3 ADD SWAP1 POP SWAP2 SWAP1 POP JUMP JUMPDEST PUSH0 PUSH1 0x20 DUP3 ADD SWAP1 POP DUP2 DUP2 SUB PUSH0 DUP4 ADD MSTORE PUSH2 0xBA9 DUP2 PUSH2 0xB70 JUMP JUMPDEST SWAP1 POP SWAP2 SWAP1 POP JUMP JUMPDEST PUSH0 PUSH2 0xBBA DUP3 PUSH2 0x460 JUMP JUMPDEST SWAP2 POP PUSH32 0xFFFFFFFFFFFFFFFFFFFFFFFFFFFFFFFFFFFFFFFFFFFFFFFFFFFFFFFFFFFFFFFF DUP3 SUB PUSH2 0xBEC JUMPI PUSH2 0xBEB PUSH2 0x7E7 JUMP JUMPDEST JUMPDEST PUSH1 0x1 DUP3 ADD SWAP1 POP SWAP2 SWAP1 POP JUMP INVALID LOG2 PUSH5 0x6970667358 0x22 SLT KECCAK256 CALLDATACOPY DUP4 SWAP9 0xC5 0xBA GT 0xE8 ADDMOD 0xE 0xCD 0x2F 0xB4 0x2E MULMOD JUMPI 0xA7 STATICCALL 0x2C DUP16 0xC4 SWAP2 GAS MCOPY 0xED 0xC8 DUP12 0xD SWAP12 0xAD DUP13 PUSH12 0xFC64736F6C634300081A0033 "
				},
				"gasEstimates": {
					"creation": {
						"codeDepositCost": "623400",
						"executionCost": "655",
						"totalCost": "624055"
					},
					"external": {
						"createDispute(string)": "infinite",
						"disputes(uint256)": "infinite",
						"resolveDispute(uint256)": "29057",
						"vote(uint256,bool)": "infinite"
					}
				},
				"methodIdentifiers": {
					"createDispute(string)": "68175996",
					"disputes(uint256)": "564a565d",
					"resolveDispute(uint256)": "c2b7b868",
					"vote(uint256,bool)": "c9d27afe"
				}
			},
			"storageLayout": {
				"storage": [
					{
						"astId": 20,
						"contract": "contracts/votingSystem.sol:VotingSystem",
						"label": "disputes",
						"offset": 0,
						"slot": "0",
						"type": "t_array(t_struct(Dispute)16_storage)dyn_storage"
					}
				],
				"types": {
					"t_address": {
						"encoding": "inplace",
						"label": "address",
						"numberOfBytes": "20"
					},
					"t_array(t_struct(Dispute)16_storage)dyn_storage": {
						"base": "t_struct(Dispute)16_storage",
						"encoding": "dynamic_array",
						"label": "struct VotingSystem.Dispute[]",
						"numberOfBytes": "32"
					},
					"t_bool": {
						"encoding": "inplace",
						"label": "bool",
						"numberOfBytes": "1"
					},
					"t_mapping(t_address,t_bool)": {
						"encoding": "mapping",
						"key": "t_address",
						"label": "mapping(address => bool)",
						"numberOfBytes": "32",
						"value": "t_bool"
					},
					"t_string_storage": {
						"encoding": "bytes",
						"label": "string",
						"numberOfBytes": "32"
					},
					"t_struct(Dispute)16_storage": {
						"encoding": "inplace",
						"label": "struct VotingSystem.Dispute",
						"members": [
							{
								"astId": 3,
								"contract": "contracts/votingSystem.sol:VotingSystem",
								"label": "id",
								"offset": 0,
								"slot": "0",
								"type": "t_uint256"
							},
							{
								"astId": 5,
								"contract": "contracts/votingSystem.sol:VotingSystem",
								"label": "description",
								"offset": 0,
								"slot": "1",
								"type": "t_string_storage"
							},
							{
								"astId": 7,
								"contract": "contracts/votingSystem.sol:VotingSystem",
								"label": "inFavor",
								"offset": 0,
								"slot": "2",
								"type": "t_uint256"
							},
							{
								"astId": 9,
								"contract": "contracts/votingSystem.sol:VotingSystem",
								"label": "against",
								"offset": 0,
								"slot": "3",
								"type": "t_uint256"
							},
							{
								"astId": 11,
								"contract": "contracts/votingSystem.sol:VotingSystem",
								"label": "resolved",
								"offset": 0,
								"slot": "4",
								"type": "t_bool"
							},
							{
								"astId": 15,
								"contract": "contracts/votingSystem.sol:VotingSystem",
								"label": "votes",
								"offset": 0,
								"slot": "5",
								"type": "t_mapping(t_address,t_bool)"
							}
						],
						"numberOfBytes": "192"
					},
					"t_uint256": {
						"encoding": "inplace",
						"label": "uint256",
						"numberOfBytes": "32"
					}
				}
			},
			"userdoc": {
				"kind": "user",
				"methods": {},
				"version": 1
			}
		}
	}
}