{
	"contracts/jurorSelection.sol": {
		"JurorSelection": {
			"abi": [
				{
					"inputs": [
						{
							"internalType": "address",
							"name": "_grullTokenAddress",
							"type": "address"
						},
						{
							"internalType": "address",
							"name": "_vrfCoordinator",
							"type": "address"
						},
						{
							"internalType": "address",
							"name": "_linkToken",
							"type": "address"
						},
						{
							"internalType": "bytes32",
							"name": "_keyHash",
							"type": "bytes32"
						},
						{
							"internalType": "uint256",
							"name": "_fee",
							"type": "uint256"
						}
					],
					"stateMutability": "nonpayable",
					"type": "constructor"
				},
				{
					"anonymous": false,
					"inputs": [
						{
							"indexed": false,
							"internalType": "address[]",
							"name": "selectedJurors",
							"type": "address[]"
						}
					],
					"name": "JurorsSelected",
					"type": "event"
				},
				{
					"inputs": [],
					"name": "grullToken",
					"outputs": [
						{
							"internalType": "contract IERC20",
							"name": "",
							"type": "address"
						}
					],
					"stateMutability": "view",
					"type": "function"
				},
				{
					"inputs": [
						{
							"internalType": "uint256",
							"name": "",
							"type": "uint256"
						}
					],
					"name": "jurors",
					"outputs": [
						{
							"internalType": "address",
							"name": "",
							"type": "address"
						}
					],
					"stateMutability": "view",
					"type": "function"
				},
				{
					"inputs": [],
					"name": "maxStake",
					"outputs": [
						{
							"internalType": "uint256",
							"name": "",
							"type": "uint256"
						}
					],
					"stateMutability": "view",
					"type": "function"
				},
				{
					"inputs": [],
					"name": "minStake",
					"outputs": [
						{
							"internalType": "uint256",
							"name": "",
							"type": "uint256"
						}
					],
					"stateMutability": "view",
					"type": "function"
				},
				{
					"inputs": [],
					"name": "numJurorsToSelect",
					"outputs": [
						{
							"internalType": "uint256",
							"name": "",
							"type": "uint256"
						}
					],
					"stateMutability": "view",
					"type": "function"
				},
				{
					"inputs": [
						{
							"internalType": "bytes32",
							"name": "requestId",
							"type": "bytes32"
						},
						{
							"internalType": "uint256",
							"name": "randomness",
							"type": "uint256"
						}
					],
					"name": "rawFulfillRandomness",
					"outputs": [],
					"stateMutability": "nonpayable",
					"type": "function"
				},
				{
					"inputs": [
						{
							"internalType": "uint256",
							"name": "_numJurors",
							"type": "uint256"
						}
					],
					"name": "selectJurors",
					"outputs": [
						{
							"internalType": "bytes32",
							"name": "",
							"type": "bytes32"
						}
					],
					"stateMutability": "nonpayable",
					"type": "function"
				},
				{
					"inputs": [
						{
							"internalType": "uint256",
							"name": "_amount",
							"type": "uint256"
						}
					],
					"name": "stakeTokens",
					"outputs": [],
					"stateMutability": "nonpayable",
					"type": "function"
				},
				{
					"inputs": [
						{
							"internalType": "address",
							"name": "",
							"type": "address"
						}
					],
					"name": "stakes",
					"outputs": [
						{
							"internalType": "uint256",
							"name": "",
							"type": "uint256"
						}
					],
					"stateMutability": "view",
					"type": "function"
				},
				{
					"inputs": [],
					"name": "unstakePenaltyPercent",
					"outputs": [
						{
							"internalType": "uint256",
							"name": "",
							"type": "uint256"
						}
					],
					"stateMutability": "view",
					"type": "function"
				},
				{
					"inputs": [
						{
							"internalType": "uint256",
							"name": "_amount",
							"type": "uint256"
						}
					],
					"name": "unstakeTokens",
					"outputs": [],
					"stateMutability": "nonpayable",
					"type": "function"
				}
			],
			"devdoc": {
				"kind": "dev",
				"methods": {
					"selectJurors(uint256)": {
						"details": "Select jurors randomly using Chainlink VRF.",
						"params": {
							"_numJurors": "The number of jurors to select."
						}
					},
					"stakeTokens(uint256)": {
						"details": "Stake tokens to become eligible for juror selection.",
						"params": {
							"_amount": "The amount of GRULL tokens to stake."
						}
					},
					"unstakeTokens(uint256)": {
						"details": "Unstake tokens, with a penalty if called before dispute resolution.",
						"params": {
							"_amount": "The amount of tokens to unstake."
						}
					}
				},
				"version": 1
			},
			"evm": {
				"assembly": "    /* \"contracts/jurorSelection.sol\":182:3717  contract JurorSelection is VRFConsumerBase {... */\n  mstore(0x40, 0xc0)\n    /* \"contracts/jurorSelection.sol\":464:478  100 * 10 ** 18 */\n  0x056bc75e2d63100000\n    /* \"contracts/jurorSelection.sol\":438:478  uint256 public minStake = 100 * 10 ** 18 */\n  0x07\n  sstore\n    /* \"contracts/jurorSelection.sol\":537:553  10000 * 10 ** 18 */\n  0x021e19e0c9bab2400000\n    /* \"contracts/jurorSelection.sol\":511:553  uint256 public maxStake = 10000 * 10 ** 18 */\n  0x08\n  sstore\n    /* \"contracts/jurorSelection.sol\":654:656  10 */\n  0x0a\n    /* \"contracts/jurorSelection.sol\":615:656  uint256 public unstakePenaltyPercent = 10 */\n  0x09\n  sstore\n    /* \"contracts/jurorSelection.sol\":766:1088  constructor(... */\n  callvalue\n  dup1\n  iszero\n  tag_1\n  jumpi\n  0x00\n  dup1\n  revert\ntag_1:\n  pop\n  mload(0x40)\n  sub(codesize, bytecodeSize)\n  dup1\n  bytecodeSize\n  dup4\n  codecopy\n  dup2\n  dup2\n  add\n  0x40\n  mstore\n  dup2\n  add\n  swap1\n  tag_2\n  swap2\n  swap1\n  tag_3\n  jump\t// in\ntag_2:\n    /* \"contracts/jurorSelection.sol\":951:966  _vrfCoordinator */\n  dup4\n    /* \"contracts/jurorSelection.sol\":968:978  _linkToken */\n  dup4\n    /* \"@chainlink/contracts/src/v0.8/VRFConsumerBase.sol\":9323:9338  _vrfCoordinator */\n  dup2\n    /* \"@chainlink/contracts/src/v0.8/VRFConsumerBase.sol\":9306:9338  vrfCoordinator = _vrfCoordinator */\n  0xffffffffffffffffffffffffffffffffffffffff\n  and\n  0xa0\n  dup2\n  0xffffffffffffffffffffffffffffffffffffffff\n  and\n  dup2\n  mstore\n  pop\n  pop\n    /* \"@chainlink/contracts/src/v0.8/VRFConsumerBase.sol\":9370:9375  _link */\n  dup1\n    /* \"@chainlink/contracts/src/v0.8/VRFConsumerBase.sol\":9344:9376  LINK = LinkTokenInterface(_link) */\n  0xffffffffffffffffffffffffffffffffffffffff\n  and\n  0x80\n  dup2\n  0xffffffffffffffffffffffffffffffffffffffff\n  and\n  dup2\n  mstore\n  pop\n  pop\n    /* \"@chainlink/contracts/src/v0.8/VRFConsumerBase.sol\":9248:9381  constructor(address _vrfCoordinator, address _link) {... */\n  pop\n  pop\n    /* \"contracts/jurorSelection.sol\":1011:1029  _grullTokenAddress */\n  dup5\n    /* \"contracts/jurorSelection.sol\":991:1001  grullToken */\n  0x01\n  0x00\n    /* \"contracts/jurorSelection.sol\":991:1030  grullToken = IERC20(_grullTokenAddress) */\n  0x0100\n  exp\n  dup2\n  sload\n  dup2\n  0xffffffffffffffffffffffffffffffffffffffff\n  mul\n  not\n  and\n  swap1\n  dup4\n  0xffffffffffffffffffffffffffffffffffffffff\n  and\n  mul\n  or\n  swap1\n  sstore\n  pop\n    /* \"contracts/jurorSelection.sol\":1051:1059  _keyHash */\n  dup2\n    /* \"contracts/jurorSelection.sol\":1041:1048  keyHash */\n  0x04\n    /* \"contracts/jurorSelection.sol\":1041:1059  keyHash = _keyHash */\n  dup2\n  swap1\n  sstore\n  pop\n    /* \"contracts/jurorSelection.sol\":1076:1080  _fee */\n  dup1\n    /* \"contracts/jurorSelection.sol\":1070:1073  fee */\n  0x05\n    /* \"contracts/jurorSelection.sol\":1070:1080  fee = _fee */\n  dup2\n  swap1\n  sstore\n  pop\n    /* \"contracts/jurorSelection.sol\":766:1088  constructor(... */\n  pop\n  pop\n  pop\n  pop\n  pop\n    /* \"contracts/jurorSelection.sol\":182:3717  contract JurorSelection is VRFConsumerBase {... */\n  jump(tag_8)\n    /* \"#utility.yul\":88:205   */\ntag_10:\n    /* \"#utility.yul\":197:198   */\n  0x00\n    /* \"#utility.yul\":194:195   */\n  dup1\n    /* \"#utility.yul\":187:199   */\n  revert\n    /* \"#utility.yul\":334:460   */\ntag_12:\n    /* \"#utility.yul\":371:378   */\n  0x00\n    /* \"#utility.yul\":411:453   */\n  0xffffffffffffffffffffffffffffffffffffffff\n    /* \"#utility.yul\":404:409   */\n  dup3\n    /* \"#utility.yul\":400:454   */\n  and\n    /* \"#utility.yul\":389:454   */\n  swap1\n  pop\n    /* \"#utility.yul\":334:460   */\n  swap2\n  swap1\n  pop\n  jump\t// out\n    /* \"#utility.yul\":466:562   */\ntag_13:\n    /* \"#utility.yul\":503:510   */\n  0x00\n    /* \"#utility.yul\":532:556   */\n  tag_28\n    /* \"#utility.yul\":550:555   */\n  dup3\n    /* \"#utility.yul\":532:556   */\n  tag_12\n  jump\t// in\ntag_28:\n    /* \"#utility.yul\":521:556   */\n  swap1\n  pop\n    /* \"#utility.yul\":466:562   */\n  swap2\n  swap1\n  pop\n  jump\t// out\n    /* \"#utility.yul\":568:690   */\ntag_14:\n    /* \"#utility.yul\":641:665   */\n  tag_30\n    /* \"#utility.yul\":659:664   */\n  dup2\n    /* \"#utility.yul\":641:665   */\n  tag_13\n  jump\t// in\ntag_30:\n    /* \"#utility.yul\":634:639   */\n  dup2\n    /* \"#utility.yul\":631:666   */\n  eq\n    /* \"#utility.yul\":621:684   */\n  tag_31\n  jumpi\n    /* \"#utility.yul\":680:681   */\n  0x00\n    /* \"#utility.yul\":677:678   */\n  dup1\n    /* \"#utility.yul\":670:682   */\n  revert\n    /* \"#utility.yul\":621:684   */\ntag_31:\n    /* \"#utility.yul\":568:690   */\n  pop\n  jump\t// out\n    /* \"#utility.yul\":696:839   */\ntag_15:\n    /* \"#utility.yul\":753:758   */\n  0x00\n    /* \"#utility.yul\":784:790   */\n  dup2\n    /* \"#utility.yul\":778:791   */\n  mload\n    /* \"#utility.yul\":769:791   */\n  swap1\n  pop\n    /* \"#utility.yul\":800:833   */\n  tag_33\n    /* \"#utility.yul\":827:832   */\n  dup2\n    /* \"#utility.yul\":800:833   */\n  tag_14\n  jump\t// in\ntag_33:\n    /* \"#utility.yul\":696:839   */\n  swap3\n  swap2\n  pop\n  pop\n  jump\t// out\n    /* \"#utility.yul\":845:922   */\ntag_16:\n    /* \"#utility.yul\":882:889   */\n  0x00\n    /* \"#utility.yul\":911:916   */\n  dup2\n    /* \"#utility.yul\":900:916   */\n  swap1\n  pop\n    /* \"#utility.yul\":845:922   */\n  swap2\n  swap1\n  pop\n  jump\t// out\n    /* \"#utility.yul\":928:1050   */\ntag_17:\n    /* \"#utility.yul\":1001:1025   */\n  tag_36\n    /* \"#utility.yul\":1019:1024   */\n  dup2\n    /* \"#utility.yul\":1001:1025   */\n  tag_16\n  jump\t// in\ntag_36:\n    /* \"#utility.yul\":994:999   */\n  dup2\n    /* \"#utility.yul\":991:1026   */\n  eq\n    /* \"#utility.yul\":981:1044   */\n  tag_37\n  jumpi\n    /* \"#utility.yul\":1040:1041   */\n  0x00\n    /* \"#utility.yul\":1037:1038   */\n  dup1\n    /* \"#utility.yul\":1030:1042   */\n  revert\n    /* \"#utility.yul\":981:1044   */\ntag_37:\n    /* \"#utility.yul\":928:1050   */\n  pop\n  jump\t// out\n    /* \"#utility.yul\":1056:1199   */\ntag_18:\n    /* \"#utility.yul\":1113:1118   */\n  0x00\n    /* \"#utility.yul\":1144:1150   */\n  dup2\n    /* \"#utility.yul\":1138:1151   */\n  mload\n    /* \"#utility.yul\":1129:1151   */\n  swap1\n  pop\n    /* \"#utility.yul\":1160:1193   */\n  tag_39\n    /* \"#utility.yul\":1187:1192   */\n  dup2\n    /* \"#utility.yul\":1160:1193   */\n  tag_17\n  jump\t// in\ntag_39:\n    /* \"#utility.yul\":1056:1199   */\n  swap3\n  swap2\n  pop\n  pop\n  jump\t// out\n    /* \"#utility.yul\":1205:1282   */\ntag_19:\n    /* \"#utility.yul\":1242:1249   */\n  0x00\n    /* \"#utility.yul\":1271:1276   */\n  dup2\n    /* \"#utility.yul\":1260:1276   */\n  swap1\n  pop\n    /* \"#utility.yul\":1205:1282   */\n  swap2\n  swap1\n  pop\n  jump\t// out\n    /* \"#utility.yul\":1288:1410   */\ntag_20:\n    /* \"#utility.yul\":1361:1385   */\n  tag_42\n    /* \"#utility.yul\":1379:1384   */\n  dup2\n    /* \"#utility.yul\":1361:1385   */\n  tag_19\n  jump\t// in\ntag_42:\n    /* \"#utility.yul\":1354:1359   */\n  dup2\n    /* \"#utility.yul\":1351:1386   */\n  eq\n    /* \"#utility.yul\":1341:1404   */\n  tag_43\n  jumpi\n    /* \"#utility.yul\":1400:1401   */\n  0x00\n    /* \"#utility.yul\":1397:1398   */\n  dup1\n    /* \"#utility.yul\":1390:1402   */\n  revert\n    /* \"#utility.yul\":1341:1404   */\ntag_43:\n    /* \"#utility.yul\":1288:1410   */\n  pop\n  jump\t// out\n    /* \"#utility.yul\":1416:1559   */\ntag_21:\n    /* \"#utility.yul\":1473:1478   */\n  0x00\n    /* \"#utility.yul\":1504:1510   */\n  dup2\n    /* \"#utility.yul\":1498:1511   */\n  mload\n    /* \"#utility.yul\":1489:1511   */\n  swap1\n  pop\n    /* \"#utility.yul\":1520:1553   */\n  tag_45\n    /* \"#utility.yul\":1547:1552   */\n  dup2\n    /* \"#utility.yul\":1520:1553   */\n  tag_20\n  jump\t// in\ntag_45:\n    /* \"#utility.yul\":1416:1559   */\n  swap3\n  swap2\n  pop\n  pop\n  jump\t// out\n    /* \"#utility.yul\":1565:2542   */\ntag_3:\n    /* \"#utility.yul\":1671:1677   */\n  0x00\n    /* \"#utility.yul\":1679:1685   */\n  dup1\n    /* \"#utility.yul\":1687:1693   */\n  0x00\n    /* \"#utility.yul\":1695:1701   */\n  dup1\n    /* \"#utility.yul\":1703:1709   */\n  0x00\n    /* \"#utility.yul\":1752:1755   */\n  0xa0\n    /* \"#utility.yul\":1740:1749   */\n  dup7\n    /* \"#utility.yul\":1731:1738   */\n  dup9\n    /* \"#utility.yul\":1727:1750   */\n  sub\n    /* \"#utility.yul\":1723:1756   */\n  slt\n    /* \"#utility.yul\":1720:1840   */\n  iszero\n  tag_47\n  jumpi\n    /* \"#utility.yul\":1759:1838   */\n  tag_48\n  tag_10\n  jump\t// in\ntag_48:\n    /* \"#utility.yul\":1720:1840   */\ntag_47:\n    /* \"#utility.yul\":1879:1880   */\n  0x00\n    /* \"#utility.yul\":1904:1968   */\n  tag_49\n    /* \"#utility.yul\":1960:1967   */\n  dup9\n    /* \"#utility.yul\":1951:1957   */\n  dup3\n    /* \"#utility.yul\":1940:1949   */\n  dup10\n    /* \"#utility.yul\":1936:1958   */\n  add\n    /* \"#utility.yul\":1904:1968   */\n  tag_15\n  jump\t// in\ntag_49:\n    /* \"#utility.yul\":1894:1968   */\n  swap6\n  pop\n    /* \"#utility.yul\":1850:1978   */\n  pop\n    /* \"#utility.yul\":2017:2019   */\n  0x20\n    /* \"#utility.yul\":2043:2107   */\n  tag_50\n    /* \"#utility.yul\":2099:2106   */\n  dup9\n    /* \"#utility.yul\":2090:2096   */\n  dup3\n    /* \"#utility.yul\":2079:2088   */\n  dup10\n    /* \"#utility.yul\":2075:2097   */\n  add\n    /* \"#utility.yul\":2043:2107   */\n  tag_15\n  jump\t// in\ntag_50:\n    /* \"#utility.yul\":2033:2107   */\n  swap5\n  pop\n    /* \"#utility.yul\":1988:2117   */\n  pop\n    /* \"#utility.yul\":2156:2158   */\n  0x40\n    /* \"#utility.yul\":2182:2246   */\n  tag_51\n    /* \"#utility.yul\":2238:2245   */\n  dup9\n    /* \"#utility.yul\":2229:2235   */\n  dup3\n    /* \"#utility.yul\":2218:2227   */\n  dup10\n    /* \"#utility.yul\":2214:2236   */\n  add\n    /* \"#utility.yul\":2182:2246   */\n  tag_15\n  jump\t// in\ntag_51:\n    /* \"#utility.yul\":2172:2246   */\n  swap4\n  pop\n    /* \"#utility.yul\":2127:2256   */\n  pop\n    /* \"#utility.yul\":2295:2297   */\n  0x60\n    /* \"#utility.yul\":2321:2385   */\n  tag_52\n    /* \"#utility.yul\":2377:2384   */\n  dup9\n    /* \"#utility.yul\":2368:2374   */\n  dup3\n    /* \"#utility.yul\":2357:2366   */\n  dup10\n    /* \"#utility.yul\":2353:2375   */\n  add\n    /* \"#utility.yul\":2321:2385   */\n  tag_18\n  jump\t// in\ntag_52:\n    /* \"#utility.yul\":2311:2385   */\n  swap3\n  pop\n    /* \"#utility.yul\":2266:2395   */\n  pop\n    /* \"#utility.yul\":2434:2437   */\n  0x80\n    /* \"#utility.yul\":2461:2525   */\n  tag_53\n    /* \"#utility.yul\":2517:2524   */\n  dup9\n    /* \"#utility.yul\":2508:2514   */\n  dup3\n    /* \"#utility.yul\":2497:2506   */\n  dup10\n    /* \"#utility.yul\":2493:2515   */\n  add\n    /* \"#utility.yul\":2461:2525   */\n  tag_21\n  jump\t// in\ntag_53:\n    /* \"#utility.yul\":2451:2525   */\n  swap2\n  pop\n    /* \"#utility.yul\":2405:2535   */\n  pop\n    /* \"#utility.yul\":1565:2542   */\n  swap3\n  swap6\n  pop\n  swap3\n  swap6\n  swap1\n  swap4\n  pop\n  jump\t// out\n    /* \"contracts/jurorSelection.sol\":182:3717  contract JurorSelection is VRFConsumerBase {... */\ntag_8:\n  mload(0x80)\n  mload(0xa0)\n  codecopy(0x00, dataOffset(sub_0), dataSize(sub_0))\n  0x00\n  assignImmutable(\"0x6dbb33232cde86c8a04f90a8bed9fc1c5ef520188a14538d96eb100d69bc2a94\")\n  0x00\n  assignImmutable(\"0xb2219b801710730437d0358146c829b62297a059eceaa0b40b27aea2daecf595\")\n  return(0x00, dataSize(sub_0))\nstop\n\nsub_0: assembly {\n        /* \"contracts/jurorSelection.sol\":182:3717  contract JurorSelection is VRFConsumerBase {... */\n      mstore(0x40, 0x80)\n      callvalue\n      dup1\n      iszero\n      tag_1\n      jumpi\n      0x00\n      dup1\n      revert\n    tag_1:\n      pop\n      jumpi(tag_2, lt(calldatasize, 0x04))\n      shr(0xe0, calldataload(0x00))\n      dup1\n      0x7547c7a3\n      gt\n      tag_14\n      jumpi\n      dup1\n      0x7547c7a3\n      eq\n      tag_8\n      jumpi\n      dup1\n      0x7cd38ff8\n      eq\n      tag_9\n      jumpi\n      dup1\n      0x9233be0d\n      eq\n      tag_10\n      jumpi\n      dup1\n      0x94985ddd\n      eq\n      tag_11\n      jumpi\n      dup1\n      0xc9cf5ddf\n      eq\n      tag_12\n      jumpi\n      dup1\n      0xea1b28e0\n      eq\n      tag_13\n      jumpi\n      jump(tag_2)\n    tag_14:\n      dup1\n      0x16934fc4\n      eq\n      tag_3\n      jumpi\n      dup1\n      0x266d3730\n      eq\n      tag_4\n      jumpi\n      dup1\n      0x375b3c0a\n      eq\n      tag_5\n      jumpi\n      dup1\n      0x608e4dd0\n      eq\n      tag_6\n      jumpi\n      dup1\n      0x6ca33109\n      eq\n      tag_7\n      jumpi\n    tag_2:\n      0x00\n      dup1\n      revert\n        /* \"contracts/jurorSelection.sol\":263:304  mapping(address => uint256) public stakes */\n    tag_3:\n      tag_15\n      0x04\n      dup1\n      calldatasize\n      sub\n      dup2\n      add\n      swap1\n      tag_16\n      swap2\n      swap1\n      tag_17\n      jump\t// in\n    tag_16:\n      tag_18\n      jump\t// in\n    tag_15:\n      mload(0x40)\n      tag_19\n      swap2\n      swap1\n      tag_20\n      jump\t// in\n    tag_19:\n      mload(0x40)\n      dup1\n      swap2\n      sub\n      swap1\n      return\n        /* \"contracts/jurorSelection.sol\":399:431  uint256 public numJurorsToSelect */\n    tag_4:\n      tag_21\n      tag_22\n      jump\t// in\n    tag_21:\n      mload(0x40)\n      tag_23\n      swap2\n      swap1\n      tag_20\n      jump\t// in\n    tag_23:\n      mload(0x40)\n      dup1\n      swap2\n      sub\n      swap1\n      return\n        /* \"contracts/jurorSelection.sol\":438:478  uint256 public minStake = 100 * 10 ** 18 */\n    tag_5:\n      tag_24\n      tag_25\n      jump\t// in\n    tag_24:\n      mload(0x40)\n      tag_26\n      swap2\n      swap1\n      tag_20\n      jump\t// in\n    tag_26:\n      mload(0x40)\n      dup1\n      swap2\n      sub\n      swap1\n      return\n        /* \"contracts/jurorSelection.sol\":1772:2568  function unstakeTokens(uint256 _amount) public {... */\n    tag_6:\n      tag_27\n      0x04\n      dup1\n      calldatasize\n      sub\n      dup2\n      add\n      swap1\n      tag_28\n      swap2\n      swap1\n      tag_29\n      jump\t// in\n    tag_28:\n      tag_30\n      jump\t// in\n    tag_27:\n      stop\n        /* \"contracts/jurorSelection.sol\":615:656  uint256 public unstakePenaltyPercent = 10 */\n    tag_7:\n      tag_31\n      tag_32\n      jump\t// in\n    tag_31:\n      mload(0x40)\n      tag_33\n      swap2\n      swap1\n      tag_20\n      jump\t// in\n    tag_33:\n      mload(0x40)\n      dup1\n      swap2\n      sub\n      swap1\n      return\n        /* \"contracts/jurorSelection.sol\":1240:1609  function stakeTokens(uint256 _amount) public {... */\n    tag_8:\n      tag_34\n      0x04\n      dup1\n      calldatasize\n      sub\n      dup2\n      add\n      swap1\n      tag_35\n      swap2\n      swap1\n      tag_29\n      jump\t// in\n    tag_35:\n      tag_36\n      jump\t// in\n    tag_34:\n      stop\n        /* \"contracts/jurorSelection.sol\":311:334  address[] public jurors */\n    tag_9:\n      tag_37\n      0x04\n      dup1\n      calldatasize\n      sub\n      dup2\n      add\n      swap1\n      tag_38\n      swap2\n      swap1\n      tag_29\n      jump\t// in\n    tag_38:\n      tag_39\n      jump\t// in\n    tag_37:\n      mload(0x40)\n      tag_40\n      swap2\n      swap1\n      tag_41\n      jump\t// in\n    tag_40:\n      mload(0x40)\n      dup1\n      swap2\n      sub\n      swap1\n      return\n        /* \"contracts/jurorSelection.sol\":2709:3089  function selectJurors(uint256 _numJurors) public returns (bytes32) {... */\n    tag_10:\n      tag_42\n      0x04\n      dup1\n      calldatasize\n      sub\n      dup2\n      add\n      swap1\n      tag_43\n      swap2\n      swap1\n      tag_29\n      jump\t// in\n    tag_43:\n      tag_44\n      jump\t// in\n    tag_42:\n      mload(0x40)\n      tag_45\n      swap2\n      swap1\n      tag_46\n      jump\t// in\n    tag_45:\n      mload(0x40)\n      dup1\n      swap2\n      sub\n      swap1\n      return\n        /* \"@chainlink/contracts/src/v0.8/VRFConsumerBase.sol\":9576:9783  function rawFulfillRandomness(bytes32 requestId, uint256 randomness) external {... */\n    tag_11:\n      tag_47\n      0x04\n      dup1\n      calldatasize\n      sub\n      dup2\n      add\n      swap1\n      tag_48\n      swap2\n      swap1\n      tag_49\n      jump\t// in\n    tag_48:\n      tag_50\n      jump\t// in\n    tag_47:\n      stop\n        /* \"contracts/jurorSelection.sol\":232:256  IERC20 public grullToken */\n    tag_12:\n      tag_51\n      tag_52\n      jump\t// in\n    tag_51:\n      mload(0x40)\n      tag_53\n      swap2\n      swap1\n      tag_54\n      jump\t// in\n    tag_53:\n      mload(0x40)\n      dup1\n      swap2\n      sub\n      swap1\n      return\n        /* \"contracts/jurorSelection.sol\":511:553  uint256 public maxStake = 10000 * 10 ** 18 */\n    tag_13:\n      tag_55\n      tag_56\n      jump\t// in\n    tag_55:\n      mload(0x40)\n      tag_57\n      swap2\n      swap1\n      tag_20\n      jump\t// in\n    tag_57:\n      mload(0x40)\n      dup1\n      swap2\n      sub\n      swap1\n      return\n        /* \"contracts/jurorSelection.sol\":263:304  mapping(address => uint256) public stakes */\n    tag_18:\n      mstore(0x20, 0x02)\n      dup1\n      0x00\n      mstore\n      keccak256(0x00, 0x40)\n      0x00\n      swap2\n      pop\n      swap1\n      pop\n      sload\n      dup2\n      jump\t// out\n        /* \"contracts/jurorSelection.sol\":399:431  uint256 public numJurorsToSelect */\n    tag_22:\n      sload(0x06)\n      dup2\n      jump\t// out\n        /* \"contracts/jurorSelection.sol\":438:478  uint256 public minStake = 100 * 10 ** 18 */\n    tag_25:\n      sload(0x07)\n      dup2\n      jump\t// out\n        /* \"contracts/jurorSelection.sol\":1772:2568  function unstakeTokens(uint256 _amount) public {... */\n    tag_30:\n        /* \"contracts/jurorSelection.sol\":1860:1867  _amount */\n      dup1\n        /* \"contracts/jurorSelection.sol\":1838:1844  stakes */\n      0x02\n        /* \"contracts/jurorSelection.sol\":1838:1856  stakes[msg.sender] */\n      0x00\n        /* \"contracts/jurorSelection.sol\":1845:1855  msg.sender */\n      caller\n        /* \"contracts/jurorSelection.sol\":1838:1856  stakes[msg.sender] */\n      0xffffffffffffffffffffffffffffffffffffffff\n      and\n      0xffffffffffffffffffffffffffffffffffffffff\n      and\n      dup2\n      mstore\n      0x20\n      add\n      swap1\n      dup2\n      mstore\n      0x20\n      add\n      0x00\n      keccak256\n      sload\n        /* \"contracts/jurorSelection.sol\":1838:1867  stakes[msg.sender] >= _amount */\n      lt\n      iszero\n        /* \"contracts/jurorSelection.sol\":1830:1899  require(stakes[msg.sender] >= _amount, \"Insufficient staked balance\") */\n      tag_59\n      jumpi\n      mload(0x40)\n      0x08c379a000000000000000000000000000000000000000000000000000000000\n      dup2\n      mstore\n      0x04\n      add\n      tag_60\n      swap1\n      tag_61\n      jump\t// in\n    tag_60:\n      mload(0x40)\n      dup1\n      swap2\n      sub\n      swap1\n      revert\n    tag_59:\n        /* \"contracts/jurorSelection.sol\":1966:1981  uint256 penalty */\n      0x00\n        /* \"contracts/jurorSelection.sol\":2020:2023  100 */\n      0x64\n        /* \"contracts/jurorSelection.sol\":1995:2016  unstakePenaltyPercent */\n      sload(0x09)\n        /* \"contracts/jurorSelection.sol\":1985:1992  _amount */\n      dup4\n        /* \"contracts/jurorSelection.sol\":1985:2016  _amount * unstakePenaltyPercent */\n      tag_62\n      swap2\n      swap1\n      tag_63\n      jump\t// in\n    tag_62:\n        /* \"contracts/jurorSelection.sol\":1984:2023  (_amount * unstakePenaltyPercent) / 100 */\n      tag_64\n      swap2\n      swap1\n      tag_65\n      jump\t// in\n    tag_64:\n        /* \"contracts/jurorSelection.sol\":1966:2023  uint256 penalty = (_amount * unstakePenaltyPercent) / 100 */\n      swap1\n      pop\n        /* \"contracts/jurorSelection.sol\":2034:2053  uint256 finalAmount */\n      0x00\n        /* \"contracts/jurorSelection.sol\":2066:2073  penalty */\n      dup2\n        /* \"contracts/jurorSelection.sol\":2056:2063  _amount */\n      dup4\n        /* \"contracts/jurorSelection.sol\":2056:2073  _amount - penalty */\n      tag_66\n      swap2\n      swap1\n      tag_67\n      jump\t// in\n    tag_66:\n        /* \"contracts/jurorSelection.sol\":2034:2073  uint256 finalAmount = _amount - penalty */\n      swap1\n      pop\n        /* \"contracts/jurorSelection.sol\":2116:2123  _amount */\n      dup3\n        /* \"contracts/jurorSelection.sol\":2094:2100  stakes */\n      0x02\n        /* \"contracts/jurorSelection.sol\":2094:2112  stakes[msg.sender] */\n      0x00\n        /* \"contracts/jurorSelection.sol\":2101:2111  msg.sender */\n      caller\n        /* \"contracts/jurorSelection.sol\":2094:2112  stakes[msg.sender] */\n      0xffffffffffffffffffffffffffffffffffffffff\n      and\n      0xffffffffffffffffffffffffffffffffffffffff\n      and\n      dup2\n      mstore\n      0x20\n      add\n      swap1\n      dup2\n      mstore\n      0x20\n      add\n      0x00\n      keccak256\n      0x00\n        /* \"contracts/jurorSelection.sol\":2094:2123  stakes[msg.sender] -= _amount */\n      dup3\n      dup3\n      sload\n      tag_68\n      swap2\n      swap1\n      tag_67\n      jump\t// in\n    tag_68:\n      swap3\n      pop\n      pop\n      dup2\n      swap1\n      sstore\n      pop\n        /* \"contracts/jurorSelection.sol\":2134:2144  grullToken */\n      0x01\n      0x00\n      swap1\n      sload\n      swap1\n      0x0100\n      exp\n      swap1\n      div\n      0xffffffffffffffffffffffffffffffffffffffff\n      and\n        /* \"contracts/jurorSelection.sol\":2134:2153  grullToken.transfer */\n      0xffffffffffffffffffffffffffffffffffffffff\n      and\n      0xa9059cbb\n        /* \"contracts/jurorSelection.sol\":2154:2164  msg.sender */\n      caller\n        /* \"contracts/jurorSelection.sol\":2166:2177  finalAmount */\n      dup4\n        /* \"contracts/jurorSelection.sol\":2134:2178  grullToken.transfer(msg.sender, finalAmount) */\n      mload(0x40)\n      dup4\n      0xffffffff\n      and\n      0xe0\n      shl\n      dup2\n      mstore\n      0x04\n      add\n      tag_69\n      swap3\n      swap2\n      swap1\n      tag_70\n      jump\t// in\n    tag_69:\n      0x20\n      mload(0x40)\n      dup1\n      dup4\n      sub\n      dup2\n      0x00\n      dup8\n      gas\n      call\n      iszero\n      dup1\n      iszero\n      tag_72\n      jumpi\n      returndatasize\n      0x00\n      dup1\n      returndatacopy\n      revert(0x00, returndatasize)\n    tag_72:\n      pop\n      pop\n      pop\n      pop\n      mload(0x40)\n      returndatasize\n      not(0x1f)\n      0x1f\n      dup3\n      add\n      and\n      dup3\n      add\n      dup1\n      0x40\n      mstore\n      pop\n      dup2\n      add\n      swap1\n      tag_73\n      swap2\n      swap1\n      tag_74\n      jump\t// in\n    tag_73:\n      pop\n        /* \"contracts/jurorSelection.sol\":2225:2226  0 */\n      0x00\n        /* \"contracts/jurorSelection.sol\":2203:2209  stakes */\n      0x02\n        /* \"contracts/jurorSelection.sol\":2203:2221  stakes[msg.sender] */\n      0x00\n        /* \"contracts/jurorSelection.sol\":2210:2220  msg.sender */\n      caller\n        /* \"contracts/jurorSelection.sol\":2203:2221  stakes[msg.sender] */\n      0xffffffffffffffffffffffffffffffffffffffff\n      and\n      0xffffffffffffffffffffffffffffffffffffffff\n      and\n      dup2\n      mstore\n      0x20\n      add\n      swap1\n      dup2\n      mstore\n      0x20\n      add\n      0x00\n      keccak256\n      sload\n        /* \"contracts/jurorSelection.sol\":2203:2226  stakes[msg.sender] == 0 */\n      sub\n        /* \"contracts/jurorSelection.sol\":2199:2561  if (stakes[msg.sender] == 0) {... */\n      tag_75\n      jumpi\n        /* \"contracts/jurorSelection.sol\":2305:2314  uint256 i */\n      0x00\n        /* \"contracts/jurorSelection.sol\":2300:2550  for (uint256 i = 0; i < jurors.length; i++) {... */\n    tag_76:\n        /* \"contracts/jurorSelection.sol\":2324:2330  jurors */\n      0x03\n        /* \"contracts/jurorSelection.sol\":2324:2337  jurors.length */\n      dup1\n      sload\n      swap1\n      pop\n        /* \"contracts/jurorSelection.sol\":2320:2321  i */\n      dup2\n        /* \"contracts/jurorSelection.sol\":2320:2337  i < jurors.length */\n      lt\n        /* \"contracts/jurorSelection.sol\":2300:2550  for (uint256 i = 0; i < jurors.length; i++) {... */\n      iszero\n      tag_77\n      jumpi\n        /* \"contracts/jurorSelection.sol\":2380:2390  msg.sender */\n      caller\n        /* \"contracts/jurorSelection.sol\":2367:2390  jurors[i] == msg.sender */\n      0xffffffffffffffffffffffffffffffffffffffff\n      and\n        /* \"contracts/jurorSelection.sol\":2367:2373  jurors */\n      0x03\n        /* \"contracts/jurorSelection.sol\":2374:2375  i */\n      dup3\n        /* \"contracts/jurorSelection.sol\":2367:2376  jurors[i] */\n      dup2\n      sload\n      dup2\n      lt\n      tag_79\n      jumpi\n      tag_80\n      tag_81\n      jump\t// in\n    tag_80:\n    tag_79:\n      swap1\n      0x00\n      mstore\n      keccak256(0x00, 0x20)\n      add\n      0x00\n      swap1\n      sload\n      swap1\n      0x0100\n      exp\n      swap1\n      div\n      0xffffffffffffffffffffffffffffffffffffffff\n      and\n        /* \"contracts/jurorSelection.sol\":2367:2390  jurors[i] == msg.sender */\n      0xffffffffffffffffffffffffffffffffffffffff\n      and\n      sub\n        /* \"contracts/jurorSelection.sol\":2363:2535  if (jurors[i] == msg.sender) {... */\n      tag_83\n      jumpi\n        /* \"contracts/jurorSelection.sol\":2427:2433  jurors */\n      0x03\n        /* \"contracts/jurorSelection.sol\":2450:2451  1 */\n      0x01\n        /* \"contracts/jurorSelection.sol\":2434:2440  jurors */\n      0x03\n        /* \"contracts/jurorSelection.sol\":2434:2447  jurors.length */\n      dup1\n      sload\n      swap1\n      pop\n        /* \"contracts/jurorSelection.sol\":2434:2451  jurors.length - 1 */\n      tag_84\n      swap2\n      swap1\n      tag_67\n      jump\t// in\n    tag_84:\n        /* \"contracts/jurorSelection.sol\":2427:2452  jurors[jurors.length - 1] */\n      dup2\n      sload\n      dup2\n      lt\n      tag_85\n      jumpi\n      tag_86\n      tag_81\n      jump\t// in\n    tag_86:\n    tag_85:\n      swap1\n      0x00\n      mstore\n      keccak256(0x00, 0x20)\n      add\n      0x00\n      swap1\n      sload\n      swap1\n      0x0100\n      exp\n      swap1\n      div\n      0xffffffffffffffffffffffffffffffffffffffff\n      and\n        /* \"contracts/jurorSelection.sol\":2415:2421  jurors */\n      0x03\n        /* \"contracts/jurorSelection.sol\":2422:2423  i */\n      dup3\n        /* \"contracts/jurorSelection.sol\":2415:2424  jurors[i] */\n      dup2\n      sload\n      dup2\n      lt\n      tag_88\n      jumpi\n      tag_89\n      tag_81\n      jump\t// in\n    tag_89:\n    tag_88:\n      swap1\n      0x00\n      mstore\n      keccak256(0x00, 0x20)\n      add\n      0x00\n        /* \"contracts/jurorSelection.sol\":2415:2452  jurors[i] = jurors[jurors.length - 1] */\n      0x0100\n      exp\n      dup2\n      sload\n      dup2\n      0xffffffffffffffffffffffffffffffffffffffff\n      mul\n      not\n      and\n      swap1\n      dup4\n      0xffffffffffffffffffffffffffffffffffffffff\n      and\n      mul\n      or\n      swap1\n      sstore\n      pop\n        /* \"contracts/jurorSelection.sol\":2475:2481  jurors */\n      0x03\n        /* \"contracts/jurorSelection.sol\":2475:2487  jurors.pop() */\n      dup1\n      sload\n      dup1\n      tag_91\n      jumpi\n      tag_92\n      tag_93\n      jump\t// in\n    tag_92:\n    tag_91:\n      0x01\n      swap1\n      sub\n      dup2\n      dup2\n      swap1\n      0x00\n      mstore\n      keccak256(0x00, 0x20)\n      add\n      exp(0x0100, 0x00)\n      dup2\n      sload\n      swap1\n      0xffffffffffffffffffffffffffffffffffffffff\n      mul\n      not\n      and\n      swap1\n      sstore\n      swap1\n      sstore\n        /* \"contracts/jurorSelection.sol\":2510:2515  break */\n      jump(tag_77)\n        /* \"contracts/jurorSelection.sol\":2363:2535  if (jurors[i] == msg.sender) {... */\n    tag_83:\n        /* \"contracts/jurorSelection.sol\":2339:2342  i++ */\n      dup1\n      dup1\n      0x01\n      add\n      swap2\n      pop\n      pop\n        /* \"contracts/jurorSelection.sol\":2300:2550  for (uint256 i = 0; i < jurors.length; i++) {... */\n      jump(tag_76)\n    tag_77:\n      pop\n        /* \"contracts/jurorSelection.sol\":2199:2561  if (stakes[msg.sender] == 0) {... */\n    tag_75:\n        /* \"contracts/jurorSelection.sol\":1819:2568  {... */\n      pop\n      pop\n        /* \"contracts/jurorSelection.sol\":1772:2568  function unstakeTokens(uint256 _amount) public {... */\n      pop\n      jump\t// out\n        /* \"contracts/jurorSelection.sol\":615:656  uint256 public unstakePenaltyPercent = 10 */\n    tag_32:\n      sload(0x09)\n      dup2\n      jump\t// out\n        /* \"contracts/jurorSelection.sol\":1240:1609  function stakeTokens(uint256 _amount) public {... */\n    tag_36:\n        /* \"contracts/jurorSelection.sol\":1315:1323  minStake */\n      sload(0x07)\n        /* \"contracts/jurorSelection.sol\":1304:1311  _amount */\n      dup2\n        /* \"contracts/jurorSelection.sol\":1304:1323  _amount >= minStake */\n      lt\n      iszero\n        /* \"contracts/jurorSelection.sol\":1296:1374  require(_amount >= minStake, \"Amount is less than the minimum stake required\") */\n      tag_96\n      jumpi\n      mload(0x40)\n      0x08c379a000000000000000000000000000000000000000000000000000000000\n      dup2\n      mstore\n      0x04\n      add\n      tag_97\n      swap1\n      tag_98\n      jump\t// in\n    tag_97:\n      mload(0x40)\n      dup1\n      swap2\n      sub\n      swap1\n      revert\n    tag_96:\n        /* \"contracts/jurorSelection.sol\":1404:1412  maxStake */\n      sload(0x08)\n        /* \"contracts/jurorSelection.sol\":1393:1400  _amount */\n      dup2\n        /* \"contracts/jurorSelection.sol\":1393:1412  _amount <= maxStake */\n      gt\n      iszero\n        /* \"contracts/jurorSelection.sol\":1385:1457  require(_amount <= maxStake, \"Amount exceeds the maximum stake allowed\") */\n      tag_99\n      jumpi\n      mload(0x40)\n      0x08c379a000000000000000000000000000000000000000000000000000000000\n      dup2\n      mstore\n      0x04\n      add\n      tag_100\n      swap1\n      tag_101\n      jump\t// in\n    tag_100:\n      mload(0x40)\n      dup1\n      swap2\n      sub\n      swap1\n      revert\n    tag_99:\n        /* \"contracts/jurorSelection.sol\":1468:1478  grullToken */\n      0x01\n      0x00\n      swap1\n      sload\n      swap1\n      0x0100\n      exp\n      swap1\n      div\n      0xffffffffffffffffffffffffffffffffffffffff\n      and\n        /* \"contracts/jurorSelection.sol\":1468:1491  grullToken.transferFrom */\n      0xffffffffffffffffffffffffffffffffffffffff\n      and\n      0x23b872dd\n        /* \"contracts/jurorSelection.sol\":1492:1502  msg.sender */\n      caller\n        /* \"contracts/jurorSelection.sol\":1512:1516  this */\n      address\n        /* \"contracts/jurorSelection.sol\":1519:1526  _amount */\n      dup5\n        /* \"contracts/jurorSelection.sol\":1468:1527  grullToken.transferFrom(msg.sender, address(this), _amount) */\n      mload(0x40)\n      dup5\n      0xffffffff\n      and\n      0xe0\n      shl\n      dup2\n      mstore\n      0x04\n      add\n      tag_102\n      swap4\n      swap3\n      swap2\n      swap1\n      tag_103\n      jump\t// in\n    tag_102:\n      0x20\n      mload(0x40)\n      dup1\n      dup4\n      sub\n      dup2\n      0x00\n      dup8\n      gas\n      call\n      iszero\n      dup1\n      iszero\n      tag_105\n      jumpi\n      returndatasize\n      0x00\n      dup1\n      returndatacopy\n      revert(0x00, returndatasize)\n    tag_105:\n      pop\n      pop\n      pop\n      pop\n      mload(0x40)\n      returndatasize\n      not(0x1f)\n      0x1f\n      dup3\n      add\n      and\n      dup3\n      add\n      dup1\n      0x40\n      mstore\n      pop\n      dup2\n      add\n      swap1\n      tag_106\n      swap2\n      swap1\n      tag_74\n      jump\t// in\n    tag_106:\n      pop\n        /* \"contracts/jurorSelection.sol\":1560:1567  _amount */\n      dup1\n        /* \"contracts/jurorSelection.sol\":1538:1544  stakes */\n      0x02\n        /* \"contracts/jurorSelection.sol\":1538:1556  stakes[msg.sender] */\n      0x00\n        /* \"contracts/jurorSelection.sol\":1545:1555  msg.sender */\n      caller\n        /* \"contracts/jurorSelection.sol\":1538:1556  stakes[msg.sender] */\n      0xffffffffffffffffffffffffffffffffffffffff\n      and\n      0xffffffffffffffffffffffffffffffffffffffff\n      and\n      dup2\n      mstore\n      0x20\n      add\n      swap1\n      dup2\n      mstore\n      0x20\n      add\n      0x00\n      keccak256\n      0x00\n        /* \"contracts/jurorSelection.sol\":1538:1567  stakes[msg.sender] += _amount */\n      dup3\n      dup3\n      sload\n      tag_107\n      swap2\n      swap1\n      tag_108\n      jump\t// in\n    tag_107:\n      swap3\n      pop\n      pop\n      dup2\n      swap1\n      sstore\n      pop\n        /* \"contracts/jurorSelection.sol\":1578:1584  jurors */\n      0x03\n        /* \"contracts/jurorSelection.sol\":1590:1600  msg.sender */\n      caller\n        /* \"contracts/jurorSelection.sol\":1578:1601  jurors.push(msg.sender) */\n      swap1\n      dup1\n      0x01\n      dup2\n      sload\n      add\n      dup1\n      dup3\n      sstore\n      dup1\n      swap2\n      pop\n      pop\n      0x01\n      swap1\n      sub\n      swap1\n      0x00\n      mstore\n      keccak256(0x00, 0x20)\n      add\n      0x00\n      swap1\n      swap2\n      swap1\n      swap2\n      swap1\n      swap2\n      0x0100\n      exp\n      dup2\n      sload\n      dup2\n      0xffffffffffffffffffffffffffffffffffffffff\n      mul\n      not\n      and\n      swap1\n      dup4\n      0xffffffffffffffffffffffffffffffffffffffff\n      and\n      mul\n      or\n      swap1\n      sstore\n      pop\n        /* \"contracts/jurorSelection.sol\":1240:1609  function stakeTokens(uint256 _amount) public {... */\n      pop\n      jump\t// out\n        /* \"contracts/jurorSelection.sol\":311:334  address[] public jurors */\n    tag_39:\n      0x03\n      dup2\n      dup2\n      sload\n      dup2\n      lt\n      tag_110\n      jumpi\n      0x00\n      dup1\n      revert\n    tag_110:\n      swap1\n      0x00\n      mstore\n      keccak256(0x00, 0x20)\n      add\n      0x00\n      swap2\n      pop\n      sload\n      swap1\n      0x0100\n      exp\n      swap1\n      div\n      0xffffffffffffffffffffffffffffffffffffffff\n      and\n      dup2\n      jump\t// out\n        /* \"contracts/jurorSelection.sol\":2709:3089  function selectJurors(uint256 _numJurors) public returns (bytes32) {... */\n    tag_44:\n        /* \"contracts/jurorSelection.sol\":2767:2774  bytes32 */\n      0x00\n        /* \"contracts/jurorSelection.sol\":2828:2831  fee */\n      sload(0x05)\n        /* \"contracts/jurorSelection.sol\":2795:2799  LINK */\n      immutable(\"0xb2219b801710730437d0358146c829b62297a059eceaa0b40b27aea2daecf595\")\n        /* \"contracts/jurorSelection.sol\":2795:2809  LINK.balanceOf */\n      0xffffffffffffffffffffffffffffffffffffffff\n      and\n      0x70a08231\n        /* \"contracts/jurorSelection.sol\":2818:2822  this */\n      address\n        /* \"contracts/jurorSelection.sol\":2795:2824  LINK.balanceOf(address(this)) */\n      mload(0x40)\n      dup3\n      0xffffffff\n      and\n      0xe0\n      shl\n      dup2\n      mstore\n      0x04\n      add\n      tag_113\n      swap2\n      swap1\n      tag_41\n      jump\t// in\n    tag_113:\n      0x20\n      mload(0x40)\n      dup1\n      dup4\n      sub\n      dup2\n      dup7\n      gas\n      staticcall\n      iszero\n      dup1\n      iszero\n      tag_115\n      jumpi\n      returndatasize\n      0x00\n      dup1\n      returndatacopy\n      revert(0x00, returndatasize)\n    tag_115:\n      pop\n      pop\n      pop\n      pop\n      mload(0x40)\n      returndatasize\n      not(0x1f)\n      0x1f\n      dup3\n      add\n      and\n      dup3\n      add\n      dup1\n      0x40\n      mstore\n      pop\n      dup2\n      add\n      swap1\n      tag_116\n      swap2\n      swap1\n      tag_117\n      jump\t// in\n    tag_116:\n        /* \"contracts/jurorSelection.sol\":2795:2831  LINK.balanceOf(address(this)) >= fee */\n      lt\n      iszero\n        /* \"contracts/jurorSelection.sol\":2787:2879  require(LINK.balanceOf(address(this)) >= fee, \"Not enough LINK - fill contract with faucet\") */\n      tag_118\n      jumpi\n      mload(0x40)\n      0x08c379a000000000000000000000000000000000000000000000000000000000\n      dup2\n      mstore\n      0x04\n      add\n      tag_119\n      swap1\n      tag_120\n      jump\t// in\n    tag_119:\n      mload(0x40)\n      dup1\n      swap2\n      sub\n      swap1\n      revert\n    tag_118:\n        /* \"contracts/jurorSelection.sol\":2912:2918  jurors */\n      0x03\n        /* \"contracts/jurorSelection.sol\":2912:2925  jurors.length */\n      dup1\n      sload\n      swap1\n      pop\n        /* \"contracts/jurorSelection.sol\":2898:2908  _numJurors */\n      dup3\n        /* \"contracts/jurorSelection.sol\":2898:2925  _numJurors <= jurors.length */\n      gt\n      iszero\n        /* \"contracts/jurorSelection.sol\":2890:2991  require(_numJurors <= jurors.length, \"Number of jurors exceeds the number of available participants\") */\n      tag_121\n      jumpi\n      mload(0x40)\n      0x08c379a000000000000000000000000000000000000000000000000000000000\n      dup2\n      mstore\n      0x04\n      add\n      tag_122\n      swap1\n      tag_123\n      jump\t// in\n    tag_122:\n      mload(0x40)\n      dup1\n      swap2\n      sub\n      swap1\n      revert\n    tag_121:\n        /* \"contracts/jurorSelection.sol\":3022:3032  _numJurors */\n      dup2\n        /* \"contracts/jurorSelection.sol\":3002:3019  numJurorsToSelect */\n      0x06\n        /* \"contracts/jurorSelection.sol\":3002:3032  numJurorsToSelect = _numJurors */\n      dup2\n      swap1\n      sstore\n      pop\n        /* \"contracts/jurorSelection.sol\":3050:3081  requestRandomness(keyHash, fee) */\n      tag_124\n        /* \"contracts/jurorSelection.sol\":3068:3075  keyHash */\n      sload(0x04)\n        /* \"contracts/jurorSelection.sol\":3077:3080  fee */\n      sload(0x05)\n        /* \"contracts/jurorSelection.sol\":3050:3067  requestRandomness */\n      tag_125\n        /* \"contracts/jurorSelection.sol\":3050:3081  requestRandomness(keyHash, fee) */\n      jump\t// in\n    tag_124:\n        /* \"contracts/jurorSelection.sol\":3043:3081  return requestRandomness(keyHash, fee) */\n      swap1\n      pop\n        /* \"contracts/jurorSelection.sol\":2709:3089  function selectJurors(uint256 _numJurors) public returns (bytes32) {... */\n      swap2\n      swap1\n      pop\n      jump\t// out\n        /* \"@chainlink/contracts/src/v0.8/VRFConsumerBase.sol\":9576:9783  function rawFulfillRandomness(bytes32 requestId, uint256 randomness) external {... */\n    tag_50:\n        /* \"@chainlink/contracts/src/v0.8/VRFConsumerBase.sol\":9682:9696  vrfCoordinator */\n      immutable(\"0x6dbb33232cde86c8a04f90a8bed9fc1c5ef520188a14538d96eb100d69bc2a94\")\n        /* \"@chainlink/contracts/src/v0.8/VRFConsumerBase.sol\":9668:9696  msg.sender == vrfCoordinator */\n      0xffffffffffffffffffffffffffffffffffffffff\n      and\n        /* \"@chainlink/contracts/src/v0.8/VRFConsumerBase.sol\":9668:9678  msg.sender */\n      caller\n        /* \"@chainlink/contracts/src/v0.8/VRFConsumerBase.sol\":9668:9696  msg.sender == vrfCoordinator */\n      0xffffffffffffffffffffffffffffffffffffffff\n      and\n      eq\n        /* \"@chainlink/contracts/src/v0.8/VRFConsumerBase.sol\":9660:9732  require(msg.sender == vrfCoordinator, \"Only VRFCoordinator can fulfill\") */\n      tag_127\n      jumpi\n      mload(0x40)\n      0x08c379a000000000000000000000000000000000000000000000000000000000\n      dup2\n      mstore\n      0x04\n      add\n      tag_128\n      swap1\n      tag_129\n      jump\t// in\n    tag_128:\n      mload(0x40)\n      dup1\n      swap2\n      sub\n      swap1\n      revert\n    tag_127:\n        /* \"@chainlink/contracts/src/v0.8/VRFConsumerBase.sol\":9738:9778  fulfillRandomness(requestId, randomness) */\n      tag_130\n        /* \"@chainlink/contracts/src/v0.8/VRFConsumerBase.sol\":9756:9765  requestId */\n      dup3\n        /* \"@chainlink/contracts/src/v0.8/VRFConsumerBase.sol\":9767:9777  randomness */\n      dup3\n        /* \"@chainlink/contracts/src/v0.8/VRFConsumerBase.sol\":9738:9755  fulfillRandomness */\n      tag_131\n        /* \"@chainlink/contracts/src/v0.8/VRFConsumerBase.sol\":9738:9778  fulfillRandomness(requestId, randomness) */\n      jump\t// in\n    tag_130:\n        /* \"@chainlink/contracts/src/v0.8/VRFConsumerBase.sol\":9576:9783  function rawFulfillRandomness(bytes32 requestId, uint256 randomness) external {... */\n      pop\n      pop\n      jump\t// out\n        /* \"contracts/jurorSelection.sol\":232:256  IERC20 public grullToken */\n    tag_52:\n      0x01\n      0x00\n      swap1\n      sload\n      swap1\n      0x0100\n      exp\n      swap1\n      div\n      0xffffffffffffffffffffffffffffffffffffffff\n      and\n      dup2\n      jump\t// out\n        /* \"contracts/jurorSelection.sol\":511:553  uint256 public maxStake = 10000 * 10 ** 18 */\n    tag_56:\n      sload(0x08)\n      dup2\n      jump\t// out\n        /* \"@chainlink/contracts/src/v0.8/VRFConsumerBase.sol\":7732:8752  function requestRandomness(bytes32 _keyHash, uint256 _fee) internal returns (bytes32 requestId) {... */\n    tag_125:\n        /* \"@chainlink/contracts/src/v0.8/VRFConsumerBase.sol\":7809:7826  bytes32 requestId */\n      0x00\n        /* \"@chainlink/contracts/src/v0.8/VRFConsumerBase.sol\":7834:7838  LINK */\n      immutable(\"0xb2219b801710730437d0358146c829b62297a059eceaa0b40b27aea2daecf595\")\n        /* \"@chainlink/contracts/src/v0.8/VRFConsumerBase.sol\":7834:7854  LINK.transferAndCall */\n      0xffffffffffffffffffffffffffffffffffffffff\n      and\n      0x4000aea0\n        /* \"@chainlink/contracts/src/v0.8/VRFConsumerBase.sol\":7855:7869  vrfCoordinator */\n      immutable(\"0x6dbb33232cde86c8a04f90a8bed9fc1c5ef520188a14538d96eb100d69bc2a94\")\n        /* \"@chainlink/contracts/src/v0.8/VRFConsumerBase.sol\":7871:7875  _fee */\n      dup5\n        /* \"@chainlink/contracts/src/v0.8/VRFConsumerBase.sol\":7888:7896  _keyHash */\n      dup7\n        /* \"@chainlink/contracts/src/v0.8/VRFConsumerBase.sol\":6589:6590  0 */\n      0x00\n        /* \"@chainlink/contracts/src/v0.8/VRFConsumerBase.sol\":7877:7920  abi.encode(_keyHash, USER_SEED_PLACEHOLDER) */\n      add(0x20, mload(0x40))\n      tag_133\n      swap3\n      swap2\n      swap1\n      tag_134\n      jump\t// in\n    tag_133:\n      mload(0x40)\n      0x20\n      dup2\n      dup4\n      sub\n      sub\n      dup2\n      mstore\n      swap1\n      0x40\n      mstore\n        /* \"@chainlink/contracts/src/v0.8/VRFConsumerBase.sol\":7834:7921  LINK.transferAndCall(vrfCoordinator, _fee, abi.encode(_keyHash, USER_SEED_PLACEHOLDER)) */\n      mload(0x40)\n      dup5\n      0xffffffff\n      and\n      0xe0\n      shl\n      dup2\n      mstore\n      0x04\n      add\n      tag_135\n      swap4\n      swap3\n      swap2\n      swap1\n      tag_136\n      jump\t// in\n    tag_135:\n      0x20\n      mload(0x40)\n      dup1\n      dup4\n      sub\n      dup2\n      0x00\n      dup8\n      gas\n      call\n      iszero\n      dup1\n      iszero\n      tag_138\n      jumpi\n      returndatasize\n      0x00\n      dup1\n      returndatacopy\n      revert(0x00, returndatasize)\n    tag_138:\n      pop\n      pop\n      pop\n      pop\n      mload(0x40)\n      returndatasize\n      not(0x1f)\n      0x1f\n      dup3\n      add\n      and\n      dup3\n      add\n      dup1\n      0x40\n      mstore\n      pop\n      dup2\n      add\n      swap1\n      tag_139\n      swap2\n      swap1\n      tag_74\n      jump\t// in\n    tag_139:\n      pop\n        /* \"@chainlink/contracts/src/v0.8/VRFConsumerBase.sol\":8152:8167  uint256 vRFSeed */\n      0x00\n        /* \"@chainlink/contracts/src/v0.8/VRFConsumerBase.sol\":8170:8252  makeVRFInputSeed(_keyHash, USER_SEED_PLACEHOLDER, address(this), nonces[_keyHash]) */\n      tag_140\n        /* \"@chainlink/contracts/src/v0.8/VRFConsumerBase.sol\":8187:8195  _keyHash */\n      dup5\n        /* \"@chainlink/contracts/src/v0.8/VRFConsumerBase.sol\":6589:6590  0 */\n      0x00\n        /* \"@chainlink/contracts/src/v0.8/VRFConsumerBase.sol\":8228:8232  this */\n      address\n        /* \"@chainlink/contracts/src/v0.8/VRFConsumerBase.sol\":8235:8241  nonces */\n      0x00\n        /* \"@chainlink/contracts/src/v0.8/VRFConsumerBase.sol\":8235:8251  nonces[_keyHash] */\n      dup1\n        /* \"@chainlink/contracts/src/v0.8/VRFConsumerBase.sol\":8242:8250  _keyHash */\n      dup10\n        /* \"@chainlink/contracts/src/v0.8/VRFConsumerBase.sol\":8235:8251  nonces[_keyHash] */\n      dup2\n      mstore\n      0x20\n      add\n      swap1\n      dup2\n      mstore\n      0x20\n      add\n      0x00\n      keccak256\n      sload\n        /* \"@chainlink/contracts/src/v0.8/VRFConsumerBase.sol\":8170:8186  makeVRFInputSeed */\n      tag_141\n        /* \"@chainlink/contracts/src/v0.8/VRFConsumerBase.sol\":8170:8252  makeVRFInputSeed(_keyHash, USER_SEED_PLACEHOLDER, address(this), nonces[_keyHash]) */\n      jump\t// in\n    tag_140:\n        /* \"@chainlink/contracts/src/v0.8/VRFConsumerBase.sol\":8152:8252  uint256 vRFSeed = makeVRFInputSeed(_keyHash, USER_SEED_PLACEHOLDER, address(this), nonces[_keyHash]) */\n      swap1\n      pop\n        /* \"@chainlink/contracts/src/v0.8/VRFConsumerBase.sol\":8701:8702  1 */\n      0x01\n        /* \"@chainlink/contracts/src/v0.8/VRFConsumerBase.sol\":8682:8688  nonces */\n      0x00\n        /* \"@chainlink/contracts/src/v0.8/VRFConsumerBase.sol\":8682:8698  nonces[_keyHash] */\n      dup1\n        /* \"@chainlink/contracts/src/v0.8/VRFConsumerBase.sol\":8689:8697  _keyHash */\n      dup7\n        /* \"@chainlink/contracts/src/v0.8/VRFConsumerBase.sol\":8682:8698  nonces[_keyHash] */\n      dup2\n      mstore\n      0x20\n      add\n      swap1\n      dup2\n      mstore\n      0x20\n      add\n      0x00\n      keccak256\n      sload\n        /* \"@chainlink/contracts/src/v0.8/VRFConsumerBase.sol\":8682:8702  nonces[_keyHash] + 1 */\n      tag_142\n      swap2\n      swap1\n      tag_108\n      jump\t// in\n    tag_142:\n        /* \"@chainlink/contracts/src/v0.8/VRFConsumerBase.sol\":8663:8669  nonces */\n      0x00\n        /* \"@chainlink/contracts/src/v0.8/VRFConsumerBase.sol\":8663:8679  nonces[_keyHash] */\n      dup1\n        /* \"@chainlink/contracts/src/v0.8/VRFConsumerBase.sol\":8670:8678  _keyHash */\n      dup7\n        /* \"@chainlink/contracts/src/v0.8/VRFConsumerBase.sol\":8663:8679  nonces[_keyHash] */\n      dup2\n      mstore\n      0x20\n      add\n      swap1\n      dup2\n      mstore\n      0x20\n      add\n      0x00\n      keccak256\n        /* \"@chainlink/contracts/src/v0.8/VRFConsumerBase.sol\":8663:8702  nonces[_keyHash] = nonces[_keyHash] + 1 */\n      dup2\n      swap1\n      sstore\n      pop\n        /* \"@chainlink/contracts/src/v0.8/VRFConsumerBase.sol\":8715:8747  makeRequestId(_keyHash, vRFSeed) */\n      tag_143\n        /* \"@chainlink/contracts/src/v0.8/VRFConsumerBase.sol\":8729:8737  _keyHash */\n      dup5\n        /* \"@chainlink/contracts/src/v0.8/VRFConsumerBase.sol\":8739:8746  vRFSeed */\n      dup3\n        /* \"@chainlink/contracts/src/v0.8/VRFConsumerBase.sol\":8715:8728  makeRequestId */\n      tag_144\n        /* \"@chainlink/contracts/src/v0.8/VRFConsumerBase.sol\":8715:8747  makeRequestId(_keyHash, vRFSeed) */\n      jump\t// in\n    tag_143:\n        /* \"@chainlink/contracts/src/v0.8/VRFConsumerBase.sol\":8708:8747  return makeRequestId(_keyHash, vRFSeed) */\n      swap2\n      pop\n      pop\n        /* \"@chainlink/contracts/src/v0.8/VRFConsumerBase.sol\":7732:8752  function requestRandomness(bytes32 _keyHash, uint256 _fee) internal returns (bytes32 requestId) {... */\n      swap3\n      swap2\n      pop\n      pop\n      jump\t// out\n        /* \"contracts/jurorSelection.sol\":3217:3714  function fulfillRandomness(bytes32, uint256 randomness) internal override {... */\n    tag_131:\n        /* \"contracts/jurorSelection.sol\":3302:3333  address[] memory selectedJurors */\n      0x00\n        /* \"contracts/jurorSelection.sol\":3350:3367  numJurorsToSelect */\n      sload(0x06)\n        /* \"contracts/jurorSelection.sol\":3336:3368  new address[](numJurorsToSelect) */\n      0xffffffffffffffff\n      dup2\n      gt\n      iszero\n      tag_146\n      jumpi\n      tag_147\n      tag_148\n      jump\t// in\n    tag_147:\n    tag_146:\n      mload(0x40)\n      swap1\n      dup1\n      dup3\n      mstore\n      dup1\n      0x20\n      mul\n      0x20\n      add\n      dup3\n      add\n      0x40\n      mstore\n      dup1\n      iszero\n      tag_149\n      jumpi\n      dup2\n      0x20\n      add\n      0x20\n      dup3\n      mul\n      dup1\n      calldatasize\n      dup4\n      calldatacopy\n      dup1\n      dup3\n      add\n      swap2\n      pop\n      pop\n      swap1\n      pop\n    tag_149:\n      pop\n        /* \"contracts/jurorSelection.sol\":3302:3368  address[] memory selectedJurors = new address[](numJurorsToSelect) */\n      swap1\n      pop\n        /* \"contracts/jurorSelection.sol\":3384:3393  uint256 i */\n      0x00\n        /* \"contracts/jurorSelection.sol\":3379:3661  for (uint256 i = 0; i < numJurorsToSelect; i++) {... */\n    tag_150:\n        /* \"contracts/jurorSelection.sol\":3403:3420  numJurorsToSelect */\n      sload(0x06)\n        /* \"contracts/jurorSelection.sol\":3399:3400  i */\n      dup2\n        /* \"contracts/jurorSelection.sol\":3399:3420  i < numJurorsToSelect */\n      lt\n        /* \"contracts/jurorSelection.sol\":3379:3661  for (uint256 i = 0; i < numJurorsToSelect; i++) {... */\n      iszero\n      tag_151\n      jumpi\n        /* \"contracts/jurorSelection.sol\":3442:3455  uint256 index */\n      0x00\n        /* \"contracts/jurorSelection.sol\":3471:3477  jurors */\n      0x03\n        /* \"contracts/jurorSelection.sol\":3471:3484  jurors.length */\n      dup1\n      sload\n      swap1\n      pop\n        /* \"contracts/jurorSelection.sol\":3458:3468  randomness */\n      dup5\n        /* \"contracts/jurorSelection.sol\":3458:3484  randomness % jurors.length */\n      tag_153\n      swap2\n      swap1\n      tag_154\n      jump\t// in\n    tag_153:\n        /* \"contracts/jurorSelection.sol\":3442:3484  uint256 index = randomness % jurors.length */\n      swap1\n      pop\n        /* \"contracts/jurorSelection.sol\":3519:3525  jurors */\n      0x03\n        /* \"contracts/jurorSelection.sol\":3526:3531  index */\n      dup2\n        /* \"contracts/jurorSelection.sol\":3519:3532  jurors[index] */\n      dup2\n      sload\n      dup2\n      lt\n      tag_155\n      jumpi\n      tag_156\n      tag_81\n      jump\t// in\n    tag_156:\n    tag_155:\n      swap1\n      0x00\n      mstore\n      keccak256(0x00, 0x20)\n      add\n      0x00\n      swap1\n      sload\n      swap1\n      0x0100\n      exp\n      swap1\n      div\n      0xffffffffffffffffffffffffffffffffffffffff\n      and\n        /* \"contracts/jurorSelection.sol\":3499:3513  selectedJurors */\n      dup4\n        /* \"contracts/jurorSelection.sol\":3514:3515  i */\n      dup4\n        /* \"contracts/jurorSelection.sol\":3499:3516  selectedJurors[i] */\n      dup2\n      mload\n      dup2\n      lt\n      tag_158\n      jumpi\n      tag_159\n      tag_81\n      jump\t// in\n    tag_159:\n    tag_158:\n      0x20\n      mul\n      0x20\n      add\n      add\n        /* \"contracts/jurorSelection.sol\":3499:3532  selectedJurors[i] = jurors[index] */\n      swap1\n      0xffffffffffffffffffffffffffffffffffffffff\n      and\n      swap1\n      dup2\n      0xffffffffffffffffffffffffffffffffffffffff\n      and\n      dup2\n      mstore\n      pop\n      pop\n        /* \"contracts/jurorSelection.sol\":3589:3599  randomness */\n      dup4\n        /* \"contracts/jurorSelection.sol\":3601:3602  i */\n      dup3\n        /* \"contracts/jurorSelection.sol\":3578:3603  abi.encode(randomness, i) */\n      add(0x20, mload(0x40))\n      tag_160\n      swap3\n      swap2\n      swap1\n      tag_161\n      jump\t// in\n    tag_160:\n      mload(0x40)\n      0x20\n      dup2\n      dup4\n      sub\n      sub\n      dup2\n      mstore\n      swap1\n      0x40\n      mstore\n        /* \"contracts/jurorSelection.sol\":3568:3604  keccak256(abi.encode(randomness, i)) */\n      dup1\n      mload\n      swap1\n      0x20\n      add\n      keccak256\n        /* \"contracts/jurorSelection.sol\":3560:3605  uint256(keccak256(abi.encode(randomness, i))) */\n      0x00\n      shr\n        /* \"contracts/jurorSelection.sol\":3547:3605  randomness = uint256(keccak256(abi.encode(randomness, i))) */\n      swap4\n      pop\n        /* \"contracts/jurorSelection.sol\":3427:3661  {... */\n      pop\n        /* \"contracts/jurorSelection.sol\":3422:3425  i++ */\n      dup1\n      dup1\n      0x01\n      add\n      swap2\n      pop\n      pop\n        /* \"contracts/jurorSelection.sol\":3379:3661  for (uint256 i = 0; i < numJurorsToSelect; i++) {... */\n      jump(tag_150)\n    tag_151:\n      pop\n        /* \"contracts/jurorSelection.sol\":3676:3706  JurorsSelected(selectedJurors) */\n      0xc97825e5374b835cdcd76e5da76fc12b913fbb7c548601763fa1abd26054f083\n        /* \"contracts/jurorSelection.sol\":3691:3705  selectedJurors */\n      dup2\n        /* \"contracts/jurorSelection.sol\":3676:3706  JurorsSelected(selectedJurors) */\n      mload(0x40)\n      tag_162\n      swap2\n      swap1\n      tag_163\n      jump\t// in\n    tag_162:\n      mload(0x40)\n      dup1\n      swap2\n      sub\n      swap1\n      log1\n        /* \"contracts/jurorSelection.sol\":3291:3714  {... */\n      pop\n        /* \"contracts/jurorSelection.sol\":3217:3714  function fulfillRandomness(bytes32, uint256 randomness) internal override {... */\n      pop\n      pop\n      jump\t// out\n        /* \"@chainlink/contracts/src/v0.8/VRFRequestIDBase.sol\":796:1036  function makeVRFInputSeed(... */\n    tag_141:\n        /* \"@chainlink/contracts/src/v0.8/VRFRequestIDBase.sol\":938:945  uint256 */\n      0x00\n        /* \"@chainlink/contracts/src/v0.8/VRFRequestIDBase.sol\":989:997  _keyHash */\n      dup5\n        /* \"@chainlink/contracts/src/v0.8/VRFRequestIDBase.sol\":999:1008  _userSeed */\n      dup5\n        /* \"@chainlink/contracts/src/v0.8/VRFRequestIDBase.sol\":1010:1020  _requester */\n      dup5\n        /* \"@chainlink/contracts/src/v0.8/VRFRequestIDBase.sol\":1022:1028  _nonce */\n      dup5\n        /* \"@chainlink/contracts/src/v0.8/VRFRequestIDBase.sol\":978:1029  abi.encode(_keyHash, _userSeed, _requester, _nonce) */\n      add(0x20, mload(0x40))\n      tag_165\n      swap5\n      swap4\n      swap3\n      swap2\n      swap1\n      tag_166\n      jump\t// in\n    tag_165:\n      mload(0x40)\n      0x20\n      dup2\n      dup4\n      sub\n      sub\n      dup2\n      mstore\n      swap1\n      0x40\n      mstore\n        /* \"@chainlink/contracts/src/v0.8/VRFRequestIDBase.sol\":968:1030  keccak256(abi.encode(_keyHash, _userSeed, _requester, _nonce)) */\n      dup1\n      mload\n      swap1\n      0x20\n      add\n      keccak256\n        /* \"@chainlink/contracts/src/v0.8/VRFRequestIDBase.sol\":960:1031  uint256(keccak256(abi.encode(_keyHash, _userSeed, _requester, _nonce))) */\n      0x00\n      shr\n        /* \"@chainlink/contracts/src/v0.8/VRFRequestIDBase.sol\":953:1031  return uint256(keccak256(abi.encode(_keyHash, _userSeed, _requester, _nonce))) */\n      swap1\n      pop\n        /* \"@chainlink/contracts/src/v0.8/VRFRequestIDBase.sol\":796:1036  function makeVRFInputSeed(... */\n      swap5\n      swap4\n      pop\n      pop\n      pop\n      pop\n      jump\t// out\n        /* \"@chainlink/contracts/src/v0.8/VRFRequestIDBase.sol\":1416:1582  function makeRequestId(bytes32 _keyHash, uint256 _vRFInputSeed) internal pure returns (bytes32) {... */\n    tag_144:\n        /* \"@chainlink/contracts/src/v0.8/VRFRequestIDBase.sol\":1503:1510  bytes32 */\n      0x00\n        /* \"@chainlink/contracts/src/v0.8/VRFRequestIDBase.sol\":1552:1560  _keyHash */\n      dup3\n        /* \"@chainlink/contracts/src/v0.8/VRFRequestIDBase.sol\":1562:1575  _vRFInputSeed */\n      dup3\n        /* \"@chainlink/contracts/src/v0.8/VRFRequestIDBase.sol\":1535:1576  abi.encodePacked(_keyHash, _vRFInputSeed) */\n      add(0x20, mload(0x40))\n      tag_168\n      swap3\n      swap2\n      swap1\n      tag_169\n      jump\t// in\n    tag_168:\n      mload(0x40)\n      0x20\n      dup2\n      dup4\n      sub\n      sub\n      dup2\n      mstore\n      swap1\n      0x40\n      mstore\n        /* \"@chainlink/contracts/src/v0.8/VRFRequestIDBase.sol\":1525:1577  keccak256(abi.encodePacked(_keyHash, _vRFInputSeed)) */\n      dup1\n      mload\n      swap1\n      0x20\n      add\n      keccak256\n        /* \"@chainlink/contracts/src/v0.8/VRFRequestIDBase.sol\":1518:1577  return keccak256(abi.encodePacked(_keyHash, _vRFInputSeed)) */\n      swap1\n      pop\n        /* \"@chainlink/contracts/src/v0.8/VRFRequestIDBase.sol\":1416:1582  function makeRequestId(bytes32 _keyHash, uint256 _vRFInputSeed) internal pure returns (bytes32) {... */\n      swap3\n      swap2\n      pop\n      pop\n      jump\t// out\n        /* \"#utility.yul\":88:205   */\n    tag_171:\n        /* \"#utility.yul\":197:198   */\n      0x00\n        /* \"#utility.yul\":194:195   */\n      dup1\n        /* \"#utility.yul\":187:199   */\n      revert\n        /* \"#utility.yul\":334:460   */\n    tag_173:\n        /* \"#utility.yul\":371:378   */\n      0x00\n        /* \"#utility.yul\":411:453   */\n      0xffffffffffffffffffffffffffffffffffffffff\n        /* \"#utility.yul\":404:409   */\n      dup3\n        /* \"#utility.yul\":400:454   */\n      and\n        /* \"#utility.yul\":389:454   */\n      swap1\n      pop\n        /* \"#utility.yul\":334:460   */\n      swap2\n      swap1\n      pop\n      jump\t// out\n        /* \"#utility.yul\":466:562   */\n    tag_174:\n        /* \"#utility.yul\":503:510   */\n      0x00\n        /* \"#utility.yul\":532:556   */\n      tag_232\n        /* \"#utility.yul\":550:555   */\n      dup3\n        /* \"#utility.yul\":532:556   */\n      tag_173\n      jump\t// in\n    tag_232:\n        /* \"#utility.yul\":521:556   */\n      swap1\n      pop\n        /* \"#utility.yul\":466:562   */\n      swap2\n      swap1\n      pop\n      jump\t// out\n        /* \"#utility.yul\":568:690   */\n    tag_175:\n        /* \"#utility.yul\":641:665   */\n      tag_234\n        /* \"#utility.yul\":659:664   */\n      dup2\n        /* \"#utility.yul\":641:665   */\n      tag_174\n      jump\t// in\n    tag_234:\n        /* \"#utility.yul\":634:639   */\n      dup2\n        /* \"#utility.yul\":631:666   */\n      eq\n        /* \"#utility.yul\":621:684   */\n      tag_235\n      jumpi\n        /* \"#utility.yul\":680:681   */\n      0x00\n        /* \"#utility.yul\":677:678   */\n      dup1\n        /* \"#utility.yul\":670:682   */\n      revert\n        /* \"#utility.yul\":621:684   */\n    tag_235:\n        /* \"#utility.yul\":568:690   */\n      pop\n      jump\t// out\n        /* \"#utility.yul\":696:835   */\n    tag_176:\n        /* \"#utility.yul\":742:747   */\n      0x00\n        /* \"#utility.yul\":780:786   */\n      dup2\n        /* \"#utility.yul\":767:787   */\n      calldataload\n        /* \"#utility.yul\":758:787   */\n      swap1\n      pop\n        /* \"#utility.yul\":796:829   */\n      tag_237\n        /* \"#utility.yul\":823:828   */\n      dup2\n        /* \"#utility.yul\":796:829   */\n      tag_175\n      jump\t// in\n    tag_237:\n        /* \"#utility.yul\":696:835   */\n      swap3\n      swap2\n      pop\n      pop\n      jump\t// out\n        /* \"#utility.yul\":841:1170   */\n    tag_17:\n        /* \"#utility.yul\":900:906   */\n      0x00\n        /* \"#utility.yul\":949:951   */\n      0x20\n        /* \"#utility.yul\":937:946   */\n      dup3\n        /* \"#utility.yul\":928:935   */\n      dup5\n        /* \"#utility.yul\":924:947   */\n      sub\n        /* \"#utility.yul\":920:952   */\n      slt\n        /* \"#utility.yul\":917:1036   */\n      iszero\n      tag_239\n      jumpi\n        /* \"#utility.yul\":955:1034   */\n      tag_240\n      tag_171\n      jump\t// in\n    tag_240:\n        /* \"#utility.yul\":917:1036   */\n    tag_239:\n        /* \"#utility.yul\":1075:1076   */\n      0x00\n        /* \"#utility.yul\":1100:1153   */\n      tag_241\n        /* \"#utility.yul\":1145:1152   */\n      dup5\n        /* \"#utility.yul\":1136:1142   */\n      dup3\n        /* \"#utility.yul\":1125:1134   */\n      dup6\n        /* \"#utility.yul\":1121:1143   */\n      add\n        /* \"#utility.yul\":1100:1153   */\n      tag_176\n      jump\t// in\n    tag_241:\n        /* \"#utility.yul\":1090:1153   */\n      swap2\n      pop\n        /* \"#utility.yul\":1046:1163   */\n      pop\n        /* \"#utility.yul\":841:1170   */\n      swap3\n      swap2\n      pop\n      pop\n      jump\t// out\n        /* \"#utility.yul\":1176:1253   */\n    tag_177:\n        /* \"#utility.yul\":1213:1220   */\n      0x00\n        /* \"#utility.yul\":1242:1247   */\n      dup2\n        /* \"#utility.yul\":1231:1247   */\n      swap1\n      pop\n        /* \"#utility.yul\":1176:1253   */\n      swap2\n      swap1\n      pop\n      jump\t// out\n        /* \"#utility.yul\":1259:1377   */\n    tag_178:\n        /* \"#utility.yul\":1346:1370   */\n      tag_244\n        /* \"#utility.yul\":1364:1369   */\n      dup2\n        /* \"#utility.yul\":1346:1370   */\n      tag_177\n      jump\t// in\n    tag_244:\n        /* \"#utility.yul\":1341:1344   */\n      dup3\n        /* \"#utility.yul\":1334:1371   */\n      mstore\n        /* \"#utility.yul\":1259:1377   */\n      pop\n      pop\n      jump\t// out\n        /* \"#utility.yul\":1383:1605   */\n    tag_20:\n        /* \"#utility.yul\":1476:1480   */\n      0x00\n        /* \"#utility.yul\":1514:1516   */\n      0x20\n        /* \"#utility.yul\":1503:1512   */\n      dup3\n        /* \"#utility.yul\":1499:1517   */\n      add\n        /* \"#utility.yul\":1491:1517   */\n      swap1\n      pop\n        /* \"#utility.yul\":1527:1598   */\n      tag_246\n        /* \"#utility.yul\":1595:1596   */\n      0x00\n        /* \"#utility.yul\":1584:1593   */\n      dup4\n        /* \"#utility.yul\":1580:1597   */\n      add\n        /* \"#utility.yul\":1571:1577   */\n      dup5\n        /* \"#utility.yul\":1527:1598   */\n      tag_178\n      jump\t// in\n    tag_246:\n        /* \"#utility.yul\":1383:1605   */\n      swap3\n      swap2\n      pop\n      pop\n      jump\t// out\n        /* \"#utility.yul\":1611:1733   */\n    tag_179:\n        /* \"#utility.yul\":1684:1708   */\n      tag_248\n        /* \"#utility.yul\":1702:1707   */\n      dup2\n        /* \"#utility.yul\":1684:1708   */\n      tag_177\n      jump\t// in\n    tag_248:\n        /* \"#utility.yul\":1677:1682   */\n      dup2\n        /* \"#utility.yul\":1674:1709   */\n      eq\n        /* \"#utility.yul\":1664:1727   */\n      tag_249\n      jumpi\n        /* \"#utility.yul\":1723:1724   */\n      0x00\n        /* \"#utility.yul\":1720:1721   */\n      dup1\n        /* \"#utility.yul\":1713:1725   */\n      revert\n        /* \"#utility.yul\":1664:1727   */\n    tag_249:\n        /* \"#utility.yul\":1611:1733   */\n      pop\n      jump\t// out\n        /* \"#utility.yul\":1739:1878   */\n    tag_180:\n        /* \"#utility.yul\":1785:1790   */\n      0x00\n        /* \"#utility.yul\":1823:1829   */\n      dup2\n        /* \"#utility.yul\":1810:1830   */\n      calldataload\n        /* \"#utility.yul\":1801:1830   */\n      swap1\n      pop\n        /* \"#utility.yul\":1839:1872   */\n      tag_251\n        /* \"#utility.yul\":1866:1871   */\n      dup2\n        /* \"#utility.yul\":1839:1872   */\n      tag_179\n      jump\t// in\n    tag_251:\n        /* \"#utility.yul\":1739:1878   */\n      swap3\n      swap2\n      pop\n      pop\n      jump\t// out\n        /* \"#utility.yul\":1884:2213   */\n    tag_29:\n        /* \"#utility.yul\":1943:1949   */\n      0x00\n        /* \"#utility.yul\":1992:1994   */\n      0x20\n        /* \"#utility.yul\":1980:1989   */\n      dup3\n        /* \"#utility.yul\":1971:1978   */\n      dup5\n        /* \"#utility.yul\":1967:1990   */\n      sub\n        /* \"#utility.yul\":1963:1995   */\n      slt\n        /* \"#utility.yul\":1960:2079   */\n      iszero\n      tag_253\n      jumpi\n        /* \"#utility.yul\":1998:2077   */\n      tag_254\n      tag_171\n      jump\t// in\n    tag_254:\n        /* \"#utility.yul\":1960:2079   */\n    tag_253:\n        /* \"#utility.yul\":2118:2119   */\n      0x00\n        /* \"#utility.yul\":2143:2196   */\n      tag_255\n        /* \"#utility.yul\":2188:2195   */\n      dup5\n        /* \"#utility.yul\":2179:2185   */\n      dup3\n        /* \"#utility.yul\":2168:2177   */\n      dup6\n        /* \"#utility.yul\":2164:2186   */\n      add\n        /* \"#utility.yul\":2143:2196   */\n      tag_180\n      jump\t// in\n    tag_255:\n        /* \"#utility.yul\":2133:2196   */\n      swap2\n      pop\n        /* \"#utility.yul\":2089:2206   */\n      pop\n        /* \"#utility.yul\":1884:2213   */\n      swap3\n      swap2\n      pop\n      pop\n      jump\t// out\n        /* \"#utility.yul\":2219:2337   */\n    tag_181:\n        /* \"#utility.yul\":2306:2330   */\n      tag_257\n        /* \"#utility.yul\":2324:2329   */\n      dup2\n        /* \"#utility.yul\":2306:2330   */\n      tag_174\n      jump\t// in\n    tag_257:\n        /* \"#utility.yul\":2301:2304   */\n      dup3\n        /* \"#utility.yul\":2294:2331   */\n      mstore\n        /* \"#utility.yul\":2219:2337   */\n      pop\n      pop\n      jump\t// out\n        /* \"#utility.yul\":2343:2565   */\n    tag_41:\n        /* \"#utility.yul\":2436:2440   */\n      0x00\n        /* \"#utility.yul\":2474:2476   */\n      0x20\n        /* \"#utility.yul\":2463:2472   */\n      dup3\n        /* \"#utility.yul\":2459:2477   */\n      add\n        /* \"#utility.yul\":2451:2477   */\n      swap1\n      pop\n        /* \"#utility.yul\":2487:2558   */\n      tag_259\n        /* \"#utility.yul\":2555:2556   */\n      0x00\n        /* \"#utility.yul\":2544:2553   */\n      dup4\n        /* \"#utility.yul\":2540:2557   */\n      add\n        /* \"#utility.yul\":2531:2537   */\n      dup5\n        /* \"#utility.yul\":2487:2558   */\n      tag_181\n      jump\t// in\n    tag_259:\n        /* \"#utility.yul\":2343:2565   */\n      swap3\n      swap2\n      pop\n      pop\n      jump\t// out\n        /* \"#utility.yul\":2571:2648   */\n    tag_182:\n        /* \"#utility.yul\":2608:2615   */\n      0x00\n        /* \"#utility.yul\":2637:2642   */\n      dup2\n        /* \"#utility.yul\":2626:2642   */\n      swap1\n      pop\n        /* \"#utility.yul\":2571:2648   */\n      swap2\n      swap1\n      pop\n      jump\t// out\n        /* \"#utility.yul\":2654:2772   */\n    tag_183:\n        /* \"#utility.yul\":2741:2765   */\n      tag_262\n        /* \"#utility.yul\":2759:2764   */\n      dup2\n        /* \"#utility.yul\":2741:2765   */\n      tag_182\n      jump\t// in\n    tag_262:\n        /* \"#utility.yul\":2736:2739   */\n      dup3\n        /* \"#utility.yul\":2729:2766   */\n      mstore\n        /* \"#utility.yul\":2654:2772   */\n      pop\n      pop\n      jump\t// out\n        /* \"#utility.yul\":2778:3000   */\n    tag_46:\n        /* \"#utility.yul\":2871:2875   */\n      0x00\n        /* \"#utility.yul\":2909:2911   */\n      0x20\n        /* \"#utility.yul\":2898:2907   */\n      dup3\n        /* \"#utility.yul\":2894:2912   */\n      add\n        /* \"#utility.yul\":2886:2912   */\n      swap1\n      pop\n        /* \"#utility.yul\":2922:2993   */\n      tag_264\n        /* \"#utility.yul\":2990:2991   */\n      0x00\n        /* \"#utility.yul\":2979:2988   */\n      dup4\n        /* \"#utility.yul\":2975:2992   */\n      add\n        /* \"#utility.yul\":2966:2972   */\n      dup5\n        /* \"#utility.yul\":2922:2993   */\n      tag_183\n      jump\t// in\n    tag_264:\n        /* \"#utility.yul\":2778:3000   */\n      swap3\n      swap2\n      pop\n      pop\n      jump\t// out\n        /* \"#utility.yul\":3006:3128   */\n    tag_184:\n        /* \"#utility.yul\":3079:3103   */\n      tag_266\n        /* \"#utility.yul\":3097:3102   */\n      dup2\n        /* \"#utility.yul\":3079:3103   */\n      tag_182\n      jump\t// in\n    tag_266:\n        /* \"#utility.yul\":3072:3077   */\n      dup2\n        /* \"#utility.yul\":3069:3104   */\n      eq\n        /* \"#utility.yul\":3059:3122   */\n      tag_267\n      jumpi\n        /* \"#utility.yul\":3118:3119   */\n      0x00\n        /* \"#utility.yul\":3115:3116   */\n      dup1\n        /* \"#utility.yul\":3108:3120   */\n      revert\n        /* \"#utility.yul\":3059:3122   */\n    tag_267:\n        /* \"#utility.yul\":3006:3128   */\n      pop\n      jump\t// out\n        /* \"#utility.yul\":3134:3273   */\n    tag_185:\n        /* \"#utility.yul\":3180:3185   */\n      0x00\n        /* \"#utility.yul\":3218:3224   */\n      dup2\n        /* \"#utility.yul\":3205:3225   */\n      calldataload\n        /* \"#utility.yul\":3196:3225   */\n      swap1\n      pop\n        /* \"#utility.yul\":3234:3267   */\n      tag_269\n        /* \"#utility.yul\":3261:3266   */\n      dup2\n        /* \"#utility.yul\":3234:3267   */\n      tag_184\n      jump\t// in\n    tag_269:\n        /* \"#utility.yul\":3134:3273   */\n      swap3\n      swap2\n      pop\n      pop\n      jump\t// out\n        /* \"#utility.yul\":3279:3753   */\n    tag_49:\n        /* \"#utility.yul\":3347:3353   */\n      0x00\n        /* \"#utility.yul\":3355:3361   */\n      dup1\n        /* \"#utility.yul\":3404:3406   */\n      0x40\n        /* \"#utility.yul\":3392:3401   */\n      dup4\n        /* \"#utility.yul\":3383:3390   */\n      dup6\n        /* \"#utility.yul\":3379:3402   */\n      sub\n        /* \"#utility.yul\":3375:3407   */\n      slt\n        /* \"#utility.yul\":3372:3491   */\n      iszero\n      tag_271\n      jumpi\n        /* \"#utility.yul\":3410:3489   */\n      tag_272\n      tag_171\n      jump\t// in\n    tag_272:\n        /* \"#utility.yul\":3372:3491   */\n    tag_271:\n        /* \"#utility.yul\":3530:3531   */\n      0x00\n        /* \"#utility.yul\":3555:3608   */\n      tag_273\n        /* \"#utility.yul\":3600:3607   */\n      dup6\n        /* \"#utility.yul\":3591:3597   */\n      dup3\n        /* \"#utility.yul\":3580:3589   */\n      dup7\n        /* \"#utility.yul\":3576:3598   */\n      add\n        /* \"#utility.yul\":3555:3608   */\n      tag_185\n      jump\t// in\n    tag_273:\n        /* \"#utility.yul\":3545:3608   */\n      swap3\n      pop\n        /* \"#utility.yul\":3501:3618   */\n      pop\n        /* \"#utility.yul\":3657:3659   */\n      0x20\n        /* \"#utility.yul\":3683:3736   */\n      tag_274\n        /* \"#utility.yul\":3728:3735   */\n      dup6\n        /* \"#utility.yul\":3719:3725   */\n      dup3\n        /* \"#utility.yul\":3708:3717   */\n      dup7\n        /* \"#utility.yul\":3704:3726   */\n      add\n        /* \"#utility.yul\":3683:3736   */\n      tag_180\n      jump\t// in\n    tag_274:\n        /* \"#utility.yul\":3673:3736   */\n      swap2\n      pop\n        /* \"#utility.yul\":3628:3746   */\n      pop\n        /* \"#utility.yul\":3279:3753   */\n      swap3\n      pop\n      swap3\n      swap1\n      pop\n      jump\t// out\n        /* \"#utility.yul\":3759:3819   */\n    tag_186:\n        /* \"#utility.yul\":3787:3790   */\n      0x00\n        /* \"#utility.yul\":3808:3813   */\n      dup2\n        /* \"#utility.yul\":3801:3813   */\n      swap1\n      pop\n        /* \"#utility.yul\":3759:3819   */\n      swap2\n      swap1\n      pop\n      jump\t// out\n        /* \"#utility.yul\":3825:3967   */\n    tag_187:\n        /* \"#utility.yul\":3875:3884   */\n      0x00\n        /* \"#utility.yul\":3908:3961   */\n      tag_277\n        /* \"#utility.yul\":3926:3960   */\n      tag_278\n        /* \"#utility.yul\":3935:3959   */\n      tag_279\n        /* \"#utility.yul\":3953:3958   */\n      dup5\n        /* \"#utility.yul\":3935:3959   */\n      tag_173\n      jump\t// in\n    tag_279:\n        /* \"#utility.yul\":3926:3960   */\n      tag_186\n      jump\t// in\n    tag_278:\n        /* \"#utility.yul\":3908:3961   */\n      tag_173\n      jump\t// in\n    tag_277:\n        /* \"#utility.yul\":3895:3961   */\n      swap1\n      pop\n        /* \"#utility.yul\":3825:3967   */\n      swap2\n      swap1\n      pop\n      jump\t// out\n        /* \"#utility.yul\":3973:4099   */\n    tag_188:\n        /* \"#utility.yul\":4023:4032   */\n      0x00\n        /* \"#utility.yul\":4056:4093   */\n      tag_281\n        /* \"#utility.yul\":4087:4092   */\n      dup3\n        /* \"#utility.yul\":4056:4093   */\n      tag_187\n      jump\t// in\n    tag_281:\n        /* \"#utility.yul\":4043:4093   */\n      swap1\n      pop\n        /* \"#utility.yul\":3973:4099   */\n      swap2\n      swap1\n      pop\n      jump\t// out\n        /* \"#utility.yul\":4105:4245   */\n    tag_189:\n        /* \"#utility.yul\":4169:4178   */\n      0x00\n        /* \"#utility.yul\":4202:4239   */\n      tag_283\n        /* \"#utility.yul\":4233:4238   */\n      dup3\n        /* \"#utility.yul\":4202:4239   */\n      tag_188\n      jump\t// in\n    tag_283:\n        /* \"#utility.yul\":4189:4239   */\n      swap1\n      pop\n        /* \"#utility.yul\":4105:4245   */\n      swap2\n      swap1\n      pop\n      jump\t// out\n        /* \"#utility.yul\":4251:4410   */\n    tag_190:\n        /* \"#utility.yul\":4352:4403   */\n      tag_285\n        /* \"#utility.yul\":4397:4402   */\n      dup2\n        /* \"#utility.yul\":4352:4403   */\n      tag_189\n      jump\t// in\n    tag_285:\n        /* \"#utility.yul\":4347:4350   */\n      dup3\n        /* \"#utility.yul\":4340:4404   */\n      mstore\n        /* \"#utility.yul\":4251:4410   */\n      pop\n      pop\n      jump\t// out\n        /* \"#utility.yul\":4416:4666   */\n    tag_54:\n        /* \"#utility.yul\":4523:4527   */\n      0x00\n        /* \"#utility.yul\":4561:4563   */\n      0x20\n        /* \"#utility.yul\":4550:4559   */\n      dup3\n        /* \"#utility.yul\":4546:4564   */\n      add\n        /* \"#utility.yul\":4538:4564   */\n      swap1\n      pop\n        /* \"#utility.yul\":4574:4659   */\n      tag_287\n        /* \"#utility.yul\":4656:4657   */\n      0x00\n        /* \"#utility.yul\":4645:4654   */\n      dup4\n        /* \"#utility.yul\":4641:4658   */\n      add\n        /* \"#utility.yul\":4632:4638   */\n      dup5\n        /* \"#utility.yul\":4574:4659   */\n      tag_190\n      jump\t// in\n    tag_287:\n        /* \"#utility.yul\":4416:4666   */\n      swap3\n      swap2\n      pop\n      pop\n      jump\t// out\n        /* \"#utility.yul\":4672:4841   */\n    tag_191:\n        /* \"#utility.yul\":4756:4767   */\n      0x00\n        /* \"#utility.yul\":4790:4796   */\n      dup3\n        /* \"#utility.yul\":4785:4788   */\n      dup3\n        /* \"#utility.yul\":4778:4797   */\n      mstore\n        /* \"#utility.yul\":4830:4834   */\n      0x20\n        /* \"#utility.yul\":4825:4828   */\n      dup3\n        /* \"#utility.yul\":4821:4835   */\n      add\n        /* \"#utility.yul\":4806:4835   */\n      swap1\n      pop\n        /* \"#utility.yul\":4672:4841   */\n      swap3\n      swap2\n      pop\n      pop\n      jump\t// out\n        /* \"#utility.yul\":4847:5024   */\n    tag_192:\n        /* \"#utility.yul\":4987:5016   */\n      0x496e73756666696369656e74207374616b65642062616c616e63650000000000\n        /* \"#utility.yul\":4983:4984   */\n      0x00\n        /* \"#utility.yul\":4975:4981   */\n      dup3\n        /* \"#utility.yul\":4971:4985   */\n      add\n        /* \"#utility.yul\":4964:5017   */\n      mstore\n        /* \"#utility.yul\":4847:5024   */\n      pop\n      jump\t// out\n        /* \"#utility.yul\":5030:5396   */\n    tag_193:\n        /* \"#utility.yul\":5172:5175   */\n      0x00\n        /* \"#utility.yul\":5193:5260   */\n      tag_291\n        /* \"#utility.yul\":5257:5259   */\n      0x1b\n        /* \"#utility.yul\":5252:5255   */\n      dup4\n        /* \"#utility.yul\":5193:5260   */\n      tag_191\n      jump\t// in\n    tag_291:\n        /* \"#utility.yul\":5186:5260   */\n      swap2\n      pop\n        /* \"#utility.yul\":5269:5362   */\n      tag_292\n        /* \"#utility.yul\":5358:5361   */\n      dup3\n        /* \"#utility.yul\":5269:5362   */\n      tag_192\n      jump\t// in\n    tag_292:\n        /* \"#utility.yul\":5387:5389   */\n      0x20\n        /* \"#utility.yul\":5382:5385   */\n      dup3\n        /* \"#utility.yul\":5378:5390   */\n      add\n        /* \"#utility.yul\":5371:5390   */\n      swap1\n      pop\n        /* \"#utility.yul\":5030:5396   */\n      swap2\n      swap1\n      pop\n      jump\t// out\n        /* \"#utility.yul\":5402:5821   */\n    tag_61:\n        /* \"#utility.yul\":5568:5572   */\n      0x00\n        /* \"#utility.yul\":5606:5608   */\n      0x20\n        /* \"#utility.yul\":5595:5604   */\n      dup3\n        /* \"#utility.yul\":5591:5609   */\n      add\n        /* \"#utility.yul\":5583:5609   */\n      swap1\n      pop\n        /* \"#utility.yul\":5655:5664   */\n      dup2\n        /* \"#utility.yul\":5649:5653   */\n      dup2\n        /* \"#utility.yul\":5645:5665   */\n      sub\n        /* \"#utility.yul\":5641:5642   */\n      0x00\n        /* \"#utility.yul\":5630:5639   */\n      dup4\n        /* \"#utility.yul\":5626:5643   */\n      add\n        /* \"#utility.yul\":5619:5666   */\n      mstore\n        /* \"#utility.yul\":5683:5814   */\n      tag_294\n        /* \"#utility.yul\":5809:5813   */\n      dup2\n        /* \"#utility.yul\":5683:5814   */\n      tag_193\n      jump\t// in\n    tag_294:\n        /* \"#utility.yul\":5675:5814   */\n      swap1\n      pop\n        /* \"#utility.yul\":5402:5821   */\n      swap2\n      swap1\n      pop\n      jump\t// out\n        /* \"#utility.yul\":5827:6007   */\n    tag_194:\n        /* \"#utility.yul\":5875:5952   */\n      0x4e487b7100000000000000000000000000000000000000000000000000000000\n        /* \"#utility.yul\":5872:5873   */\n      0x00\n        /* \"#utility.yul\":5865:5953   */\n      mstore\n        /* \"#utility.yul\":5972:5976   */\n      0x11\n        /* \"#utility.yul\":5969:5970   */\n      0x04\n        /* \"#utility.yul\":5962:5977   */\n      mstore\n        /* \"#utility.yul\":5996:6000   */\n      0x24\n        /* \"#utility.yul\":5993:5994   */\n      0x00\n        /* \"#utility.yul\":5986:6001   */\n      revert\n        /* \"#utility.yul\":6013:6423   */\n    tag_63:\n        /* \"#utility.yul\":6053:6060   */\n      0x00\n        /* \"#utility.yul\":6076:6096   */\n      tag_297\n        /* \"#utility.yul\":6094:6095   */\n      dup3\n        /* \"#utility.yul\":6076:6096   */\n      tag_177\n      jump\t// in\n    tag_297:\n        /* \"#utility.yul\":6071:6096   */\n      swap2\n      pop\n        /* \"#utility.yul\":6110:6130   */\n      tag_298\n        /* \"#utility.yul\":6128:6129   */\n      dup4\n        /* \"#utility.yul\":6110:6130   */\n      tag_177\n      jump\t// in\n    tag_298:\n        /* \"#utility.yul\":6105:6130   */\n      swap3\n      pop\n        /* \"#utility.yul\":6165:6166   */\n      dup3\n        /* \"#utility.yul\":6162:6163   */\n      dup3\n        /* \"#utility.yul\":6158:6167   */\n      mul\n        /* \"#utility.yul\":6187:6217   */\n      tag_299\n        /* \"#utility.yul\":6205:6216   */\n      dup2\n        /* \"#utility.yul\":6187:6217   */\n      tag_177\n      jump\t// in\n    tag_299:\n        /* \"#utility.yul\":6176:6217   */\n      swap2\n      pop\n        /* \"#utility.yul\":6366:6367   */\n      dup3\n        /* \"#utility.yul\":6357:6364   */\n      dup3\n        /* \"#utility.yul\":6353:6368   */\n      div\n        /* \"#utility.yul\":6350:6351   */\n      dup5\n        /* \"#utility.yul\":6347:6369   */\n      eq\n        /* \"#utility.yul\":6327:6328   */\n      dup4\n        /* \"#utility.yul\":6320:6329   */\n      iszero\n        /* \"#utility.yul\":6300:6383   */\n      or\n        /* \"#utility.yul\":6277:6416   */\n      tag_300\n      jumpi\n        /* \"#utility.yul\":6396:6414   */\n      tag_301\n      tag_194\n      jump\t// in\n    tag_301:\n        /* \"#utility.yul\":6277:6416   */\n    tag_300:\n        /* \"#utility.yul\":6061:6423   */\n      pop\n        /* \"#utility.yul\":6013:6423   */\n      swap3\n      swap2\n      pop\n      pop\n      jump\t// out\n        /* \"#utility.yul\":6429:6609   */\n    tag_195:\n        /* \"#utility.yul\":6477:6554   */\n      0x4e487b7100000000000000000000000000000000000000000000000000000000\n        /* \"#utility.yul\":6474:6475   */\n      0x00\n        /* \"#utility.yul\":6467:6555   */\n      mstore\n        /* \"#utility.yul\":6574:6578   */\n      0x12\n        /* \"#utility.yul\":6571:6572   */\n      0x04\n        /* \"#utility.yul\":6564:6579   */\n      mstore\n        /* \"#utility.yul\":6598:6602   */\n      0x24\n        /* \"#utility.yul\":6595:6596   */\n      0x00\n        /* \"#utility.yul\":6588:6603   */\n      revert\n        /* \"#utility.yul\":6615:6800   */\n    tag_65:\n        /* \"#utility.yul\":6655:6656   */\n      0x00\n        /* \"#utility.yul\":6672:6692   */\n      tag_304\n        /* \"#utility.yul\":6690:6691   */\n      dup3\n        /* \"#utility.yul\":6672:6692   */\n      tag_177\n      jump\t// in\n    tag_304:\n        /* \"#utility.yul\":6667:6692   */\n      swap2\n      pop\n        /* \"#utility.yul\":6706:6726   */\n      tag_305\n        /* \"#utility.yul\":6724:6725   */\n      dup4\n        /* \"#utility.yul\":6706:6726   */\n      tag_177\n      jump\t// in\n    tag_305:\n        /* \"#utility.yul\":6701:6726   */\n      swap3\n      pop\n        /* \"#utility.yul\":6745:6746   */\n      dup3\n        /* \"#utility.yul\":6735:6770   */\n      tag_306\n      jumpi\n        /* \"#utility.yul\":6750:6768   */\n      tag_307\n      tag_195\n      jump\t// in\n    tag_307:\n        /* \"#utility.yul\":6735:6770   */\n    tag_306:\n        /* \"#utility.yul\":6792:6793   */\n      dup3\n        /* \"#utility.yul\":6789:6790   */\n      dup3\n        /* \"#utility.yul\":6785:6794   */\n      div\n        /* \"#utility.yul\":6780:6794   */\n      swap1\n      pop\n        /* \"#utility.yul\":6615:6800   */\n      swap3\n      swap2\n      pop\n      pop\n      jump\t// out\n        /* \"#utility.yul\":6806:7000   */\n    tag_67:\n        /* \"#utility.yul\":6846:6850   */\n      0x00\n        /* \"#utility.yul\":6866:6886   */\n      tag_309\n        /* \"#utility.yul\":6884:6885   */\n      dup3\n        /* \"#utility.yul\":6866:6886   */\n      tag_177\n      jump\t// in\n    tag_309:\n        /* \"#utility.yul\":6861:6886   */\n      swap2\n      pop\n        /* \"#utility.yul\":6900:6920   */\n      tag_310\n        /* \"#utility.yul\":6918:6919   */\n      dup4\n        /* \"#utility.yul\":6900:6920   */\n      tag_177\n      jump\t// in\n    tag_310:\n        /* \"#utility.yul\":6895:6920   */\n      swap3\n      pop\n        /* \"#utility.yul\":6944:6945   */\n      dup3\n        /* \"#utility.yul\":6941:6942   */\n      dup3\n        /* \"#utility.yul\":6937:6946   */\n      sub\n        /* \"#utility.yul\":6929:6946   */\n      swap1\n      pop\n        /* \"#utility.yul\":6968:6969   */\n      dup2\n        /* \"#utility.yul\":6962:6966   */\n      dup2\n        /* \"#utility.yul\":6959:6970   */\n      gt\n        /* \"#utility.yul\":6956:6993   */\n      iszero\n      tag_311\n      jumpi\n        /* \"#utility.yul\":6973:6991   */\n      tag_312\n      tag_194\n      jump\t// in\n    tag_312:\n        /* \"#utility.yul\":6956:6993   */\n    tag_311:\n        /* \"#utility.yul\":6806:7000   */\n      swap3\n      swap2\n      pop\n      pop\n      jump\t// out\n        /* \"#utility.yul\":7006:7338   */\n    tag_70:\n        /* \"#utility.yul\":7127:7131   */\n      0x00\n        /* \"#utility.yul\":7165:7167   */\n      0x40\n        /* \"#utility.yul\":7154:7163   */\n      dup3\n        /* \"#utility.yul\":7150:7168   */\n      add\n        /* \"#utility.yul\":7142:7168   */\n      swap1\n      pop\n        /* \"#utility.yul\":7178:7249   */\n      tag_314\n        /* \"#utility.yul\":7246:7247   */\n      0x00\n        /* \"#utility.yul\":7235:7244   */\n      dup4\n        /* \"#utility.yul\":7231:7248   */\n      add\n        /* \"#utility.yul\":7222:7228   */\n      dup6\n        /* \"#utility.yul\":7178:7249   */\n      tag_181\n      jump\t// in\n    tag_314:\n        /* \"#utility.yul\":7259:7331   */\n      tag_315\n        /* \"#utility.yul\":7327:7329   */\n      0x20\n        /* \"#utility.yul\":7316:7325   */\n      dup4\n        /* \"#utility.yul\":7312:7330   */\n      add\n        /* \"#utility.yul\":7303:7309   */\n      dup5\n        /* \"#utility.yul\":7259:7331   */\n      tag_178\n      jump\t// in\n    tag_315:\n        /* \"#utility.yul\":7006:7338   */\n      swap4\n      swap3\n      pop\n      pop\n      pop\n      jump\t// out\n        /* \"#utility.yul\":7344:7434   */\n    tag_196:\n        /* \"#utility.yul\":7378:7385   */\n      0x00\n        /* \"#utility.yul\":7421:7426   */\n      dup2\n        /* \"#utility.yul\":7414:7427   */\n      iszero\n        /* \"#utility.yul\":7407:7428   */\n      iszero\n        /* \"#utility.yul\":7396:7428   */\n      swap1\n      pop\n        /* \"#utility.yul\":7344:7434   */\n      swap2\n      swap1\n      pop\n      jump\t// out\n        /* \"#utility.yul\":7440:7556   */\n    tag_197:\n        /* \"#utility.yul\":7510:7531   */\n      tag_318\n        /* \"#utility.yul\":7525:7530   */\n      dup2\n        /* \"#utility.yul\":7510:7531   */\n      tag_196\n      jump\t// in\n    tag_318:\n        /* \"#utility.yul\":7503:7508   */\n      dup2\n        /* \"#utility.yul\":7500:7532   */\n      eq\n        /* \"#utility.yul\":7490:7550   */\n      tag_319\n      jumpi\n        /* \"#utility.yul\":7546:7547   */\n      0x00\n        /* \"#utility.yul\":7543:7544   */\n      dup1\n        /* \"#utility.yul\":7536:7548   */\n      revert\n        /* \"#utility.yul\":7490:7550   */\n    tag_319:\n        /* \"#utility.yul\":7440:7556   */\n      pop\n      jump\t// out\n        /* \"#utility.yul\":7562:7699   */\n    tag_198:\n        /* \"#utility.yul\":7616:7621   */\n      0x00\n        /* \"#utility.yul\":7647:7653   */\n      dup2\n        /* \"#utility.yul\":7641:7654   */\n      mload\n        /* \"#utility.yul\":7632:7654   */\n      swap1\n      pop\n        /* \"#utility.yul\":7663:7693   */\n      tag_321\n        /* \"#utility.yul\":7687:7692   */\n      dup2\n        /* \"#utility.yul\":7663:7693   */\n      tag_197\n      jump\t// in\n    tag_321:\n        /* \"#utility.yul\":7562:7699   */\n      swap3\n      swap2\n      pop\n      pop\n      jump\t// out\n        /* \"#utility.yul\":7705:8050   */\n    tag_74:\n        /* \"#utility.yul\":7772:7778   */\n      0x00\n        /* \"#utility.yul\":7821:7823   */\n      0x20\n        /* \"#utility.yul\":7809:7818   */\n      dup3\n        /* \"#utility.yul\":7800:7807   */\n      dup5\n        /* \"#utility.yul\":7796:7819   */\n      sub\n        /* \"#utility.yul\":7792:7824   */\n      slt\n        /* \"#utility.yul\":7789:7908   */\n      iszero\n      tag_323\n      jumpi\n        /* \"#utility.yul\":7827:7906   */\n      tag_324\n      tag_171\n      jump\t// in\n    tag_324:\n        /* \"#utility.yul\":7789:7908   */\n    tag_323:\n        /* \"#utility.yul\":7947:7948   */\n      0x00\n        /* \"#utility.yul\":7972:8033   */\n      tag_325\n        /* \"#utility.yul\":8025:8032   */\n      dup5\n        /* \"#utility.yul\":8016:8022   */\n      dup3\n        /* \"#utility.yul\":8005:8014   */\n      dup6\n        /* \"#utility.yul\":8001:8023   */\n      add\n        /* \"#utility.yul\":7972:8033   */\n      tag_198\n      jump\t// in\n    tag_325:\n        /* \"#utility.yul\":7962:8033   */\n      swap2\n      pop\n        /* \"#utility.yul\":7918:8043   */\n      pop\n        /* \"#utility.yul\":7705:8050   */\n      swap3\n      swap2\n      pop\n      pop\n      jump\t// out\n        /* \"#utility.yul\":8056:8236   */\n    tag_81:\n        /* \"#utility.yul\":8104:8181   */\n      0x4e487b7100000000000000000000000000000000000000000000000000000000\n        /* \"#utility.yul\":8101:8102   */\n      0x00\n        /* \"#utility.yul\":8094:8182   */\n      mstore\n        /* \"#utility.yul\":8201:8205   */\n      0x32\n        /* \"#utility.yul\":8198:8199   */\n      0x04\n        /* \"#utility.yul\":8191:8206   */\n      mstore\n        /* \"#utility.yul\":8225:8229   */\n      0x24\n        /* \"#utility.yul\":8222:8223   */\n      0x00\n        /* \"#utility.yul\":8215:8230   */\n      revert\n        /* \"#utility.yul\":8242:8422   */\n    tag_93:\n        /* \"#utility.yul\":8290:8367   */\n      0x4e487b7100000000000000000000000000000000000000000000000000000000\n        /* \"#utility.yul\":8287:8288   */\n      0x00\n        /* \"#utility.yul\":8280:8368   */\n      mstore\n        /* \"#utility.yul\":8387:8391   */\n      0x31\n        /* \"#utility.yul\":8384:8385   */\n      0x04\n        /* \"#utility.yul\":8377:8392   */\n      mstore\n        /* \"#utility.yul\":8411:8415   */\n      0x24\n        /* \"#utility.yul\":8408:8409   */\n      0x00\n        /* \"#utility.yul\":8401:8416   */\n      revert\n        /* \"#utility.yul\":8428:8661   */\n    tag_199:\n        /* \"#utility.yul\":8568:8602   */\n      0x416d6f756e74206973206c657373207468616e20746865206d696e696d756d20\n        /* \"#utility.yul\":8564:8565   */\n      0x00\n        /* \"#utility.yul\":8556:8562   */\n      dup3\n        /* \"#utility.yul\":8552:8566   */\n      add\n        /* \"#utility.yul\":8545:8603   */\n      mstore\n        /* \"#utility.yul\":8637:8653   */\n      0x7374616b65207265717569726564000000000000000000000000000000000000\n        /* \"#utility.yul\":8632:8634   */\n      0x20\n        /* \"#utility.yul\":8624:8630   */\n      dup3\n        /* \"#utility.yul\":8620:8635   */\n      add\n        /* \"#utility.yul\":8613:8654   */\n      mstore\n        /* \"#utility.yul\":8428:8661   */\n      pop\n      jump\t// out\n        /* \"#utility.yul\":8667:9033   */\n    tag_200:\n        /* \"#utility.yul\":8809:8812   */\n      0x00\n        /* \"#utility.yul\":8830:8897   */\n      tag_330\n        /* \"#utility.yul\":8894:8896   */\n      0x2e\n        /* \"#utility.yul\":8889:8892   */\n      dup4\n        /* \"#utility.yul\":8830:8897   */\n      tag_191\n      jump\t// in\n    tag_330:\n        /* \"#utility.yul\":8823:8897   */\n      swap2\n      pop\n        /* \"#utility.yul\":8906:8999   */\n      tag_331\n        /* \"#utility.yul\":8995:8998   */\n      dup3\n        /* \"#utility.yul\":8906:8999   */\n      tag_199\n      jump\t// in\n    tag_331:\n        /* \"#utility.yul\":9024:9026   */\n      0x40\n        /* \"#utility.yul\":9019:9022   */\n      dup3\n        /* \"#utility.yul\":9015:9027   */\n      add\n        /* \"#utility.yul\":9008:9027   */\n      swap1\n      pop\n        /* \"#utility.yul\":8667:9033   */\n      swap2\n      swap1\n      pop\n      jump\t// out\n        /* \"#utility.yul\":9039:9458   */\n    tag_98:\n        /* \"#utility.yul\":9205:9209   */\n      0x00\n        /* \"#utility.yul\":9243:9245   */\n      0x20\n        /* \"#utility.yul\":9232:9241   */\n      dup3\n        /* \"#utility.yul\":9228:9246   */\n      add\n        /* \"#utility.yul\":9220:9246   */\n      swap1\n      pop\n        /* \"#utility.yul\":9292:9301   */\n      dup2\n        /* \"#utility.yul\":9286:9290   */\n      dup2\n        /* \"#utility.yul\":9282:9302   */\n      sub\n        /* \"#utility.yul\":9278:9279   */\n      0x00\n        /* \"#utility.yul\":9267:9276   */\n      dup4\n        /* \"#utility.yul\":9263:9280   */\n      add\n        /* \"#utility.yul\":9256:9303   */\n      mstore\n        /* \"#utility.yul\":9320:9451   */\n      tag_333\n        /* \"#utility.yul\":9446:9450   */\n      dup2\n        /* \"#utility.yul\":9320:9451   */\n      tag_200\n      jump\t// in\n    tag_333:\n        /* \"#utility.yul\":9312:9451   */\n      swap1\n      pop\n        /* \"#utility.yul\":9039:9458   */\n      swap2\n      swap1\n      pop\n      jump\t// out\n        /* \"#utility.yul\":9464:9691   */\n    tag_201:\n        /* \"#utility.yul\":9604:9638   */\n      0x416d6f756e74206578636565647320746865206d6178696d756d207374616b65\n        /* \"#utility.yul\":9600:9601   */\n      0x00\n        /* \"#utility.yul\":9592:9598   */\n      dup3\n        /* \"#utility.yul\":9588:9602   */\n      add\n        /* \"#utility.yul\":9581:9639   */\n      mstore\n        /* \"#utility.yul\":9673:9683   */\n      0x20616c6c6f776564000000000000000000000000000000000000000000000000\n        /* \"#utility.yul\":9668:9670   */\n      0x20\n        /* \"#utility.yul\":9660:9666   */\n      dup3\n        /* \"#utility.yul\":9656:9671   */\n      add\n        /* \"#utility.yul\":9649:9684   */\n      mstore\n        /* \"#utility.yul\":9464:9691   */\n      pop\n      jump\t// out\n        /* \"#utility.yul\":9697:10063   */\n    tag_202:\n        /* \"#utility.yul\":9839:9842   */\n      0x00\n        /* \"#utility.yul\":9860:9927   */\n      tag_336\n        /* \"#utility.yul\":9924:9926   */\n      0x28\n        /* \"#utility.yul\":9919:9922   */\n      dup4\n        /* \"#utility.yul\":9860:9927   */\n      tag_191\n      jump\t// in\n    tag_336:\n        /* \"#utility.yul\":9853:9927   */\n      swap2\n      pop\n        /* \"#utility.yul\":9936:10029   */\n      tag_337\n        /* \"#utility.yul\":10025:10028   */\n      dup3\n        /* \"#utility.yul\":9936:10029   */\n      tag_201\n      jump\t// in\n    tag_337:\n        /* \"#utility.yul\":10054:10056   */\n      0x40\n        /* \"#utility.yul\":10049:10052   */\n      dup3\n        /* \"#utility.yul\":10045:10057   */\n      add\n        /* \"#utility.yul\":10038:10057   */\n      swap1\n      pop\n        /* \"#utility.yul\":9697:10063   */\n      swap2\n      swap1\n      pop\n      jump\t// out\n        /* \"#utility.yul\":10069:10488   */\n    tag_101:\n        /* \"#utility.yul\":10235:10239   */\n      0x00\n        /* \"#utility.yul\":10273:10275   */\n      0x20\n        /* \"#utility.yul\":10262:10271   */\n      dup3\n        /* \"#utility.yul\":10258:10276   */\n      add\n        /* \"#utility.yul\":10250:10276   */\n      swap1\n      pop\n        /* \"#utility.yul\":10322:10331   */\n      dup2\n        /* \"#utility.yul\":10316:10320   */\n      dup2\n        /* \"#utility.yul\":10312:10332   */\n      sub\n        /* \"#utility.yul\":10308:10309   */\n      0x00\n        /* \"#utility.yul\":10297:10306   */\n      dup4\n        /* \"#utility.yul\":10293:10310   */\n      add\n        /* \"#utility.yul\":10286:10333   */\n      mstore\n        /* \"#utility.yul\":10350:10481   */\n      tag_339\n        /* \"#utility.yul\":10476:10480   */\n      dup2\n        /* \"#utility.yul\":10350:10481   */\n      tag_202\n      jump\t// in\n    tag_339:\n        /* \"#utility.yul\":10342:10481   */\n      swap1\n      pop\n        /* \"#utility.yul\":10069:10488   */\n      swap2\n      swap1\n      pop\n      jump\t// out\n        /* \"#utility.yul\":10494:10936   */\n    tag_103:\n        /* \"#utility.yul\":10643:10647   */\n      0x00\n        /* \"#utility.yul\":10681:10683   */\n      0x60\n        /* \"#utility.yul\":10670:10679   */\n      dup3\n        /* \"#utility.yul\":10666:10684   */\n      add\n        /* \"#utility.yul\":10658:10684   */\n      swap1\n      pop\n        /* \"#utility.yul\":10694:10765   */\n      tag_341\n        /* \"#utility.yul\":10762:10763   */\n      0x00\n        /* \"#utility.yul\":10751:10760   */\n      dup4\n        /* \"#utility.yul\":10747:10764   */\n      add\n        /* \"#utility.yul\":10738:10744   */\n      dup7\n        /* \"#utility.yul\":10694:10765   */\n      tag_181\n      jump\t// in\n    tag_341:\n        /* \"#utility.yul\":10775:10847   */\n      tag_342\n        /* \"#utility.yul\":10843:10845   */\n      0x20\n        /* \"#utility.yul\":10832:10841   */\n      dup4\n        /* \"#utility.yul\":10828:10846   */\n      add\n        /* \"#utility.yul\":10819:10825   */\n      dup6\n        /* \"#utility.yul\":10775:10847   */\n      tag_181\n      jump\t// in\n    tag_342:\n        /* \"#utility.yul\":10857:10929   */\n      tag_343\n        /* \"#utility.yul\":10925:10927   */\n      0x40\n        /* \"#utility.yul\":10914:10923   */\n      dup4\n        /* \"#utility.yul\":10910:10928   */\n      add\n        /* \"#utility.yul\":10901:10907   */\n      dup5\n        /* \"#utility.yul\":10857:10929   */\n      tag_178\n      jump\t// in\n    tag_343:\n        /* \"#utility.yul\":10494:10936   */\n      swap5\n      swap4\n      pop\n      pop\n      pop\n      pop\n      jump\t// out\n        /* \"#utility.yul\":10942:11133   */\n    tag_108:\n        /* \"#utility.yul\":10982:10985   */\n      0x00\n        /* \"#utility.yul\":11001:11021   */\n      tag_345\n        /* \"#utility.yul\":11019:11020   */\n      dup3\n        /* \"#utility.yul\":11001:11021   */\n      tag_177\n      jump\t// in\n    tag_345:\n        /* \"#utility.yul\":10996:11021   */\n      swap2\n      pop\n        /* \"#utility.yul\":11035:11055   */\n      tag_346\n        /* \"#utility.yul\":11053:11054   */\n      dup4\n        /* \"#utility.yul\":11035:11055   */\n      tag_177\n      jump\t// in\n    tag_346:\n        /* \"#utility.yul\":11030:11055   */\n      swap3\n      pop\n        /* \"#utility.yul\":11078:11079   */\n      dup3\n        /* \"#utility.yul\":11075:11076   */\n      dup3\n        /* \"#utility.yul\":11071:11080   */\n      add\n        /* \"#utility.yul\":11064:11080   */\n      swap1\n      pop\n        /* \"#utility.yul\":11099:11102   */\n      dup1\n        /* \"#utility.yul\":11096:11097   */\n      dup3\n        /* \"#utility.yul\":11093:11103   */\n      gt\n        /* \"#utility.yul\":11090:11126   */\n      iszero\n      tag_347\n      jumpi\n        /* \"#utility.yul\":11106:11124   */\n      tag_348\n      tag_194\n      jump\t// in\n    tag_348:\n        /* \"#utility.yul\":11090:11126   */\n    tag_347:\n        /* \"#utility.yul\":10942:11133   */\n      swap3\n      swap2\n      pop\n      pop\n      jump\t// out\n        /* \"#utility.yul\":11139:11282   */\n    tag_203:\n        /* \"#utility.yul\":11196:11201   */\n      0x00\n        /* \"#utility.yul\":11227:11233   */\n      dup2\n        /* \"#utility.yul\":11221:11234   */\n      mload\n        /* \"#utility.yul\":11212:11234   */\n      swap1\n      pop\n        /* \"#utility.yul\":11243:11276   */\n      tag_350\n        /* \"#utility.yul\":11270:11275   */\n      dup2\n        /* \"#utility.yul\":11243:11276   */\n      tag_179\n      jump\t// in\n    tag_350:\n        /* \"#utility.yul\":11139:11282   */\n      swap3\n      swap2\n      pop\n      pop\n      jump\t// out\n        /* \"#utility.yul\":11288:11639   */\n    tag_117:\n        /* \"#utility.yul\":11358:11364   */\n      0x00\n        /* \"#utility.yul\":11407:11409   */\n      0x20\n        /* \"#utility.yul\":11395:11404   */\n      dup3\n        /* \"#utility.yul\":11386:11393   */\n      dup5\n        /* \"#utility.yul\":11382:11405   */\n      sub\n        /* \"#utility.yul\":11378:11410   */\n      slt\n        /* \"#utility.yul\":11375:11494   */\n      iszero\n      tag_352\n      jumpi\n        /* \"#utility.yul\":11413:11492   */\n      tag_353\n      tag_171\n      jump\t// in\n    tag_353:\n        /* \"#utility.yul\":11375:11494   */\n    tag_352:\n        /* \"#utility.yul\":11533:11534   */\n      0x00\n        /* \"#utility.yul\":11558:11622   */\n      tag_354\n        /* \"#utility.yul\":11614:11621   */\n      dup5\n        /* \"#utility.yul\":11605:11611   */\n      dup3\n        /* \"#utility.yul\":11594:11603   */\n      dup6\n        /* \"#utility.yul\":11590:11612   */\n      add\n        /* \"#utility.yul\":11558:11622   */\n      tag_203\n      jump\t// in\n    tag_354:\n        /* \"#utility.yul\":11548:11622   */\n      swap2\n      pop\n        /* \"#utility.yul\":11504:11632   */\n      pop\n        /* \"#utility.yul\":11288:11639   */\n      swap3\n      swap2\n      pop\n      pop\n      jump\t// out\n        /* \"#utility.yul\":11645:11875   */\n    tag_204:\n        /* \"#utility.yul\":11785:11819   */\n      0x4e6f7420656e6f756768204c494e4b202d2066696c6c20636f6e747261637420\n        /* \"#utility.yul\":11781:11782   */\n      0x00\n        /* \"#utility.yul\":11773:11779   */\n      dup3\n        /* \"#utility.yul\":11769:11783   */\n      add\n        /* \"#utility.yul\":11762:11820   */\n      mstore\n        /* \"#utility.yul\":11854:11867   */\n      0x7769746820666175636574000000000000000000000000000000000000000000\n        /* \"#utility.yul\":11849:11851   */\n      0x20\n        /* \"#utility.yul\":11841:11847   */\n      dup3\n        /* \"#utility.yul\":11837:11852   */\n      add\n        /* \"#utility.yul\":11830:11868   */\n      mstore\n        /* \"#utility.yul\":11645:11875   */\n      pop\n      jump\t// out\n        /* \"#utility.yul\":11881:12247   */\n    tag_205:\n        /* \"#utility.yul\":12023:12026   */\n      0x00\n        /* \"#utility.yul\":12044:12111   */\n      tag_357\n        /* \"#utility.yul\":12108:12110   */\n      0x2b\n        /* \"#utility.yul\":12103:12106   */\n      dup4\n        /* \"#utility.yul\":12044:12111   */\n      tag_191\n      jump\t// in\n    tag_357:\n        /* \"#utility.yul\":12037:12111   */\n      swap2\n      pop\n        /* \"#utility.yul\":12120:12213   */\n      tag_358\n        /* \"#utility.yul\":12209:12212   */\n      dup3\n        /* \"#utility.yul\":12120:12213   */\n      tag_204\n      jump\t// in\n    tag_358:\n        /* \"#utility.yul\":12238:12240   */\n      0x40\n        /* \"#utility.yul\":12233:12236   */\n      dup3\n        /* \"#utility.yul\":12229:12241   */\n      add\n        /* \"#utility.yul\":12222:12241   */\n      swap1\n      pop\n        /* \"#utility.yul\":11881:12247   */\n      swap2\n      swap1\n      pop\n      jump\t// out\n        /* \"#utility.yul\":12253:12672   */\n    tag_120:\n        /* \"#utility.yul\":12419:12423   */\n      0x00\n        /* \"#utility.yul\":12457:12459   */\n      0x20\n        /* \"#utility.yul\":12446:12455   */\n      dup3\n        /* \"#utility.yul\":12442:12460   */\n      add\n        /* \"#utility.yul\":12434:12460   */\n      swap1\n      pop\n        /* \"#utility.yul\":12506:12515   */\n      dup2\n        /* \"#utility.yul\":12500:12504   */\n      dup2\n        /* \"#utility.yul\":12496:12516   */\n      sub\n        /* \"#utility.yul\":12492:12493   */\n      0x00\n        /* \"#utility.yul\":12481:12490   */\n      dup4\n        /* \"#utility.yul\":12477:12494   */\n      add\n        /* \"#utility.yul\":12470:12517   */\n      mstore\n        /* \"#utility.yul\":12534:12665   */\n      tag_360\n        /* \"#utility.yul\":12660:12664   */\n      dup2\n        /* \"#utility.yul\":12534:12665   */\n      tag_205\n      jump\t// in\n    tag_360:\n        /* \"#utility.yul\":12526:12665   */\n      swap1\n      pop\n        /* \"#utility.yul\":12253:12672   */\n      swap2\n      swap1\n      pop\n      jump\t// out\n        /* \"#utility.yul\":12678:12926   */\n    tag_206:\n        /* \"#utility.yul\":12818:12852   */\n      0x4e756d626572206f66206a75726f7273206578636565647320746865206e756d\n        /* \"#utility.yul\":12814:12815   */\n      0x00\n        /* \"#utility.yul\":12806:12812   */\n      dup3\n        /* \"#utility.yul\":12802:12816   */\n      add\n        /* \"#utility.yul\":12795:12853   */\n      mstore\n        /* \"#utility.yul\":12887:12918   */\n      0x626572206f6620617661696c61626c65207061727469636970616e7473000000\n        /* \"#utility.yul\":12882:12884   */\n      0x20\n        /* \"#utility.yul\":12874:12880   */\n      dup3\n        /* \"#utility.yul\":12870:12885   */\n      add\n        /* \"#utility.yul\":12863:12919   */\n      mstore\n        /* \"#utility.yul\":12678:12926   */\n      pop\n      jump\t// out\n        /* \"#utility.yul\":12932:13298   */\n    tag_207:\n        /* \"#utility.yul\":13074:13077   */\n      0x00\n        /* \"#utility.yul\":13095:13162   */\n      tag_363\n        /* \"#utility.yul\":13159:13161   */\n      0x3d\n        /* \"#utility.yul\":13154:13157   */\n      dup4\n        /* \"#utility.yul\":13095:13162   */\n      tag_191\n      jump\t// in\n    tag_363:\n        /* \"#utility.yul\":13088:13162   */\n      swap2\n      pop\n        /* \"#utility.yul\":13171:13264   */\n      tag_364\n        /* \"#utility.yul\":13260:13263   */\n      dup3\n        /* \"#utility.yul\":13171:13264   */\n      tag_206\n      jump\t// in\n    tag_364:\n        /* \"#utility.yul\":13289:13291   */\n      0x40\n        /* \"#utility.yul\":13284:13287   */\n      dup3\n        /* \"#utility.yul\":13280:13292   */\n      add\n        /* \"#utility.yul\":13273:13292   */\n      swap1\n      pop\n        /* \"#utility.yul\":12932:13298   */\n      swap2\n      swap1\n      pop\n      jump\t// out\n        /* \"#utility.yul\":13304:13723   */\n    tag_123:\n        /* \"#utility.yul\":13470:13474   */\n      0x00\n        /* \"#utility.yul\":13508:13510   */\n      0x20\n        /* \"#utility.yul\":13497:13506   */\n      dup3\n        /* \"#utility.yul\":13493:13511   */\n      add\n        /* \"#utility.yul\":13485:13511   */\n      swap1\n      pop\n        /* \"#utility.yul\":13557:13566   */\n      dup2\n        /* \"#utility.yul\":13551:13555   */\n      dup2\n        /* \"#utility.yul\":13547:13567   */\n      sub\n        /* \"#utility.yul\":13543:13544   */\n      0x00\n        /* \"#utility.yul\":13532:13541   */\n      dup4\n        /* \"#utility.yul\":13528:13545   */\n      add\n        /* \"#utility.yul\":13521:13568   */\n      mstore\n        /* \"#utility.yul\":13585:13716   */\n      tag_366\n        /* \"#utility.yul\":13711:13715   */\n      dup2\n        /* \"#utility.yul\":13585:13716   */\n      tag_207\n      jump\t// in\n    tag_366:\n        /* \"#utility.yul\":13577:13716   */\n      swap1\n      pop\n        /* \"#utility.yul\":13304:13723   */\n      swap2\n      swap1\n      pop\n      jump\t// out\n        /* \"#utility.yul\":13729:13910   */\n    tag_208:\n        /* \"#utility.yul\":13869:13902   */\n      0x4f6e6c7920565246436f6f7264696e61746f722063616e2066756c66696c6c00\n        /* \"#utility.yul\":13865:13866   */\n      0x00\n        /* \"#utility.yul\":13857:13863   */\n      dup3\n        /* \"#utility.yul\":13853:13867   */\n      add\n        /* \"#utility.yul\":13846:13903   */\n      mstore\n        /* \"#utility.yul\":13729:13910   */\n      pop\n      jump\t// out\n        /* \"#utility.yul\":13916:14282   */\n    tag_209:\n        /* \"#utility.yul\":14058:14061   */\n      0x00\n        /* \"#utility.yul\":14079:14146   */\n      tag_369\n        /* \"#utility.yul\":14143:14145   */\n      0x1f\n        /* \"#utility.yul\":14138:14141   */\n      dup4\n        /* \"#utility.yul\":14079:14146   */\n      tag_191\n      jump\t// in\n    tag_369:\n        /* \"#utility.yul\":14072:14146   */\n      swap2\n      pop\n        /* \"#utility.yul\":14155:14248   */\n      tag_370\n        /* \"#utility.yul\":14244:14247   */\n      dup3\n        /* \"#utility.yul\":14155:14248   */\n      tag_208\n      jump\t// in\n    tag_370:\n        /* \"#utility.yul\":14273:14275   */\n      0x20\n        /* \"#utility.yul\":14268:14271   */\n      dup3\n        /* \"#utility.yul\":14264:14276   */\n      add\n        /* \"#utility.yul\":14257:14276   */\n      swap1\n      pop\n        /* \"#utility.yul\":13916:14282   */\n      swap2\n      swap1\n      pop\n      jump\t// out\n        /* \"#utility.yul\":14288:14707   */\n    tag_129:\n        /* \"#utility.yul\":14454:14458   */\n      0x00\n        /* \"#utility.yul\":14492:14494   */\n      0x20\n        /* \"#utility.yul\":14481:14490   */\n      dup3\n        /* \"#utility.yul\":14477:14495   */\n      add\n        /* \"#utility.yul\":14469:14495   */\n      swap1\n      pop\n        /* \"#utility.yul\":14541:14550   */\n      dup2\n        /* \"#utility.yul\":14535:14539   */\n      dup2\n        /* \"#utility.yul\":14531:14551   */\n      sub\n        /* \"#utility.yul\":14527:14528   */\n      0x00\n        /* \"#utility.yul\":14516:14525   */\n      dup4\n        /* \"#utility.yul\":14512:14529   */\n      add\n        /* \"#utility.yul\":14505:14552   */\n      mstore\n        /* \"#utility.yul\":14569:14700   */\n      tag_372\n        /* \"#utility.yul\":14695:14699   */\n      dup2\n        /* \"#utility.yul\":14569:14700   */\n      tag_209\n      jump\t// in\n    tag_372:\n        /* \"#utility.yul\":14561:14700   */\n      swap1\n      pop\n        /* \"#utility.yul\":14288:14707   */\n      swap2\n      swap1\n      pop\n      jump\t// out\n        /* \"#utility.yul\":14713:15045   */\n    tag_134:\n        /* \"#utility.yul\":14834:14838   */\n      0x00\n        /* \"#utility.yul\":14872:14874   */\n      0x40\n        /* \"#utility.yul\":14861:14870   */\n      dup3\n        /* \"#utility.yul\":14857:14875   */\n      add\n        /* \"#utility.yul\":14849:14875   */\n      swap1\n      pop\n        /* \"#utility.yul\":14885:14956   */\n      tag_374\n        /* \"#utility.yul\":14953:14954   */\n      0x00\n        /* \"#utility.yul\":14942:14951   */\n      dup4\n        /* \"#utility.yul\":14938:14955   */\n      add\n        /* \"#utility.yul\":14929:14935   */\n      dup6\n        /* \"#utility.yul\":14885:14956   */\n      tag_183\n      jump\t// in\n    tag_374:\n        /* \"#utility.yul\":14966:15038   */\n      tag_375\n        /* \"#utility.yul\":15034:15036   */\n      0x20\n        /* \"#utility.yul\":15023:15032   */\n      dup4\n        /* \"#utility.yul\":15019:15037   */\n      add\n        /* \"#utility.yul\":15010:15016   */\n      dup5\n        /* \"#utility.yul\":14966:15038   */\n      tag_178\n      jump\t// in\n    tag_375:\n        /* \"#utility.yul\":14713:15045   */\n      swap4\n      swap3\n      pop\n      pop\n      pop\n      jump\t// out\n        /* \"#utility.yul\":15051:15149   */\n    tag_210:\n        /* \"#utility.yul\":15102:15108   */\n      0x00\n        /* \"#utility.yul\":15136:15141   */\n      dup2\n        /* \"#utility.yul\":15130:15142   */\n      mload\n        /* \"#utility.yul\":15120:15142   */\n      swap1\n      pop\n        /* \"#utility.yul\":15051:15149   */\n      swap2\n      swap1\n      pop\n      jump\t// out\n        /* \"#utility.yul\":15155:15323   */\n    tag_211:\n        /* \"#utility.yul\":15238:15249   */\n      0x00\n        /* \"#utility.yul\":15272:15278   */\n      dup3\n        /* \"#utility.yul\":15267:15270   */\n      dup3\n        /* \"#utility.yul\":15260:15279   */\n      mstore\n        /* \"#utility.yul\":15312:15316   */\n      0x20\n        /* \"#utility.yul\":15307:15310   */\n      dup3\n        /* \"#utility.yul\":15303:15317   */\n      add\n        /* \"#utility.yul\":15288:15317   */\n      swap1\n      pop\n        /* \"#utility.yul\":15155:15323   */\n      swap3\n      swap2\n      pop\n      pop\n      jump\t// out\n        /* \"#utility.yul\":15329:15468   */\n    tag_212:\n        /* \"#utility.yul\":15418:15424   */\n      dup3\n        /* \"#utility.yul\":15413:15416   */\n      dup2\n        /* \"#utility.yul\":15408:15411   */\n      dup4\n        /* \"#utility.yul\":15402:15425   */\n      mcopy\n        /* \"#utility.yul\":15459:15460   */\n      0x00\n        /* \"#utility.yul\":15450:15456   */\n      dup4\n        /* \"#utility.yul\":15445:15448   */\n      dup4\n        /* \"#utility.yul\":15441:15457   */\n      add\n        /* \"#utility.yul\":15434:15461   */\n      mstore\n        /* \"#utility.yul\":15329:15468   */\n      pop\n      pop\n      pop\n      jump\t// out\n        /* \"#utility.yul\":15474:15576   */\n    tag_213:\n        /* \"#utility.yul\":15515:15521   */\n      0x00\n        /* \"#utility.yul\":15566:15568   */\n      0x1f\n        /* \"#utility.yul\":15562:15569   */\n      not\n        /* \"#utility.yul\":15557:15559   */\n      0x1f\n        /* \"#utility.yul\":15550:15555   */\n      dup4\n        /* \"#utility.yul\":15546:15560   */\n      add\n        /* \"#utility.yul\":15542:15570   */\n      and\n        /* \"#utility.yul\":15532:15570   */\n      swap1\n      pop\n        /* \"#utility.yul\":15474:15576   */\n      swap2\n      swap1\n      pop\n      jump\t// out\n        /* \"#utility.yul\":15582:15955   */\n    tag_214:\n        /* \"#utility.yul\":15668:15671   */\n      0x00\n        /* \"#utility.yul\":15696:15734   */\n      tag_381\n        /* \"#utility.yul\":15728:15733   */\n      dup3\n        /* \"#utility.yul\":15696:15734   */\n      tag_210\n      jump\t// in\n    tag_381:\n        /* \"#utility.yul\":15750:15820   */\n      tag_382\n        /* \"#utility.yul\":15813:15819   */\n      dup2\n        /* \"#utility.yul\":15808:15811   */\n      dup6\n        /* \"#utility.yul\":15750:15820   */\n      tag_211\n      jump\t// in\n    tag_382:\n        /* \"#utility.yul\":15743:15820   */\n      swap4\n      pop\n        /* \"#utility.yul\":15829:15894   */\n      tag_383\n        /* \"#utility.yul\":15887:15893   */\n      dup2\n        /* \"#utility.yul\":15882:15885   */\n      dup6\n        /* \"#utility.yul\":15875:15879   */\n      0x20\n        /* \"#utility.yul\":15868:15873   */\n      dup7\n        /* \"#utility.yul\":15864:15880   */\n      add\n        /* \"#utility.yul\":15829:15894   */\n      tag_212\n      jump\t// in\n    tag_383:\n        /* \"#utility.yul\":15919:15948   */\n      tag_384\n        /* \"#utility.yul\":15941:15947   */\n      dup2\n        /* \"#utility.yul\":15919:15948   */\n      tag_213\n      jump\t// in\n    tag_384:\n        /* \"#utility.yul\":15914:15917   */\n      dup5\n        /* \"#utility.yul\":15910:15949   */\n      add\n        /* \"#utility.yul\":15903:15949   */\n      swap2\n      pop\n        /* \"#utility.yul\":15672:15955   */\n      pop\n        /* \"#utility.yul\":15582:15955   */\n      swap3\n      swap2\n      pop\n      pop\n      jump\t// out\n        /* \"#utility.yul\":15961:16490   */\n    tag_136:\n        /* \"#utility.yul\":16128:16132   */\n      0x00\n        /* \"#utility.yul\":16166:16168   */\n      0x60\n        /* \"#utility.yul\":16155:16164   */\n      dup3\n        /* \"#utility.yul\":16151:16169   */\n      add\n        /* \"#utility.yul\":16143:16169   */\n      swap1\n      pop\n        /* \"#utility.yul\":16179:16250   */\n      tag_386\n        /* \"#utility.yul\":16247:16248   */\n      0x00\n        /* \"#utility.yul\":16236:16245   */\n      dup4\n        /* \"#utility.yul\":16232:16249   */\n      add\n        /* \"#utility.yul\":16223:16229   */\n      dup7\n        /* \"#utility.yul\":16179:16250   */\n      tag_181\n      jump\t// in\n    tag_386:\n        /* \"#utility.yul\":16260:16332   */\n      tag_387\n        /* \"#utility.yul\":16328:16330   */\n      0x20\n        /* \"#utility.yul\":16317:16326   */\n      dup4\n        /* \"#utility.yul\":16313:16331   */\n      add\n        /* \"#utility.yul\":16304:16310   */\n      dup6\n        /* \"#utility.yul\":16260:16332   */\n      tag_178\n      jump\t// in\n    tag_387:\n        /* \"#utility.yul\":16379:16388   */\n      dup2\n        /* \"#utility.yul\":16373:16377   */\n      dup2\n        /* \"#utility.yul\":16369:16389   */\n      sub\n        /* \"#utility.yul\":16364:16366   */\n      0x40\n        /* \"#utility.yul\":16353:16362   */\n      dup4\n        /* \"#utility.yul\":16349:16367   */\n      add\n        /* \"#utility.yul\":16342:16390   */\n      mstore\n        /* \"#utility.yul\":16407:16483   */\n      tag_388\n        /* \"#utility.yul\":16478:16482   */\n      dup2\n        /* \"#utility.yul\":16469:16475   */\n      dup5\n        /* \"#utility.yul\":16407:16483   */\n      tag_214\n      jump\t// in\n    tag_388:\n        /* \"#utility.yul\":16399:16483   */\n      swap1\n      pop\n        /* \"#utility.yul\":15961:16490   */\n      swap5\n      swap4\n      pop\n      pop\n      pop\n      pop\n      jump\t// out\n        /* \"#utility.yul\":16496:16676   */\n    tag_148:\n        /* \"#utility.yul\":16544:16621   */\n      0x4e487b7100000000000000000000000000000000000000000000000000000000\n        /* \"#utility.yul\":16541:16542   */\n      0x00\n        /* \"#utility.yul\":16534:16622   */\n      mstore\n        /* \"#utility.yul\":16641:16645   */\n      0x41\n        /* \"#utility.yul\":16638:16639   */\n      0x04\n        /* \"#utility.yul\":16631:16646   */\n      mstore\n        /* \"#utility.yul\":16665:16669   */\n      0x24\n        /* \"#utility.yul\":16662:16663   */\n      0x00\n        /* \"#utility.yul\":16655:16670   */\n      revert\n        /* \"#utility.yul\":16682:16858   */\n    tag_154:\n        /* \"#utility.yul\":16714:16715   */\n      0x00\n        /* \"#utility.yul\":16731:16751   */\n      tag_391\n        /* \"#utility.yul\":16749:16750   */\n      dup3\n        /* \"#utility.yul\":16731:16751   */\n      tag_177\n      jump\t// in\n    tag_391:\n        /* \"#utility.yul\":16726:16751   */\n      swap2\n      pop\n        /* \"#utility.yul\":16765:16785   */\n      tag_392\n        /* \"#utility.yul\":16783:16784   */\n      dup4\n        /* \"#utility.yul\":16765:16785   */\n      tag_177\n      jump\t// in\n    tag_392:\n        /* \"#utility.yul\":16760:16785   */\n      swap3\n      pop\n        /* \"#utility.yul\":16804:16805   */\n      dup3\n        /* \"#utility.yul\":16794:16829   */\n      tag_393\n      jumpi\n        /* \"#utility.yul\":16809:16827   */\n      tag_394\n      tag_195\n      jump\t// in\n    tag_394:\n        /* \"#utility.yul\":16794:16829   */\n    tag_393:\n        /* \"#utility.yul\":16850:16851   */\n      dup3\n        /* \"#utility.yul\":16847:16848   */\n      dup3\n        /* \"#utility.yul\":16843:16852   */\n      mod\n        /* \"#utility.yul\":16838:16852   */\n      swap1\n      pop\n        /* \"#utility.yul\":16682:16858   */\n      swap3\n      swap2\n      pop\n      pop\n      jump\t// out\n        /* \"#utility.yul\":16864:17196   */\n    tag_161:\n        /* \"#utility.yul\":16985:16989   */\n      0x00\n        /* \"#utility.yul\":17023:17025   */\n      0x40\n        /* \"#utility.yul\":17012:17021   */\n      dup3\n        /* \"#utility.yul\":17008:17026   */\n      add\n        /* \"#utility.yul\":17000:17026   */\n      swap1\n      pop\n        /* \"#utility.yul\":17036:17107   */\n      tag_396\n        /* \"#utility.yul\":17104:17105   */\n      0x00\n        /* \"#utility.yul\":17093:17102   */\n      dup4\n        /* \"#utility.yul\":17089:17106   */\n      add\n        /* \"#utility.yul\":17080:17086   */\n      dup6\n        /* \"#utility.yul\":17036:17107   */\n      tag_178\n      jump\t// in\n    tag_396:\n        /* \"#utility.yul\":17117:17189   */\n      tag_397\n        /* \"#utility.yul\":17185:17187   */\n      0x20\n        /* \"#utility.yul\":17174:17183   */\n      dup4\n        /* \"#utility.yul\":17170:17188   */\n      add\n        /* \"#utility.yul\":17161:17167   */\n      dup5\n        /* \"#utility.yul\":17117:17189   */\n      tag_178\n      jump\t// in\n    tag_397:\n        /* \"#utility.yul\":16864:17196   */\n      swap4\n      swap3\n      pop\n      pop\n      pop\n      jump\t// out\n        /* \"#utility.yul\":17202:17316   */\n    tag_215:\n        /* \"#utility.yul\":17269:17275   */\n      0x00\n        /* \"#utility.yul\":17303:17308   */\n      dup2\n        /* \"#utility.yul\":17297:17309   */\n      mload\n        /* \"#utility.yul\":17287:17309   */\n      swap1\n      pop\n        /* \"#utility.yul\":17202:17316   */\n      swap2\n      swap1\n      pop\n      jump\t// out\n        /* \"#utility.yul\":17322:17506   */\n    tag_216:\n        /* \"#utility.yul\":17421:17432   */\n      0x00\n        /* \"#utility.yul\":17455:17461   */\n      dup3\n        /* \"#utility.yul\":17450:17453   */\n      dup3\n        /* \"#utility.yul\":17443:17462   */\n      mstore\n        /* \"#utility.yul\":17495:17499   */\n      0x20\n        /* \"#utility.yul\":17490:17493   */\n      dup3\n        /* \"#utility.yul\":17486:17500   */\n      add\n        /* \"#utility.yul\":17471:17500   */\n      swap1\n      pop\n        /* \"#utility.yul\":17322:17506   */\n      swap3\n      swap2\n      pop\n      pop\n      jump\t// out\n        /* \"#utility.yul\":17512:17644   */\n    tag_217:\n        /* \"#utility.yul\":17579:17583   */\n      0x00\n        /* \"#utility.yul\":17602:17605   */\n      dup2\n        /* \"#utility.yul\":17594:17605   */\n      swap1\n      pop\n        /* \"#utility.yul\":17632:17636   */\n      0x20\n        /* \"#utility.yul\":17627:17630   */\n      dup3\n        /* \"#utility.yul\":17623:17637   */\n      add\n        /* \"#utility.yul\":17615:17637   */\n      swap1\n      pop\n        /* \"#utility.yul\":17512:17644   */\n      swap2\n      swap1\n      pop\n      jump\t// out\n        /* \"#utility.yul\":17650:17758   */\n    tag_218:\n        /* \"#utility.yul\":17727:17751   */\n      tag_402\n        /* \"#utility.yul\":17745:17750   */\n      dup2\n        /* \"#utility.yul\":17727:17751   */\n      tag_174\n      jump\t// in\n    tag_402:\n        /* \"#utility.yul\":17722:17725   */\n      dup3\n        /* \"#utility.yul\":17715:17752   */\n      mstore\n        /* \"#utility.yul\":17650:17758   */\n      pop\n      pop\n      jump\t// out\n        /* \"#utility.yul\":17764:17943   */\n    tag_219:\n        /* \"#utility.yul\":17833:17843   */\n      0x00\n        /* \"#utility.yul\":17854:17900   */\n      tag_404\n        /* \"#utility.yul\":17896:17899   */\n      dup4\n        /* \"#utility.yul\":17888:17894   */\n      dup4\n        /* \"#utility.yul\":17854:17900   */\n      tag_218\n      jump\t// in\n    tag_404:\n        /* \"#utility.yul\":17932:17936   */\n      0x20\n        /* \"#utility.yul\":17927:17930   */\n      dup4\n        /* \"#utility.yul\":17923:17937   */\n      add\n        /* \"#utility.yul\":17909:17937   */\n      swap1\n      pop\n        /* \"#utility.yul\":17764:17943   */\n      swap3\n      swap2\n      pop\n      pop\n      jump\t// out\n        /* \"#utility.yul\":17949:18062   */\n    tag_220:\n        /* \"#utility.yul\":18019:18023   */\n      0x00\n        /* \"#utility.yul\":18051:18055   */\n      0x20\n        /* \"#utility.yul\":18046:18049   */\n      dup3\n        /* \"#utility.yul\":18042:18056   */\n      add\n        /* \"#utility.yul\":18034:18056   */\n      swap1\n      pop\n        /* \"#utility.yul\":17949:18062   */\n      swap2\n      swap1\n      pop\n      jump\t// out\n        /* \"#utility.yul\":18098:18830   */\n    tag_221:\n        /* \"#utility.yul\":18217:18220   */\n      0x00\n        /* \"#utility.yul\":18246:18300   */\n      tag_407\n        /* \"#utility.yul\":18294:18299   */\n      dup3\n        /* \"#utility.yul\":18246:18300   */\n      tag_215\n      jump\t// in\n    tag_407:\n        /* \"#utility.yul\":18316:18402   */\n      tag_408\n        /* \"#utility.yul\":18395:18401   */\n      dup2\n        /* \"#utility.yul\":18390:18393   */\n      dup6\n        /* \"#utility.yul\":18316:18402   */\n      tag_216\n      jump\t// in\n    tag_408:\n        /* \"#utility.yul\":18309:18402   */\n      swap4\n      pop\n        /* \"#utility.yul\":18426:18482   */\n      tag_409\n        /* \"#utility.yul\":18476:18481   */\n      dup4\n        /* \"#utility.yul\":18426:18482   */\n      tag_217\n      jump\t// in\n    tag_409:\n        /* \"#utility.yul\":18505:18512   */\n      dup1\n        /* \"#utility.yul\":18536:18537   */\n      0x00\n        /* \"#utility.yul\":18521:18805   */\n    tag_410:\n        /* \"#utility.yul\":18546:18552   */\n      dup4\n        /* \"#utility.yul\":18543:18544   */\n      dup2\n        /* \"#utility.yul\":18540:18553   */\n      lt\n        /* \"#utility.yul\":18521:18805   */\n      iszero\n      tag_412\n      jumpi\n        /* \"#utility.yul\":18622:18628   */\n      dup2\n        /* \"#utility.yul\":18616:18629   */\n      mload\n        /* \"#utility.yul\":18649:18712   */\n      tag_413\n        /* \"#utility.yul\":18708:18711   */\n      dup9\n        /* \"#utility.yul\":18693:18706   */\n      dup3\n        /* \"#utility.yul\":18649:18712   */\n      tag_219\n      jump\t// in\n    tag_413:\n        /* \"#utility.yul\":18642:18712   */\n      swap8\n      pop\n        /* \"#utility.yul\":18735:18795   */\n      tag_414\n        /* \"#utility.yul\":18788:18794   */\n      dup4\n        /* \"#utility.yul\":18735:18795   */\n      tag_220\n      jump\t// in\n    tag_414:\n        /* \"#utility.yul\":18725:18795   */\n      swap3\n      pop\n        /* \"#utility.yul\":18581:18805   */\n      pop\n        /* \"#utility.yul\":18568:18569   */\n      0x01\n        /* \"#utility.yul\":18565:18566   */\n      dup2\n        /* \"#utility.yul\":18561:18570   */\n      add\n        /* \"#utility.yul\":18556:18570   */\n      swap1\n      pop\n        /* \"#utility.yul\":18521:18805   */\n      jump(tag_410)\n    tag_412:\n        /* \"#utility.yul\":18525:18539   */\n      pop\n        /* \"#utility.yul\":18821:18824   */\n      dup6\n        /* \"#utility.yul\":18814:18824   */\n      swap4\n      pop\n        /* \"#utility.yul\":18222:18830   */\n      pop\n      pop\n      pop\n        /* \"#utility.yul\":18098:18830   */\n      swap3\n      swap2\n      pop\n      pop\n      jump\t// out\n        /* \"#utility.yul\":18836:19209   */\n    tag_163:\n        /* \"#utility.yul\":18979:18983   */\n      0x00\n        /* \"#utility.yul\":19017:19019   */\n      0x20\n        /* \"#utility.yul\":19006:19015   */\n      dup3\n        /* \"#utility.yul\":19002:19020   */\n      add\n        /* \"#utility.yul\":18994:19020   */\n      swap1\n      pop\n        /* \"#utility.yul\":19066:19075   */\n      dup2\n        /* \"#utility.yul\":19060:19064   */\n      dup2\n        /* \"#utility.yul\":19056:19076   */\n      sub\n        /* \"#utility.yul\":19052:19053   */\n      0x00\n        /* \"#utility.yul\":19041:19050   */\n      dup4\n        /* \"#utility.yul\":19037:19054   */\n      add\n        /* \"#utility.yul\":19030:19077   */\n      mstore\n        /* \"#utility.yul\":19094:19202   */\n      tag_416\n        /* \"#utility.yul\":19197:19201   */\n      dup2\n        /* \"#utility.yul\":19188:19194   */\n      dup5\n        /* \"#utility.yul\":19094:19202   */\n      tag_221\n      jump\t// in\n    tag_416:\n        /* \"#utility.yul\":19086:19202   */\n      swap1\n      pop\n        /* \"#utility.yul\":18836:19209   */\n      swap3\n      swap2\n      pop\n      pop\n      jump\t// out\n        /* \"#utility.yul\":19215:19768   */\n    tag_166:\n        /* \"#utility.yul\":19392:19396   */\n      0x00\n        /* \"#utility.yul\":19430:19433   */\n      0x80\n        /* \"#utility.yul\":19419:19428   */\n      dup3\n        /* \"#utility.yul\":19415:19434   */\n      add\n        /* \"#utility.yul\":19407:19434   */\n      swap1\n      pop\n        /* \"#utility.yul\":19444:19515   */\n      tag_418\n        /* \"#utility.yul\":19512:19513   */\n      0x00\n        /* \"#utility.yul\":19501:19510   */\n      dup4\n        /* \"#utility.yul\":19497:19514   */\n      add\n        /* \"#utility.yul\":19488:19494   */\n      dup8\n        /* \"#utility.yul\":19444:19515   */\n      tag_183\n      jump\t// in\n    tag_418:\n        /* \"#utility.yul\":19525:19597   */\n      tag_419\n        /* \"#utility.yul\":19593:19595   */\n      0x20\n        /* \"#utility.yul\":19582:19591   */\n      dup4\n        /* \"#utility.yul\":19578:19596   */\n      add\n        /* \"#utility.yul\":19569:19575   */\n      dup7\n        /* \"#utility.yul\":19525:19597   */\n      tag_178\n      jump\t// in\n    tag_419:\n        /* \"#utility.yul\":19607:19679   */\n      tag_420\n        /* \"#utility.yul\":19675:19677   */\n      0x40\n        /* \"#utility.yul\":19664:19673   */\n      dup4\n        /* \"#utility.yul\":19660:19678   */\n      add\n        /* \"#utility.yul\":19651:19657   */\n      dup6\n        /* \"#utility.yul\":19607:19679   */\n      tag_181\n      jump\t// in\n    tag_420:\n        /* \"#utility.yul\":19689:19761   */\n      tag_421\n        /* \"#utility.yul\":19757:19759   */\n      0x60\n        /* \"#utility.yul\":19746:19755   */\n      dup4\n        /* \"#utility.yul\":19742:19760   */\n      add\n        /* \"#utility.yul\":19733:19739   */\n      dup5\n        /* \"#utility.yul\":19689:19761   */\n      tag_178\n      jump\t// in\n    tag_421:\n        /* \"#utility.yul\":19215:19768   */\n      swap6\n      swap5\n      pop\n      pop\n      pop\n      pop\n      pop\n      jump\t// out\n        /* \"#utility.yul\":19774:19853   */\n    tag_222:\n        /* \"#utility.yul\":19813:19820   */\n      0x00\n        /* \"#utility.yul\":19842:19847   */\n      dup2\n        /* \"#utility.yul\":19831:19847   */\n      swap1\n      pop\n        /* \"#utility.yul\":19774:19853   */\n      swap2\n      swap1\n      pop\n      jump\t// out\n        /* \"#utility.yul\":19859:20016   */\n    tag_223:\n        /* \"#utility.yul\":19964:20009   */\n      tag_424\n        /* \"#utility.yul\":19984:20008   */\n      tag_425\n        /* \"#utility.yul\":20002:20007   */\n      dup3\n        /* \"#utility.yul\":19984:20008   */\n      tag_182\n      jump\t// in\n    tag_425:\n        /* \"#utility.yul\":19964:20009   */\n      tag_222\n      jump\t// in\n    tag_424:\n        /* \"#utility.yul\":19959:19962   */\n      dup3\n        /* \"#utility.yul\":19952:20010   */\n      mstore\n        /* \"#utility.yul\":19859:20016   */\n      pop\n      pop\n      jump\t// out\n        /* \"#utility.yul\":20022:20101   */\n    tag_224:\n        /* \"#utility.yul\":20061:20068   */\n      0x00\n        /* \"#utility.yul\":20090:20095   */\n      dup2\n        /* \"#utility.yul\":20079:20095   */\n      swap1\n      pop\n        /* \"#utility.yul\":20022:20101   */\n      swap2\n      swap1\n      pop\n      jump\t// out\n        /* \"#utility.yul\":20107:20264   */\n    tag_225:\n        /* \"#utility.yul\":20212:20257   */\n      tag_428\n        /* \"#utility.yul\":20232:20256   */\n      tag_429\n        /* \"#utility.yul\":20250:20255   */\n      dup3\n        /* \"#utility.yul\":20232:20256   */\n      tag_177\n      jump\t// in\n    tag_429:\n        /* \"#utility.yul\":20212:20257   */\n      tag_224\n      jump\t// in\n    tag_428:\n        /* \"#utility.yul\":20207:20210   */\n      dup3\n        /* \"#utility.yul\":20200:20258   */\n      mstore\n        /* \"#utility.yul\":20107:20264   */\n      pop\n      pop\n      jump\t// out\n        /* \"#utility.yul\":20270:20667   */\n    tag_169:\n        /* \"#utility.yul\":20410:20413   */\n      0x00\n        /* \"#utility.yul\":20425:20500   */\n      tag_431\n        /* \"#utility.yul\":20496:20499   */\n      dup3\n        /* \"#utility.yul\":20487:20493   */\n      dup6\n        /* \"#utility.yul\":20425:20500   */\n      tag_223\n      jump\t// in\n    tag_431:\n        /* \"#utility.yul\":20525:20527   */\n      0x20\n        /* \"#utility.yul\":20520:20523   */\n      dup3\n        /* \"#utility.yul\":20516:20528   */\n      add\n        /* \"#utility.yul\":20509:20528   */\n      swap2\n      pop\n        /* \"#utility.yul\":20538:20613   */\n      tag_432\n        /* \"#utility.yul\":20609:20612   */\n      dup3\n        /* \"#utility.yul\":20600:20606   */\n      dup5\n        /* \"#utility.yul\":20538:20613   */\n      tag_225\n      jump\t// in\n    tag_432:\n        /* \"#utility.yul\":20638:20640   */\n      0x20\n        /* \"#utility.yul\":20633:20636   */\n      dup3\n        /* \"#utility.yul\":20629:20641   */\n      add\n        /* \"#utility.yul\":20622:20641   */\n      swap2\n      pop\n        /* \"#utility.yul\":20658:20661   */\n      dup2\n        /* \"#utility.yul\":20651:20661   */\n      swap1\n      pop\n        /* \"#utility.yul\":20270:20667   */\n      swap4\n      swap3\n      pop\n      pop\n      pop\n      jump\t// out\n\n    auxdata: 0xa2646970667358221220ba1cdf292de2d09bdad1fedee8e7650d20b372e12d6ee0ddfc9a2058be3d4be364736f6c634300081a0033\n}\n",
				"bytecode": {
					"linkReferences": {},
					"object": "60c060405268056bc75e2d6310000060075569021e19e0c9bab2400000600855600a60095534801561002f575f80fd5b50604051611a5f380380611a5f833981810160405281019061005191906101d9565b83838173ffffffffffffffffffffffffffffffffffffffff1660a08173ffffffffffffffffffffffffffffffffffffffff16815250508073ffffffffffffffffffffffffffffffffffffffff1660808173ffffffffffffffffffffffffffffffffffffffff168152505050508460015f6101000a81548173ffffffffffffffffffffffffffffffffffffffff021916908373ffffffffffffffffffffffffffffffffffffffff16021790555081600481905550806005819055505050505050610250565b5f80fd5b5f73ffffffffffffffffffffffffffffffffffffffff82169050919050565b5f61014282610119565b9050919050565b61015281610138565b811461015c575f80fd5b50565b5f8151905061016d81610149565b92915050565b5f819050919050565b61018581610173565b811461018f575f80fd5b50565b5f815190506101a08161017c565b92915050565b5f819050919050565b6101b8816101a6565b81146101c2575f80fd5b50565b5f815190506101d3816101af565b92915050565b5f805f805f60a086880312156101f2576101f1610115565b5b5f6101ff8882890161015f565b95505060206102108882890161015f565b94505060406102218882890161015f565b935050606061023288828901610192565b9250506080610243888289016101c5565b9150509295509295909350565b60805160a0516117e061027f5f395f81816109090152610a0d01525f81816107cc01526109d101526117e05ff3fe608060405234801561000f575f80fd5b50600436106100a7575f3560e01c80637547c7a31161006f5780637547c7a3146101515780637cd38ff81461016d5780639233be0d1461019d57806394985ddd146101cd578063c9cf5ddf146101e9578063ea1b28e014610207576100a7565b806316934fc4146100ab578063266d3730146100db578063375b3c0a146100f9578063608e4dd0146101175780636ca3310914610133575b5f80fd5b6100c560048036038101906100c09190610d4a565b610225565b6040516100d29190610d8d565b60405180910390f35b6100e361023a565b6040516100f09190610d8d565b60405180910390f35b610101610240565b60405161010e9190610d8d565b60405180910390f35b610131600480360381019061012c9190610dd0565b610246565b005b61013b6105a6565b6040516101489190610d8d565b60405180910390f35b61016b60048036038101906101669190610dd0565b6105ac565b005b61018760048036038101906101829190610dd0565b61078b565b6040516101949190610e0a565b60405180910390f35b6101b760048036038101906101b29190610dd0565b6107c6565b6040516101c49190610e3b565b60405180910390f35b6101e760048036038101906101e29190610e7e565b610907565b005b6101f16109a3565b6040516101fe9190610f17565b60405180910390f35b61020f6109c8565b60405161021c9190610d8d565b60405180910390f35b6002602052805f5260405f205f915090505481565b60065481565b60075481565b8060025f3373ffffffffffffffffffffffffffffffffffffffff1673ffffffffffffffffffffffffffffffffffffffff1681526020019081526020015f205410156102c6576040517f08c379a00000000000000000000000000000000000000000000000000000000081526004016102bd90610f8a565b60405180910390fd5b5f6064600954836102d79190610fd5565b6102e19190611043565b90505f81836102f09190611073565b90508260025f3373ffffffffffffffffffffffffffffffffffffffff1673ffffffffffffffffffffffffffffffffffffffff1681526020019081526020015f205f82825461033e9190611073565b9250508190555060015f9054906101000a900473ffffffffffffffffffffffffffffffffffffffff1673ffffffffffffffffffffffffffffffffffffffff1663a9059cbb33836040518363ffffffff1660e01b81526004016103a19291906110a6565b6020604051808303815f875af11580156103bd573d5f803e3d5ffd5b505050506040513d601f19601f820116820180604052508101906103e19190611102565b505f60025f3373ffffffffffffffffffffffffffffffffffffffff1673ffffffffffffffffffffffffffffffffffffffff1681526020019081526020015f2054036105a1575f5b60038054905081101561059f573373ffffffffffffffffffffffffffffffffffffffff16600382815481106104605761045f61112d565b5b905f5260205f20015f9054906101000a900473ffffffffffffffffffffffffffffffffffffffff1673ffffffffffffffffffffffffffffffffffffffff160361059257600360016003805490506104b79190611073565b815481106104c8576104c761112d565b5b905f5260205f20015f9054906101000a900473ffffffffffffffffffffffffffffffffffffffff16600382815481106105045761050361112d565b5b905f5260205f20015f6101000a81548173ffffffffffffffffffffffffffffffffffffffff021916908373ffffffffffffffffffffffffffffffffffffffff160217905550600380548061055b5761055a61115a565b5b600190038181905f5260205f20015f6101000a81549073ffffffffffffffffffffffffffffffffffffffff0219169055905561059f565b8080600101915050610428565b505b505050565b60095481565b6007548110156105f1576040517f08c379a00000000000000000000000000000000000000000000000000000000081526004016105e8906111f7565b60405180910390fd5b600854811115610636576040517f08c379a000000000000000000000000000000000000000000000000000000000815260040161062d90611285565b60405180910390fd5b60015f9054906101000a900473ffffffffffffffffffffffffffffffffffffffff1673ffffffffffffffffffffffffffffffffffffffff166323b872dd3330846040518463ffffffff1660e01b8152600401610694939291906112a3565b6020604051808303815f875af11580156106b0573d5f803e3d5ffd5b505050506040513d601f19601f820116820180604052508101906106d49190611102565b508060025f3373ffffffffffffffffffffffffffffffffffffffff1673ffffffffffffffffffffffffffffffffffffffff1681526020019081526020015f205f82825461072191906112d8565b92505081905550600333908060018154018082558091505060019003905f5260205f20015f9091909190916101000a81548173ffffffffffffffffffffffffffffffffffffffff021916908373ffffffffffffffffffffffffffffffffffffffff16021790555050565b6003818154811061079a575f80fd5b905f5260205f20015f915054906101000a900473ffffffffffffffffffffffffffffffffffffffff1681565b5f6005547f000000000000000000000000000000000000000000000000000000000000000073ffffffffffffffffffffffffffffffffffffffff166370a08231306040518263ffffffff1660e01b81526004016108239190610e0a565b602060405180830381865afa15801561083e573d5f803e3d5ffd5b505050506040513d601f19601f82011682018060405250810190610862919061131f565b10156108a3576040517f08c379a000000000000000000000000000000000000000000000000000000000815260040161089a906113ba565b60405180910390fd5b6003805490508211156108eb576040517f08c379a00000000000000000000000000000000000000000000000000000000081526004016108e290611448565b60405180910390fd5b816006819055506109006004546005546109ce565b9050919050565b7f000000000000000000000000000000000000000000000000000000000000000073ffffffffffffffffffffffffffffffffffffffff163373ffffffffffffffffffffffffffffffffffffffff1614610995576040517f08c379a000000000000000000000000000000000000000000000000000000000815260040161098c906114b0565b60405180910390fd5b61099f8282610b11565b5050565b60015f9054906101000a900473ffffffffffffffffffffffffffffffffffffffff1681565b60085481565b5f7f000000000000000000000000000000000000000000000000000000000000000073ffffffffffffffffffffffffffffffffffffffff16634000aea07f000000000000000000000000000000000000000000000000000000000000000084865f604051602001610a409291906114ce565b6040516020818303038152906040526040518463ffffffff1660e01b8152600401610a6d93929190611565565b6020604051808303815f875af1158015610a89573d5f803e3d5ffd5b505050506040513d601f19601f82011682018060405250810190610aad9190611102565b505f610acb845f305f808981526020019081526020015f2054610c80565b905060015f808681526020019081526020015f2054610aea91906112d8565b5f808681526020019081526020015f2081905550610b088482610cba565b91505092915050565b5f60065467ffffffffffffffff811115610b2e57610b2d6115a1565b5b604051908082528060200260200182016040528015610b5c5781602001602082028036833780820191505090505b5090505f5b600654811015610c43575f60038054905084610b7d91906115ce565b905060038181548110610b9357610b9261112d565b5b905f5260205f20015f9054906101000a900473ffffffffffffffffffffffffffffffffffffffff16838381518110610bce57610bcd61112d565b5b602002602001019073ffffffffffffffffffffffffffffffffffffffff16908173ffffffffffffffffffffffffffffffffffffffff16815250508382604051602001610c1b9291906115fe565b604051602081830303815290604052805190602001205f1c9350508080600101915050610b61565b507fc97825e5374b835cdcd76e5da76fc12b913fbb7c548601763fa1abd26054f08381604051610c7391906116dc565b60405180910390a1505050565b5f84848484604051602001610c9894939291906116fc565b604051602081830303815290604052805190602001205f1c9050949350505050565b5f8282604051602001610cce92919061177f565b60405160208183030381529060405280519060200120905092915050565b5f80fd5b5f73ffffffffffffffffffffffffffffffffffffffff82169050919050565b5f610d1982610cf0565b9050919050565b610d2981610d0f565b8114610d33575f80fd5b50565b5f81359050610d4481610d20565b92915050565b5f60208284031215610d5f57610d5e610cec565b5b5f610d6c84828501610d36565b91505092915050565b5f819050919050565b610d8781610d75565b82525050565b5f602082019050610da05f830184610d7e565b92915050565b610daf81610d75565b8114610db9575f80fd5b50565b5f81359050610dca81610da6565b92915050565b5f60208284031215610de557610de4610cec565b5b5f610df284828501610dbc565b91505092915050565b610e0481610d0f565b82525050565b5f602082019050610e1d5f830184610dfb565b92915050565b5f819050919050565b610e3581610e23565b82525050565b5f602082019050610e4e5f830184610e2c565b92915050565b610e5d81610e23565b8114610e67575f80fd5b50565b5f81359050610e7881610e54565b92915050565b5f8060408385031215610e9457610e93610cec565b5b5f610ea185828601610e6a565b9250506020610eb285828601610dbc565b9150509250929050565b5f819050919050565b5f610edf610eda610ed584610cf0565b610ebc565b610cf0565b9050919050565b5f610ef082610ec5565b9050919050565b5f610f0182610ee6565b9050919050565b610f1181610ef7565b82525050565b5f602082019050610f2a5f830184610f08565b92915050565b5f82825260208201905092915050565b7f496e73756666696369656e74207374616b65642062616c616e636500000000005f82015250565b5f610f74601b83610f30565b9150610f7f82610f40565b602082019050919050565b5f6020820190508181035f830152610fa181610f68565b9050919050565b7f4e487b71000000000000000000000000000000000000000000000000000000005f52601160045260245ffd5b5f610fdf82610d75565b9150610fea83610d75565b9250828202610ff881610d75565b9150828204841483151761100f5761100e610fa8565b5b5092915050565b7f4e487b71000000000000000000000000000000000000000000000000000000005f52601260045260245ffd5b5f61104d82610d75565b915061105883610d75565b92508261106857611067611016565b5b828204905092915050565b5f61107d82610d75565b915061108883610d75565b92508282039050818111156110a05761109f610fa8565b5b92915050565b5f6040820190506110b95f830185610dfb565b6110c66020830184610d7e565b9392505050565b5f8115159050919050565b6110e1816110cd565b81146110eb575f80fd5b50565b5f815190506110fc816110d8565b92915050565b5f6020828403121561111757611116610cec565b5b5f611124848285016110ee565b91505092915050565b7f4e487b71000000000000000000000000000000000000000000000000000000005f52603260045260245ffd5b7f4e487b71000000000000000000000000000000000000000000000000000000005f52603160045260245ffd5b7f416d6f756e74206973206c657373207468616e20746865206d696e696d756d205f8201527f7374616b65207265717569726564000000000000000000000000000000000000602082015250565b5f6111e1602e83610f30565b91506111ec82611187565b604082019050919050565b5f6020820190508181035f83015261120e816111d5565b9050919050565b7f416d6f756e74206578636565647320746865206d6178696d756d207374616b655f8201527f20616c6c6f776564000000000000000000000000000000000000000000000000602082015250565b5f61126f602883610f30565b915061127a82611215565b604082019050919050565b5f6020820190508181035f83015261129c81611263565b9050919050565b5f6060820190506112b65f830186610dfb565b6112c36020830185610dfb565b6112d06040830184610d7e565b949350505050565b5f6112e282610d75565b91506112ed83610d75565b925082820190508082111561130557611304610fa8565b5b92915050565b5f8151905061131981610da6565b92915050565b5f6020828403121561133457611333610cec565b5b5f6113418482850161130b565b91505092915050565b7f4e6f7420656e6f756768204c494e4b202d2066696c6c20636f6e7472616374205f8201527f7769746820666175636574000000000000000000000000000000000000000000602082015250565b5f6113a4602b83610f30565b91506113af8261134a565b604082019050919050565b5f6020820190508181035f8301526113d181611398565b9050919050565b7f4e756d626572206f66206a75726f7273206578636565647320746865206e756d5f8201527f626572206f6620617661696c61626c65207061727469636970616e7473000000602082015250565b5f611432603d83610f30565b915061143d826113d8565b604082019050919050565b5f6020820190508181035f83015261145f81611426565b9050919050565b7f4f6e6c7920565246436f6f7264696e61746f722063616e2066756c66696c6c005f82015250565b5f61149a601f83610f30565b91506114a582611466565b602082019050919050565b5f6020820190508181035f8301526114c78161148e565b9050919050565b5f6040820190506114e15f830185610e2c565b6114ee6020830184610d7e565b9392505050565b5f81519050919050565b5f82825260208201905092915050565b8281835e5f83830152505050565b5f601f19601f8301169050919050565b5f611537826114f5565b61154181856114ff565b935061155181856020860161150f565b61155a8161151d565b840191505092915050565b5f6060820190506115785f830186610dfb565b6115856020830185610d7e565b8181036040830152611597818461152d565b9050949350505050565b7f4e487b71000000000000000000000000000000000000000000000000000000005f52604160045260245ffd5b5f6115d882610d75565b91506115e383610d75565b9250826115f3576115f2611016565b5b828206905092915050565b5f6040820190506116115f830185610d7e565b61161e6020830184610d7e565b9392505050565b5f81519050919050565b5f82825260208201905092915050565b5f819050602082019050919050565b61165781610d0f565b82525050565b5f611668838361164e565b60208301905092915050565b5f602082019050919050565b5f61168a82611625565b611694818561162f565b935061169f8361163f565b805f5b838110156116cf5781516116b6888261165d565b97506116c183611674565b9250506001810190506116a2565b5085935050505092915050565b5f6020820190508181035f8301526116f48184611680565b905092915050565b5f60808201905061170f5f830187610e2c565b61171c6020830186610d7e565b6117296040830185610dfb565b6117366060830184610d7e565b95945050505050565b5f819050919050565b61175961175482610e23565b61173f565b82525050565b5f819050919050565b61177961177482610d75565b61175f565b82525050565b5f61178a8285611748565b60208201915061179a8284611768565b602082019150819050939250505056fea2646970667358221220ba1cdf292de2d09bdad1fedee8e7650d20b372e12d6ee0ddfc9a2058be3d4be364736f6c634300081a0033",
					"opcodes": "PUSH1 0xC0 PUSH1 0x40 MSTORE PUSH9 0x56BC75E2D63100000 PUSH1 0x7 SSTORE PUSH10 0x21E19E0C9BAB2400000 PUSH1 0x8 SSTORE PUSH1 0xA PUSH1 0x9 SSTORE CALLVALUE DUP1 ISZERO PUSH2 0x2F JUMPI PUSH0 DUP1 REVERT JUMPDEST POP PUSH1 0x40 MLOAD PUSH2 0x1A5F CODESIZE SUB DUP1 PUSH2 0x1A5F DUP4 CODECOPY DUP2 DUP2 ADD PUSH1 0x40 MSTORE DUP2 ADD SWAP1 PUSH2 0x51 SWAP2 SWAP1 PUSH2 0x1D9 JUMP JUMPDEST DUP4 DUP4 DUP2 PUSH20 0xFFFFFFFFFFFFFFFFFFFFFFFFFFFFFFFFFFFFFFFF AND PUSH1 0xA0 DUP2 PUSH20 0xFFFFFFFFFFFFFFFFFFFFFFFFFFFFFFFFFFFFFFFF AND DUP2 MSTORE POP POP DUP1 PUSH20 0xFFFFFFFFFFFFFFFFFFFFFFFFFFFFFFFFFFFFFFFF AND PUSH1 0x80 DUP2 PUSH20 0xFFFFFFFFFFFFFFFFFFFFFFFFFFFFFFFFFFFFFFFF AND DUP2 MSTORE POP POP POP POP DUP5 PUSH1 0x1 PUSH0 PUSH2 0x100 EXP DUP2 SLOAD DUP2 PUSH20 0xFFFFFFFFFFFFFFFFFFFFFFFFFFFFFFFFFFFFFFFF MUL NOT AND SWAP1 DUP4 PUSH20 0xFFFFFFFFFFFFFFFFFFFFFFFFFFFFFFFFFFFFFFFF AND MUL OR SWAP1 SSTORE POP DUP2 PUSH1 0x4 DUP2 SWAP1 SSTORE POP DUP1 PUSH1 0x5 DUP2 SWAP1 SSTORE POP POP POP POP POP POP PUSH2 0x250 JUMP JUMPDEST PUSH0 DUP1 REVERT JUMPDEST PUSH0 PUSH20 0xFFFFFFFFFFFFFFFFFFFFFFFFFFFFFFFFFFFFFFFF DUP3 AND SWAP1 POP SWAP2 SWAP1 POP JUMP JUMPDEST PUSH0 PUSH2 0x142 DUP3 PUSH2 0x119 JUMP JUMPDEST SWAP1 POP SWAP2 SWAP1 POP JUMP JUMPDEST PUSH2 0x152 DUP2 PUSH2 0x138 JUMP JUMPDEST DUP2 EQ PUSH2 0x15C JUMPI PUSH0 DUP1 REVERT JUMPDEST POP JUMP JUMPDEST PUSH0 DUP2 MLOAD SWAP1 POP PUSH2 0x16D DUP2 PUSH2 0x149 JUMP JUMPDEST SWAP3 SWAP2 POP POP JUMP JUMPDEST PUSH0 DUP2 SWAP1 POP SWAP2 SWAP1 POP JUMP JUMPDEST PUSH2 0x185 DUP2 PUSH2 0x173 JUMP JUMPDEST DUP2 EQ PUSH2 0x18F JUMPI PUSH0 DUP1 REVERT JUMPDEST POP JUMP JUMPDEST PUSH0 DUP2 MLOAD SWAP1 POP PUSH2 0x1A0 DUP2 PUSH2 0x17C JUMP JUMPDEST SWAP3 SWAP2 POP POP JUMP JUMPDEST PUSH0 DUP2 SWAP1 POP SWAP2 SWAP1 POP JUMP JUMPDEST PUSH2 0x1B8 DUP2 PUSH2 0x1A6 JUMP JUMPDEST DUP2 EQ PUSH2 0x1C2 JUMPI PUSH0 DUP1 REVERT JUMPDEST POP JUMP JUMPDEST PUSH0 DUP2 MLOAD SWAP1 POP PUSH2 0x1D3 DUP2 PUSH2 0x1AF JUMP JUMPDEST SWAP3 SWAP2 POP POP JUMP JUMPDEST PUSH0 DUP1 PUSH0 DUP1 PUSH0 PUSH1 0xA0 DUP7 DUP9 SUB SLT ISZERO PUSH2 0x1F2 JUMPI PUSH2 0x1F1 PUSH2 0x115 JUMP JUMPDEST JUMPDEST PUSH0 PUSH2 0x1FF DUP9 DUP3 DUP10 ADD PUSH2 0x15F JUMP JUMPDEST SWAP6 POP POP PUSH1 0x20 PUSH2 0x210 DUP9 DUP3 DUP10 ADD PUSH2 0x15F JUMP JUMPDEST SWAP5 POP POP PUSH1 0x40 PUSH2 0x221 DUP9 DUP3 DUP10 ADD PUSH2 0x15F JUMP JUMPDEST SWAP4 POP POP PUSH1 0x60 PUSH2 0x232 DUP9 DUP3 DUP10 ADD PUSH2 0x192 JUMP JUMPDEST SWAP3 POP POP PUSH1 0x80 PUSH2 0x243 DUP9 DUP3 DUP10 ADD PUSH2 0x1C5 JUMP JUMPDEST SWAP2 POP POP SWAP3 SWAP6 POP SWAP3 SWAP6 SWAP1 SWAP4 POP JUMP JUMPDEST PUSH1 0x80 MLOAD PUSH1 0xA0 MLOAD PUSH2 0x17E0 PUSH2 0x27F PUSH0 CODECOPY PUSH0 DUP2 DUP2 PUSH2 0x909 ADD MSTORE PUSH2 0xA0D ADD MSTORE PUSH0 DUP2 DUP2 PUSH2 0x7CC ADD MSTORE PUSH2 0x9D1 ADD MSTORE PUSH2 0x17E0 PUSH0 RETURN INVALID PUSH1 0x80 PUSH1 0x40 MSTORE CALLVALUE DUP1 ISZERO PUSH2 0xF JUMPI PUSH0 DUP1 REVERT JUMPDEST POP PUSH1 0x4 CALLDATASIZE LT PUSH2 0xA7 JUMPI PUSH0 CALLDATALOAD PUSH1 0xE0 SHR DUP1 PUSH4 0x7547C7A3 GT PUSH2 0x6F JUMPI DUP1 PUSH4 0x7547C7A3 EQ PUSH2 0x151 JUMPI DUP1 PUSH4 0x7CD38FF8 EQ PUSH2 0x16D JUMPI DUP1 PUSH4 0x9233BE0D EQ PUSH2 0x19D JUMPI DUP1 PUSH4 0x94985DDD EQ PUSH2 0x1CD JUMPI DUP1 PUSH4 0xC9CF5DDF EQ PUSH2 0x1E9 JUMPI DUP1 PUSH4 0xEA1B28E0 EQ PUSH2 0x207 JUMPI PUSH2 0xA7 JUMP JUMPDEST DUP1 PUSH4 0x16934FC4 EQ PUSH2 0xAB JUMPI DUP1 PUSH4 0x266D3730 EQ PUSH2 0xDB JUMPI DUP1 PUSH4 0x375B3C0A EQ PUSH2 0xF9 JUMPI DUP1 PUSH4 0x608E4DD0 EQ PUSH2 0x117 JUMPI DUP1 PUSH4 0x6CA33109 EQ PUSH2 0x133 JUMPI JUMPDEST PUSH0 DUP1 REVERT JUMPDEST PUSH2 0xC5 PUSH1 0x4 DUP1 CALLDATASIZE SUB DUP2 ADD SWAP1 PUSH2 0xC0 SWAP2 SWAP1 PUSH2 0xD4A JUMP JUMPDEST PUSH2 0x225 JUMP JUMPDEST PUSH1 0x40 MLOAD PUSH2 0xD2 SWAP2 SWAP1 PUSH2 0xD8D JUMP JUMPDEST PUSH1 0x40 MLOAD DUP1 SWAP2 SUB SWAP1 RETURN JUMPDEST PUSH2 0xE3 PUSH2 0x23A JUMP JUMPDEST PUSH1 0x40 MLOAD PUSH2 0xF0 SWAP2 SWAP1 PUSH2 0xD8D JUMP JUMPDEST PUSH1 0x40 MLOAD DUP1 SWAP2 SUB SWAP1 RETURN JUMPDEST PUSH2 0x101 PUSH2 0x240 JUMP JUMPDEST PUSH1 0x40 MLOAD PUSH2 0x10E SWAP2 SWAP1 PUSH2 0xD8D JUMP JUMPDEST PUSH1 0x40 MLOAD DUP1 SWAP2 SUB SWAP1 RETURN JUMPDEST PUSH2 0x131 PUSH1 0x4 DUP1 CALLDATASIZE SUB DUP2 ADD SWAP1 PUSH2 0x12C SWAP2 SWAP1 PUSH2 0xDD0 JUMP JUMPDEST PUSH2 0x246 JUMP JUMPDEST STOP JUMPDEST PUSH2 0x13B PUSH2 0x5A6 JUMP JUMPDEST PUSH1 0x40 MLOAD PUSH2 0x148 SWAP2 SWAP1 PUSH2 0xD8D JUMP JUMPDEST PUSH1 0x40 MLOAD DUP1 SWAP2 SUB SWAP1 RETURN JUMPDEST PUSH2 0x16B PUSH1 0x4 DUP1 CALLDATASIZE SUB DUP2 ADD SWAP1 PUSH2 0x166 SWAP2 SWAP1 PUSH2 0xDD0 JUMP JUMPDEST PUSH2 0x5AC JUMP JUMPDEST STOP JUMPDEST PUSH2 0x187 PUSH1 0x4 DUP1 CALLDATASIZE SUB DUP2 ADD SWAP1 PUSH2 0x182 SWAP2 SWAP1 PUSH2 0xDD0 JUMP JUMPDEST PUSH2 0x78B JUMP JUMPDEST PUSH1 0x40 MLOAD PUSH2 0x194 SWAP2 SWAP1 PUSH2 0xE0A JUMP JUMPDEST PUSH1 0x40 MLOAD DUP1 SWAP2 SUB SWAP1 RETURN JUMPDEST PUSH2 0x1B7 PUSH1 0x4 DUP1 CALLDATASIZE SUB DUP2 ADD SWAP1 PUSH2 0x1B2 SWAP2 SWAP1 PUSH2 0xDD0 JUMP JUMPDEST PUSH2 0x7C6 JUMP JUMPDEST PUSH1 0x40 MLOAD PUSH2 0x1C4 SWAP2 SWAP1 PUSH2 0xE3B JUMP JUMPDEST PUSH1 0x40 MLOAD DUP1 SWAP2 SUB SWAP1 RETURN JUMPDEST PUSH2 0x1E7 PUSH1 0x4 DUP1 CALLDATASIZE SUB DUP2 ADD SWAP1 PUSH2 0x1E2 SWAP2 SWAP1 PUSH2 0xE7E JUMP JUMPDEST PUSH2 0x907 JUMP JUMPDEST STOP JUMPDEST PUSH2 0x1F1 PUSH2 0x9A3 JUMP JUMPDEST PUSH1 0x40 MLOAD PUSH2 0x1FE SWAP2 SWAP1 PUSH2 0xF17 JUMP JUMPDEST PUSH1 0x40 MLOAD DUP1 SWAP2 SUB SWAP1 RETURN JUMPDEST PUSH2 0x20F PUSH2 0x9C8 JUMP JUMPDEST PUSH1 0x40 MLOAD PUSH2 0x21C SWAP2 SWAP1 PUSH2 0xD8D JUMP JUMPDEST PUSH1 0x40 MLOAD DUP1 SWAP2 SUB SWAP1 RETURN JUMPDEST PUSH1 0x2 PUSH1 0x20 MSTORE DUP1 PUSH0 MSTORE PUSH1 0x40 PUSH0 KECCAK256 PUSH0 SWAP2 POP SWAP1 POP SLOAD DUP2 JUMP JUMPDEST PUSH1 0x6 SLOAD DUP2 JUMP JUMPDEST PUSH1 0x7 SLOAD DUP2 JUMP JUMPDEST DUP1 PUSH1 0x2 PUSH0 CALLER PUSH20 0xFFFFFFFFFFFFFFFFFFFFFFFFFFFFFFFFFFFFFFFF AND PUSH20 0xFFFFFFFFFFFFFFFFFFFFFFFFFFFFFFFFFFFFFFFF AND DUP2 MSTORE PUSH1 0x20 ADD SWAP1 DUP2 MSTORE PUSH1 0x20 ADD PUSH0 KECCAK256 SLOAD LT ISZERO PUSH2 0x2C6 JUMPI PUSH1 0x40 MLOAD PUSH32 0x8C379A000000000000000000000000000000000000000000000000000000000 DUP2 MSTORE PUSH1 0x4 ADD PUSH2 0x2BD SWAP1 PUSH2 0xF8A JUMP JUMPDEST PUSH1 0x40 MLOAD DUP1 SWAP2 SUB SWAP1 REVERT JUMPDEST PUSH0 PUSH1 0x64 PUSH1 0x9 SLOAD DUP4 PUSH2 0x2D7 SWAP2 SWAP1 PUSH2 0xFD5 JUMP JUMPDEST PUSH2 0x2E1 SWAP2 SWAP1 PUSH2 0x1043 JUMP JUMPDEST SWAP1 POP PUSH0 DUP2 DUP4 PUSH2 0x2F0 SWAP2 SWAP1 PUSH2 0x1073 JUMP JUMPDEST SWAP1 POP DUP3 PUSH1 0x2 PUSH0 CALLER PUSH20 0xFFFFFFFFFFFFFFFFFFFFFFFFFFFFFFFFFFFFFFFF AND PUSH20 0xFFFFFFFFFFFFFFFFFFFFFFFFFFFFFFFFFFFFFFFF AND DUP2 MSTORE PUSH1 0x20 ADD SWAP1 DUP2 MSTORE PUSH1 0x20 ADD PUSH0 KECCAK256 PUSH0 DUP3 DUP3 SLOAD PUSH2 0x33E SWAP2 SWAP1 PUSH2 0x1073 JUMP JUMPDEST SWAP3 POP POP DUP2 SWAP1 SSTORE POP PUSH1 0x1 PUSH0 SWAP1 SLOAD SWAP1 PUSH2 0x100 EXP SWAP1 DIV PUSH20 0xFFFFFFFFFFFFFFFFFFFFFFFFFFFFFFFFFFFFFFFF AND PUSH20 0xFFFFFFFFFFFFFFFFFFFFFFFFFFFFFFFFFFFFFFFF AND PUSH4 0xA9059CBB CALLER DUP4 PUSH1 0x40 MLOAD DUP4 PUSH4 0xFFFFFFFF AND PUSH1 0xE0 SHL DUP2 MSTORE PUSH1 0x4 ADD PUSH2 0x3A1 SWAP3 SWAP2 SWAP1 PUSH2 0x10A6 JUMP JUMPDEST PUSH1 0x20 PUSH1 0x40 MLOAD DUP1 DUP4 SUB DUP2 PUSH0 DUP8 GAS CALL ISZERO DUP1 ISZERO PUSH2 0x3BD JUMPI RETURNDATASIZE PUSH0 DUP1 RETURNDATACOPY RETURNDATASIZE PUSH0 REVERT JUMPDEST POP POP POP POP PUSH1 0x40 MLOAD RETURNDATASIZE PUSH1 0x1F NOT PUSH1 0x1F DUP3 ADD AND DUP3 ADD DUP1 PUSH1 0x40 MSTORE POP DUP2 ADD SWAP1 PUSH2 0x3E1 SWAP2 SWAP1 PUSH2 0x1102 JUMP JUMPDEST POP PUSH0 PUSH1 0x2 PUSH0 CALLER PUSH20 0xFFFFFFFFFFFFFFFFFFFFFFFFFFFFFFFFFFFFFFFF AND PUSH20 0xFFFFFFFFFFFFFFFFFFFFFFFFFFFFFFFFFFFFFFFF AND DUP2 MSTORE PUSH1 0x20 ADD SWAP1 DUP2 MSTORE PUSH1 0x20 ADD PUSH0 KECCAK256 SLOAD SUB PUSH2 0x5A1 JUMPI PUSH0 JUMPDEST PUSH1 0x3 DUP1 SLOAD SWAP1 POP DUP2 LT ISZERO PUSH2 0x59F JUMPI CALLER PUSH20 0xFFFFFFFFFFFFFFFFFFFFFFFFFFFFFFFFFFFFFFFF AND PUSH1 0x3 DUP3 DUP2 SLOAD DUP2 LT PUSH2 0x460 JUMPI PUSH2 0x45F PUSH2 0x112D JUMP JUMPDEST JUMPDEST SWAP1 PUSH0 MSTORE PUSH1 0x20 PUSH0 KECCAK256 ADD PUSH0 SWAP1 SLOAD SWAP1 PUSH2 0x100 EXP SWAP1 DIV PUSH20 0xFFFFFFFFFFFFFFFFFFFFFFFFFFFFFFFFFFFFFFFF AND PUSH20 0xFFFFFFFFFFFFFFFFFFFFFFFFFFFFFFFFFFFFFFFF AND SUB PUSH2 0x592 JUMPI PUSH1 0x3 PUSH1 0x1 PUSH1 0x3 DUP1 SLOAD SWAP1 POP PUSH2 0x4B7 SWAP2 SWAP1 PUSH2 0x1073 JUMP JUMPDEST DUP2 SLOAD DUP2 LT PUSH2 0x4C8 JUMPI PUSH2 0x4C7 PUSH2 0x112D JUMP JUMPDEST JUMPDEST SWAP1 PUSH0 MSTORE PUSH1 0x20 PUSH0 KECCAK256 ADD PUSH0 SWAP1 SLOAD SWAP1 PUSH2 0x100 EXP SWAP1 DIV PUSH20 0xFFFFFFFFFFFFFFFFFFFFFFFFFFFFFFFFFFFFFFFF AND PUSH1 0x3 DUP3 DUP2 SLOAD DUP2 LT PUSH2 0x504 JUMPI PUSH2 0x503 PUSH2 0x112D JUMP JUMPDEST JUMPDEST SWAP1 PUSH0 MSTORE PUSH1 0x20 PUSH0 KECCAK256 ADD PUSH0 PUSH2 0x100 EXP DUP2 SLOAD DUP2 PUSH20 0xFFFFFFFFFFFFFFFFFFFFFFFFFFFFFFFFFFFFFFFF MUL NOT AND SWAP1 DUP4 PUSH20 0xFFFFFFFFFFFFFFFFFFFFFFFFFFFFFFFFFFFFFFFF AND MUL OR SWAP1 SSTORE POP PUSH1 0x3 DUP1 SLOAD DUP1 PUSH2 0x55B JUMPI PUSH2 0x55A PUSH2 0x115A JUMP JUMPDEST JUMPDEST PUSH1 0x1 SWAP1 SUB DUP2 DUP2 SWAP1 PUSH0 MSTORE PUSH1 0x20 PUSH0 KECCAK256 ADD PUSH0 PUSH2 0x100 EXP DUP2 SLOAD SWAP1 PUSH20 0xFFFFFFFFFFFFFFFFFFFFFFFFFFFFFFFFFFFFFFFF MUL NOT AND SWAP1 SSTORE SWAP1 SSTORE PUSH2 0x59F JUMP JUMPDEST DUP1 DUP1 PUSH1 0x1 ADD SWAP2 POP POP PUSH2 0x428 JUMP JUMPDEST POP JUMPDEST POP POP POP JUMP JUMPDEST PUSH1 0x9 SLOAD DUP2 JUMP JUMPDEST PUSH1 0x7 SLOAD DUP2 LT ISZERO PUSH2 0x5F1 JUMPI PUSH1 0x40 MLOAD PUSH32 0x8C379A000000000000000000000000000000000000000000000000000000000 DUP2 MSTORE PUSH1 0x4 ADD PUSH2 0x5E8 SWAP1 PUSH2 0x11F7 JUMP JUMPDEST PUSH1 0x40 MLOAD DUP1 SWAP2 SUB SWAP1 REVERT JUMPDEST PUSH1 0x8 SLOAD DUP2 GT ISZERO PUSH2 0x636 JUMPI PUSH1 0x40 MLOAD PUSH32 0x8C379A000000000000000000000000000000000000000000000000000000000 DUP2 MSTORE PUSH1 0x4 ADD PUSH2 0x62D SWAP1 PUSH2 0x1285 JUMP JUMPDEST PUSH1 0x40 MLOAD DUP1 SWAP2 SUB SWAP1 REVERT JUMPDEST PUSH1 0x1 PUSH0 SWAP1 SLOAD SWAP1 PUSH2 0x100 EXP SWAP1 DIV PUSH20 0xFFFFFFFFFFFFFFFFFFFFFFFFFFFFFFFFFFFFFFFF AND PUSH20 0xFFFFFFFFFFFFFFFFFFFFFFFFFFFFFFFFFFFFFFFF AND PUSH4 0x23B872DD CALLER ADDRESS DUP5 PUSH1 0x40 MLOAD DUP5 PUSH4 0xFFFFFFFF AND PUSH1 0xE0 SHL DUP2 MSTORE PUSH1 0x4 ADD PUSH2 0x694 SWAP4 SWAP3 SWAP2 SWAP1 PUSH2 0x12A3 JUMP JUMPDEST PUSH1 0x20 PUSH1 0x40 MLOAD DUP1 DUP4 SUB DUP2 PUSH0 DUP8 GAS CALL ISZERO DUP1 ISZERO PUSH2 0x6B0 JUMPI RETURNDATASIZE PUSH0 DUP1 RETURNDATACOPY RETURNDATASIZE PUSH0 REVERT JUMPDEST POP POP POP POP PUSH1 0x40 MLOAD RETURNDATASIZE PUSH1 0x1F NOT PUSH1 0x1F DUP3 ADD AND DUP3 ADD DUP1 PUSH1 0x40 MSTORE POP DUP2 ADD SWAP1 PUSH2 0x6D4 SWAP2 SWAP1 PUSH2 0x1102 JUMP JUMPDEST POP DUP1 PUSH1 0x2 PUSH0 CALLER PUSH20 0xFFFFFFFFFFFFFFFFFFFFFFFFFFFFFFFFFFFFFFFF AND PUSH20 0xFFFFFFFFFFFFFFFFFFFFFFFFFFFFFFFFFFFFFFFF AND DUP2 MSTORE PUSH1 0x20 ADD SWAP1 DUP2 MSTORE PUSH1 0x20 ADD PUSH0 KECCAK256 PUSH0 DUP3 DUP3 SLOAD PUSH2 0x721 SWAP2 SWAP1 PUSH2 0x12D8 JUMP JUMPDEST SWAP3 POP POP DUP2 SWAP1 SSTORE POP PUSH1 0x3 CALLER SWAP1 DUP1 PUSH1 0x1 DUP2 SLOAD ADD DUP1 DUP3 SSTORE DUP1 SWAP2 POP POP PUSH1 0x1 SWAP1 SUB SWAP1 PUSH0 MSTORE PUSH1 0x20 PUSH0 KECCAK256 ADD PUSH0 SWAP1 SWAP2 SWAP1 SWAP2 SWAP1 SWAP2 PUSH2 0x100 EXP DUP2 SLOAD DUP2 PUSH20 0xFFFFFFFFFFFFFFFFFFFFFFFFFFFFFFFFFFFFFFFF MUL NOT AND SWAP1 DUP4 PUSH20 0xFFFFFFFFFFFFFFFFFFFFFFFFFFFFFFFFFFFFFFFF AND MUL OR SWAP1 SSTORE POP POP JUMP JUMPDEST PUSH1 0x3 DUP2 DUP2 SLOAD DUP2 LT PUSH2 0x79A JUMPI PUSH0 DUP1 REVERT JUMPDEST SWAP1 PUSH0 MSTORE PUSH1 0x20 PUSH0 KECCAK256 ADD PUSH0 SWAP2 POP SLOAD SWAP1 PUSH2 0x100 EXP SWAP1 DIV PUSH20 0xFFFFFFFFFFFFFFFFFFFFFFFFFFFFFFFFFFFFFFFF AND DUP2 JUMP JUMPDEST PUSH0 PUSH1 0x5 SLOAD PUSH32 0x0 PUSH20 0xFFFFFFFFFFFFFFFFFFFFFFFFFFFFFFFFFFFFFFFF AND PUSH4 0x70A08231 ADDRESS PUSH1 0x40 MLOAD DUP3 PUSH4 0xFFFFFFFF AND PUSH1 0xE0 SHL DUP2 MSTORE PUSH1 0x4 ADD PUSH2 0x823 SWAP2 SWAP1 PUSH2 0xE0A JUMP JUMPDEST PUSH1 0x20 PUSH1 0x40 MLOAD DUP1 DUP4 SUB DUP2 DUP7 GAS STATICCALL ISZERO DUP1 ISZERO PUSH2 0x83E JUMPI RETURNDATASIZE PUSH0 DUP1 RETURNDATACOPY RETURNDATASIZE PUSH0 REVERT JUMPDEST POP POP POP POP PUSH1 0x40 MLOAD RETURNDATASIZE PUSH1 0x1F NOT PUSH1 0x1F DUP3 ADD AND DUP3 ADD DUP1 PUSH1 0x40 MSTORE POP DUP2 ADD SWAP1 PUSH2 0x862 SWAP2 SWAP1 PUSH2 0x131F JUMP JUMPDEST LT ISZERO PUSH2 0x8A3 JUMPI PUSH1 0x40 MLOAD PUSH32 0x8C379A000000000000000000000000000000000000000000000000000000000 DUP2 MSTORE PUSH1 0x4 ADD PUSH2 0x89A SWAP1 PUSH2 0x13BA JUMP JUMPDEST PUSH1 0x40 MLOAD DUP1 SWAP2 SUB SWAP1 REVERT JUMPDEST PUSH1 0x3 DUP1 SLOAD SWAP1 POP DUP3 GT ISZERO PUSH2 0x8EB JUMPI PUSH1 0x40 MLOAD PUSH32 0x8C379A000000000000000000000000000000000000000000000000000000000 DUP2 MSTORE PUSH1 0x4 ADD PUSH2 0x8E2 SWAP1 PUSH2 0x1448 JUMP JUMPDEST PUSH1 0x40 MLOAD DUP1 SWAP2 SUB SWAP1 REVERT JUMPDEST DUP2 PUSH1 0x6 DUP2 SWAP1 SSTORE POP PUSH2 0x900 PUSH1 0x4 SLOAD PUSH1 0x5 SLOAD PUSH2 0x9CE JUMP JUMPDEST SWAP1 POP SWAP2 SWAP1 POP JUMP JUMPDEST PUSH32 0x0 PUSH20 0xFFFFFFFFFFFFFFFFFFFFFFFFFFFFFFFFFFFFFFFF AND CALLER PUSH20 0xFFFFFFFFFFFFFFFFFFFFFFFFFFFFFFFFFFFFFFFF AND EQ PUSH2 0x995 JUMPI PUSH1 0x40 MLOAD PUSH32 0x8C379A000000000000000000000000000000000000000000000000000000000 DUP2 MSTORE PUSH1 0x4 ADD PUSH2 0x98C SWAP1 PUSH2 0x14B0 JUMP JUMPDEST PUSH1 0x40 MLOAD DUP1 SWAP2 SUB SWAP1 REVERT JUMPDEST PUSH2 0x99F DUP3 DUP3 PUSH2 0xB11 JUMP JUMPDEST POP POP JUMP JUMPDEST PUSH1 0x1 PUSH0 SWAP1 SLOAD SWAP1 PUSH2 0x100 EXP SWAP1 DIV PUSH20 0xFFFFFFFFFFFFFFFFFFFFFFFFFFFFFFFFFFFFFFFF AND DUP2 JUMP JUMPDEST PUSH1 0x8 SLOAD DUP2 JUMP JUMPDEST PUSH0 PUSH32 0x0 PUSH20 0xFFFFFFFFFFFFFFFFFFFFFFFFFFFFFFFFFFFFFFFF AND PUSH4 0x4000AEA0 PUSH32 0x0 DUP5 DUP7 PUSH0 PUSH1 0x40 MLOAD PUSH1 0x20 ADD PUSH2 0xA40 SWAP3 SWAP2 SWAP1 PUSH2 0x14CE JUMP JUMPDEST PUSH1 0x40 MLOAD PUSH1 0x20 DUP2 DUP4 SUB SUB DUP2 MSTORE SWAP1 PUSH1 0x40 MSTORE PUSH1 0x40 MLOAD DUP5 PUSH4 0xFFFFFFFF AND PUSH1 0xE0 SHL DUP2 MSTORE PUSH1 0x4 ADD PUSH2 0xA6D SWAP4 SWAP3 SWAP2 SWAP1 PUSH2 0x1565 JUMP JUMPDEST PUSH1 0x20 PUSH1 0x40 MLOAD DUP1 DUP4 SUB DUP2 PUSH0 DUP8 GAS CALL ISZERO DUP1 ISZERO PUSH2 0xA89 JUMPI RETURNDATASIZE PUSH0 DUP1 RETURNDATACOPY RETURNDATASIZE PUSH0 REVERT JUMPDEST POP POP POP POP PUSH1 0x40 MLOAD RETURNDATASIZE PUSH1 0x1F NOT PUSH1 0x1F DUP3 ADD AND DUP3 ADD DUP1 PUSH1 0x40 MSTORE POP DUP2 ADD SWAP1 PUSH2 0xAAD SWAP2 SWAP1 PUSH2 0x1102 JUMP JUMPDEST POP PUSH0 PUSH2 0xACB DUP5 PUSH0 ADDRESS PUSH0 DUP1 DUP10 DUP2 MSTORE PUSH1 0x20 ADD SWAP1 DUP2 MSTORE PUSH1 0x20 ADD PUSH0 KECCAK256 SLOAD PUSH2 0xC80 JUMP JUMPDEST SWAP1 POP PUSH1 0x1 PUSH0 DUP1 DUP7 DUP2 MSTORE PUSH1 0x20 ADD SWAP1 DUP2 MSTORE PUSH1 0x20 ADD PUSH0 KECCAK256 SLOAD PUSH2 0xAEA SWAP2 SWAP1 PUSH2 0x12D8 JUMP JUMPDEST PUSH0 DUP1 DUP7 DUP2 MSTORE PUSH1 0x20 ADD SWAP1 DUP2 MSTORE PUSH1 0x20 ADD PUSH0 KECCAK256 DUP2 SWAP1 SSTORE POP PUSH2 0xB08 DUP5 DUP3 PUSH2 0xCBA JUMP JUMPDEST SWAP2 POP POP SWAP3 SWAP2 POP POP JUMP JUMPDEST PUSH0 PUSH1 0x6 SLOAD PUSH8 0xFFFFFFFFFFFFFFFF DUP2 GT ISZERO PUSH2 0xB2E JUMPI PUSH2 0xB2D PUSH2 0x15A1 JUMP JUMPDEST JUMPDEST PUSH1 0x40 MLOAD SWAP1 DUP1 DUP3 MSTORE DUP1 PUSH1 0x20 MUL PUSH1 0x20 ADD DUP3 ADD PUSH1 0x40 MSTORE DUP1 ISZERO PUSH2 0xB5C JUMPI DUP2 PUSH1 0x20 ADD PUSH1 0x20 DUP3 MUL DUP1 CALLDATASIZE DUP4 CALLDATACOPY DUP1 DUP3 ADD SWAP2 POP POP SWAP1 POP JUMPDEST POP SWAP1 POP PUSH0 JUMPDEST PUSH1 0x6 SLOAD DUP2 LT ISZERO PUSH2 0xC43 JUMPI PUSH0 PUSH1 0x3 DUP1 SLOAD SWAP1 POP DUP5 PUSH2 0xB7D SWAP2 SWAP1 PUSH2 0x15CE JUMP JUMPDEST SWAP1 POP PUSH1 0x3 DUP2 DUP2 SLOAD DUP2 LT PUSH2 0xB93 JUMPI PUSH2 0xB92 PUSH2 0x112D JUMP JUMPDEST JUMPDEST SWAP1 PUSH0 MSTORE PUSH1 0x20 PUSH0 KECCAK256 ADD PUSH0 SWAP1 SLOAD SWAP1 PUSH2 0x100 EXP SWAP1 DIV PUSH20 0xFFFFFFFFFFFFFFFFFFFFFFFFFFFFFFFFFFFFFFFF AND DUP4 DUP4 DUP2 MLOAD DUP2 LT PUSH2 0xBCE JUMPI PUSH2 0xBCD PUSH2 0x112D JUMP JUMPDEST JUMPDEST PUSH1 0x20 MUL PUSH1 0x20 ADD ADD SWAP1 PUSH20 0xFFFFFFFFFFFFFFFFFFFFFFFFFFFFFFFFFFFFFFFF AND SWAP1 DUP2 PUSH20 0xFFFFFFFFFFFFFFFFFFFFFFFFFFFFFFFFFFFFFFFF AND DUP2 MSTORE POP POP DUP4 DUP3 PUSH1 0x40 MLOAD PUSH1 0x20 ADD PUSH2 0xC1B SWAP3 SWAP2 SWAP1 PUSH2 0x15FE JUMP JUMPDEST PUSH1 0x40 MLOAD PUSH1 0x20 DUP2 DUP4 SUB SUB DUP2 MSTORE SWAP1 PUSH1 0x40 MSTORE DUP1 MLOAD SWAP1 PUSH1 0x20 ADD KECCAK256 PUSH0 SHR SWAP4 POP POP DUP1 DUP1 PUSH1 0x1 ADD SWAP2 POP POP PUSH2 0xB61 JUMP JUMPDEST POP PUSH32 0xC97825E5374B835CDCD76E5DA76FC12B913FBB7C548601763FA1ABD26054F083 DUP2 PUSH1 0x40 MLOAD PUSH2 0xC73 SWAP2 SWAP1 PUSH2 0x16DC JUMP JUMPDEST PUSH1 0x40 MLOAD DUP1 SWAP2 SUB SWAP1 LOG1 POP POP POP JUMP JUMPDEST PUSH0 DUP5 DUP5 DUP5 DUP5 PUSH1 0x40 MLOAD PUSH1 0x20 ADD PUSH2 0xC98 SWAP5 SWAP4 SWAP3 SWAP2 SWAP1 PUSH2 0x16FC JUMP JUMPDEST PUSH1 0x40 MLOAD PUSH1 0x20 DUP2 DUP4 SUB SUB DUP2 MSTORE SWAP1 PUSH1 0x40 MSTORE DUP1 MLOAD SWAP1 PUSH1 0x20 ADD KECCAK256 PUSH0 SHR SWAP1 POP SWAP5 SWAP4 POP POP POP POP JUMP JUMPDEST PUSH0 DUP3 DUP3 PUSH1 0x40 MLOAD PUSH1 0x20 ADD PUSH2 0xCCE SWAP3 SWAP2 SWAP1 PUSH2 0x177F JUMP JUMPDEST PUSH1 0x40 MLOAD PUSH1 0x20 DUP2 DUP4 SUB SUB DUP2 MSTORE SWAP1 PUSH1 0x40 MSTORE DUP1 MLOAD SWAP1 PUSH1 0x20 ADD KECCAK256 SWAP1 POP SWAP3 SWAP2 POP POP JUMP JUMPDEST PUSH0 DUP1 REVERT JUMPDEST PUSH0 PUSH20 0xFFFFFFFFFFFFFFFFFFFFFFFFFFFFFFFFFFFFFFFF DUP3 AND SWAP1 POP SWAP2 SWAP1 POP JUMP JUMPDEST PUSH0 PUSH2 0xD19 DUP3 PUSH2 0xCF0 JUMP JUMPDEST SWAP1 POP SWAP2 SWAP1 POP JUMP JUMPDEST PUSH2 0xD29 DUP2 PUSH2 0xD0F JUMP JUMPDEST DUP2 EQ PUSH2 0xD33 JUMPI PUSH0 DUP1 REVERT JUMPDEST POP JUMP JUMPDEST PUSH0 DUP2 CALLDATALOAD SWAP1 POP PUSH2 0xD44 DUP2 PUSH2 0xD20 JUMP JUMPDEST SWAP3 SWAP2 POP POP JUMP JUMPDEST PUSH0 PUSH1 0x20 DUP3 DUP5 SUB SLT ISZERO PUSH2 0xD5F JUMPI PUSH2 0xD5E PUSH2 0xCEC JUMP JUMPDEST JUMPDEST PUSH0 PUSH2 0xD6C DUP5 DUP3 DUP6 ADD PUSH2 0xD36 JUMP JUMPDEST SWAP2 POP POP SWAP3 SWAP2 POP POP JUMP JUMPDEST PUSH0 DUP2 SWAP1 POP SWAP2 SWAP1 POP JUMP JUMPDEST PUSH2 0xD87 DUP2 PUSH2 0xD75 JUMP JUMPDEST DUP3 MSTORE POP POP JUMP JUMPDEST PUSH0 PUSH1 0x20 DUP3 ADD SWAP1 POP PUSH2 0xDA0 PUSH0 DUP4 ADD DUP5 PUSH2 0xD7E JUMP JUMPDEST SWAP3 SWAP2 POP POP JUMP JUMPDEST PUSH2 0xDAF DUP2 PUSH2 0xD75 JUMP JUMPDEST DUP2 EQ PUSH2 0xDB9 JUMPI PUSH0 DUP1 REVERT JUMPDEST POP JUMP JUMPDEST PUSH0 DUP2 CALLDATALOAD SWAP1 POP PUSH2 0xDCA DUP2 PUSH2 0xDA6 JUMP JUMPDEST SWAP3 SWAP2 POP POP JUMP JUMPDEST PUSH0 PUSH1 0x20 DUP3 DUP5 SUB SLT ISZERO PUSH2 0xDE5 JUMPI PUSH2 0xDE4 PUSH2 0xCEC JUMP JUMPDEST JUMPDEST PUSH0 PUSH2 0xDF2 DUP5 DUP3 DUP6 ADD PUSH2 0xDBC JUMP JUMPDEST SWAP2 POP POP SWAP3 SWAP2 POP POP JUMP JUMPDEST PUSH2 0xE04 DUP2 PUSH2 0xD0F JUMP JUMPDEST DUP3 MSTORE POP POP JUMP JUMPDEST PUSH0 PUSH1 0x20 DUP3 ADD SWAP1 POP PUSH2 0xE1D PUSH0 DUP4 ADD DUP5 PUSH2 0xDFB JUMP JUMPDEST SWAP3 SWAP2 POP POP JUMP JUMPDEST PUSH0 DUP2 SWAP1 POP SWAP2 SWAP1 POP JUMP JUMPDEST PUSH2 0xE35 DUP2 PUSH2 0xE23 JUMP JUMPDEST DUP3 MSTORE POP POP JUMP JUMPDEST PUSH0 PUSH1 0x20 DUP3 ADD SWAP1 POP PUSH2 0xE4E PUSH0 DUP4 ADD DUP5 PUSH2 0xE2C JUMP JUMPDEST SWAP3 SWAP2 POP POP JUMP JUMPDEST PUSH2 0xE5D DUP2 PUSH2 0xE23 JUMP JUMPDEST DUP2 EQ PUSH2 0xE67 JUMPI PUSH0 DUP1 REVERT JUMPDEST POP JUMP JUMPDEST PUSH0 DUP2 CALLDATALOAD SWAP1 POP PUSH2 0xE78 DUP2 PUSH2 0xE54 JUMP JUMPDEST SWAP3 SWAP2 POP POP JUMP JUMPDEST PUSH0 DUP1 PUSH1 0x40 DUP4 DUP6 SUB SLT ISZERO PUSH2 0xE94 JUMPI PUSH2 0xE93 PUSH2 0xCEC JUMP JUMPDEST JUMPDEST PUSH0 PUSH2 0xEA1 DUP6 DUP3 DUP7 ADD PUSH2 0xE6A JUMP JUMPDEST SWAP3 POP POP PUSH1 0x20 PUSH2 0xEB2 DUP6 DUP3 DUP7 ADD PUSH2 0xDBC JUMP JUMPDEST SWAP2 POP POP SWAP3 POP SWAP3 SWAP1 POP JUMP JUMPDEST PUSH0 DUP2 SWAP1 POP SWAP2 SWAP1 POP JUMP JUMPDEST PUSH0 PUSH2 0xEDF PUSH2 0xEDA PUSH2 0xED5 DUP5 PUSH2 0xCF0 JUMP JUMPDEST PUSH2 0xEBC JUMP JUMPDEST PUSH2 0xCF0 JUMP JUMPDEST SWAP1 POP SWAP2 SWAP1 POP JUMP JUMPDEST PUSH0 PUSH2 0xEF0 DUP3 PUSH2 0xEC5 JUMP JUMPDEST SWAP1 POP SWAP2 SWAP1 POP JUMP JUMPDEST PUSH0 PUSH2 0xF01 DUP3 PUSH2 0xEE6 JUMP JUMPDEST SWAP1 POP SWAP2 SWAP1 POP JUMP JUMPDEST PUSH2 0xF11 DUP2 PUSH2 0xEF7 JUMP JUMPDEST DUP3 MSTORE POP POP JUMP JUMPDEST PUSH0 PUSH1 0x20 DUP3 ADD SWAP1 POP PUSH2 0xF2A PUSH0 DUP4 ADD DUP5 PUSH2 0xF08 JUMP JUMPDEST SWAP3 SWAP2 POP POP JUMP JUMPDEST PUSH0 DUP3 DUP3 MSTORE PUSH1 0x20 DUP3 ADD SWAP1 POP SWAP3 SWAP2 POP POP JUMP JUMPDEST PUSH32 0x496E73756666696369656E74207374616B65642062616C616E63650000000000 PUSH0 DUP3 ADD MSTORE POP JUMP JUMPDEST PUSH0 PUSH2 0xF74 PUSH1 0x1B DUP4 PUSH2 0xF30 JUMP JUMPDEST SWAP2 POP PUSH2 0xF7F DUP3 PUSH2 0xF40 JUMP JUMPDEST PUSH1 0x20 DUP3 ADD SWAP1 POP SWAP2 SWAP1 POP JUMP JUMPDEST PUSH0 PUSH1 0x20 DUP3 ADD SWAP1 POP DUP2 DUP2 SUB PUSH0 DUP4 ADD MSTORE PUSH2 0xFA1 DUP2 PUSH2 0xF68 JUMP JUMPDEST SWAP1 POP SWAP2 SWAP1 POP JUMP JUMPDEST PUSH32 0x4E487B7100000000000000000000000000000000000000000000000000000000 PUSH0 MSTORE PUSH1 0x11 PUSH1 0x4 MSTORE PUSH1 0x24 PUSH0 REVERT JUMPDEST PUSH0 PUSH2 0xFDF DUP3 PUSH2 0xD75 JUMP JUMPDEST SWAP2 POP PUSH2 0xFEA DUP4 PUSH2 0xD75 JUMP JUMPDEST SWAP3 POP DUP3 DUP3 MUL PUSH2 0xFF8 DUP2 PUSH2 0xD75 JUMP JUMPDEST SWAP2 POP DUP3 DUP3 DIV DUP5 EQ DUP4 ISZERO OR PUSH2 0x100F JUMPI PUSH2 0x100E PUSH2 0xFA8 JUMP JUMPDEST JUMPDEST POP SWAP3 SWAP2 POP POP JUMP JUMPDEST PUSH32 0x4E487B7100000000000000000000000000000000000000000000000000000000 PUSH0 MSTORE PUSH1 0x12 PUSH1 0x4 MSTORE PUSH1 0x24 PUSH0 REVERT JUMPDEST PUSH0 PUSH2 0x104D DUP3 PUSH2 0xD75 JUMP JUMPDEST SWAP2 POP PUSH2 0x1058 DUP4 PUSH2 0xD75 JUMP JUMPDEST SWAP3 POP DUP3 PUSH2 0x1068 JUMPI PUSH2 0x1067 PUSH2 0x1016 JUMP JUMPDEST JUMPDEST DUP3 DUP3 DIV SWAP1 POP SWAP3 SWAP2 POP POP JUMP JUMPDEST PUSH0 PUSH2 0x107D DUP3 PUSH2 0xD75 JUMP JUMPDEST SWAP2 POP PUSH2 0x1088 DUP4 PUSH2 0xD75 JUMP JUMPDEST SWAP3 POP DUP3 DUP3 SUB SWAP1 POP DUP2 DUP2 GT ISZERO PUSH2 0x10A0 JUMPI PUSH2 0x109F PUSH2 0xFA8 JUMP JUMPDEST JUMPDEST SWAP3 SWAP2 POP POP JUMP JUMPDEST PUSH0 PUSH1 0x40 DUP3 ADD SWAP1 POP PUSH2 0x10B9 PUSH0 DUP4 ADD DUP6 PUSH2 0xDFB JUMP JUMPDEST PUSH2 0x10C6 PUSH1 0x20 DUP4 ADD DUP5 PUSH2 0xD7E JUMP JUMPDEST SWAP4 SWAP3 POP POP POP JUMP JUMPDEST PUSH0 DUP2 ISZERO ISZERO SWAP1 POP SWAP2 SWAP1 POP JUMP JUMPDEST PUSH2 0x10E1 DUP2 PUSH2 0x10CD JUMP JUMPDEST DUP2 EQ PUSH2 0x10EB JUMPI PUSH0 DUP1 REVERT JUMPDEST POP JUMP JUMPDEST PUSH0 DUP2 MLOAD SWAP1 POP PUSH2 0x10FC DUP2 PUSH2 0x10D8 JUMP JUMPDEST SWAP3 SWAP2 POP POP JUMP JUMPDEST PUSH0 PUSH1 0x20 DUP3 DUP5 SUB SLT ISZERO PUSH2 0x1117 JUMPI PUSH2 0x1116 PUSH2 0xCEC JUMP JUMPDEST JUMPDEST PUSH0 PUSH2 0x1124 DUP5 DUP3 DUP6 ADD PUSH2 0x10EE JUMP JUMPDEST SWAP2 POP POP SWAP3 SWAP2 POP POP JUMP JUMPDEST PUSH32 0x4E487B7100000000000000000000000000000000000000000000000000000000 PUSH0 MSTORE PUSH1 0x32 PUSH1 0x4 MSTORE PUSH1 0x24 PUSH0 REVERT JUMPDEST PUSH32 0x4E487B7100000000000000000000000000000000000000000000000000000000 PUSH0 MSTORE PUSH1 0x31 PUSH1 0x4 MSTORE PUSH1 0x24 PUSH0 REVERT JUMPDEST PUSH32 0x416D6F756E74206973206C657373207468616E20746865206D696E696D756D20 PUSH0 DUP3 ADD MSTORE PUSH32 0x7374616B65207265717569726564000000000000000000000000000000000000 PUSH1 0x20 DUP3 ADD MSTORE POP JUMP JUMPDEST PUSH0 PUSH2 0x11E1 PUSH1 0x2E DUP4 PUSH2 0xF30 JUMP JUMPDEST SWAP2 POP PUSH2 0x11EC DUP3 PUSH2 0x1187 JUMP JUMPDEST PUSH1 0x40 DUP3 ADD SWAP1 POP SWAP2 SWAP1 POP JUMP JUMPDEST PUSH0 PUSH1 0x20 DUP3 ADD SWAP1 POP DUP2 DUP2 SUB PUSH0 DUP4 ADD MSTORE PUSH2 0x120E DUP2 PUSH2 0x11D5 JUMP JUMPDEST SWAP1 POP SWAP2 SWAP1 POP JUMP JUMPDEST PUSH32 0x416D6F756E74206578636565647320746865206D6178696D756D207374616B65 PUSH0 DUP3 ADD MSTORE PUSH32 0x20616C6C6F776564000000000000000000000000000000000000000000000000 PUSH1 0x20 DUP3 ADD MSTORE POP JUMP JUMPDEST PUSH0 PUSH2 0x126F PUSH1 0x28 DUP4 PUSH2 0xF30 JUMP JUMPDEST SWAP2 POP PUSH2 0x127A DUP3 PUSH2 0x1215 JUMP JUMPDEST PUSH1 0x40 DUP3 ADD SWAP1 POP SWAP2 SWAP1 POP JUMP JUMPDEST PUSH0 PUSH1 0x20 DUP3 ADD SWAP1 POP DUP2 DUP2 SUB PUSH0 DUP4 ADD MSTORE PUSH2 0x129C DUP2 PUSH2 0x1263 JUMP JUMPDEST SWAP1 POP SWAP2 SWAP1 POP JUMP JUMPDEST PUSH0 PUSH1 0x60 DUP3 ADD SWAP1 POP PUSH2 0x12B6 PUSH0 DUP4 ADD DUP7 PUSH2 0xDFB JUMP JUMPDEST PUSH2 0x12C3 PUSH1 0x20 DUP4 ADD DUP6 PUSH2 0xDFB JUMP JUMPDEST PUSH2 0x12D0 PUSH1 0x40 DUP4 ADD DUP5 PUSH2 0xD7E JUMP JUMPDEST SWAP5 SWAP4 POP POP POP POP JUMP JUMPDEST PUSH0 PUSH2 0x12E2 DUP3 PUSH2 0xD75 JUMP JUMPDEST SWAP2 POP PUSH2 0x12ED DUP4 PUSH2 0xD75 JUMP JUMPDEST SWAP3 POP DUP3 DUP3 ADD SWAP1 POP DUP1 DUP3 GT ISZERO PUSH2 0x1305 JUMPI PUSH2 0x1304 PUSH2 0xFA8 JUMP JUMPDEST JUMPDEST SWAP3 SWAP2 POP POP JUMP JUMPDEST PUSH0 DUP2 MLOAD SWAP1 POP PUSH2 0x1319 DUP2 PUSH2 0xDA6 JUMP JUMPDEST SWAP3 SWAP2 POP POP JUMP JUMPDEST PUSH0 PUSH1 0x20 DUP3 DUP5 SUB SLT ISZERO PUSH2 0x1334 JUMPI PUSH2 0x1333 PUSH2 0xCEC JUMP JUMPDEST JUMPDEST PUSH0 PUSH2 0x1341 DUP5 DUP3 DUP6 ADD PUSH2 0x130B JUMP JUMPDEST SWAP2 POP POP SWAP3 SWAP2 POP POP JUMP JUMPDEST PUSH32 0x4E6F7420656E6F756768204C494E4B202D2066696C6C20636F6E747261637420 PUSH0 DUP3 ADD MSTORE PUSH32 0x7769746820666175636574000000000000000000000000000000000000000000 PUSH1 0x20 DUP3 ADD MSTORE POP JUMP JUMPDEST PUSH0 PUSH2 0x13A4 PUSH1 0x2B DUP4 PUSH2 0xF30 JUMP JUMPDEST SWAP2 POP PUSH2 0x13AF DUP3 PUSH2 0x134A JUMP JUMPDEST PUSH1 0x40 DUP3 ADD SWAP1 POP SWAP2 SWAP1 POP JUMP JUMPDEST PUSH0 PUSH1 0x20 DUP3 ADD SWAP1 POP DUP2 DUP2 SUB PUSH0 DUP4 ADD MSTORE PUSH2 0x13D1 DUP2 PUSH2 0x1398 JUMP JUMPDEST SWAP1 POP SWAP2 SWAP1 POP JUMP JUMPDEST PUSH32 0x4E756D626572206F66206A75726F7273206578636565647320746865206E756D PUSH0 DUP3 ADD MSTORE PUSH32 0x626572206F6620617661696C61626C65207061727469636970616E7473000000 PUSH1 0x20 DUP3 ADD MSTORE POP JUMP JUMPDEST PUSH0 PUSH2 0x1432 PUSH1 0x3D DUP4 PUSH2 0xF30 JUMP JUMPDEST SWAP2 POP PUSH2 0x143D DUP3 PUSH2 0x13D8 JUMP JUMPDEST PUSH1 0x40 DUP3 ADD SWAP1 POP SWAP2 SWAP1 POP JUMP JUMPDEST PUSH0 PUSH1 0x20 DUP3 ADD SWAP1 POP DUP2 DUP2 SUB PUSH0 DUP4 ADD MSTORE PUSH2 0x145F DUP2 PUSH2 0x1426 JUMP JUMPDEST SWAP1 POP SWAP2 SWAP1 POP JUMP JUMPDEST PUSH32 0x4F6E6C7920565246436F6F7264696E61746F722063616E2066756C66696C6C00 PUSH0 DUP3 ADD MSTORE POP JUMP JUMPDEST PUSH0 PUSH2 0x149A PUSH1 0x1F DUP4 PUSH2 0xF30 JUMP JUMPDEST SWAP2 POP PUSH2 0x14A5 DUP3 PUSH2 0x1466 JUMP JUMPDEST PUSH1 0x20 DUP3 ADD SWAP1 POP SWAP2 SWAP1 POP JUMP JUMPDEST PUSH0 PUSH1 0x20 DUP3 ADD SWAP1 POP DUP2 DUP2 SUB PUSH0 DUP4 ADD MSTORE PUSH2 0x14C7 DUP2 PUSH2 0x148E JUMP JUMPDEST SWAP1 POP SWAP2 SWAP1 POP JUMP JUMPDEST PUSH0 PUSH1 0x40 DUP3 ADD SWAP1 POP PUSH2 0x14E1 PUSH0 DUP4 ADD DUP6 PUSH2 0xE2C JUMP JUMPDEST PUSH2 0x14EE PUSH1 0x20 DUP4 ADD DUP5 PUSH2 0xD7E JUMP JUMPDEST SWAP4 SWAP3 POP POP POP JUMP JUMPDEST PUSH0 DUP2 MLOAD SWAP1 POP SWAP2 SWAP1 POP JUMP JUMPDEST PUSH0 DUP3 DUP3 MSTORE PUSH1 0x20 DUP3 ADD SWAP1 POP SWAP3 SWAP2 POP POP JUMP JUMPDEST DUP3 DUP2 DUP4 MCOPY PUSH0 DUP4 DUP4 ADD MSTORE POP POP POP JUMP JUMPDEST PUSH0 PUSH1 0x1F NOT PUSH1 0x1F DUP4 ADD AND SWAP1 POP SWAP2 SWAP1 POP JUMP JUMPDEST PUSH0 PUSH2 0x1537 DUP3 PUSH2 0x14F5 JUMP JUMPDEST PUSH2 0x1541 DUP2 DUP6 PUSH2 0x14FF JUMP JUMPDEST SWAP4 POP PUSH2 0x1551 DUP2 DUP6 PUSH1 0x20 DUP7 ADD PUSH2 0x150F JUMP JUMPDEST PUSH2 0x155A DUP2 PUSH2 0x151D JUMP JUMPDEST DUP5 ADD SWAP2 POP POP SWAP3 SWAP2 POP POP JUMP JUMPDEST PUSH0 PUSH1 0x60 DUP3 ADD SWAP1 POP PUSH2 0x1578 PUSH0 DUP4 ADD DUP7 PUSH2 0xDFB JUMP JUMPDEST PUSH2 0x1585 PUSH1 0x20 DUP4 ADD DUP6 PUSH2 0xD7E JUMP JUMPDEST DUP2 DUP2 SUB PUSH1 0x40 DUP4 ADD MSTORE PUSH2 0x1597 DUP2 DUP5 PUSH2 0x152D JUMP JUMPDEST SWAP1 POP SWAP5 SWAP4 POP POP POP POP JUMP JUMPDEST PUSH32 0x4E487B7100000000000000000000000000000000000000000000000000000000 PUSH0 MSTORE PUSH1 0x41 PUSH1 0x4 MSTORE PUSH1 0x24 PUSH0 REVERT JUMPDEST PUSH0 PUSH2 0x15D8 DUP3 PUSH2 0xD75 JUMP JUMPDEST SWAP2 POP PUSH2 0x15E3 DUP4 PUSH2 0xD75 JUMP JUMPDEST SWAP3 POP DUP3 PUSH2 0x15F3 JUMPI PUSH2 0x15F2 PUSH2 0x1016 JUMP JUMPDEST JUMPDEST DUP3 DUP3 MOD SWAP1 POP SWAP3 SWAP2 POP POP JUMP JUMPDEST PUSH0 PUSH1 0x40 DUP3 ADD SWAP1 POP PUSH2 0x1611 PUSH0 DUP4 ADD DUP6 PUSH2 0xD7E JUMP JUMPDEST PUSH2 0x161E PUSH1 0x20 DUP4 ADD DUP5 PUSH2 0xD7E JUMP JUMPDEST SWAP4 SWAP3 POP POP POP JUMP JUMPDEST PUSH0 DUP2 MLOAD SWAP1 POP SWAP2 SWAP1 POP JUMP JUMPDEST PUSH0 DUP3 DUP3 MSTORE PUSH1 0x20 DUP3 ADD SWAP1 POP SWAP3 SWAP2 POP POP JUMP JUMPDEST PUSH0 DUP2 SWAP1 POP PUSH1 0x20 DUP3 ADD SWAP1 POP SWAP2 SWAP1 POP JUMP JUMPDEST PUSH2 0x1657 DUP2 PUSH2 0xD0F JUMP JUMPDEST DUP3 MSTORE POP POP JUMP JUMPDEST PUSH0 PUSH2 0x1668 DUP4 DUP4 PUSH2 0x164E JUMP JUMPDEST PUSH1 0x20 DUP4 ADD SWAP1 POP SWAP3 SWAP2 POP POP JUMP JUMPDEST PUSH0 PUSH1 0x20 DUP3 ADD SWAP1 POP SWAP2 SWAP1 POP JUMP JUMPDEST PUSH0 PUSH2 0x168A DUP3 PUSH2 0x1625 JUMP JUMPDEST PUSH2 0x1694 DUP2 DUP6 PUSH2 0x162F JUMP JUMPDEST SWAP4 POP PUSH2 0x169F DUP4 PUSH2 0x163F JUMP JUMPDEST DUP1 PUSH0 JUMPDEST DUP4 DUP2 LT ISZERO PUSH2 0x16CF JUMPI DUP2 MLOAD PUSH2 0x16B6 DUP9 DUP3 PUSH2 0x165D JUMP JUMPDEST SWAP8 POP PUSH2 0x16C1 DUP4 PUSH2 0x1674 JUMP JUMPDEST SWAP3 POP POP PUSH1 0x1 DUP2 ADD SWAP1 POP PUSH2 0x16A2 JUMP JUMPDEST POP DUP6 SWAP4 POP POP POP POP SWAP3 SWAP2 POP POP JUMP JUMPDEST PUSH0 PUSH1 0x20 DUP3 ADD SWAP1 POP DUP2 DUP2 SUB PUSH0 DUP4 ADD MSTORE PUSH2 0x16F4 DUP2 DUP5 PUSH2 0x1680 JUMP JUMPDEST SWAP1 POP SWAP3 SWAP2 POP POP JUMP JUMPDEST PUSH0 PUSH1 0x80 DUP3 ADD SWAP1 POP PUSH2 0x170F PUSH0 DUP4 ADD DUP8 PUSH2 0xE2C JUMP JUMPDEST PUSH2 0x171C PUSH1 0x20 DUP4 ADD DUP7 PUSH2 0xD7E JUMP JUMPDEST PUSH2 0x1729 PUSH1 0x40 DUP4 ADD DUP6 PUSH2 0xDFB JUMP JUMPDEST PUSH2 0x1736 PUSH1 0x60 DUP4 ADD DUP5 PUSH2 0xD7E JUMP JUMPDEST SWAP6 SWAP5 POP POP POP POP POP JUMP JUMPDEST PUSH0 DUP2 SWAP1 POP SWAP2 SWAP1 POP JUMP JUMPDEST PUSH2 0x1759 PUSH2 0x1754 DUP3 PUSH2 0xE23 JUMP JUMPDEST PUSH2 0x173F JUMP JUMPDEST DUP3 MSTORE POP POP JUMP JUMPDEST PUSH0 DUP2 SWAP1 POP SWAP2 SWAP1 POP JUMP JUMPDEST PUSH2 0x1779 PUSH2 0x1774 DUP3 PUSH2 0xD75 JUMP JUMPDEST PUSH2 0x175F JUMP JUMPDEST DUP3 MSTORE POP POP JUMP JUMPDEST PUSH0 PUSH2 0x178A DUP3 DUP6 PUSH2 0x1748 JUMP JUMPDEST PUSH1 0x20 DUP3 ADD SWAP2 POP PUSH2 0x179A DUP3 DUP5 PUSH2 0x1768 JUMP JUMPDEST PUSH1 0x20 DUP3 ADD SWAP2 POP DUP2 SWAP1 POP SWAP4 SWAP3 POP POP POP JUMP INVALID LOG2 PUSH5 0x6970667358 0x22 SLT KECCAK256 0xBA SHR 0xDF 0x29 0x2D 0xE2 0xD0 SWAP12 0xDA 0xD1 INVALID 0xDE 0xE8 0xE7 PUSH6 0xD20B372E12D PUSH15 0xE0DDFC9A2058BE3D4BE364736F6C63 NUMBER STOP ADDMOD BYTE STOP CALLER "
				},
				"gasEstimates": {
					"creation": {
						"codeDepositCost": "1222400",
						"executionCost": "infinite",
						"totalCost": "infinite"
					},
					"external": {
						"grullToken()": "infinite",
						"jurors(uint256)": "4966",
						"maxStake()": "2535",
						"minStake()": "2470",
						"numJurorsToSelect()": "2448",
						"rawFulfillRandomness(bytes32,uint256)": "infinite",
						"selectJurors(uint256)": "infinite",
						"stakeTokens(uint256)": "infinite",
						"stakes(address)": "2803",
						"unstakePenaltyPercent()": "2514",
						"unstakeTokens(uint256)": "infinite"
					},
					"internal": {
						"fulfillRandomness(bytes32,uint256)": "infinite"
					}
				},
				"methodIdentifiers": {
					"grullToken()": "c9cf5ddf",
					"jurors(uint256)": "7cd38ff8",
					"maxStake()": "ea1b28e0",
					"minStake()": "375b3c0a",
					"numJurorsToSelect()": "266d3730",
					"rawFulfillRandomness(bytes32,uint256)": "94985ddd",
					"selectJurors(uint256)": "9233be0d",
					"stakeTokens(uint256)": "7547c7a3",
					"stakes(address)": "16934fc4",
					"unstakePenaltyPercent()": "6ca33109",
					"unstakeTokens(uint256)": "608e4dd0"
				}
			},
			"storageLayout": {
				"storage": [
					{
						"astId": 79,
						"contract": "contracts/jurorSelection.sol:JurorSelection",
						"label": "nonces",
						"offset": 0,
						"slot": "0",
						"type": "t_mapping(t_bytes32,t_uint256)"
					},
					{
						"astId": 352,
						"contract": "contracts/jurorSelection.sol:JurorSelection",
						"label": "grullToken",
						"offset": 0,
						"slot": "1",
						"type": "t_contract(IERC20)343"
					},
					{
						"astId": 356,
						"contract": "contracts/jurorSelection.sol:JurorSelection",
						"label": "stakes",
						"offset": 0,
						"slot": "2",
						"type": "t_mapping(t_address,t_uint256)"
					},
					{
						"astId": 359,
						"contract": "contracts/jurorSelection.sol:JurorSelection",
						"label": "jurors",
						"offset": 0,
						"slot": "3",
						"type": "t_array(t_address)dyn_storage"
					},
					{
						"astId": 361,
						"contract": "contracts/jurorSelection.sol:JurorSelection",
						"label": "keyHash",
						"offset": 0,
						"slot": "4",
						"type": "t_bytes32"
					},
					{
						"astId": 363,
						"contract": "contracts/jurorSelection.sol:JurorSelection",
						"label": "fee",
						"offset": 0,
						"slot": "5",
						"type": "t_uint256"
					},
					{
						"astId": 365,
						"contract": "contracts/jurorSelection.sol:JurorSelection",
						"label": "numJurorsToSelect",
						"offset": 0,
						"slot": "6",
						"type": "t_uint256"
					},
					{
						"astId": 372,
						"contract": "contracts/jurorSelection.sol:JurorSelection",
						"label": "minStake",
						"offset": 0,
						"slot": "7",
						"type": "t_uint256"
					},
					{
						"astId": 379,
						"contract": "contracts/jurorSelection.sol:JurorSelection",
						"label": "maxStake",
						"offset": 0,
						"slot": "8",
						"type": "t_uint256"
					},
					{
						"astId": 382,
						"contract": "contracts/jurorSelection.sol:JurorSelection",
						"label": "unstakePenaltyPercent",
						"offset": 0,
						"slot": "9",
						"type": "t_uint256"
					}
				],
				"types": {
					"t_address": {
						"encoding": "inplace",
						"label": "address",
						"numberOfBytes": "20"
					},
					"t_array(t_address)dyn_storage": {
						"base": "t_address",
						"encoding": "dynamic_array",
						"label": "address[]",
						"numberOfBytes": "32"
					},
					"t_bytes32": {
						"encoding": "inplace",
						"label": "bytes32",
						"numberOfBytes": "32"
					},
					"t_contract(IERC20)343": {
						"encoding": "inplace",
						"label": "contract IERC20",
						"numberOfBytes": "20"
					},
					"t_mapping(t_address,t_uint256)": {
						"encoding": "mapping",
						"key": "t_address",
						"label": "mapping(address => uint256)",
						"numberOfBytes": "32",
						"value": "t_uint256"
					},
					"t_mapping(t_bytes32,t_uint256)": {
						"encoding": "mapping",
						"key": "t_bytes32",
						"label": "mapping(bytes32 => uint256)",
						"numberOfBytes": "32",
						"value": "t_uint256"
					},
					"t_uint256": {
						"encoding": "inplace",
						"label": "uint256",
						"numberOfBytes": "32"
					}
				}
			},
			"userdoc": {
				"kind": "user",
				"methods": {},
				"version": 1
			}
		}
	}
}