{
	"data": {
		"bytecode": {
			"linkReferences": {},
			"object": "60c060405268056bc75e2d6310000060075569021e19e0c9bab2400000600855600a60095534801561002f575f80fd5b50604051611a5f380380611a5f833981810160405281019061005191906101d9565b83838173ffffffffffffffffffffffffffffffffffffffff1660a08173ffffffffffffffffffffffffffffffffffffffff16815250508073ffffffffffffffffffffffffffffffffffffffff1660808173ffffffffffffffffffffffffffffffffffffffff168152505050508460015f6101000a81548173ffffffffffffffffffffffffffffffffffffffff021916908373ffffffffffffffffffffffffffffffffffffffff16021790555081600481905550806005819055505050505050610250565b5f80fd5b5f73ffffffffffffffffffffffffffffffffffffffff82169050919050565b5f61014282610119565b9050919050565b61015281610138565b811461015c575f80fd5b50565b5f8151905061016d81610149565b92915050565b5f819050919050565b61018581610173565b811461018f575f80fd5b50565b5f815190506101a08161017c565b92915050565b5f819050919050565b6101b8816101a6565b81146101c2575f80fd5b50565b5f815190506101d3816101af565b92915050565b5f805f805f60a086880312156101f2576101f1610115565b5b5f6101ff8882890161015f565b95505060206102108882890161015f565b94505060406102218882890161015f565b935050606061023288828901610192565b9250506080610243888289016101c5565b9150509295509295909350565b60805160a0516117e061027f5f395f81816109090152610a0d01525f81816107cc01526109d101526117e05ff3fe608060405234801561000f575f80fd5b50600436106100a7575f3560e01c80637547c7a31161006f5780637547c7a3146101515780637cd38ff81461016d5780639233be0d1461019d57806394985ddd146101cd578063c9cf5ddf146101e9578063ea1b28e014610207576100a7565b806316934fc4146100ab578063266d3730146100db578063375b3c0a146100f9578063608e4dd0146101175780636ca3310914610133575b5f80fd5b6100c560048036038101906100c09190610d4a565b610225565b6040516100d29190610d8d565b60405180910390f35b6100e361023a565b6040516100f09190610d8d565b60405180910390f35b610101610240565b60405161010e9190610d8d565b60405180910390f35b610131600480360381019061012c9190610dd0565b610246565b005b61013b6105a6565b6040516101489190610d8d565b60405180910390f35b61016b60048036038101906101669190610dd0565b6105ac565b005b61018760048036038101906101829190610dd0565b61078b565b6040516101949190610e0a565b60405180910390f35b6101b760048036038101906101b29190610dd0565b6107c6565b6040516101c49190610e3b565b60405180910390f35b6101e760048036038101906101e29190610e7e565b610907565b005b6101f16109a3565b6040516101fe9190610f17565b60405180910390f35b61020f6109c8565b60405161021c9190610d8d565b60405180910390f35b6002602052805f5260405f205f915090505481565b60065481565b60075481565b8060025f3373ffffffffffffffffffffffffffffffffffffffff1673ffffffffffffffffffffffffffffffffffffffff1681526020019081526020015f205410156102c6576040517f08c379a00000000000000000000000000000000000000000000000000000000081526004016102bd90610f8a565b60405180910390fd5b5f6064600954836102d79190610fd5565b6102e19190611043565b90505f81836102f09190611073565b90508260025f3373ffffffffffffffffffffffffffffffffffffffff1673ffffffffffffffffffffffffffffffffffffffff1681526020019081526020015f205f82825461033e9190611073565b9250508190555060015f9054906101000a900473ffffffffffffffffffffffffffffffffffffffff1673ffffffffffffffffffffffffffffffffffffffff1663a9059cbb33836040518363ffffffff1660e01b81526004016103a19291906110a6565b6020604051808303815f875af11580156103bd573d5f803e3d5ffd5b505050506040513d601f19601f820116820180604052508101906103e19190611102565b505f60025f3373ffffffffffffffffffffffffffffffffffffffff1673ffffffffffffffffffffffffffffffffffffffff1681526020019081526020015f2054036105a1575f5b60038054905081101561059f573373ffffffffffffffffffffffffffffffffffffffff16600382815481106104605761045f61112d565b5b905f5260205f20015f9054906101000a900473ffffffffffffffffffffffffffffffffffffffff1673ffffffffffffffffffffffffffffffffffffffff160361059257600360016003805490506104b79190611073565b815481106104c8576104c761112d565b5b905f5260205f20015f9054906101000a900473ffffffffffffffffffffffffffffffffffffffff16600382815481106105045761050361112d565b5b905f5260205f20015f6101000a81548173ffffffffffffffffffffffffffffffffffffffff021916908373ffffffffffffffffffffffffffffffffffffffff160217905550600380548061055b5761055a61115a565b5b600190038181905f5260205f20015f6101000a81549073ffffffffffffffffffffffffffffffffffffffff0219169055905561059f565b8080600101915050610428565b505b505050565b60095481565b6007548110156105f1576040517f08c379a00000000000000000000000000000000000000000000000000000000081526004016105e8906111f7565b60405180910390fd5b600854811115610636576040517f08c379a000000000000000000000000000000000000000000000000000000000815260040161062d90611285565b60405180910390fd5b60015f9054906101000a900473ffffffffffffffffffffffffffffffffffffffff1673ffffffffffffffffffffffffffffffffffffffff166323b872dd3330846040518463ffffffff1660e01b8152600401610694939291906112a3565b6020604051808303815f875af11580156106b0573d5f803e3d5ffd5b505050506040513d601f19601f820116820180604052508101906106d49190611102565b508060025f3373ffffffffffffffffffffffffffffffffffffffff1673ffffffffffffffffffffffffffffffffffffffff1681526020019081526020015f205f82825461072191906112d8565b92505081905550600333908060018154018082558091505060019003905f5260205f20015f9091909190916101000a81548173ffffffffffffffffffffffffffffffffffffffff021916908373ffffffffffffffffffffffffffffffffffffffff16021790555050565b6003818154811061079a575f80fd5b905f5260205f20015f915054906101000a900473ffffffffffffffffffffffffffffffffffffffff1681565b5f6005547f000000000000000000000000000000000000000000000000000000000000000073ffffffffffffffffffffffffffffffffffffffff166370a08231306040518263ffffffff1660e01b81526004016108239190610e0a565b602060405180830381865afa15801561083e573d5f803e3d5ffd5b505050506040513d601f19601f82011682018060405250810190610862919061131f565b10156108a3576040517f08c379a000000000000000000000000000000000000000000000000000000000815260040161089a906113ba565b60405180910390fd5b6003805490508211156108eb576040517f08c379a00000000000000000000000000000000000000000000000000000000081526004016108e290611448565b60405180910390fd5b816006819055506109006004546005546109ce565b9050919050565b7f000000000000000000000000000000000000000000000000000000000000000073ffffffffffffffffffffffffffffffffffffffff163373ffffffffffffffffffffffffffffffffffffffff1614610995576040517f08c379a000000000000000000000000000000000000000000000000000000000815260040161098c906114b0565b60405180910390fd5b61099f8282610b11565b5050565b60015f9054906101000a900473ffffffffffffffffffffffffffffffffffffffff1681565b60085481565b5f7f000000000000000000000000000000000000000000000000000000000000000073ffffffffffffffffffffffffffffffffffffffff16634000aea07f000000000000000000000000000000000000000000000000000000000000000084865f604051602001610a409291906114ce565b6040516020818303038152906040526040518463ffffffff1660e01b8152600401610a6d93929190611565565b6020604051808303815f875af1158015610a89573d5f803e3d5ffd5b505050506040513d601f19601f82011682018060405250810190610aad9190611102565b505f610acb845f305f808981526020019081526020015f2054610c80565b905060015f808681526020019081526020015f2054610aea91906112d8565b5f808681526020019081526020015f2081905550610b088482610cba565b91505092915050565b5f60065467ffffffffffffffff811115610b2e57610b2d6115a1565b5b604051908082528060200260200182016040528015610b5c5781602001602082028036833780820191505090505b5090505f5b600654811015610c43575f60038054905084610b7d91906115ce565b905060038181548110610b9357610b9261112d565b5b905f5260205f20015f9054906101000a900473ffffffffffffffffffffffffffffffffffffffff16838381518110610bce57610bcd61112d565b5b602002602001019073ffffffffffffffffffffffffffffffffffffffff16908173ffffffffffffffffffffffffffffffffffffffff16815250508382604051602001610c1b9291906115fe565b604051602081830303815290604052805190602001205f1c9350508080600101915050610b61565b507fc97825e5374b835cdcd76e5da76fc12b913fbb7c548601763fa1abd26054f08381604051610c7391906116dc565b60405180910390a1505050565b5f84848484604051602001610c9894939291906116fc565b604051602081830303815290604052805190602001205f1c9050949350505050565b5f8282604051602001610cce92919061177f565b60405160208183030381529060405280519060200120905092915050565b5f80fd5b5f73ffffffffffffffffffffffffffffffffffffffff82169050919050565b5f610d1982610cf0565b9050919050565b610d2981610d0f565b8114610d33575f80fd5b50565b5f81359050610d4481610d20565b92915050565b5f60208284031215610d5f57610d5e610cec565b5b5f610d6c84828501610d36565b91505092915050565b5f819050919050565b610d8781610d75565b82525050565b5f602082019050610da05f830184610d7e565b92915050565b610daf81610d75565b8114610db9575f80fd5b50565b5f81359050610dca81610da6565b92915050565b5f60208284031215610de557610de4610cec565b5b5f610df284828501610dbc565b91505092915050565b610e0481610d0f565b82525050565b5f602082019050610e1d5f830184610dfb565b92915050565b5f819050919050565b610e3581610e23565b82525050565b5f602082019050610e4e5f830184610e2c565b92915050565b610e5d81610e23565b8114610e67575f80fd5b50565b5f81359050610e7881610e54565b92915050565b5f8060408385031215610e9457610e93610cec565b5b5f610ea185828601610e6a565b9250506020610eb285828601610dbc565b9150509250929050565b5f819050919050565b5f610edf610eda610ed584610cf0565b610ebc565b610cf0565b9050919050565b5f610ef082610ec5565b9050919050565b5f610f0182610ee6565b9050919050565b610f1181610ef7565b82525050565b5f602082019050610f2a5f830184610f08565b92915050565b5f82825260208201905092915050565b7f496e73756666696369656e74207374616b65642062616c616e636500000000005f82015250565b5f610f74601b83610f30565b9150610f7f82610f40565b602082019050919050565b5f6020820190508181035f830152610fa181610f68565b9050919050565b7f4e487b71000000000000000000000000000000000000000000000000000000005f52601160045260245ffd5b5f610fdf82610d75565b9150610fea83610d75565b9250828202610ff881610d75565b9150828204841483151761100f5761100e610fa8565b5b5092915050565b7f4e487b71000000000000000000000000000000000000000000000000000000005f52601260045260245ffd5b5f61104d82610d75565b915061105883610d75565b92508261106857611067611016565b5b828204905092915050565b5f61107d82610d75565b915061108883610d75565b92508282039050818111156110a05761109f610fa8565b5b92915050565b5f6040820190506110b95f830185610dfb565b6110c66020830184610d7e565b9392505050565b5f8115159050919050565b6110e1816110cd565b81146110eb575f80fd5b50565b5f815190506110fc816110d8565b92915050565b5f6020828403121561111757611116610cec565b5b5f611124848285016110ee565b91505092915050565b7f4e487b71000000000000000000000000000000000000000000000000000000005f52603260045260245ffd5b7f4e487b71000000000000000000000000000000000000000000000000000000005f52603160045260245ffd5b7f416d6f756e74206973206c657373207468616e20746865206d696e696d756d205f8201527f7374616b65207265717569726564000000000000000000000000000000000000602082015250565b5f6111e1602e83610f30565b91506111ec82611187565b604082019050919050565b5f6020820190508181035f83015261120e816111d5565b9050919050565b7f416d6f756e74206578636565647320746865206d6178696d756d207374616b655f8201527f20616c6c6f776564000000000000000000000000000000000000000000000000602082015250565b5f61126f602883610f30565b915061127a82611215565b604082019050919050565b5f6020820190508181035f83015261129c81611263565b9050919050565b5f6060820190506112b65f830186610dfb565b6112c36020830185610dfb565b6112d06040830184610d7e565b949350505050565b5f6112e282610d75565b91506112ed83610d75565b925082820190508082111561130557611304610fa8565b5b92915050565b5f8151905061131981610da6565b92915050565b5f6020828403121561133457611333610cec565b5b5f6113418482850161130b565b91505092915050565b7f4e6f7420656e6f756768204c494e4b202d2066696c6c20636f6e7472616374205f8201527f7769746820666175636574000000000000000000000000000000000000000000602082015250565b5f6113a4602b83610f30565b91506113af8261134a565b604082019050919050565b5f6020820190508181035f8301526113d181611398565b9050919050565b7f4e756d626572206f66206a75726f7273206578636565647320746865206e756d5f8201527f626572206f6620617661696c61626c65207061727469636970616e7473000000602082015250565b5f611432603d83610f30565b915061143d826113d8565b604082019050919050565b5f6020820190508181035f83015261145f81611426565b9050919050565b7f4f6e6c7920565246436f6f7264696e61746f722063616e2066756c66696c6c005f82015250565b5f61149a601f83610f30565b91506114a582611466565b602082019050919050565b5f6020820190508181035f8301526114c78161148e565b9050919050565b5f6040820190506114e15f830185610e2c565b6114ee6020830184610d7e565b9392505050565b5f81519050919050565b5f82825260208201905092915050565b8281835e5f83830152505050565b5f601f19601f8301169050919050565b5f611537826114f5565b61154181856114ff565b935061155181856020860161150f565b61155a8161151d565b840191505092915050565b5f6060820190506115785f830186610dfb565b6115856020830185610d7e565b8181036040830152611597818461152d565b9050949350505050565b7f4e487b71000000000000000000000000000000000000000000000000000000005f52604160045260245ffd5b5f6115d882610d75565b91506115e383610d75565b9250826115f3576115f2611016565b5b828206905092915050565b5f6040820190506116115f830185610d7e565b61161e6020830184610d7e565b9392505050565b5f81519050919050565b5f82825260208201905092915050565b5f819050602082019050919050565b61165781610d0f565b82525050565b5f611668838361164e565b60208301905092915050565b5f602082019050919050565b5f61168a82611625565b611694818561162f565b935061169f8361163f565b805f5b838110156116cf5781516116b6888261165d565b97506116c183611674565b9250506001810190506116a2565b5085935050505092915050565b5f6020820190508181035f8301526116f48184611680565b905092915050565b5f60808201905061170f5f830187610e2c565b61171c6020830186610d7e565b6117296040830185610dfb565b6117366060830184610d7e565b95945050505050565b5f819050919050565b61175961175482610e23565b61173f565b82525050565b5f819050919050565b61177961177482610d75565b61175f565b82525050565b5f61178a8285611748565b60208201915061179a8284611768565b602082019150819050939250505056fea2646970667358221220ba1cdf292de2d09bdad1fedee8e7650d20b372e12d6ee0ddfc9a2058be3d4be364736f6c634300081a0033",
			"opcodes": "PUSH1 0xC0 PUSH1 0x40 MSTORE PUSH9 0x56BC75E2D63100000 PUSH1 0x7 SSTORE PUSH10 0x21E19E0C9BAB2400000 PUSH1 0x8 SSTORE PUSH1 0xA PUSH1 0x9 SSTORE CALLVALUE DUP1 ISZERO PUSH2 0x2F JUMPI PUSH0 DUP1 REVERT JUMPDEST POP PUSH1 0x40 MLOAD PUSH2 0x1A5F CODESIZE SUB DUP1 PUSH2 0x1A5F DUP4 CODECOPY DUP2 DUP2 ADD PUSH1 0x40 MSTORE DUP2 ADD SWAP1 PUSH2 0x51 SWAP2 SWAP1 PUSH2 0x1D9 JUMP JUMPDEST DUP4 DUP4 DUP2 PUSH20 0xFFFFFFFFFFFFFFFFFFFFFFFFFFFFFFFFFFFFFFFF AND PUSH1 0xA0 DUP2 PUSH20 0xFFFFFFFFFFFFFFFFFFFFFFFFFFFFFFFFFFFFFFFF AND DUP2 MSTORE POP POP DUP1 PUSH20 0xFFFFFFFFFFFFFFFFFFFFFFFFFFFFFFFFFFFFFFFF AND PUSH1 0x80 DUP2 PUSH20 0xFFFFFFFFFFFFFFFFFFFFFFFFFFFFFFFFFFFFFFFF AND DUP2 MSTORE POP POP POP POP DUP5 PUSH1 0x1 PUSH0 PUSH2 0x100 EXP DUP2 SLOAD DUP2 PUSH20 0xFFFFFFFFFFFFFFFFFFFFFFFFFFFFFFFFFFFFFFFF MUL NOT AND SWAP1 DUP4 PUSH20 0xFFFFFFFFFFFFFFFFFFFFFFFFFFFFFFFFFFFFFFFF AND MUL OR SWAP1 SSTORE POP DUP2 PUSH1 0x4 DUP2 SWAP1 SSTORE POP DUP1 PUSH1 0x5 DUP2 SWAP1 SSTORE POP POP POP POP POP POP PUSH2 0x250 JUMP JUMPDEST PUSH0 DUP1 REVERT JUMPDEST PUSH0 PUSH20 0xFFFFFFFFFFFFFFFFFFFFFFFFFFFFFFFFFFFFFFFF DUP3 AND SWAP1 POP SWAP2 SWAP1 POP JUMP JUMPDEST PUSH0 PUSH2 0x142 DUP3 PUSH2 0x119 JUMP JUMPDEST SWAP1 POP SWAP2 SWAP1 POP JUMP JUMPDEST PUSH2 0x152 DUP2 PUSH2 0x138 JUMP JUMPDEST DUP2 EQ PUSH2 0x15C JUMPI PUSH0 DUP1 REVERT JUMPDEST POP JUMP JUMPDEST PUSH0 DUP2 MLOAD SWAP1 POP PUSH2 0x16D DUP2 PUSH2 0x149 JUMP JUMPDEST SWAP3 SWAP2 POP POP JUMP JUMPDEST PUSH0 DUP2 SWAP1 POP SWAP2 SWAP1 POP JUMP JUMPDEST PUSH2 0x185 DUP2 PUSH2 0x173 JUMP JUMPDEST DUP2 EQ PUSH2 0x18F JUMPI PUSH0 DUP1 REVERT JUMPDEST POP JUMP JUMPDEST PUSH0 DUP2 MLOAD SWAP1 POP PUSH2 0x1A0 DUP2 PUSH2 0x17C JUMP JUMPDEST SWAP3 SWAP2 POP POP JUMP JUMPDEST PUSH0 DUP2 SWAP1 POP SWAP2 SWAP1 POP JUMP JUMPDEST PUSH2 0x1B8 DUP2 PUSH2 0x1A6 JUMP JUMPDEST DUP2 EQ PUSH2 0x1C2 JUMPI PUSH0 DUP1 REVERT JUMPDEST POP JUMP JUMPDEST PUSH0 DUP2 MLOAD SWAP1 POP PUSH2 0x1D3 DUP2 PUSH2 0x1AF JUMP JUMPDEST SWAP3 SWAP2 POP POP JUMP JUMPDEST PUSH0 DUP1 PUSH0 DUP1 PUSH0 PUSH1 0xA0 DUP7 DUP9 SUB SLT ISZERO PUSH2 0x1F2 JUMPI PUSH2 0x1F1 PUSH2 0x115 JUMP JUMPDEST JUMPDEST PUSH0 PUSH2 0x1FF DUP9 DUP3 DUP10 ADD PUSH2 0x15F JUMP JUMPDEST SWAP6 POP POP PUSH1 0x20 PUSH2 0x210 DUP9 DUP3 DUP10 ADD PUSH2 0x15F JUMP JUMPDEST SWAP5 POP POP PUSH1 0x40 PUSH2 0x221 DUP9 DUP3 DUP10 ADD PUSH2 0x15F JUMP JUMPDEST SWAP4 POP POP PUSH1 0x60 PUSH2 0x232 DUP9 DUP3 DUP10 ADD PUSH2 0x192 JUMP JUMPDEST SWAP3 POP POP PUSH1 0x80 PUSH2 0x243 DUP9 DUP3 DUP10 ADD PUSH2 0x1C5 JUMP JUMPDEST SWAP2 POP POP SWAP3 SWAP6 POP SWAP3 SWAP6 SWAP1 SWAP4 POP JUMP JUMPDEST PUSH1 0x80 MLOAD PUSH1 0xA0 MLOAD PUSH2 0x17E0 PUSH2 0x27F PUSH0 CODECOPY PUSH0 DUP2 DUP2 PUSH2 0x909 ADD MSTORE PUSH2 0xA0D ADD MSTORE PUSH0 DUP2 DUP2 PUSH2 0x7CC ADD MSTORE PUSH2 0x9D1 ADD MSTORE PUSH2 0x17E0 PUSH0 RETURN INVALID PUSH1 0x80 PUSH1 0x40 MSTORE CALLVALUE DUP1 ISZERO PUSH2 0xF JUMPI PUSH0 DUP1 REVERT JUMPDEST POP PUSH1 0x4 CALLDATASIZE LT PUSH2 0xA7 JUMPI PUSH0 CALLDATALOAD PUSH1 0xE0 SHR DUP1 PUSH4 0x7547C7A3 GT PUSH2 0x6F JUMPI DUP1 PUSH4 0x7547C7A3 EQ PUSH2 0x151 JUMPI DUP1 PUSH4 0x7CD38FF8 EQ PUSH2 0x16D JUMPI DUP1 PUSH4 0x9233BE0D EQ PUSH2 0x19D JUMPI DUP1 PUSH4 0x94985DDD EQ PUSH2 0x1CD JUMPI DUP1 PUSH4 0xC9CF5DDF EQ PUSH2 0x1E9 JUMPI DUP1 PUSH4 0xEA1B28E0 EQ PUSH2 0x207 JUMPI PUSH2 0xA7 JUMP JUMPDEST DUP1 PUSH4 0x16934FC4 EQ PUSH2 0xAB JUMPI DUP1 PUSH4 0x266D3730 EQ PUSH2 0xDB JUMPI DUP1 PUSH4 0x375B3C0A EQ PUSH2 0xF9 JUMPI DUP1 PUSH4 0x608E4DD0 EQ PUSH2 0x117 JUMPI DUP1 PUSH4 0x6CA33109 EQ PUSH2 0x133 JUMPI JUMPDEST PUSH0 DUP1 REVERT JUMPDEST PUSH2 0xC5 PUSH1 0x4 DUP1 CALLDATASIZE SUB DUP2 ADD SWAP1 PUSH2 0xC0 SWAP2 SWAP1 PUSH2 0xD4A JUMP JUMPDEST PUSH2 0x225 JUMP JUMPDEST PUSH1 0x40 MLOAD PUSH2 0xD2 SWAP2 SWAP1 PUSH2 0xD8D JUMP JUMPDEST PUSH1 0x40 MLOAD DUP1 SWAP2 SUB SWAP1 RETURN JUMPDEST PUSH2 0xE3 PUSH2 0x23A JUMP JUMPDEST PUSH1 0x40 MLOAD PUSH2 0xF0 SWAP2 SWAP1 PUSH2 0xD8D JUMP JUMPDEST PUSH1 0x40 MLOAD DUP1 SWAP2 SUB SWAP1 RETURN JUMPDEST PUSH2 0x101 PUSH2 0x240 JUMP JUMPDEST PUSH1 0x40 MLOAD PUSH2 0x10E SWAP2 SWAP1 PUSH2 0xD8D JUMP JUMPDEST PUSH1 0x40 MLOAD DUP1 SWAP2 SUB SWAP1 RETURN JUMPDEST PUSH2 0x131 PUSH1 0x4 DUP1 CALLDATASIZE SUB DUP2 ADD SWAP1 PUSH2 0x12C SWAP2 SWAP1 PUSH2 0xDD0 JUMP JUMPDEST PUSH2 0x246 JUMP JUMPDEST STOP JUMPDEST PUSH2 0x13B PUSH2 0x5A6 JUMP JUMPDEST PUSH1 0x40 MLOAD PUSH2 0x148 SWAP2 SWAP1 PUSH2 0xD8D JUMP JUMPDEST PUSH1 0x40 MLOAD DUP1 SWAP2 SUB SWAP1 RETURN JUMPDEST PUSH2 0x16B PUSH1 0x4 DUP1 CALLDATASIZE SUB DUP2 ADD SWAP1 PUSH2 0x166 SWAP2 SWAP1 PUSH2 0xDD0 JUMP JUMPDEST PUSH2 0x5AC JUMP JUMPDEST STOP JUMPDEST PUSH2 0x187 PUSH1 0x4 DUP1 CALLDATASIZE SUB DUP2 ADD SWAP1 PUSH2 0x182 SWAP2 SWAP1 PUSH2 0xDD0 JUMP JUMPDEST PUSH2 0x78B JUMP JUMPDEST PUSH1 0x40 MLOAD PUSH2 0x194 SWAP2 SWAP1 PUSH2 0xE0A JUMP JUMPDEST PUSH1 0x40 MLOAD DUP1 SWAP2 SUB SWAP1 RETURN JUMPDEST PUSH2 0x1B7 PUSH1 0x4 DUP1 CALLDATASIZE SUB DUP2 ADD SWAP1 PUSH2 0x1B2 SWAP2 SWAP1 PUSH2 0xDD0 JUMP JUMPDEST PUSH2 0x7C6 JUMP JUMPDEST PUSH1 0x40 MLOAD PUSH2 0x1C4 SWAP2 SWAP1 PUSH2 0xE3B JUMP JUMPDEST PUSH1 0x40 MLOAD DUP1 SWAP2 SUB SWAP1 RETURN JUMPDEST PUSH2 0x1E7 PUSH1 0x4 DUP1 CALLDATASIZE SUB DUP2 ADD SWAP1 PUSH2 0x1E2 SWAP2 SWAP1 PUSH2 0xE7E JUMP JUMPDEST PUSH2 0x907 JUMP JUMPDEST STOP JUMPDEST PUSH2 0x1F1 PUSH2 0x9A3 JUMP JUMPDEST PUSH1 0x40 MLOAD PUSH2 0x1FE SWAP2 SWAP1 PUSH2 0xF17 JUMP JUMPDEST PUSH1 0x40 MLOAD DUP1 SWAP2 SUB SWAP1 RETURN JUMPDEST PUSH2 0x20F PUSH2 0x9C8 JUMP JUMPDEST PUSH1 0x40 MLOAD PUSH2 0x21C SWAP2 SWAP1 PUSH2 0xD8D JUMP JUMPDEST PUSH1 0x40 MLOAD DUP1 SWAP2 SUB SWAP1 RETURN JUMPDEST PUSH1 0x2 PUSH1 0x20 MSTORE DUP1 PUSH0 MSTORE PUSH1 0x40 PUSH0 KECCAK256 PUSH0 SWAP2 POP SWAP1 POP SLOAD DUP2 JUMP JUMPDEST PUSH1 0x6 SLOAD DUP2 JUMP JUMPDEST PUSH1 0x7 SLOAD DUP2 JUMP JUMPDEST DUP1 PUSH1 0x2 PUSH0 CALLER PUSH20 0xFFFFFFFFFFFFFFFFFFFFFFFFFFFFFFFFFFFFFFFF AND PUSH20 0xFFFFFFFFFFFFFFFFFFFFFFFFFFFFFFFFFFFFFFFF AND DUP2 MSTORE PUSH1 0x20 ADD SWAP1 DUP2 MSTORE PUSH1 0x20 ADD PUSH0 KECCAK256 SLOAD LT ISZERO PUSH2 0x2C6 JUMPI PUSH1 0x40 MLOAD PUSH32 0x8C379A000000000000000000000000000000000000000000000000000000000 DUP2 MSTORE PUSH1 0x4 ADD PUSH2 0x2BD SWAP1 PUSH2 0xF8A JUMP JUMPDEST PUSH1 0x40 MLOAD DUP1 SWAP2 SUB SWAP1 REVERT JUMPDEST PUSH0 PUSH1 0x64 PUSH1 0x9 SLOAD DUP4 PUSH2 0x2D7 SWAP2 SWAP1 PUSH2 0xFD5 JUMP JUMPDEST PUSH2 0x2E1 SWAP2 SWAP1 PUSH2 0x1043 JUMP JUMPDEST SWAP1 POP PUSH0 DUP2 DUP4 PUSH2 0x2F0 SWAP2 SWAP1 PUSH2 0x1073 JUMP JUMPDEST SWAP1 POP DUP3 PUSH1 0x2 PUSH0 CALLER PUSH20 0xFFFFFFFFFFFFFFFFFFFFFFFFFFFFFFFFFFFFFFFF AND PUSH20 0xFFFFFFFFFFFFFFFFFFFFFFFFFFFFFFFFFFFFFFFF AND DUP2 MSTORE PUSH1 0x20 ADD SWAP1 DUP2 MSTORE PUSH1 0x20 ADD PUSH0 KECCAK256 PUSH0 DUP3 DUP3 SLOAD PUSH2 0x33E SWAP2 SWAP1 PUSH2 0x1073 JUMP JUMPDEST SWAP3 POP POP DUP2 SWAP1 SSTORE POP PUSH1 0x1 PUSH0 SWAP1 SLOAD SWAP1 PUSH2 0x100 EXP SWAP1 DIV PUSH20 0xFFFFFFFFFFFFFFFFFFFFFFFFFFFFFFFFFFFFFFFF AND PUSH20 0xFFFFFFFFFFFFFFFFFFFFFFFFFFFFFFFFFFFFFFFF AND PUSH4 0xA9059CBB CALLER DUP4 PUSH1 0x40 MLOAD DUP4 PUSH4 0xFFFFFFFF AND PUSH1 0xE0 SHL DUP2 MSTORE PUSH1 0x4 ADD PUSH2 0x3A1 SWAP3 SWAP2 SWAP1 PUSH2 0x10A6 JUMP JUMPDEST PUSH1 0x20 PUSH1 0x40 MLOAD DUP1 DUP4 SUB DUP2 PUSH0 DUP8 GAS CALL ISZERO DUP1 ISZERO PUSH2 0x3BD JUMPI RETURNDATASIZE PUSH0 DUP1 RETURNDATACOPY RETURNDATASIZE PUSH0 REVERT JUMPDEST POP POP POP POP PUSH1 0x40 MLOAD RETURNDATASIZE PUSH1 0x1F NOT PUSH1 0x1F DUP3 ADD AND DUP3 ADD DUP1 PUSH1 0x40 MSTORE POP DUP2 ADD SWAP1 PUSH2 0x3E1 SWAP2 SWAP1 PUSH2 0x1102 JUMP JUMPDEST POP PUSH0 PUSH1 0x2 PUSH0 CALLER PUSH20 0xFFFFFFFFFFFFFFFFFFFFFFFFFFFFFFFFFFFFFFFF AND PUSH20 0xFFFFFFFFFFFFFFFFFFFFFFFFFFFFFFFFFFFFFFFF AND DUP2 MSTORE PUSH1 0x20 ADD SWAP1 DUP2 MSTORE PUSH1 0x20 ADD PUSH0 KECCAK256 SLOAD SUB PUSH2 0x5A1 JUMPI PUSH0 JUMPDEST PUSH1 0x3 DUP1 SLOAD SWAP1 POP DUP2 LT ISZERO PUSH2 0x59F JUMPI CALLER PUSH20 0xFFFFFFFFFFFFFFFFFFFFFFFFFFFFFFFFFFFFFFFF AND PUSH1 0x3 DUP3 DUP2 SLOAD DUP2 LT PUSH2 0x460 JUMPI PUSH2 0x45F PUSH2 0x112D JUMP JUMPDEST JUMPDEST SWAP1 PUSH0 MSTORE PUSH1 0x20 PUSH0 KECCAK256 ADD PUSH0 SWAP1 SLOAD SWAP1 PUSH2 0x100 EXP SWAP1 DIV PUSH20 0xFFFFFFFFFFFFFFFFFFFFFFFFFFFFFFFFFFFFFFFF AND PUSH20 0xFFFFFFFFFFFFFFFFFFFFFFFFFFFFFFFFFFFFFFFF AND SUB PUSH2 0x592 JUMPI PUSH1 0x3 PUSH1 0x1 PUSH1 0x3 DUP1 SLOAD SWAP1 POP PUSH2 0x4B7 SWAP2 SWAP1 PUSH2 0x1073 JUMP JUMPDEST DUP2 SLOAD DUP2 LT PUSH2 0x4C8 JUMPI PUSH2 0x4C7 PUSH2 0x112D JUMP JUMPDEST JUMPDEST SWAP1 PUSH0 MSTORE PUSH1 0x20 PUSH0 KECCAK256 ADD PUSH0 SWAP1 SLOAD SWAP1 PUSH2 0x100 EXP SWAP1 DIV PUSH20 0xFFFFFFFFFFFFFFFFFFFFFFFFFFFFFFFFFFFFFFFF AND PUSH1 0x3 DUP3 DUP2 SLOAD DUP2 LT PUSH2 0x504 JUMPI PUSH2 0x503 PUSH2 0x112D JUMP JUMPDEST JUMPDEST SWAP1 PUSH0 MSTORE PUSH1 0x20 PUSH0 KECCAK256 ADD PUSH0 PUSH2 0x100 EXP DUP2 SLOAD DUP2 PUSH20 0xFFFFFFFFFFFFFFFFFFFFFFFFFFFFFFFFFFFFFFFF MUL NOT AND SWAP1 DUP4 PUSH20 0xFFFFFFFFFFFFFFFFFFFFFFFFFFFFFFFFFFFFFFFF AND MUL OR SWAP1 SSTORE POP PUSH1 0x3 DUP1 SLOAD DUP1 PUSH2 0x55B JUMPI PUSH2 0x55A PUSH2 0x115A JUMP JUMPDEST JUMPDEST PUSH1 0x1 SWAP1 SUB DUP2 DUP2 SWAP1 PUSH0 MSTORE PUSH1 0x20 PUSH0 KECCAK256 ADD PUSH0 PUSH2 0x100 EXP DUP2 SLOAD SWAP1 PUSH20 0xFFFFFFFFFFFFFFFFFFFFFFFFFFFFFFFFFFFFFFFF MUL NOT AND SWAP1 SSTORE SWAP1 SSTORE PUSH2 0x59F JUMP JUMPDEST DUP1 DUP1 PUSH1 0x1 ADD SWAP2 POP POP PUSH2 0x428 JUMP JUMPDEST POP JUMPDEST POP POP POP JUMP JUMPDEST PUSH1 0x9 SLOAD DUP2 JUMP JUMPDEST PUSH1 0x7 SLOAD DUP2 LT ISZERO PUSH2 0x5F1 JUMPI PUSH1 0x40 MLOAD PUSH32 0x8C379A000000000000000000000000000000000000000000000000000000000 DUP2 MSTORE PUSH1 0x4 ADD PUSH2 0x5E8 SWAP1 PUSH2 0x11F7 JUMP JUMPDEST PUSH1 0x40 MLOAD DUP1 SWAP2 SUB SWAP1 REVERT JUMPDEST PUSH1 0x8 SLOAD DUP2 GT ISZERO PUSH2 0x636 JUMPI PUSH1 0x40 MLOAD PUSH32 0x8C379A000000000000000000000000000000000000000000000000000000000 DUP2 MSTORE PUSH1 0x4 ADD PUSH2 0x62D SWAP1 PUSH2 0x1285 JUMP JUMPDEST PUSH1 0x40 MLOAD DUP1 SWAP2 SUB SWAP1 REVERT JUMPDEST PUSH1 0x1 PUSH0 SWAP1 SLOAD SWAP1 PUSH2 0x100 EXP SWAP1 DIV PUSH20 0xFFFFFFFFFFFFFFFFFFFFFFFFFFFFFFFFFFFFFFFF AND PUSH20 0xFFFFFFFFFFFFFFFFFFFFFFFFFFFFFFFFFFFFFFFF AND PUSH4 0x23B872DD CALLER ADDRESS DUP5 PUSH1 0x40 MLOAD DUP5 PUSH4 0xFFFFFFFF AND PUSH1 0xE0 SHL DUP2 MSTORE PUSH1 0x4 ADD PUSH2 0x694 SWAP4 SWAP3 SWAP2 SWAP1 PUSH2 0x12A3 JUMP JUMPDEST PUSH1 0x20 PUSH1 0x40 MLOAD DUP1 DUP4 SUB DUP2 PUSH0 DUP8 GAS CALL ISZERO DUP1 ISZERO PUSH2 0x6B0 JUMPI RETURNDATASIZE PUSH0 DUP1 RETURNDATACOPY RETURNDATASIZE PUSH0 REVERT JUMPDEST POP POP POP POP PUSH1 0x40 MLOAD RETURNDATASIZE PUSH1 0x1F NOT PUSH1 0x1F DUP3 ADD AND DUP3 ADD DUP1 PUSH1 0x40 MSTORE POP DUP2 ADD SWAP1 PUSH2 0x6D4 SWAP2 SWAP1 PUSH2 0x1102 JUMP JUMPDEST POP DUP1 PUSH1 0x2 PUSH0 CALLER PUSH20 0xFFFFFFFFFFFFFFFFFFFFFFFFFFFFFFFFFFFFFFFF AND PUSH20 0xFFFFFFFFFFFFFFFFFFFFFFFFFFFFFFFFFFFFFFFF AND DUP2 MSTORE PUSH1 0x20 ADD SWAP1 DUP2 MSTORE PUSH1 0x20 ADD PUSH0 KECCAK256 PUSH0 DUP3 DUP3 SLOAD PUSH2 0x721 SWAP2 SWAP1 PUSH2 0x12D8 JUMP JUMPDEST SWAP3 POP POP DUP2 SWAP1 SSTORE POP PUSH1 0x3 CALLER SWAP1 DUP1 PUSH1 0x1 DUP2 SLOAD ADD DUP1 DUP3 SSTORE DUP1 SWAP2 POP POP PUSH1 0x1 SWAP1 SUB SWAP1 PUSH0 MSTORE PUSH1 0x20 PUSH0 KECCAK256 ADD PUSH0 SWAP1 SWAP2 SWAP1 SWAP2 SWAP1 SWAP2 PUSH2 0x100 EXP DUP2 SLOAD DUP2 PUSH20 0xFFFFFFFFFFFFFFFFFFFFFFFFFFFFFFFFFFFFFFFF MUL NOT AND SWAP1 DUP4 PUSH20 0xFFFFFFFFFFFFFFFFFFFFFFFFFFFFFFFFFFFFFFFF AND MUL OR SWAP1 SSTORE POP POP JUMP JUMPDEST PUSH1 0x3 DUP2 DUP2 SLOAD DUP2 LT PUSH2 0x79A JUMPI PUSH0 DUP1 REVERT JUMPDEST SWAP1 PUSH0 MSTORE PUSH1 0x20 PUSH0 KECCAK256 ADD PUSH0 SWAP2 POP SLOAD SWAP1 PUSH2 0x100 EXP SWAP1 DIV PUSH20 0xFFFFFFFFFFFFFFFFFFFFFFFFFFFFFFFFFFFFFFFF AND DUP2 JUMP JUMPDEST PUSH0 PUSH1 0x5 SLOAD PUSH32 0x0 PUSH20 0xFFFFFFFFFFFFFFFFFFFFFFFFFFFFFFFFFFFFFFFF AND PUSH4 0x70A08231 ADDRESS PUSH1 0x40 MLOAD DUP3 PUSH4 0xFFFFFFFF AND PUSH1 0xE0 SHL DUP2 MSTORE PUSH1 0x4 ADD PUSH2 0x823 SWAP2 SWAP1 PUSH2 0xE0A JUMP JUMPDEST PUSH1 0x20 PUSH1 0x40 MLOAD DUP1 DUP4 SUB DUP2 DUP7 GAS STATICCALL ISZERO DUP1 ISZERO PUSH2 0x83E JUMPI RETURNDATASIZE PUSH0 DUP1 RETURNDATACOPY RETURNDATASIZE PUSH0 REVERT JUMPDEST POP POP POP POP PUSH1 0x40 MLOAD RETURNDATASIZE PUSH1 0x1F NOT PUSH1 0x1F DUP3 ADD AND DUP3 ADD DUP1 PUSH1 0x40 MSTORE POP DUP2 ADD SWAP1 PUSH2 0x862 SWAP2 SWAP1 PUSH2 0x131F JUMP JUMPDEST LT ISZERO PUSH2 0x8A3 JUMPI PUSH1 0x40 MLOAD PUSH32 0x8C379A000000000000000000000000000000000000000000000000000000000 DUP2 MSTORE PUSH1 0x4 ADD PUSH2 0x89A SWAP1 PUSH2 0x13BA JUMP JUMPDEST PUSH1 0x40 MLOAD DUP1 SWAP2 SUB SWAP1 REVERT JUMPDEST PUSH1 0x3 DUP1 SLOAD SWAP1 POP DUP3 GT ISZERO PUSH2 0x8EB JUMPI PUSH1 0x40 MLOAD PUSH32 0x8C379A000000000000000000000000000000000000000000000000000000000 DUP2 MSTORE PUSH1 0x4 ADD PUSH2 0x8E2 SWAP1 PUSH2 0x1448 JUMP JUMPDEST PUSH1 0x40 MLOAD DUP1 SWAP2 SUB SWAP1 REVERT JUMPDEST DUP2 PUSH1 0x6 DUP2 SWAP1 SSTORE POP PUSH2 0x900 PUSH1 0x4 SLOAD PUSH1 0x5 SLOAD PUSH2 0x9CE JUMP JUMPDEST SWAP1 POP SWAP2 SWAP1 POP JUMP JUMPDEST PUSH32 0x0 PUSH20 0xFFFFFFFFFFFFFFFFFFFFFFFFFFFFFFFFFFFFFFFF AND CALLER PUSH20 0xFFFFFFFFFFFFFFFFFFFFFFFFFFFFFFFFFFFFFFFF AND EQ PUSH2 0x995 JUMPI PUSH1 0x40 MLOAD PUSH32 0x8C379A000000000000000000000000000000000000000000000000000000000 DUP2 MSTORE PUSH1 0x4 ADD PUSH2 0x98C SWAP1 PUSH2 0x14B0 JUMP JUMPDEST PUSH1 0x40 MLOAD DUP1 SWAP2 SUB SWAP1 REVERT JUMPDEST PUSH2 0x99F DUP3 DUP3 PUSH2 0xB11 JUMP JUMPDEST POP POP JUMP JUMPDEST PUSH1 0x1 PUSH0 SWAP1 SLOAD SWAP1 PUSH2 0x100 EXP SWAP1 DIV PUSH20 0xFFFFFFFFFFFFFFFFFFFFFFFFFFFFFFFFFFFFFFFF AND DUP2 JUMP JUMPDEST PUSH1 0x8 SLOAD DUP2 JUMP JUMPDEST PUSH0 PUSH32 0x0 PUSH20 0xFFFFFFFFFFFFFFFFFFFFFFFFFFFFFFFFFFFFFFFF AND PUSH4 0x4000AEA0 PUSH32 0x0 DUP5 DUP7 PUSH0 PUSH1 0x40 MLOAD PUSH1 0x20 ADD PUSH2 0xA40 SWAP3 SWAP2 SWAP1 PUSH2 0x14CE JUMP JUMPDEST PUSH1 0x40 MLOAD PUSH1 0x20 DUP2 DUP4 SUB SUB DUP2 MSTORE SWAP1 PUSH1 0x40 MSTORE PUSH1 0x40 MLOAD DUP5 PUSH4 0xFFFFFFFF AND PUSH1 0xE0 SHL DUP2 MSTORE PUSH1 0x4 ADD PUSH2 0xA6D SWAP4 SWAP3 SWAP2 SWAP1 PUSH2 0x1565 JUMP JUMPDEST PUSH1 0x20 PUSH1 0x40 MLOAD DUP1 DUP4 SUB DUP2 PUSH0 DUP8 GAS CALL ISZERO DUP1 ISZERO PUSH2 0xA89 JUMPI RETURNDATASIZE PUSH0 DUP1 RETURNDATACOPY RETURNDATASIZE PUSH0 REVERT JUMPDEST POP POP POP POP PUSH1 0x40 MLOAD RETURNDATASIZE PUSH1 0x1F NOT PUSH1 0x1F DUP3 ADD AND DUP3 ADD DUP1 PUSH1 0x40 MSTORE POP DUP2 ADD SWAP1 PUSH2 0xAAD SWAP2 SWAP1 PUSH2 0x1102 JUMP JUMPDEST POP PUSH0 PUSH2 0xACB DUP5 PUSH0 ADDRESS PUSH0 DUP1 DUP10 DUP2 MSTORE PUSH1 0x20 ADD SWAP1 DUP2 MSTORE PUSH1 0x20 ADD PUSH0 KECCAK256 SLOAD PUSH2 0xC80 JUMP JUMPDEST SWAP1 POP PUSH1 0x1 PUSH0 DUP1 DUP7 DUP2 MSTORE PUSH1 0x20 ADD SWAP1 DUP2 MSTORE PUSH1 0x20 ADD PUSH0 KECCAK256 SLOAD PUSH2 0xAEA SWAP2 SWAP1 PUSH2 0x12D8 JUMP JUMPDEST PUSH0 DUP1 DUP7 DUP2 MSTORE PUSH1 0x20 ADD SWAP1 DUP2 MSTORE PUSH1 0x20 ADD PUSH0 KECCAK256 DUP2 SWAP1 SSTORE POP PUSH2 0xB08 DUP5 DUP3 PUSH2 0xCBA JUMP JUMPDEST SWAP2 POP POP SWAP3 SWAP2 POP POP JUMP JUMPDEST PUSH0 PUSH1 0x6 SLOAD PUSH8 0xFFFFFFFFFFFFFFFF DUP2 GT ISZERO PUSH2 0xB2E JUMPI PUSH2 0xB2D PUSH2 0x15A1 JUMP JUMPDEST JUMPDEST PUSH1 0x40 MLOAD SWAP1 DUP1 DUP3 MSTORE DUP1 PUSH1 0x20 MUL PUSH1 0x20 ADD DUP3 ADD PUSH1 0x40 MSTORE DUP1 ISZERO PUSH2 0xB5C JUMPI DUP2 PUSH1 0x20 ADD PUSH1 0x20 DUP3 MUL DUP1 CALLDATASIZE DUP4 CALLDATACOPY DUP1 DUP3 ADD SWAP2 POP POP SWAP1 POP JUMPDEST POP SWAP1 POP PUSH0 JUMPDEST PUSH1 0x6 SLOAD DUP2 LT ISZERO PUSH2 0xC43 JUMPI PUSH0 PUSH1 0x3 DUP1 SLOAD SWAP1 POP DUP5 PUSH2 0xB7D SWAP2 SWAP1 PUSH2 0x15CE JUMP JUMPDEST SWAP1 POP PUSH1 0x3 DUP2 DUP2 SLOAD DUP2 LT PUSH2 0xB93 JUMPI PUSH2 0xB92 PUSH2 0x112D JUMP JUMPDEST JUMPDEST SWAP1 PUSH0 MSTORE PUSH1 0x20 PUSH0 KECCAK256 ADD PUSH0 SWAP1 SLOAD SWAP1 PUSH2 0x100 EXP SWAP1 DIV PUSH20 0xFFFFFFFFFFFFFFFFFFFFFFFFFFFFFFFFFFFFFFFF AND DUP4 DUP4 DUP2 MLOAD DUP2 LT PUSH2 0xBCE JUMPI PUSH2 0xBCD PUSH2 0x112D JUMP JUMPDEST JUMPDEST PUSH1 0x20 MUL PUSH1 0x20 ADD ADD SWAP1 PUSH20 0xFFFFFFFFFFFFFFFFFFFFFFFFFFFFFFFFFFFFFFFF AND SWAP1 DUP2 PUSH20 0xFFFFFFFFFFFFFFFFFFFFFFFFFFFFFFFFFFFFFFFF AND DUP2 MSTORE POP POP DUP4 DUP3 PUSH1 0x40 MLOAD PUSH1 0x20 ADD PUSH2 0xC1B SWAP3 SWAP2 SWAP1 PUSH2 0x15FE JUMP JUMPDEST PUSH1 0x40 MLOAD PUSH1 0x20 DUP2 DUP4 SUB SUB DUP2 MSTORE SWAP1 PUSH1 0x40 MSTORE DUP1 MLOAD SWAP1 PUSH1 0x20 ADD KECCAK256 PUSH0 SHR SWAP4 POP POP DUP1 DUP1 PUSH1 0x1 ADD SWAP2 POP POP PUSH2 0xB61 JUMP JUMPDEST POP PUSH32 0xC97825E5374B835CDCD76E5DA76FC12B913FBB7C548601763FA1ABD26054F083 DUP2 PUSH1 0x40 MLOAD PUSH2 0xC73 SWAP2 SWAP1 PUSH2 0x16DC JUMP JUMPDEST PUSH1 0x40 MLOAD DUP1 SWAP2 SUB SWAP1 LOG1 POP POP POP JUMP JUMPDEST PUSH0 DUP5 DUP5 DUP5 DUP5 PUSH1 0x40 MLOAD PUSH1 0x20 ADD PUSH2 0xC98 SWAP5 SWAP4 SWAP3 SWAP2 SWAP1 PUSH2 0x16FC JUMP JUMPDEST PUSH1 0x40 MLOAD PUSH1 0x20 DUP2 DUP4 SUB SUB DUP2 MSTORE SWAP1 PUSH1 0x40 MSTORE DUP1 MLOAD SWAP1 PUSH1 0x20 ADD KECCAK256 PUSH0 SHR SWAP1 POP SWAP5 SWAP4 POP POP POP POP JUMP JUMPDEST PUSH0 DUP3 DUP3 PUSH1 0x40 MLOAD PUSH1 0x20 ADD PUSH2 0xCCE SWAP3 SWAP2 SWAP1 PUSH2 0x177F JUMP JUMPDEST PUSH1 0x40 MLOAD PUSH1 0x20 DUP2 DUP4 SUB SUB DUP2 MSTORE SWAP1 PUSH1 0x40 MSTORE DUP1 MLOAD SWAP1 PUSH1 0x20 ADD KECCAK256 SWAP1 POP SWAP3 SWAP2 POP POP JUMP JUMPDEST PUSH0 DUP1 REVERT JUMPDEST PUSH0 PUSH20 0xFFFFFFFFFFFFFFFFFFFFFFFFFFFFFFFFFFFFFFFF DUP3 AND SWAP1 POP SWAP2 SWAP1 POP JUMP JUMPDEST PUSH0 PUSH2 0xD19 DUP3 PUSH2 0xCF0 JUMP JUMPDEST SWAP1 POP SWAP2 SWAP1 POP JUMP JUMPDEST PUSH2 0xD29 DUP2 PUSH2 0xD0F JUMP JUMPDEST DUP2 EQ PUSH2 0xD33 JUMPI PUSH0 DUP1 REVERT JUMPDEST POP JUMP JUMPDEST PUSH0 DUP2 CALLDATALOAD SWAP1 POP PUSH2 0xD44 DUP2 PUSH2 0xD20 JUMP JUMPDEST SWAP3 SWAP2 POP POP JUMP JUMPDEST PUSH0 PUSH1 0x20 DUP3 DUP5 SUB SLT ISZERO PUSH2 0xD5F JUMPI PUSH2 0xD5E PUSH2 0xCEC JUMP JUMPDEST JUMPDEST PUSH0 PUSH2 0xD6C DUP5 DUP3 DUP6 ADD PUSH2 0xD36 JUMP JUMPDEST SWAP2 POP POP SWAP3 SWAP2 POP POP JUMP JUMPDEST PUSH0 DUP2 SWAP1 POP SWAP2 SWAP1 POP JUMP JUMPDEST PUSH2 0xD87 DUP2 PUSH2 0xD75 JUMP JUMPDEST DUP3 MSTORE POP POP JUMP JUMPDEST PUSH0 PUSH1 0x20 DUP3 ADD SWAP1 POP PUSH2 0xDA0 PUSH0 DUP4 ADD DUP5 PUSH2 0xD7E JUMP JUMPDEST SWAP3 SWAP2 POP POP JUMP JUMPDEST PUSH2 0xDAF DUP2 PUSH2 0xD75 JUMP JUMPDEST DUP2 EQ PUSH2 0xDB9 JUMPI PUSH0 DUP1 REVERT JUMPDEST POP JUMP JUMPDEST PUSH0 DUP2 CALLDATALOAD SWAP1 POP PUSH2 0xDCA DUP2 PUSH2 0xDA6 JUMP JUMPDEST SWAP3 SWAP2 POP POP JUMP JUMPDEST PUSH0 PUSH1 0x20 DUP3 DUP5 SUB SLT ISZERO PUSH2 0xDE5 JUMPI PUSH2 0xDE4 PUSH2 0xCEC JUMP JUMPDEST JUMPDEST PUSH0 PUSH2 0xDF2 DUP5 DUP3 DUP6 ADD PUSH2 0xDBC JUMP JUMPDEST SWAP2 POP POP SWAP3 SWAP2 POP POP JUMP JUMPDEST PUSH2 0xE04 DUP2 PUSH2 0xD0F JUMP JUMPDEST DUP3 MSTORE POP POP JUMP JUMPDEST PUSH0 PUSH1 0x20 DUP3 ADD SWAP1 POP PUSH2 0xE1D PUSH0 DUP4 ADD DUP5 PUSH2 0xDFB JUMP JUMPDEST SWAP3 SWAP2 POP POP JUMP JUMPDEST PUSH0 DUP2 SWAP1 POP SWAP2 SWAP1 POP JUMP JUMPDEST PUSH2 0xE35 DUP2 PUSH2 0xE23 JUMP JUMPDEST DUP3 MSTORE POP POP JUMP JUMPDEST PUSH0 PUSH1 0x20 DUP3 ADD SWAP1 POP PUSH2 0xE4E PUSH0 DUP4 ADD DUP5 PUSH2 0xE2C JUMP JUMPDEST SWAP3 SWAP2 POP POP JUMP JUMPDEST PUSH2 0xE5D DUP2 PUSH2 0xE23 JUMP JUMPDEST DUP2 EQ PUSH2 0xE67 JUMPI PUSH0 DUP1 REVERT JUMPDEST POP JUMP JUMPDEST PUSH0 DUP2 CALLDATALOAD SWAP1 POP PUSH2 0xE78 DUP2 PUSH2 0xE54 JUMP JUMPDEST SWAP3 SWAP2 POP POP JUMP JUMPDEST PUSH0 DUP1 PUSH1 0x40 DUP4 DUP6 SUB SLT ISZERO PUSH2 0xE94 JUMPI PUSH2 0xE93 PUSH2 0xCEC JUMP JUMPDEST JUMPDEST PUSH0 PUSH2 0xEA1 DUP6 DUP3 DUP7 ADD PUSH2 0xE6A JUMP JUMPDEST SWAP3 POP POP PUSH1 0x20 PUSH2 0xEB2 DUP6 DUP3 DUP7 ADD PUSH2 0xDBC JUMP JUMPDEST SWAP2 POP POP SWAP3 POP SWAP3 SWAP1 POP JUMP JUMPDEST PUSH0 DUP2 SWAP1 POP SWAP2 SWAP1 POP JUMP JUMPDEST PUSH0 PUSH2 0xEDF PUSH2 0xEDA PUSH2 0xED5 DUP5 PUSH2 0xCF0 JUMP JUMPDEST PUSH2 0xEBC JUMP JUMPDEST PUSH2 0xCF0 JUMP JUMPDEST SWAP1 POP SWAP2 SWAP1 POP JUMP JUMPDEST PUSH0 PUSH2 0xEF0 DUP3 PUSH2 0xEC5 JUMP JUMPDEST SWAP1 POP SWAP2 SWAP1 POP JUMP JUMPDEST PUSH0 PUSH2 0xF01 DUP3 PUSH2 0xEE6 JUMP JUMPDEST SWAP1 POP SWAP2 SWAP1 POP JUMP JUMPDEST PUSH2 0xF11 DUP2 PUSH2 0xEF7 JUMP JUMPDEST DUP3 MSTORE POP POP JUMP JUMPDEST PUSH0 PUSH1 0x20 DUP3 ADD SWAP1 POP PUSH2 0xF2A PUSH0 DUP4 ADD DUP5 PUSH2 0xF08 JUMP JUMPDEST SWAP3 SWAP2 POP POP JUMP JUMPDEST PUSH0 DUP3 DUP3 MSTORE PUSH1 0x20 DUP3 ADD SWAP1 POP SWAP3 SWAP2 POP POP JUMP JUMPDEST PUSH32 0x496E73756666696369656E74207374616B65642062616C616E63650000000000 PUSH0 DUP3 ADD MSTORE POP JUMP JUMPDEST PUSH0 PUSH2 0xF74 PUSH1 0x1B DUP4 PUSH2 0xF30 JUMP JUMPDEST SWAP2 POP PUSH2 0xF7F DUP3 PUSH2 0xF40 JUMP JUMPDEST PUSH1 0x20 DUP3 ADD SWAP1 POP SWAP2 SWAP1 POP JUMP JUMPDEST PUSH0 PUSH1 0x20 DUP3 ADD SWAP1 POP DUP2 DUP2 SUB PUSH0 DUP4 ADD MSTORE PUSH2 0xFA1 DUP2 PUSH2 0xF68 JUMP JUMPDEST SWAP1 POP SWAP2 SWAP1 POP JUMP JUMPDEST PUSH32 0x4E487B7100000000000000000000000000000000000000000000000000000000 PUSH0 MSTORE PUSH1 0x11 PUSH1 0x4 MSTORE PUSH1 0x24 PUSH0 REVERT JUMPDEST PUSH0 PUSH2 0xFDF DUP3 PUSH2 0xD75 JUMP JUMPDEST SWAP2 POP PUSH2 0xFEA DUP4 PUSH2 0xD75 JUMP JUMPDEST SWAP3 POP DUP3 DUP3 MUL PUSH2 0xFF8 DUP2 PUSH2 0xD75 JUMP JUMPDEST SWAP2 POP DUP3 DUP3 DIV DUP5 EQ DUP4 ISZERO OR PUSH2 0x100F JUMPI PUSH2 0x100E PUSH2 0xFA8 JUMP JUMPDEST JUMPDEST POP SWAP3 SWAP2 POP POP JUMP JUMPDEST PUSH32 0x4E487B7100000000000000000000000000000000000000000000000000000000 PUSH0 MSTORE PUSH1 0x12 PUSH1 0x4 MSTORE PUSH1 0x24 PUSH0 REVERT JUMPDEST PUSH0 PUSH2 0x104D DUP3 PUSH2 0xD75 JUMP JUMPDEST SWAP2 POP PUSH2 0x1058 DUP4 PUSH2 0xD75 JUMP JUMPDEST SWAP3 POP DUP3 PUSH2 0x1068 JUMPI PUSH2 0x1067 PUSH2 0x1016 JUMP JUMPDEST JUMPDEST DUP3 DUP3 DIV SWAP1 POP SWAP3 SWAP2 POP POP JUMP JUMPDEST PUSH0 PUSH2 0x107D DUP3 PUSH2 0xD75 JUMP JUMPDEST SWAP2 POP PUSH2 0x1088 DUP4 PUSH2 0xD75 JUMP JUMPDEST SWAP3 POP DUP3 DUP3 SUB SWAP1 POP DUP2 DUP2 GT ISZERO PUSH2 0x10A0 JUMPI PUSH2 0x109F PUSH2 0xFA8 JUMP JUMPDEST JUMPDEST SWAP3 SWAP2 POP POP JUMP JUMPDEST PUSH0 PUSH1 0x40 DUP3 ADD SWAP1 POP PUSH2 0x10B9 PUSH0 DUP4 ADD DUP6 PUSH2 0xDFB JUMP JUMPDEST PUSH2 0x10C6 PUSH1 0x20 DUP4 ADD DUP5 PUSH2 0xD7E JUMP JUMPDEST SWAP4 SWAP3 POP POP POP JUMP JUMPDEST PUSH0 DUP2 ISZERO ISZERO SWAP1 POP SWAP2 SWAP1 POP JUMP JUMPDEST PUSH2 0x10E1 DUP2 PUSH2 0x10CD JUMP JUMPDEST DUP2 EQ PUSH2 0x10EB JUMPI PUSH0 DUP1 REVERT JUMPDEST POP JUMP JUMPDEST PUSH0 DUP2 MLOAD SWAP1 POP PUSH2 0x10FC DUP2 PUSH2 0x10D8 JUMP JUMPDEST SWAP3 SWAP2 POP POP JUMP JUMPDEST PUSH0 PUSH1 0x20 DUP3 DUP5 SUB SLT ISZERO PUSH2 0x1117 JUMPI PUSH2 0x1116 PUSH2 0xCEC JUMP JUMPDEST JUMPDEST PUSH0 PUSH2 0x1124 DUP5 DUP3 DUP6 ADD PUSH2 0x10EE JUMP JUMPDEST SWAP2 POP POP SWAP3 SWAP2 POP POP JUMP JUMPDEST PUSH32 0x4E487B7100000000000000000000000000000000000000000000000000000000 PUSH0 MSTORE PUSH1 0x32 PUSH1 0x4 MSTORE PUSH1 0x24 PUSH0 REVERT JUMPDEST PUSH32 0x4E487B7100000000000000000000000000000000000000000000000000000000 PUSH0 MSTORE PUSH1 0x31 PUSH1 0x4 MSTORE PUSH1 0x24 PUSH0 REVERT JUMPDEST PUSH32 0x416D6F756E74206973206C657373207468616E20746865206D696E696D756D20 PUSH0 DUP3 ADD MSTORE PUSH32 0x7374616B65207265717569726564000000000000000000000000000000000000 PUSH1 0x20 DUP3 ADD MSTORE POP JUMP JUMPDEST PUSH0 PUSH2 0x11E1 PUSH1 0x2E DUP4 PUSH2 0xF30 JUMP JUMPDEST SWAP2 POP PUSH2 0x11EC DUP3 PUSH2 0x1187 JUMP JUMPDEST PUSH1 0x40 DUP3 ADD SWAP1 POP SWAP2 SWAP1 POP JUMP JUMPDEST PUSH0 PUSH1 0x20 DUP3 ADD SWAP1 POP DUP2 DUP2 SUB PUSH0 DUP4 ADD MSTORE PUSH2 0x120E DUP2 PUSH2 0x11D5 JUMP JUMPDEST SWAP1 POP SWAP2 SWAP1 POP JUMP JUMPDEST PUSH32 0x416D6F756E74206578636565647320746865206D6178696D756D207374616B65 PUSH0 DUP3 ADD MSTORE PUSH32 0x20616C6C6F776564000000000000000000000000000000000000000000000000 PUSH1 0x20 DUP3 ADD MSTORE POP JUMP JUMPDEST PUSH0 PUSH2 0x126F PUSH1 0x28 DUP4 PUSH2 0xF30 JUMP JUMPDEST SWAP2 POP PUSH2 0x127A DUP3 PUSH2 0x1215 JUMP JUMPDEST PUSH1 0x40 DUP3 ADD SWAP1 POP SWAP2 SWAP1 POP JUMP JUMPDEST PUSH0 PUSH1 0x20 DUP3 ADD SWAP1 POP DUP2 DUP2 SUB PUSH0 DUP4 ADD MSTORE PUSH2 0x129C DUP2 PUSH2 0x1263 JUMP JUMPDEST SWAP1 POP SWAP2 SWAP1 POP JUMP JUMPDEST PUSH0 PUSH1 0x60 DUP3 ADD SWAP1 POP PUSH2 0x12B6 PUSH0 DUP4 ADD DUP7 PUSH2 0xDFB JUMP JUMPDEST PUSH2 0x12C3 PUSH1 0x20 DUP4 ADD DUP6 PUSH2 0xDFB JUMP JUMPDEST PUSH2 0x12D0 PUSH1 0x40 DUP4 ADD DUP5 PUSH2 0xD7E JUMP JUMPDEST SWAP5 SWAP4 POP POP POP POP JUMP JUMPDEST PUSH0 PUSH2 0x12E2 DUP3 PUSH2 0xD75 JUMP JUMPDEST SWAP2 POP PUSH2 0x12ED DUP4 PUSH2 0xD75 JUMP JUMPDEST SWAP3 POP DUP3 DUP3 ADD SWAP1 POP DUP1 DUP3 GT ISZERO PUSH2 0x1305 JUMPI PUSH2 0x1304 PUSH2 0xFA8 JUMP JUMPDEST JUMPDEST SWAP3 SWAP2 POP POP JUMP JUMPDEST PUSH0 DUP2 MLOAD SWAP1 POP PUSH2 0x1319 DUP2 PUSH2 0xDA6 JUMP JUMPDEST SWAP3 SWAP2 POP POP JUMP JUMPDEST PUSH0 PUSH1 0x20 DUP3 DUP5 SUB SLT ISZERO PUSH2 0x1334 JUMPI PUSH2 0x1333 PUSH2 0xCEC JUMP JUMPDEST JUMPDEST PUSH0 PUSH2 0x1341 DUP5 DUP3 DUP6 ADD PUSH2 0x130B JUMP JUMPDEST SWAP2 POP POP SWAP3 SWAP2 POP POP JUMP JUMPDEST PUSH32 0x4E6F7420656E6F756768204C494E4B202D2066696C6C20636F6E747261637420 PUSH0 DUP3 ADD MSTORE PUSH32 0x7769746820666175636574000000000000000000000000000000000000000000 PUSH1 0x20 DUP3 ADD MSTORE POP JUMP JUMPDEST PUSH0 PUSH2 0x13A4 PUSH1 0x2B DUP4 PUSH2 0xF30 JUMP JUMPDEST SWAP2 POP PUSH2 0x13AF DUP3 PUSH2 0x134A JUMP JUMPDEST PUSH1 0x40 DUP3 ADD SWAP1 POP SWAP2 SWAP1 POP JUMP JUMPDEST PUSH0 PUSH1 0x20 DUP3 ADD SWAP1 POP DUP2 DUP2 SUB PUSH0 DUP4 ADD MSTORE PUSH2 0x13D1 DUP2 PUSH2 0x1398 JUMP JUMPDEST SWAP1 POP SWAP2 SWAP1 POP JUMP JUMPDEST PUSH32 0x4E756D626572206F66206A75726F7273206578636565647320746865206E756D PUSH0 DUP3 ADD MSTORE PUSH32 0x626572206F6620617661696C61626C65207061727469636970616E7473000000 PUSH1 0x20 DUP3 ADD MSTORE POP JUMP JUMPDEST PUSH0 PUSH2 0x1432 PUSH1 0x3D DUP4 PUSH2 0xF30 JUMP JUMPDEST SWAP2 POP PUSH2 0x143D DUP3 PUSH2 0x13D8 JUMP JUMPDEST PUSH1 0x40 DUP3 ADD SWAP1 POP SWAP2 SWAP1 POP JUMP JUMPDEST PUSH0 PUSH1 0x20 DUP3 ADD SWAP1 POP DUP2 DUP2 SUB PUSH0 DUP4 ADD MSTORE PUSH2 0x145F DUP2 PUSH2 0x1426 JUMP JUMPDEST SWAP1 POP SWAP2 SWAP1 POP JUMP JUMPDEST PUSH32 0x4F6E6C7920565246436F6F7264696E61746F722063616E2066756C66696C6C00 PUSH0 DUP3 ADD MSTORE POP JUMP JUMPDEST PUSH0 PUSH2 0x149A PUSH1 0x1F DUP4 PUSH2 0xF30 JUMP JUMPDEST SWAP2 POP PUSH2 0x14A5 DUP3 PUSH2 0x1466 JUMP JUMPDEST PUSH1 0x20 DUP3 ADD SWAP1 POP SWAP2 SWAP1 POP JUMP JUMPDEST PUSH0 PUSH1 0x20 DUP3 ADD SWAP1 POP DUP2 DUP2 SUB PUSH0 DUP4 ADD MSTORE PUSH2 0x14C7 DUP2 PUSH2 0x148E JUMP JUMPDEST SWAP1 POP SWAP2 SWAP1 POP JUMP JUMPDEST PUSH0 PUSH1 0x40 DUP3 ADD SWAP1 POP PUSH2 0x14E1 PUSH0 DUP4 ADD DUP6 PUSH2 0xE2C JUMP JUMPDEST PUSH2 0x14EE PUSH1 0x20 DUP4 ADD DUP5 PUSH2 0xD7E JUMP JUMPDEST SWAP4 SWAP3 POP POP POP JUMP JUMPDEST PUSH0 DUP2 MLOAD SWAP1 POP SWAP2 SWAP1 POP JUMP JUMPDEST PUSH0 DUP3 DUP3 MSTORE PUSH1 0x20 DUP3 ADD SWAP1 POP SWAP3 SWAP2 POP POP JUMP JUMPDEST DUP3 DUP2 DUP4 MCOPY PUSH0 DUP4 DUP4 ADD MSTORE POP POP POP JUMP JUMPDEST PUSH0 PUSH1 0x1F NOT PUSH1 0x1F DUP4 ADD AND SWAP1 POP SWAP2 SWAP1 POP JUMP JUMPDEST PUSH0 PUSH2 0x1537 DUP3 PUSH2 0x14F5 JUMP JUMPDEST PUSH2 0x1541 DUP2 DUP6 PUSH2 0x14FF JUMP JUMPDEST SWAP4 POP PUSH2 0x1551 DUP2 DUP6 PUSH1 0x20 DUP7 ADD PUSH2 0x150F JUMP JUMPDEST PUSH2 0x155A DUP2 PUSH2 0x151D JUMP JUMPDEST DUP5 ADD SWAP2 POP POP SWAP3 SWAP2 POP POP JUMP JUMPDEST PUSH0 PUSH1 0x60 DUP3 ADD SWAP1 POP PUSH2 0x1578 PUSH0 DUP4 ADD DUP7 PUSH2 0xDFB JUMP JUMPDEST PUSH2 0x1585 PUSH1 0x20 DUP4 ADD DUP6 PUSH2 0xD7E JUMP JUMPDEST DUP2 DUP2 SUB PUSH1 0x40 DUP4 ADD MSTORE PUSH2 0x1597 DUP2 DUP5 PUSH2 0x152D JUMP JUMPDEST SWAP1 POP SWAP5 SWAP4 POP POP POP POP JUMP JUMPDEST PUSH32 0x4E487B7100000000000000000000000000000000000000000000000000000000 PUSH0 MSTORE PUSH1 0x41 PUSH1 0x4 MSTORE PUSH1 0x24 PUSH0 REVERT JUMPDEST PUSH0 PUSH2 0x15D8 DUP3 PUSH2 0xD75 JUMP JUMPDEST SWAP2 POP PUSH2 0x15E3 DUP4 PUSH2 0xD75 JUMP JUMPDEST SWAP3 POP DUP3 PUSH2 0x15F3 JUMPI PUSH2 0x15F2 PUSH2 0x1016 JUMP JUMPDEST JUMPDEST DUP3 DUP3 MOD SWAP1 POP SWAP3 SWAP2 POP POP JUMP JUMPDEST PUSH0 PUSH1 0x40 DUP3 ADD SWAP1 POP PUSH2 0x1611 PUSH0 DUP4 ADD DUP6 PUSH2 0xD7E JUMP JUMPDEST PUSH2 0x161E PUSH1 0x20 DUP4 ADD DUP5 PUSH2 0xD7E JUMP JUMPDEST SWAP4 SWAP3 POP POP POP JUMP JUMPDEST PUSH0 DUP2 MLOAD SWAP1 POP SWAP2 SWAP1 POP JUMP JUMPDEST PUSH0 DUP3 DUP3 MSTORE PUSH1 0x20 DUP3 ADD SWAP1 POP SWAP3 SWAP2 POP POP JUMP JUMPDEST PUSH0 DUP2 SWAP1 POP PUSH1 0x20 DUP3 ADD SWAP1 POP SWAP2 SWAP1 POP JUMP JUMPDEST PUSH2 0x1657 DUP2 PUSH2 0xD0F JUMP JUMPDEST DUP3 MSTORE POP POP JUMP JUMPDEST PUSH0 PUSH2 0x1668 DUP4 DUP4 PUSH2 0x164E JUMP JUMPDEST PUSH1 0x20 DUP4 ADD SWAP1 POP SWAP3 SWAP2 POP POP JUMP JUMPDEST PUSH0 PUSH1 0x20 DUP3 ADD SWAP1 POP SWAP2 SWAP1 POP JUMP JUMPDEST PUSH0 PUSH2 0x168A DUP3 PUSH2 0x1625 JUMP JUMPDEST PUSH2 0x1694 DUP2 DUP6 PUSH2 0x162F JUMP JUMPDEST SWAP4 POP PUSH2 0x169F DUP4 PUSH2 0x163F JUMP JUMPDEST DUP1 PUSH0 JUMPDEST DUP4 DUP2 LT ISZERO PUSH2 0x16CF JUMPI DUP2 MLOAD PUSH2 0x16B6 DUP9 DUP3 PUSH2 0x165D JUMP JUMPDEST SWAP8 POP PUSH2 0x16C1 DUP4 PUSH2 0x1674 JUMP JUMPDEST SWAP3 POP POP PUSH1 0x1 DUP2 ADD SWAP1 POP PUSH2 0x16A2 JUMP JUMPDEST POP DUP6 SWAP4 POP POP POP POP SWAP3 SWAP2 POP POP JUMP JUMPDEST PUSH0 PUSH1 0x20 DUP3 ADD SWAP1 POP DUP2 DUP2 SUB PUSH0 DUP4 ADD MSTORE PUSH2 0x16F4 DUP2 DUP5 PUSH2 0x1680 JUMP JUMPDEST SWAP1 POP SWAP3 SWAP2 POP POP JUMP JUMPDEST PUSH0 PUSH1 0x80 DUP3 ADD SWAP1 POP PUSH2 0x170F PUSH0 DUP4 ADD DUP8 PUSH2 0xE2C JUMP JUMPDEST PUSH2 0x171C PUSH1 0x20 DUP4 ADD DUP7 PUSH2 0xD7E JUMP JUMPDEST PUSH2 0x1729 PUSH1 0x40 DUP4 ADD DUP6 PUSH2 0xDFB JUMP JUMPDEST PUSH2 0x1736 PUSH1 0x60 DUP4 ADD DUP5 PUSH2 0xD7E JUMP JUMPDEST SWAP6 SWAP5 POP POP POP POP POP JUMP JUMPDEST PUSH0 DUP2 SWAP1 POP SWAP2 SWAP1 POP JUMP JUMPDEST PUSH2 0x1759 PUSH2 0x1754 DUP3 PUSH2 0xE23 JUMP JUMPDEST PUSH2 0x173F JUMP JUMPDEST DUP3 MSTORE POP POP JUMP JUMPDEST PUSH0 DUP2 SWAP1 POP SWAP2 SWAP1 POP JUMP JUMPDEST PUSH2 0x1779 PUSH2 0x1774 DUP3 PUSH2 0xD75 JUMP JUMPDEST PUSH2 0x175F JUMP JUMPDEST DUP3 MSTORE POP POP JUMP JUMPDEST PUSH0 PUSH2 0x178A DUP3 DUP6 PUSH2 0x1748 JUMP JUMPDEST PUSH1 0x20 DUP3 ADD SWAP2 POP PUSH2 0x179A DUP3 DUP5 PUSH2 0x1768 JUMP JUMPDEST PUSH1 0x20 DUP3 ADD SWAP2 POP DUP2 SWAP1 POP SWAP4 SWAP3 POP POP POP JUMP INVALID LOG2 PUSH5 0x6970667358 0x22 SLT KECCAK256 0xBA SHR 0xDF 0x29 0x2D 0xE2 0xD0 SWAP12 0xDA 0xD1 INVALID 0xDE 0xE8 0xE7 PUSH6 0xD20B372E12D PUSH15 0xE0DDFC9A2058BE3D4BE364736F6C63 NUMBER STOP ADDMOD BYTE STOP CALLER "
		},
		"gasEstimates": {
			"creation": {
				"codeDepositCost": "1222400",
				"executionCost": "infinite",
				"totalCost": "infinite"
			},
			"external": {
				"grullToken()": "infinite",
				"jurors(uint256)": "4966",
				"maxStake()": "2535",
				"minStake()": "2470",
				"numJurorsToSelect()": "2448",
				"rawFulfillRandomness(bytes32,uint256)": "infinite",
				"selectJurors(uint256)": "infinite",
				"stakeTokens(uint256)": "infinite",
				"stakes(address)": "2803",
				"unstakePenaltyPercent()": "2514",
				"unstakeTokens(uint256)": "infinite"
			},
			"internal": {
				"fulfillRandomness(bytes32,uint256)": "infinite"
			}
		},
		"methodIdentifiers": {
			"grullToken()": "c9cf5ddf",
			"jurors(uint256)": "7cd38ff8",
			"maxStake()": "ea1b28e0",
			"minStake()": "375b3c0a",
			"numJurorsToSelect()": "266d3730",
			"rawFulfillRandomness(bytes32,uint256)": "94985ddd",
			"selectJurors(uint256)": "9233be0d",
			"stakeTokens(uint256)": "7547c7a3",
			"stakes(address)": "16934fc4",
			"unstakePenaltyPercent()": "6ca33109",
			"unstakeTokens(uint256)": "608e4dd0"
		}
	},
	"abi": [
		{
			"inputs": [
				{
					"internalType": "address",
					"name": "_grullTokenAddress",
					"type": "address"
				},
				{
					"internalType": "address",
					"name": "_vrfCoordinator",
					"type": "address"
				},
				{
					"internalType": "address",
					"name": "_linkToken",
					"type": "address"
				},
				{
					"internalType": "bytes32",
					"name": "_keyHash",
					"type": "bytes32"
				},
				{
					"internalType": "uint256",
					"name": "_fee",
					"type": "uint256"
				}
			],
			"stateMutability": "nonpayable",
			"type": "constructor"
		},
		{
			"anonymous": false,
			"inputs": [
				{
					"indexed": false,
					"internalType": "address[]",
					"name": "selectedJurors",
					"type": "address[]"
				}
			],
			"name": "JurorsSelected",
			"type": "event"
		},
		{
			"inputs": [],
			"name": "grullToken",
			"outputs": [
				{
					"internalType": "contract IERC20",
					"name": "",
					"type": "address"
				}
			],
			"stateMutability": "view",
			"type": "function"
		},
		{
			"inputs": [
				{
					"internalType": "uint256",
					"name": "",
					"type": "uint256"
				}
			],
			"name": "jurors",
			"outputs": [
				{
					"internalType": "address",
					"name": "",
					"type": "address"
				}
			],
			"stateMutability": "view",
			"type": "function"
		},
		{
			"inputs": [],
			"name": "maxStake",
			"outputs": [
				{
					"internalType": "uint256",
					"name": "",
					"type": "uint256"
				}
			],
			"stateMutability": "view",
			"type": "function"
		},
		{
			"inputs": [],
			"name": "minStake",
			"outputs": [
				{
					"internalType": "uint256",
					"name": "",
					"type": "uint256"
				}
			],
			"stateMutability": "view",
			"type": "function"
		},
		{
			"inputs": [],
			"name": "numJurorsToSelect",
			"outputs": [
				{
					"internalType": "uint256",
					"name": "",
					"type": "uint256"
				}
			],
			"stateMutability": "view",
			"type": "function"
		},
		{
			"inputs": [
				{
					"internalType": "bytes32",
					"name": "requestId",
					"type": "bytes32"
				},
				{
					"internalType": "uint256",
					"name": "randomness",
					"type": "uint256"
				}
			],
			"name": "rawFulfillRandomness",
			"outputs": [],
			"stateMutability": "nonpayable",
			"type": "function"
		},
		{
			"inputs": [
				{
					"internalType": "uint256",
					"name": "_numJurors",
					"type": "uint256"
				}
			],
			"name": "selectJurors",
			"outputs": [
				{
					"internalType": "bytes32",
					"name": "",
					"type": "bytes32"
				}
			],
			"stateMutability": "nonpayable",
			"type": "function"
		},
		{
			"inputs": [
				{
					"internalType": "uint256",
					"name": "_amount",
					"type": "uint256"
				}
			],
			"name": "stakeTokens",
			"outputs": [],
			"stateMutability": "nonpayable",
			"type": "function"
		},
		{
			"inputs": [
				{
					"internalType": "address",
					"name": "",
					"type": "address"
				}
			],
			"name": "stakes",
			"outputs": [
				{
					"internalType": "uint256",
					"name": "",
					"type": "uint256"
				}
			],
			"stateMutability": "view",
			"type": "function"
		},
		{
			"inputs": [],
			"name": "unstakePenaltyPercent",
			"outputs": [
				{
					"internalType": "uint256",
					"name": "",
					"type": "uint256"
				}
			],
			"stateMutability": "view",
			"type": "function"
		},
		{
			"inputs": [
				{
					"internalType": "uint256",
					"name": "_amount",
					"type": "uint256"
				}
			],
			"name": "unstakeTokens",
			"outputs": [],
			"stateMutability": "nonpayable",
			"type": "function"
		}
	]
}