{
	"data": {
		"bytecode": {
			"linkReferences": {},
			"object": "608060405234801561000f575f80fd5b506040516121ca3803806121ca8339818101604052810190610031919061055e565b806040518060400160405280600b81526020017f4752554c4c20546f6b656e0000000000000000000000000000000000000000008152506040518060400160405280600581526020017f4752554c4c00000000000000000000000000000000000000000000000000000081525081600390816100ad91906107c3565b5080600490816100bd91906107c3565b5050505f73ffffffffffffffffffffffffffffffffffffffff168173ffffffffffffffffffffffffffffffffffffffff1603610130575f6040517f1e4fbdf700000000000000000000000000000000000000000000000000000000815260040161012791906108a1565b60405180910390fd5b61013f8161019760201b60201c565b506101773361015261025a60201b60201c565b600a61015e9190610a22565b620f424061016c9190610a6c565b61026260201b60201c565b5f600560146101000a81548160ff02191690831515021790555050610b3d565b5f60055f9054906101000a900473ffffffffffffffffffffffffffffffffffffffff1690508160055f6101000a81548173ffffffffffffffffffffffffffffffffffffffff021916908373ffffffffffffffffffffffffffffffffffffffff1602179055508173ffffffffffffffffffffffffffffffffffffffff168173ffffffffffffffffffffffffffffffffffffffff167f8be0079c531659141344cd1fd0a4f28419497f9722a3daafe3b4186f6b6457e060405160405180910390a35050565b5f6012905090565b5f73ffffffffffffffffffffffffffffffffffffffff168273ffffffffffffffffffffffffffffffffffffffff16036102d2575f6040517fec442f050000000000000000000000000000000000000000000000000000000081526004016102c991906108a1565b60405180910390fd5b6102e35f83836102e760201b60201c565b5050565b5f73ffffffffffffffffffffffffffffffffffffffff168373ffffffffffffffffffffffffffffffffffffffff1603610337578060025f82825461032b9190610aad565b92505081905550610405565b5f805f8573ffffffffffffffffffffffffffffffffffffffff1673ffffffffffffffffffffffffffffffffffffffff1681526020019081526020015f20549050818110156103c0578381836040517fe450d38c0000000000000000000000000000000000000000000000000000000081526004016103b793929190610aef565b60405180910390fd5b8181035f808673ffffffffffffffffffffffffffffffffffffffff1673ffffffffffffffffffffffffffffffffffffffff1681526020019081526020015f2081905550505b5f73ffffffffffffffffffffffffffffffffffffffff168273ffffffffffffffffffffffffffffffffffffffff160361044c578060025f8282540392505081905550610496565b805f808473ffffffffffffffffffffffffffffffffffffffff1673ffffffffffffffffffffffffffffffffffffffff1681526020019081526020015f205f82825401925050819055505b8173ffffffffffffffffffffffffffffffffffffffff168373ffffffffffffffffffffffffffffffffffffffff167fddf252ad1be2c89b69c2b068fc378daa952ba7f163c4a11628f55a4df523b3ef836040516104f39190610b24565b60405180910390a3505050565b5f80fd5b5f73ffffffffffffffffffffffffffffffffffffffff82169050919050565b5f61052d82610504565b9050919050565b61053d81610523565b8114610547575f80fd5b50565b5f8151905061055881610534565b92915050565b5f6020828403121561057357610572610500565b5b5f6105808482850161054a565b91505092915050565b5f81519050919050565b7f4e487b71000000000000000000000000000000000000000000000000000000005f52604160045260245ffd5b7f4e487b71000000000000000000000000000000000000000000000000000000005f52602260045260245ffd5b5f600282049050600182168061060457607f821691505b602082108103610617576106166105c0565b5b50919050565b5f819050815f5260205f209050919050565b5f6020601f8301049050919050565b5f82821b905092915050565b5f600883026106797fffffffffffffffffffffffffffffffffffffffffffffffffffffffffffffffff8261063e565b610683868361063e565b95508019841693508086168417925050509392505050565b5f819050919050565b5f819050919050565b5f6106c76106c26106bd8461069b565b6106a4565b61069b565b9050919050565b5f819050919050565b6106e0836106ad565b6106f46106ec826106ce565b84845461064a565b825550505050565b5f90565b6107086106fc565b6107138184846106d7565b505050565b5b818110156107365761072b5f82610700565b600181019050610719565b5050565b601f82111561077b5761074c8161061d565b6107558461062f565b81016020851015610764578190505b6107786107708561062f565b830182610718565b50505b505050565b5f82821c905092915050565b5f61079b5f1984600802610780565b1980831691505092915050565b5f6107b3838361078c565b9150826002028217905092915050565b6107cc82610589565b67ffffffffffffffff8111156107e5576107e4610593565b5b6107ef82546105ed565b6107fa82828561073a565b5f60209050601f83116001811461082b575f8415610819578287015190505b61082385826107a8565b86555061088a565b601f1984166108398661061d565b5f5b828110156108605784890151825560018201915060208501945060208101905061083b565b8683101561087d5784890151610879601f89168261078c565b8355505b6001600288020188555050505b505050505050565b61089b81610523565b82525050565b5f6020820190506108b45f830184610892565b92915050565b7f4e487b71000000000000000000000000000000000000000000000000000000005f52601160045260245ffd5b5f8160011c9050919050565b5f808291508390505b600185111561093c57808604811115610918576109176108ba565b5b60018516156109275780820291505b8081029050610935856108e7565b94506108fc565b94509492505050565b5f826109545760019050610a0f565b81610961575f9050610a0f565b81600181146109775760028114610981576109b0565b6001915050610a0f565b60ff841115610993576109926108ba565b5b8360020a9150848211156109aa576109a96108ba565b5b50610a0f565b5060208310610133831016604e8410600b84101617156109e55782820a9050838111156109e0576109df6108ba565b5b610a0f565b6109f284848460016108f3565b92509050818404811115610a0957610a086108ba565b5b81810290505b9392505050565b5f60ff82169050919050565b5f610a2c8261069b565b9150610a3783610a16565b9250610a647fffffffffffffffffffffffffffffffffffffffffffffffffffffffffffffffff8484610945565b905092915050565b5f610a768261069b565b9150610a818361069b565b9250828202610a8f8161069b565b91508282048414831517610aa657610aa56108ba565b5b5092915050565b5f610ab78261069b565b9150610ac28361069b565b9250828201905080821115610ada57610ad96108ba565b5b92915050565b610ae98161069b565b82525050565b5f606082019050610b025f830186610892565b610b0f6020830185610ae0565b610b1c6040830184610ae0565b949350505050565b5f602082019050610b375f830184610ae0565b92915050565b61168080610b4a5f395ff3fe608060405234801561000f575f80fd5b506004361061011f575f3560e01c806379cc6790116100ab578063a777a9401161006f578063a777a940146102e1578063a9059cbb14610311578063c22dc7e714610341578063dd62ed3e1461035d578063f2fde38b1461038d5761011f565b806379cc67901461024f5780638423df791461026b57806385f390fd146102895780638da5cb5b146102a557806395d89b41146102c35761011f565b8063313ce567116100f2578063313ce567146101bf57806340c10f19146101dd57806342966c68146101f957806370a0823114610215578063715018a6146102455761011f565b806306fdde0314610123578063095ea7b31461014157806318160ddd1461017157806323b872dd1461018f575b5f80fd5b61012b6103a9565b60405161013891906111ad565b60405180910390f35b61015b6004803603810190610156919061125e565b610439565b60405161016891906112b6565b60405180910390f35b61017961045b565b60405161018691906112de565b60405180910390f35b6101a960048036038101906101a491906112f7565b610464565b6040516101b691906112b6565b60405180910390f35b6101c761051a565b6040516101d49190611362565b60405180910390f35b6101f760048036038101906101f2919061125e565b610522565b005b610213600480360381019061020e919061137b565b610538565b005b61022f600480360381019061022a91906113a6565b61054c565b60405161023c91906112de565b60405180910390f35b61024d610591565b005b6102696004803603810190610264919061125e565b6105a4565b005b6102736105c4565b60405161028091906112b6565b60405180910390f35b6102a3600480360381019061029e91906113fb565b6105d7565b005b6102ad610637565b6040516102ba9190611448565b60405180910390f35b6102cb61065f565b6040516102d891906111ad565b60405180910390f35b6102fb60048036038101906102f691906113a6565b6106ef565b60405161030891906112b6565b60405180910390f35b61032b6004803603810190610326919061125e565b61070c565b60405161033891906112b6565b60405180910390f35b61035b60048036038101906103569190611461565b6107c0565b005b6103776004803603810190610372919061148c565b61081c565b60405161038491906112de565b60405180910390f35b6103a760048036038101906103a291906113a6565b61089e565b005b6060600380546103b8906114f7565b80601f01602080910402602001604051908101604052809291908181526020018280546103e4906114f7565b801561042f5780601f106104065761010080835404028352916020019161042f565b820191905f5260205f20905b81548152906001019060200180831161041257829003601f168201915b5050505050905090565b5f80610443610922565b9050610450818585610929565b600191505092915050565b5f600254905090565b5f600560149054906101000a900460ff1615806104c7575060065f8573ffffffffffffffffffffffffffffffffffffffff1673ffffffffffffffffffffffffffffffffffffffff1681526020019081526020015f205f9054906101000a900460ff165b610506576040517f08c379a00000000000000000000000000000000000000000000000000000000081526004016104fd90611597565b60405180910390fd5b61051184848461093b565b90509392505050565b5f6012905090565b61052a610969565b61053482826109f0565b5050565b610549610543610922565b82610a6f565b50565b5f805f8373ffffffffffffffffffffffffffffffffffffffff1673ffffffffffffffffffffffffffffffffffffffff1681526020019081526020015f20549050919050565b610599610969565b6105a25f610aee565b565b6105b6826105b0610922565b83610bb1565b6105c08282610a6f565b5050565b600560149054906101000a900460ff1681565b6105df610969565b8060065f8473ffffffffffffffffffffffffffffffffffffffff1673ffffffffffffffffffffffffffffffffffffffff1681526020019081526020015f205f6101000a81548160ff0219169083151502179055505050565b5f60055f9054906101000a900473ffffffffffffffffffffffffffffffffffffffff16905090565b60606004805461066e906114f7565b80601f016020809104026020016040519081016040528092919081815260200182805461069a906114f7565b80156106e55780601f106106bc576101008083540402835291602001916106e5565b820191905f5260205f20905b8154815290600101906020018083116106c857829003601f168201915b5050505050905090565b6006602052805f5260405f205f915054906101000a900460ff1681565b5f600560149054906101000a900460ff16158061076f575060065f3373ffffffffffffffffffffffffffffffffffffffff1673ffffffffffffffffffffffffffffffffffffffff1681526020019081526020015f205f9054906101000a900460ff165b6107ae576040517f08c379a00000000000000000000000000000000000000000000000000000000081526004016107a590611597565b60405180910390fd5b6107b88383610c43565b905092915050565b6107c8610969565b80600560146101000a81548160ff0219169083151502179055507f2ebd4f59eaa9d49c5dcd06a0afa8b39bf09928fbd60111acee2f986fa485d0988160405161081191906112b6565b60405180910390a150565b5f60015f8473ffffffffffffffffffffffffffffffffffffffff1673ffffffffffffffffffffffffffffffffffffffff1681526020019081526020015f205f8373ffffffffffffffffffffffffffffffffffffffff1673ffffffffffffffffffffffffffffffffffffffff1681526020019081526020015f2054905092915050565b6108a6610969565b5f73ffffffffffffffffffffffffffffffffffffffff168173ffffffffffffffffffffffffffffffffffffffff1603610916575f6040517f1e4fbdf700000000000000000000000000000000000000000000000000000000815260040161090d9190611448565b60405180910390fd5b61091f81610aee565b50565b5f33905090565b6109368383836001610c65565b505050565b5f80610945610922565b9050610952858285610bb1565b61095d858585610e34565b60019150509392505050565b610971610922565b73ffffffffffffffffffffffffffffffffffffffff1661098f610637565b73ffffffffffffffffffffffffffffffffffffffff16146109ee576109b2610922565b6040517f118cdaa70000000000000000000000000000000000000000000000000000000081526004016109e59190611448565b60405180910390fd5b565b5f73ffffffffffffffffffffffffffffffffffffffff168273ffffffffffffffffffffffffffffffffffffffff1603610a60575f6040517fec442f05000000000000000000000000000000000000000000000000000000008152600401610a579190611448565b60405180910390fd5b610a6b5f8383610f24565b5050565b5f73ffffffffffffffffffffffffffffffffffffffff168273ffffffffffffffffffffffffffffffffffffffff1603610adf575f6040517f96c6fd1e000000000000000000000000000000000000000000000000000000008152600401610ad69190611448565b60405180910390fd5b610aea825f83610f24565b5050565b5f60055f9054906101000a900473ffffffffffffffffffffffffffffffffffffffff1690508160055f6101000a81548173ffffffffffffffffffffffffffffffffffffffff021916908373ffffffffffffffffffffffffffffffffffffffff1602179055508173ffffffffffffffffffffffffffffffffffffffff168173ffffffffffffffffffffffffffffffffffffffff167f8be0079c531659141344cd1fd0a4f28419497f9722a3daafe3b4186f6b6457e060405160405180910390a35050565b5f610bbc848461081c565b90507fffffffffffffffffffffffffffffffffffffffffffffffffffffffffffffffff8114610c3d5781811015610c2e578281836040517ffb8f41b2000000000000000000000000000000000000000000000000000000008152600401610c25939291906115b5565b60405180910390fd5b610c3c84848484035f610c65565b5b50505050565b5f80610c4d610922565b9050610c5a818585610e34565b600191505092915050565b5f73ffffffffffffffffffffffffffffffffffffffff168473ffffffffffffffffffffffffffffffffffffffff1603610cd5575f6040517fe602df05000000000000000000000000000000000000000000000000000000008152600401610ccc9190611448565b60405180910390fd5b5f73ffffffffffffffffffffffffffffffffffffffff168373ffffffffffffffffffffffffffffffffffffffff1603610d45575f6040517f94280d62000000000000000000000000000000000000000000000000000000008152600401610d3c9190611448565b60405180910390fd5b8160015f8673ffffffffffffffffffffffffffffffffffffffff1673ffffffffffffffffffffffffffffffffffffffff1681526020019081526020015f205f8573ffffffffffffffffffffffffffffffffffffffff1673ffffffffffffffffffffffffffffffffffffffff1681526020019081526020015f20819055508015610e2e578273ffffffffffffffffffffffffffffffffffffffff168473ffffffffffffffffffffffffffffffffffffffff167f8c5be1e5ebec7d5bd14f71427d1e84f3dd0314c0f7b2291e5b200ac8c7c3b92584604051610e2591906112de565b60405180910390a35b50505050565b5f73ffffffffffffffffffffffffffffffffffffffff168373ffffffffffffffffffffffffffffffffffffffff1603610ea4575f6040517f96c6fd1e000000000000000000000000000000000000000000000000000000008152600401610e9b9190611448565b60405180910390fd5b5f73ffffffffffffffffffffffffffffffffffffffff168273ffffffffffffffffffffffffffffffffffffffff1603610f14575f6040517fec442f05000000000000000000000000000000000000000000000000000000008152600401610f0b9190611448565b60405180910390fd5b610f1f838383610f24565b505050565b5f73ffffffffffffffffffffffffffffffffffffffff168373ffffffffffffffffffffffffffffffffffffffff1603610f74578060025f828254610f689190611617565b92505081905550611042565b5f805f8573ffffffffffffffffffffffffffffffffffffffff1673ffffffffffffffffffffffffffffffffffffffff1681526020019081526020015f2054905081811015610ffd578381836040517fe450d38c000000000000000000000000000000000000000000000000000000008152600401610ff4939291906115b5565b60405180910390fd5b8181035f808673ffffffffffffffffffffffffffffffffffffffff1673ffffffffffffffffffffffffffffffffffffffff1681526020019081526020015f2081905550505b5f73ffffffffffffffffffffffffffffffffffffffff168273ffffffffffffffffffffffffffffffffffffffff1603611089578060025f82825403925050819055506110d3565b805f808473ffffffffffffffffffffffffffffffffffffffff1673ffffffffffffffffffffffffffffffffffffffff1681526020019081526020015f205f82825401925050819055505b8173ffffffffffffffffffffffffffffffffffffffff168373ffffffffffffffffffffffffffffffffffffffff167fddf252ad1be2c89b69c2b068fc378daa952ba7f163c4a11628f55a4df523b3ef8360405161113091906112de565b60405180910390a3505050565b5f81519050919050565b5f82825260208201905092915050565b8281835e5f83830152505050565b5f601f19601f8301169050919050565b5f61117f8261113d565b6111898185611147565b9350611199818560208601611157565b6111a281611165565b840191505092915050565b5f6020820190508181035f8301526111c58184611175565b905092915050565b5f80fd5b5f73ffffffffffffffffffffffffffffffffffffffff82169050919050565b5f6111fa826111d1565b9050919050565b61120a816111f0565b8114611214575f80fd5b50565b5f8135905061122581611201565b92915050565b5f819050919050565b61123d8161122b565b8114611247575f80fd5b50565b5f8135905061125881611234565b92915050565b5f8060408385031215611274576112736111cd565b5b5f61128185828601611217565b92505060206112928582860161124a565b9150509250929050565b5f8115159050919050565b6112b08161129c565b82525050565b5f6020820190506112c95f8301846112a7565b92915050565b6112d88161122b565b82525050565b5f6020820190506112f15f8301846112cf565b92915050565b5f805f6060848603121561130e5761130d6111cd565b5b5f61131b86828701611217565b935050602061132c86828701611217565b925050604061133d8682870161124a565b9150509250925092565b5f60ff82169050919050565b61135c81611347565b82525050565b5f6020820190506113755f830184611353565b92915050565b5f602082840312156113905761138f6111cd565b5b5f61139d8482850161124a565b91505092915050565b5f602082840312156113bb576113ba6111cd565b5b5f6113c884828501611217565b91505092915050565b6113da8161129c565b81146113e4575f80fd5b50565b5f813590506113f5816113d1565b92915050565b5f8060408385031215611411576114106111cd565b5b5f61141e85828601611217565b925050602061142f858286016113e7565b9150509250929050565b611442816111f0565b82525050565b5f60208201905061145b5f830184611439565b92915050565b5f60208284031215611476576114756111cd565b5b5f611483848285016113e7565b91505092915050565b5f80604083850312156114a2576114a16111cd565b5b5f6114af85828601611217565b92505060206114c085828601611217565b9150509250929050565b7f4e487b71000000000000000000000000000000000000000000000000000000005f52602260045260245ffd5b5f600282049050600182168061150e57607f821691505b602082108103611521576115206114ca565b5b50919050565b7f5472616e736665727320617265207265737472696374656420647572696e67205f8201527f6469737075746573000000000000000000000000000000000000000000000000602082015250565b5f611581602883611147565b915061158c82611527565b604082019050919050565b5f6020820190508181035f8301526115ae81611575565b9050919050565b5f6060820190506115c85f830186611439565b6115d560208301856112cf565b6115e260408301846112cf565b949350505050565b7f4e487b71000000000000000000000000000000000000000000000000000000005f52601160045260245ffd5b5f6116218261122b565b915061162c8361122b565b9250828201905080821115611644576116436115ea565b5b9291505056fea2646970667358221220de9a5bc4b2d90cfc8c0bd9b9fba3959c3801ab61ae2e03e44a80bc877619b46564736f6c634300081a0033",
			"opcodes": "PUSH1 0x80 PUSH1 0x40 MSTORE CALLVALUE DUP1 ISZERO PUSH2 0xF JUMPI PUSH0 DUP1 REVERT JUMPDEST POP PUSH1 0x40 MLOAD PUSH2 0x21CA CODESIZE SUB DUP1 PUSH2 0x21CA DUP4 CODECOPY DUP2 DUP2 ADD PUSH1 0x40 MSTORE DUP2 ADD SWAP1 PUSH2 0x31 SWAP2 SWAP1 PUSH2 0x55E JUMP JUMPDEST DUP1 PUSH1 0x40 MLOAD DUP1 PUSH1 0x40 ADD PUSH1 0x40 MSTORE DUP1 PUSH1 0xB DUP2 MSTORE PUSH1 0x20 ADD PUSH32 0x4752554C4C20546F6B656E000000000000000000000000000000000000000000 DUP2 MSTORE POP PUSH1 0x40 MLOAD DUP1 PUSH1 0x40 ADD PUSH1 0x40 MSTORE DUP1 PUSH1 0x5 DUP2 MSTORE PUSH1 0x20 ADD PUSH32 0x4752554C4C000000000000000000000000000000000000000000000000000000 DUP2 MSTORE POP DUP2 PUSH1 0x3 SWAP1 DUP2 PUSH2 0xAD SWAP2 SWAP1 PUSH2 0x7C3 JUMP JUMPDEST POP DUP1 PUSH1 0x4 SWAP1 DUP2 PUSH2 0xBD SWAP2 SWAP1 PUSH2 0x7C3 JUMP JUMPDEST POP POP POP PUSH0 PUSH20 0xFFFFFFFFFFFFFFFFFFFFFFFFFFFFFFFFFFFFFFFF AND DUP2 PUSH20 0xFFFFFFFFFFFFFFFFFFFFFFFFFFFFFFFFFFFFFFFF AND SUB PUSH2 0x130 JUMPI PUSH0 PUSH1 0x40 MLOAD PUSH32 0x1E4FBDF700000000000000000000000000000000000000000000000000000000 DUP2 MSTORE PUSH1 0x4 ADD PUSH2 0x127 SWAP2 SWAP1 PUSH2 0x8A1 JUMP JUMPDEST PUSH1 0x40 MLOAD DUP1 SWAP2 SUB SWAP1 REVERT JUMPDEST PUSH2 0x13F DUP2 PUSH2 0x197 PUSH1 0x20 SHL PUSH1 0x20 SHR JUMP JUMPDEST POP PUSH2 0x177 CALLER PUSH2 0x152 PUSH2 0x25A PUSH1 0x20 SHL PUSH1 0x20 SHR JUMP JUMPDEST PUSH1 0xA PUSH2 0x15E SWAP2 SWAP1 PUSH2 0xA22 JUMP JUMPDEST PUSH3 0xF4240 PUSH2 0x16C SWAP2 SWAP1 PUSH2 0xA6C JUMP JUMPDEST PUSH2 0x262 PUSH1 0x20 SHL PUSH1 0x20 SHR JUMP JUMPDEST PUSH0 PUSH1 0x5 PUSH1 0x14 PUSH2 0x100 EXP DUP2 SLOAD DUP2 PUSH1 0xFF MUL NOT AND SWAP1 DUP4 ISZERO ISZERO MUL OR SWAP1 SSTORE POP POP PUSH2 0xB3D JUMP JUMPDEST PUSH0 PUSH1 0x5 PUSH0 SWAP1 SLOAD SWAP1 PUSH2 0x100 EXP SWAP1 DIV PUSH20 0xFFFFFFFFFFFFFFFFFFFFFFFFFFFFFFFFFFFFFFFF AND SWAP1 POP DUP2 PUSH1 0x5 PUSH0 PUSH2 0x100 EXP DUP2 SLOAD DUP2 PUSH20 0xFFFFFFFFFFFFFFFFFFFFFFFFFFFFFFFFFFFFFFFF MUL NOT AND SWAP1 DUP4 PUSH20 0xFFFFFFFFFFFFFFFFFFFFFFFFFFFFFFFFFFFFFFFF AND MUL OR SWAP1 SSTORE POP DUP2 PUSH20 0xFFFFFFFFFFFFFFFFFFFFFFFFFFFFFFFFFFFFFFFF AND DUP2 PUSH20 0xFFFFFFFFFFFFFFFFFFFFFFFFFFFFFFFFFFFFFFFF AND PUSH32 0x8BE0079C531659141344CD1FD0A4F28419497F9722A3DAAFE3B4186F6B6457E0 PUSH1 0x40 MLOAD PUSH1 0x40 MLOAD DUP1 SWAP2 SUB SWAP1 LOG3 POP POP JUMP JUMPDEST PUSH0 PUSH1 0x12 SWAP1 POP SWAP1 JUMP JUMPDEST PUSH0 PUSH20 0xFFFFFFFFFFFFFFFFFFFFFFFFFFFFFFFFFFFFFFFF AND DUP3 PUSH20 0xFFFFFFFFFFFFFFFFFFFFFFFFFFFFFFFFFFFFFFFF AND SUB PUSH2 0x2D2 JUMPI PUSH0 PUSH1 0x40 MLOAD PUSH32 0xEC442F0500000000000000000000000000000000000000000000000000000000 DUP2 MSTORE PUSH1 0x4 ADD PUSH2 0x2C9 SWAP2 SWAP1 PUSH2 0x8A1 JUMP JUMPDEST PUSH1 0x40 MLOAD DUP1 SWAP2 SUB SWAP1 REVERT JUMPDEST PUSH2 0x2E3 PUSH0 DUP4 DUP4 PUSH2 0x2E7 PUSH1 0x20 SHL PUSH1 0x20 SHR JUMP JUMPDEST POP POP JUMP JUMPDEST PUSH0 PUSH20 0xFFFFFFFFFFFFFFFFFFFFFFFFFFFFFFFFFFFFFFFF AND DUP4 PUSH20 0xFFFFFFFFFFFFFFFFFFFFFFFFFFFFFFFFFFFFFFFF AND SUB PUSH2 0x337 JUMPI DUP1 PUSH1 0x2 PUSH0 DUP3 DUP3 SLOAD PUSH2 0x32B SWAP2 SWAP1 PUSH2 0xAAD JUMP JUMPDEST SWAP3 POP POP DUP2 SWAP1 SSTORE POP PUSH2 0x405 JUMP JUMPDEST PUSH0 DUP1 PUSH0 DUP6 PUSH20 0xFFFFFFFFFFFFFFFFFFFFFFFFFFFFFFFFFFFFFFFF AND PUSH20 0xFFFFFFFFFFFFFFFFFFFFFFFFFFFFFFFFFFFFFFFF AND DUP2 MSTORE PUSH1 0x20 ADD SWAP1 DUP2 MSTORE PUSH1 0x20 ADD PUSH0 KECCAK256 SLOAD SWAP1 POP DUP2 DUP2 LT ISZERO PUSH2 0x3C0 JUMPI DUP4 DUP2 DUP4 PUSH1 0x40 MLOAD PUSH32 0xE450D38C00000000000000000000000000000000000000000000000000000000 DUP2 MSTORE PUSH1 0x4 ADD PUSH2 0x3B7 SWAP4 SWAP3 SWAP2 SWAP1 PUSH2 0xAEF JUMP JUMPDEST PUSH1 0x40 MLOAD DUP1 SWAP2 SUB SWAP1 REVERT JUMPDEST DUP2 DUP2 SUB PUSH0 DUP1 DUP7 PUSH20 0xFFFFFFFFFFFFFFFFFFFFFFFFFFFFFFFFFFFFFFFF AND PUSH20 0xFFFFFFFFFFFFFFFFFFFFFFFFFFFFFFFFFFFFFFFF AND DUP2 MSTORE PUSH1 0x20 ADD SWAP1 DUP2 MSTORE PUSH1 0x20 ADD PUSH0 KECCAK256 DUP2 SWAP1 SSTORE POP POP JUMPDEST PUSH0 PUSH20 0xFFFFFFFFFFFFFFFFFFFFFFFFFFFFFFFFFFFFFFFF AND DUP3 PUSH20 0xFFFFFFFFFFFFFFFFFFFFFFFFFFFFFFFFFFFFFFFF AND SUB PUSH2 0x44C JUMPI DUP1 PUSH1 0x2 PUSH0 DUP3 DUP3 SLOAD SUB SWAP3 POP POP DUP2 SWAP1 SSTORE POP PUSH2 0x496 JUMP JUMPDEST DUP1 PUSH0 DUP1 DUP5 PUSH20 0xFFFFFFFFFFFFFFFFFFFFFFFFFFFFFFFFFFFFFFFF AND PUSH20 0xFFFFFFFFFFFFFFFFFFFFFFFFFFFFFFFFFFFFFFFF AND DUP2 MSTORE PUSH1 0x20 ADD SWAP1 DUP2 MSTORE PUSH1 0x20 ADD PUSH0 KECCAK256 PUSH0 DUP3 DUP3 SLOAD ADD SWAP3 POP POP DUP2 SWAP1 SSTORE POP JUMPDEST DUP2 PUSH20 0xFFFFFFFFFFFFFFFFFFFFFFFFFFFFFFFFFFFFFFFF AND DUP4 PUSH20 0xFFFFFFFFFFFFFFFFFFFFFFFFFFFFFFFFFFFFFFFF AND PUSH32 0xDDF252AD1BE2C89B69C2B068FC378DAA952BA7F163C4A11628F55A4DF523B3EF DUP4 PUSH1 0x40 MLOAD PUSH2 0x4F3 SWAP2 SWAP1 PUSH2 0xB24 JUMP JUMPDEST PUSH1 0x40 MLOAD DUP1 SWAP2 SUB SWAP1 LOG3 POP POP POP JUMP JUMPDEST PUSH0 DUP1 REVERT JUMPDEST PUSH0 PUSH20 0xFFFFFFFFFFFFFFFFFFFFFFFFFFFFFFFFFFFFFFFF DUP3 AND SWAP1 POP SWAP2 SWAP1 POP JUMP JUMPDEST PUSH0 PUSH2 0x52D DUP3 PUSH2 0x504 JUMP JUMPDEST SWAP1 POP SWAP2 SWAP1 POP JUMP JUMPDEST PUSH2 0x53D DUP2 PUSH2 0x523 JUMP JUMPDEST DUP2 EQ PUSH2 0x547 JUMPI PUSH0 DUP1 REVERT JUMPDEST POP JUMP JUMPDEST PUSH0 DUP2 MLOAD SWAP1 POP PUSH2 0x558 DUP2 PUSH2 0x534 JUMP JUMPDEST SWAP3 SWAP2 POP POP JUMP JUMPDEST PUSH0 PUSH1 0x20 DUP3 DUP5 SUB SLT ISZERO PUSH2 0x573 JUMPI PUSH2 0x572 PUSH2 0x500 JUMP JUMPDEST JUMPDEST PUSH0 PUSH2 0x580 DUP5 DUP3 DUP6 ADD PUSH2 0x54A JUMP JUMPDEST SWAP2 POP POP SWAP3 SWAP2 POP POP JUMP JUMPDEST PUSH0 DUP2 MLOAD SWAP1 POP SWAP2 SWAP1 POP JUMP JUMPDEST PUSH32 0x4E487B7100000000000000000000000000000000000000000000000000000000 PUSH0 MSTORE PUSH1 0x41 PUSH1 0x4 MSTORE PUSH1 0x24 PUSH0 REVERT JUMPDEST PUSH32 0x4E487B7100000000000000000000000000000000000000000000000000000000 PUSH0 MSTORE PUSH1 0x22 PUSH1 0x4 MSTORE PUSH1 0x24 PUSH0 REVERT JUMPDEST PUSH0 PUSH1 0x2 DUP3 DIV SWAP1 POP PUSH1 0x1 DUP3 AND DUP1 PUSH2 0x604 JUMPI PUSH1 0x7F DUP3 AND SWAP2 POP JUMPDEST PUSH1 0x20 DUP3 LT DUP2 SUB PUSH2 0x617 JUMPI PUSH2 0x616 PUSH2 0x5C0 JUMP JUMPDEST JUMPDEST POP SWAP2 SWAP1 POP JUMP JUMPDEST PUSH0 DUP2 SWAP1 POP DUP2 PUSH0 MSTORE PUSH1 0x20 PUSH0 KECCAK256 SWAP1 POP SWAP2 SWAP1 POP JUMP JUMPDEST PUSH0 PUSH1 0x20 PUSH1 0x1F DUP4 ADD DIV SWAP1 POP SWAP2 SWAP1 POP JUMP JUMPDEST PUSH0 DUP3 DUP3 SHL SWAP1 POP SWAP3 SWAP2 POP POP JUMP JUMPDEST PUSH0 PUSH1 0x8 DUP4 MUL PUSH2 0x679 PUSH32 0xFFFFFFFFFFFFFFFFFFFFFFFFFFFFFFFFFFFFFFFFFFFFFFFFFFFFFFFFFFFFFFFF DUP3 PUSH2 0x63E JUMP JUMPDEST PUSH2 0x683 DUP7 DUP4 PUSH2 0x63E JUMP JUMPDEST SWAP6 POP DUP1 NOT DUP5 AND SWAP4 POP DUP1 DUP7 AND DUP5 OR SWAP3 POP POP POP SWAP4 SWAP3 POP POP POP JUMP JUMPDEST PUSH0 DUP2 SWAP1 POP SWAP2 SWAP1 POP JUMP JUMPDEST PUSH0 DUP2 SWAP1 POP SWAP2 SWAP1 POP JUMP JUMPDEST PUSH0 PUSH2 0x6C7 PUSH2 0x6C2 PUSH2 0x6BD DUP5 PUSH2 0x69B JUMP JUMPDEST PUSH2 0x6A4 JUMP JUMPDEST PUSH2 0x69B JUMP JUMPDEST SWAP1 POP SWAP2 SWAP1 POP JUMP JUMPDEST PUSH0 DUP2 SWAP1 POP SWAP2 SWAP1 POP JUMP JUMPDEST PUSH2 0x6E0 DUP4 PUSH2 0x6AD JUMP JUMPDEST PUSH2 0x6F4 PUSH2 0x6EC DUP3 PUSH2 0x6CE JUMP JUMPDEST DUP5 DUP5 SLOAD PUSH2 0x64A JUMP JUMPDEST DUP3 SSTORE POP POP POP POP JUMP JUMPDEST PUSH0 SWAP1 JUMP JUMPDEST PUSH2 0x708 PUSH2 0x6FC JUMP JUMPDEST PUSH2 0x713 DUP2 DUP5 DUP5 PUSH2 0x6D7 JUMP JUMPDEST POP POP POP JUMP JUMPDEST JUMPDEST DUP2 DUP2 LT ISZERO PUSH2 0x736 JUMPI PUSH2 0x72B PUSH0 DUP3 PUSH2 0x700 JUMP JUMPDEST PUSH1 0x1 DUP2 ADD SWAP1 POP PUSH2 0x719 JUMP JUMPDEST POP POP JUMP JUMPDEST PUSH1 0x1F DUP3 GT ISZERO PUSH2 0x77B JUMPI PUSH2 0x74C DUP2 PUSH2 0x61D JUMP JUMPDEST PUSH2 0x755 DUP5 PUSH2 0x62F JUMP JUMPDEST DUP2 ADD PUSH1 0x20 DUP6 LT ISZERO PUSH2 0x764 JUMPI DUP2 SWAP1 POP JUMPDEST PUSH2 0x778 PUSH2 0x770 DUP6 PUSH2 0x62F JUMP JUMPDEST DUP4 ADD DUP3 PUSH2 0x718 JUMP JUMPDEST POP POP JUMPDEST POP POP POP JUMP JUMPDEST PUSH0 DUP3 DUP3 SHR SWAP1 POP SWAP3 SWAP2 POP POP JUMP JUMPDEST PUSH0 PUSH2 0x79B PUSH0 NOT DUP5 PUSH1 0x8 MUL PUSH2 0x780 JUMP JUMPDEST NOT DUP1 DUP4 AND SWAP2 POP POP SWAP3 SWAP2 POP POP JUMP JUMPDEST PUSH0 PUSH2 0x7B3 DUP4 DUP4 PUSH2 0x78C JUMP JUMPDEST SWAP2 POP DUP3 PUSH1 0x2 MUL DUP3 OR SWAP1 POP SWAP3 SWAP2 POP POP JUMP JUMPDEST PUSH2 0x7CC DUP3 PUSH2 0x589 JUMP JUMPDEST PUSH8 0xFFFFFFFFFFFFFFFF DUP2 GT ISZERO PUSH2 0x7E5 JUMPI PUSH2 0x7E4 PUSH2 0x593 JUMP JUMPDEST JUMPDEST PUSH2 0x7EF DUP3 SLOAD PUSH2 0x5ED JUMP JUMPDEST PUSH2 0x7FA DUP3 DUP3 DUP6 PUSH2 0x73A JUMP JUMPDEST PUSH0 PUSH1 0x20 SWAP1 POP PUSH1 0x1F DUP4 GT PUSH1 0x1 DUP2 EQ PUSH2 0x82B JUMPI PUSH0 DUP5 ISZERO PUSH2 0x819 JUMPI DUP3 DUP8 ADD MLOAD SWAP1 POP JUMPDEST PUSH2 0x823 DUP6 DUP3 PUSH2 0x7A8 JUMP JUMPDEST DUP7 SSTORE POP PUSH2 0x88A JUMP JUMPDEST PUSH1 0x1F NOT DUP5 AND PUSH2 0x839 DUP7 PUSH2 0x61D JUMP JUMPDEST PUSH0 JUMPDEST DUP3 DUP2 LT ISZERO PUSH2 0x860 JUMPI DUP5 DUP10 ADD MLOAD DUP3 SSTORE PUSH1 0x1 DUP3 ADD SWAP2 POP PUSH1 0x20 DUP6 ADD SWAP5 POP PUSH1 0x20 DUP2 ADD SWAP1 POP PUSH2 0x83B JUMP JUMPDEST DUP7 DUP4 LT ISZERO PUSH2 0x87D JUMPI DUP5 DUP10 ADD MLOAD PUSH2 0x879 PUSH1 0x1F DUP10 AND DUP3 PUSH2 0x78C JUMP JUMPDEST DUP4 SSTORE POP JUMPDEST PUSH1 0x1 PUSH1 0x2 DUP9 MUL ADD DUP9 SSTORE POP POP POP JUMPDEST POP POP POP POP POP POP JUMP JUMPDEST PUSH2 0x89B DUP2 PUSH2 0x523 JUMP JUMPDEST DUP3 MSTORE POP POP JUMP JUMPDEST PUSH0 PUSH1 0x20 DUP3 ADD SWAP1 POP PUSH2 0x8B4 PUSH0 DUP4 ADD DUP5 PUSH2 0x892 JUMP JUMPDEST SWAP3 SWAP2 POP POP JUMP JUMPDEST PUSH32 0x4E487B7100000000000000000000000000000000000000000000000000000000 PUSH0 MSTORE PUSH1 0x11 PUSH1 0x4 MSTORE PUSH1 0x24 PUSH0 REVERT JUMPDEST PUSH0 DUP2 PUSH1 0x1 SHR SWAP1 POP SWAP2 SWAP1 POP JUMP JUMPDEST PUSH0 DUP1 DUP3 SWAP2 POP DUP4 SWAP1 POP JUMPDEST PUSH1 0x1 DUP6 GT ISZERO PUSH2 0x93C JUMPI DUP1 DUP7 DIV DUP2 GT ISZERO PUSH2 0x918 JUMPI PUSH2 0x917 PUSH2 0x8BA JUMP JUMPDEST JUMPDEST PUSH1 0x1 DUP6 AND ISZERO PUSH2 0x927 JUMPI DUP1 DUP3 MUL SWAP2 POP JUMPDEST DUP1 DUP2 MUL SWAP1 POP PUSH2 0x935 DUP6 PUSH2 0x8E7 JUMP JUMPDEST SWAP5 POP PUSH2 0x8FC JUMP JUMPDEST SWAP5 POP SWAP5 SWAP3 POP POP POP JUMP JUMPDEST PUSH0 DUP3 PUSH2 0x954 JUMPI PUSH1 0x1 SWAP1 POP PUSH2 0xA0F JUMP JUMPDEST DUP2 PUSH2 0x961 JUMPI PUSH0 SWAP1 POP PUSH2 0xA0F JUMP JUMPDEST DUP2 PUSH1 0x1 DUP2 EQ PUSH2 0x977 JUMPI PUSH1 0x2 DUP2 EQ PUSH2 0x981 JUMPI PUSH2 0x9B0 JUMP JUMPDEST PUSH1 0x1 SWAP2 POP POP PUSH2 0xA0F JUMP JUMPDEST PUSH1 0xFF DUP5 GT ISZERO PUSH2 0x993 JUMPI PUSH2 0x992 PUSH2 0x8BA JUMP JUMPDEST JUMPDEST DUP4 PUSH1 0x2 EXP SWAP2 POP DUP5 DUP3 GT ISZERO PUSH2 0x9AA JUMPI PUSH2 0x9A9 PUSH2 0x8BA JUMP JUMPDEST JUMPDEST POP PUSH2 0xA0F JUMP JUMPDEST POP PUSH1 0x20 DUP4 LT PUSH2 0x133 DUP4 LT AND PUSH1 0x4E DUP5 LT PUSH1 0xB DUP5 LT AND OR ISZERO PUSH2 0x9E5 JUMPI DUP3 DUP3 EXP SWAP1 POP DUP4 DUP2 GT ISZERO PUSH2 0x9E0 JUMPI PUSH2 0x9DF PUSH2 0x8BA JUMP JUMPDEST JUMPDEST PUSH2 0xA0F JUMP JUMPDEST PUSH2 0x9F2 DUP5 DUP5 DUP5 PUSH1 0x1 PUSH2 0x8F3 JUMP JUMPDEST SWAP3 POP SWAP1 POP DUP2 DUP5 DIV DUP2 GT ISZERO PUSH2 0xA09 JUMPI PUSH2 0xA08 PUSH2 0x8BA JUMP JUMPDEST JUMPDEST DUP2 DUP2 MUL SWAP1 POP JUMPDEST SWAP4 SWAP3 POP POP POP JUMP JUMPDEST PUSH0 PUSH1 0xFF DUP3 AND SWAP1 POP SWAP2 SWAP1 POP JUMP JUMPDEST PUSH0 PUSH2 0xA2C DUP3 PUSH2 0x69B JUMP JUMPDEST SWAP2 POP PUSH2 0xA37 DUP4 PUSH2 0xA16 JUMP JUMPDEST SWAP3 POP PUSH2 0xA64 PUSH32 0xFFFFFFFFFFFFFFFFFFFFFFFFFFFFFFFFFFFFFFFFFFFFFFFFFFFFFFFFFFFFFFFF DUP5 DUP5 PUSH2 0x945 JUMP JUMPDEST SWAP1 POP SWAP3 SWAP2 POP POP JUMP JUMPDEST PUSH0 PUSH2 0xA76 DUP3 PUSH2 0x69B JUMP JUMPDEST SWAP2 POP PUSH2 0xA81 DUP4 PUSH2 0x69B JUMP JUMPDEST SWAP3 POP DUP3 DUP3 MUL PUSH2 0xA8F DUP2 PUSH2 0x69B JUMP JUMPDEST SWAP2 POP DUP3 DUP3 DIV DUP5 EQ DUP4 ISZERO OR PUSH2 0xAA6 JUMPI PUSH2 0xAA5 PUSH2 0x8BA JUMP JUMPDEST JUMPDEST POP SWAP3 SWAP2 POP POP JUMP JUMPDEST PUSH0 PUSH2 0xAB7 DUP3 PUSH2 0x69B JUMP JUMPDEST SWAP2 POP PUSH2 0xAC2 DUP4 PUSH2 0x69B JUMP JUMPDEST SWAP3 POP DUP3 DUP3 ADD SWAP1 POP DUP1 DUP3 GT ISZERO PUSH2 0xADA JUMPI PUSH2 0xAD9 PUSH2 0x8BA JUMP JUMPDEST JUMPDEST SWAP3 SWAP2 POP POP JUMP JUMPDEST PUSH2 0xAE9 DUP2 PUSH2 0x69B JUMP JUMPDEST DUP3 MSTORE POP POP JUMP JUMPDEST PUSH0 PUSH1 0x60 DUP3 ADD SWAP1 POP PUSH2 0xB02 PUSH0 DUP4 ADD DUP7 PUSH2 0x892 JUMP JUMPDEST PUSH2 0xB0F PUSH1 0x20 DUP4 ADD DUP6 PUSH2 0xAE0 JUMP JUMPDEST PUSH2 0xB1C PUSH1 0x40 DUP4 ADD DUP5 PUSH2 0xAE0 JUMP JUMPDEST SWAP5 SWAP4 POP POP POP POP JUMP JUMPDEST PUSH0 PUSH1 0x20 DUP3 ADD SWAP1 POP PUSH2 0xB37 PUSH0 DUP4 ADD DUP5 PUSH2 0xAE0 JUMP JUMPDEST SWAP3 SWAP2 POP POP JUMP JUMPDEST PUSH2 0x1680 DUP1 PUSH2 0xB4A PUSH0 CODECOPY PUSH0 RETURN INVALID PUSH1 0x80 PUSH1 0x40 MSTORE CALLVALUE DUP1 ISZERO PUSH2 0xF JUMPI PUSH0 DUP1 REVERT JUMPDEST POP PUSH1 0x4 CALLDATASIZE LT PUSH2 0x11F JUMPI PUSH0 CALLDATALOAD PUSH1 0xE0 SHR DUP1 PUSH4 0x79CC6790 GT PUSH2 0xAB JUMPI DUP1 PUSH4 0xA777A940 GT PUSH2 0x6F JUMPI DUP1 PUSH4 0xA777A940 EQ PUSH2 0x2E1 JUMPI DUP1 PUSH4 0xA9059CBB EQ PUSH2 0x311 JUMPI DUP1 PUSH4 0xC22DC7E7 EQ PUSH2 0x341 JUMPI DUP1 PUSH4 0xDD62ED3E EQ PUSH2 0x35D JUMPI DUP1 PUSH4 0xF2FDE38B EQ PUSH2 0x38D JUMPI PUSH2 0x11F JUMP JUMPDEST DUP1 PUSH4 0x79CC6790 EQ PUSH2 0x24F JUMPI DUP1 PUSH4 0x8423DF79 EQ PUSH2 0x26B JUMPI DUP1 PUSH4 0x85F390FD EQ PUSH2 0x289 JUMPI DUP1 PUSH4 0x8DA5CB5B EQ PUSH2 0x2A5 JUMPI DUP1 PUSH4 0x95D89B41 EQ PUSH2 0x2C3 JUMPI PUSH2 0x11F JUMP JUMPDEST DUP1 PUSH4 0x313CE567 GT PUSH2 0xF2 JUMPI DUP1 PUSH4 0x313CE567 EQ PUSH2 0x1BF JUMPI DUP1 PUSH4 0x40C10F19 EQ PUSH2 0x1DD JUMPI DUP1 PUSH4 0x42966C68 EQ PUSH2 0x1F9 JUMPI DUP1 PUSH4 0x70A08231 EQ PUSH2 0x215 JUMPI DUP1 PUSH4 0x715018A6 EQ PUSH2 0x245 JUMPI PUSH2 0x11F JUMP JUMPDEST DUP1 PUSH4 0x6FDDE03 EQ PUSH2 0x123 JUMPI DUP1 PUSH4 0x95EA7B3 EQ PUSH2 0x141 JUMPI DUP1 PUSH4 0x18160DDD EQ PUSH2 0x171 JUMPI DUP1 PUSH4 0x23B872DD EQ PUSH2 0x18F JUMPI JUMPDEST PUSH0 DUP1 REVERT JUMPDEST PUSH2 0x12B PUSH2 0x3A9 JUMP JUMPDEST PUSH1 0x40 MLOAD PUSH2 0x138 SWAP2 SWAP1 PUSH2 0x11AD JUMP JUMPDEST PUSH1 0x40 MLOAD DUP1 SWAP2 SUB SWAP1 RETURN JUMPDEST PUSH2 0x15B PUSH1 0x4 DUP1 CALLDATASIZE SUB DUP2 ADD SWAP1 PUSH2 0x156 SWAP2 SWAP1 PUSH2 0x125E JUMP JUMPDEST PUSH2 0x439 JUMP JUMPDEST PUSH1 0x40 MLOAD PUSH2 0x168 SWAP2 SWAP1 PUSH2 0x12B6 JUMP JUMPDEST PUSH1 0x40 MLOAD DUP1 SWAP2 SUB SWAP1 RETURN JUMPDEST PUSH2 0x179 PUSH2 0x45B JUMP JUMPDEST PUSH1 0x40 MLOAD PUSH2 0x186 SWAP2 SWAP1 PUSH2 0x12DE JUMP JUMPDEST PUSH1 0x40 MLOAD DUP1 SWAP2 SUB SWAP1 RETURN JUMPDEST PUSH2 0x1A9 PUSH1 0x4 DUP1 CALLDATASIZE SUB DUP2 ADD SWAP1 PUSH2 0x1A4 SWAP2 SWAP1 PUSH2 0x12F7 JUMP JUMPDEST PUSH2 0x464 JUMP JUMPDEST PUSH1 0x40 MLOAD PUSH2 0x1B6 SWAP2 SWAP1 PUSH2 0x12B6 JUMP JUMPDEST PUSH1 0x40 MLOAD DUP1 SWAP2 SUB SWAP1 RETURN JUMPDEST PUSH2 0x1C7 PUSH2 0x51A JUMP JUMPDEST PUSH1 0x40 MLOAD PUSH2 0x1D4 SWAP2 SWAP1 PUSH2 0x1362 JUMP JUMPDEST PUSH1 0x40 MLOAD DUP1 SWAP2 SUB SWAP1 RETURN JUMPDEST PUSH2 0x1F7 PUSH1 0x4 DUP1 CALLDATASIZE SUB DUP2 ADD SWAP1 PUSH2 0x1F2 SWAP2 SWAP1 PUSH2 0x125E JUMP JUMPDEST PUSH2 0x522 JUMP JUMPDEST STOP JUMPDEST PUSH2 0x213 PUSH1 0x4 DUP1 CALLDATASIZE SUB DUP2 ADD SWAP1 PUSH2 0x20E SWAP2 SWAP1 PUSH2 0x137B JUMP JUMPDEST PUSH2 0x538 JUMP JUMPDEST STOP JUMPDEST PUSH2 0x22F PUSH1 0x4 DUP1 CALLDATASIZE SUB DUP2 ADD SWAP1 PUSH2 0x22A SWAP2 SWAP1 PUSH2 0x13A6 JUMP JUMPDEST PUSH2 0x54C JUMP JUMPDEST PUSH1 0x40 MLOAD PUSH2 0x23C SWAP2 SWAP1 PUSH2 0x12DE JUMP JUMPDEST PUSH1 0x40 MLOAD DUP1 SWAP2 SUB SWAP1 RETURN JUMPDEST PUSH2 0x24D PUSH2 0x591 JUMP JUMPDEST STOP JUMPDEST PUSH2 0x269 PUSH1 0x4 DUP1 CALLDATASIZE SUB DUP2 ADD SWAP1 PUSH2 0x264 SWAP2 SWAP1 PUSH2 0x125E JUMP JUMPDEST PUSH2 0x5A4 JUMP JUMPDEST STOP JUMPDEST PUSH2 0x273 PUSH2 0x5C4 JUMP JUMPDEST PUSH1 0x40 MLOAD PUSH2 0x280 SWAP2 SWAP1 PUSH2 0x12B6 JUMP JUMPDEST PUSH1 0x40 MLOAD DUP1 SWAP2 SUB SWAP1 RETURN JUMPDEST PUSH2 0x2A3 PUSH1 0x4 DUP1 CALLDATASIZE SUB DUP2 ADD SWAP1 PUSH2 0x29E SWAP2 SWAP1 PUSH2 0x13FB JUMP JUMPDEST PUSH2 0x5D7 JUMP JUMPDEST STOP JUMPDEST PUSH2 0x2AD PUSH2 0x637 JUMP JUMPDEST PUSH1 0x40 MLOAD PUSH2 0x2BA SWAP2 SWAP1 PUSH2 0x1448 JUMP JUMPDEST PUSH1 0x40 MLOAD DUP1 SWAP2 SUB SWAP1 RETURN JUMPDEST PUSH2 0x2CB PUSH2 0x65F JUMP JUMPDEST PUSH1 0x40 MLOAD PUSH2 0x2D8 SWAP2 SWAP1 PUSH2 0x11AD JUMP JUMPDEST PUSH1 0x40 MLOAD DUP1 SWAP2 SUB SWAP1 RETURN JUMPDEST PUSH2 0x2FB PUSH1 0x4 DUP1 CALLDATASIZE SUB DUP2 ADD SWAP1 PUSH2 0x2F6 SWAP2 SWAP1 PUSH2 0x13A6 JUMP JUMPDEST PUSH2 0x6EF JUMP JUMPDEST PUSH1 0x40 MLOAD PUSH2 0x308 SWAP2 SWAP1 PUSH2 0x12B6 JUMP JUMPDEST PUSH1 0x40 MLOAD DUP1 SWAP2 SUB SWAP1 RETURN JUMPDEST PUSH2 0x32B PUSH1 0x4 DUP1 CALLDATASIZE SUB DUP2 ADD SWAP1 PUSH2 0x326 SWAP2 SWAP1 PUSH2 0x125E JUMP JUMPDEST PUSH2 0x70C JUMP JUMPDEST PUSH1 0x40 MLOAD PUSH2 0x338 SWAP2 SWAP1 PUSH2 0x12B6 JUMP JUMPDEST PUSH1 0x40 MLOAD DUP1 SWAP2 SUB SWAP1 RETURN JUMPDEST PUSH2 0x35B PUSH1 0x4 DUP1 CALLDATASIZE SUB DUP2 ADD SWAP1 PUSH2 0x356 SWAP2 SWAP1 PUSH2 0x1461 JUMP JUMPDEST PUSH2 0x7C0 JUMP JUMPDEST STOP JUMPDEST PUSH2 0x377 PUSH1 0x4 DUP1 CALLDATASIZE SUB DUP2 ADD SWAP1 PUSH2 0x372 SWAP2 SWAP1 PUSH2 0x148C JUMP JUMPDEST PUSH2 0x81C JUMP JUMPDEST PUSH1 0x40 MLOAD PUSH2 0x384 SWAP2 SWAP1 PUSH2 0x12DE JUMP JUMPDEST PUSH1 0x40 MLOAD DUP1 SWAP2 SUB SWAP1 RETURN JUMPDEST PUSH2 0x3A7 PUSH1 0x4 DUP1 CALLDATASIZE SUB DUP2 ADD SWAP1 PUSH2 0x3A2 SWAP2 SWAP1 PUSH2 0x13A6 JUMP JUMPDEST PUSH2 0x89E JUMP JUMPDEST STOP JUMPDEST PUSH1 0x60 PUSH1 0x3 DUP1 SLOAD PUSH2 0x3B8 SWAP1 PUSH2 0x14F7 JUMP JUMPDEST DUP1 PUSH1 0x1F ADD PUSH1 0x20 DUP1 SWAP2 DIV MUL PUSH1 0x20 ADD PUSH1 0x40 MLOAD SWAP1 DUP2 ADD PUSH1 0x40 MSTORE DUP1 SWAP3 SWAP2 SWAP1 DUP2 DUP2 MSTORE PUSH1 0x20 ADD DUP3 DUP1 SLOAD PUSH2 0x3E4 SWAP1 PUSH2 0x14F7 JUMP JUMPDEST DUP1 ISZERO PUSH2 0x42F JUMPI DUP1 PUSH1 0x1F LT PUSH2 0x406 JUMPI PUSH2 0x100 DUP1 DUP4 SLOAD DIV MUL DUP4 MSTORE SWAP2 PUSH1 0x20 ADD SWAP2 PUSH2 0x42F JUMP JUMPDEST DUP3 ADD SWAP2 SWAP1 PUSH0 MSTORE PUSH1 0x20 PUSH0 KECCAK256 SWAP1 JUMPDEST DUP2 SLOAD DUP2 MSTORE SWAP1 PUSH1 0x1 ADD SWAP1 PUSH1 0x20 ADD DUP1 DUP4 GT PUSH2 0x412 JUMPI DUP3 SWAP1 SUB PUSH1 0x1F AND DUP3 ADD SWAP2 JUMPDEST POP POP POP POP POP SWAP1 POP SWAP1 JUMP JUMPDEST PUSH0 DUP1 PUSH2 0x443 PUSH2 0x922 JUMP JUMPDEST SWAP1 POP PUSH2 0x450 DUP2 DUP6 DUP6 PUSH2 0x929 JUMP JUMPDEST PUSH1 0x1 SWAP2 POP POP SWAP3 SWAP2 POP POP JUMP JUMPDEST PUSH0 PUSH1 0x2 SLOAD SWAP1 POP SWAP1 JUMP JUMPDEST PUSH0 PUSH1 0x5 PUSH1 0x14 SWAP1 SLOAD SWAP1 PUSH2 0x100 EXP SWAP1 DIV PUSH1 0xFF AND ISZERO DUP1 PUSH2 0x4C7 JUMPI POP PUSH1 0x6 PUSH0 DUP6 PUSH20 0xFFFFFFFFFFFFFFFFFFFFFFFFFFFFFFFFFFFFFFFF AND PUSH20 0xFFFFFFFFFFFFFFFFFFFFFFFFFFFFFFFFFFFFFFFF AND DUP2 MSTORE PUSH1 0x20 ADD SWAP1 DUP2 MSTORE PUSH1 0x20 ADD PUSH0 KECCAK256 PUSH0 SWAP1 SLOAD SWAP1 PUSH2 0x100 EXP SWAP1 DIV PUSH1 0xFF AND JUMPDEST PUSH2 0x506 JUMPI PUSH1 0x40 MLOAD PUSH32 0x8C379A000000000000000000000000000000000000000000000000000000000 DUP2 MSTORE PUSH1 0x4 ADD PUSH2 0x4FD SWAP1 PUSH2 0x1597 JUMP JUMPDEST PUSH1 0x40 MLOAD DUP1 SWAP2 SUB SWAP1 REVERT JUMPDEST PUSH2 0x511 DUP5 DUP5 DUP5 PUSH2 0x93B JUMP JUMPDEST SWAP1 POP SWAP4 SWAP3 POP POP POP JUMP JUMPDEST PUSH0 PUSH1 0x12 SWAP1 POP SWAP1 JUMP JUMPDEST PUSH2 0x52A PUSH2 0x969 JUMP JUMPDEST PUSH2 0x534 DUP3 DUP3 PUSH2 0x9F0 JUMP JUMPDEST POP POP JUMP JUMPDEST PUSH2 0x549 PUSH2 0x543 PUSH2 0x922 JUMP JUMPDEST DUP3 PUSH2 0xA6F JUMP JUMPDEST POP JUMP JUMPDEST PUSH0 DUP1 PUSH0 DUP4 PUSH20 0xFFFFFFFFFFFFFFFFFFFFFFFFFFFFFFFFFFFFFFFF AND PUSH20 0xFFFFFFFFFFFFFFFFFFFFFFFFFFFFFFFFFFFFFFFF AND DUP2 MSTORE PUSH1 0x20 ADD SWAP1 DUP2 MSTORE PUSH1 0x20 ADD PUSH0 KECCAK256 SLOAD SWAP1 POP SWAP2 SWAP1 POP JUMP JUMPDEST PUSH2 0x599 PUSH2 0x969 JUMP JUMPDEST PUSH2 0x5A2 PUSH0 PUSH2 0xAEE JUMP JUMPDEST JUMP JUMPDEST PUSH2 0x5B6 DUP3 PUSH2 0x5B0 PUSH2 0x922 JUMP JUMPDEST DUP4 PUSH2 0xBB1 JUMP JUMPDEST PUSH2 0x5C0 DUP3 DUP3 PUSH2 0xA6F JUMP JUMPDEST POP POP JUMP JUMPDEST PUSH1 0x5 PUSH1 0x14 SWAP1 SLOAD SWAP1 PUSH2 0x100 EXP SWAP1 DIV PUSH1 0xFF AND DUP2 JUMP JUMPDEST PUSH2 0x5DF PUSH2 0x969 JUMP JUMPDEST DUP1 PUSH1 0x6 PUSH0 DUP5 PUSH20 0xFFFFFFFFFFFFFFFFFFFFFFFFFFFFFFFFFFFFFFFF AND PUSH20 0xFFFFFFFFFFFFFFFFFFFFFFFFFFFFFFFFFFFFFFFF AND DUP2 MSTORE PUSH1 0x20 ADD SWAP1 DUP2 MSTORE PUSH1 0x20 ADD PUSH0 KECCAK256 PUSH0 PUSH2 0x100 EXP DUP2 SLOAD DUP2 PUSH1 0xFF MUL NOT AND SWAP1 DUP4 ISZERO ISZERO MUL OR SWAP1 SSTORE POP POP POP JUMP JUMPDEST PUSH0 PUSH1 0x5 PUSH0 SWAP1 SLOAD SWAP1 PUSH2 0x100 EXP SWAP1 DIV PUSH20 0xFFFFFFFFFFFFFFFFFFFFFFFFFFFFFFFFFFFFFFFF AND SWAP1 POP SWAP1 JUMP JUMPDEST PUSH1 0x60 PUSH1 0x4 DUP1 SLOAD PUSH2 0x66E SWAP1 PUSH2 0x14F7 JUMP JUMPDEST DUP1 PUSH1 0x1F ADD PUSH1 0x20 DUP1 SWAP2 DIV MUL PUSH1 0x20 ADD PUSH1 0x40 MLOAD SWAP1 DUP2 ADD PUSH1 0x40 MSTORE DUP1 SWAP3 SWAP2 SWAP1 DUP2 DUP2 MSTORE PUSH1 0x20 ADD DUP3 DUP1 SLOAD PUSH2 0x69A SWAP1 PUSH2 0x14F7 JUMP JUMPDEST DUP1 ISZERO PUSH2 0x6E5 JUMPI DUP1 PUSH1 0x1F LT PUSH2 0x6BC JUMPI PUSH2 0x100 DUP1 DUP4 SLOAD DIV MUL DUP4 MSTORE SWAP2 PUSH1 0x20 ADD SWAP2 PUSH2 0x6E5 JUMP JUMPDEST DUP3 ADD SWAP2 SWAP1 PUSH0 MSTORE PUSH1 0x20 PUSH0 KECCAK256 SWAP1 JUMPDEST DUP2 SLOAD DUP2 MSTORE SWAP1 PUSH1 0x1 ADD SWAP1 PUSH1 0x20 ADD DUP1 DUP4 GT PUSH2 0x6C8 JUMPI DUP3 SWAP1 SUB PUSH1 0x1F AND DUP3 ADD SWAP2 JUMPDEST POP POP POP POP POP SWAP1 POP SWAP1 JUMP JUMPDEST PUSH1 0x6 PUSH1 0x20 MSTORE DUP1 PUSH0 MSTORE PUSH1 0x40 PUSH0 KECCAK256 PUSH0 SWAP2 POP SLOAD SWAP1 PUSH2 0x100 EXP SWAP1 DIV PUSH1 0xFF AND DUP2 JUMP JUMPDEST PUSH0 PUSH1 0x5 PUSH1 0x14 SWAP1 SLOAD SWAP1 PUSH2 0x100 EXP SWAP1 DIV PUSH1 0xFF AND ISZERO DUP1 PUSH2 0x76F JUMPI POP PUSH1 0x6 PUSH0 CALLER PUSH20 0xFFFFFFFFFFFFFFFFFFFFFFFFFFFFFFFFFFFFFFFF AND PUSH20 0xFFFFFFFFFFFFFFFFFFFFFFFFFFFFFFFFFFFFFFFF AND DUP2 MSTORE PUSH1 0x20 ADD SWAP1 DUP2 MSTORE PUSH1 0x20 ADD PUSH0 KECCAK256 PUSH0 SWAP1 SLOAD SWAP1 PUSH2 0x100 EXP SWAP1 DIV PUSH1 0xFF AND JUMPDEST PUSH2 0x7AE JUMPI PUSH1 0x40 MLOAD PUSH32 0x8C379A000000000000000000000000000000000000000000000000000000000 DUP2 MSTORE PUSH1 0x4 ADD PUSH2 0x7A5 SWAP1 PUSH2 0x1597 JUMP JUMPDEST PUSH1 0x40 MLOAD DUP1 SWAP2 SUB SWAP1 REVERT JUMPDEST PUSH2 0x7B8 DUP4 DUP4 PUSH2 0xC43 JUMP JUMPDEST SWAP1 POP SWAP3 SWAP2 POP POP JUMP JUMPDEST PUSH2 0x7C8 PUSH2 0x969 JUMP JUMPDEST DUP1 PUSH1 0x5 PUSH1 0x14 PUSH2 0x100 EXP DUP2 SLOAD DUP2 PUSH1 0xFF MUL NOT AND SWAP1 DUP4 ISZERO ISZERO MUL OR SWAP1 SSTORE POP PUSH32 0x2EBD4F59EAA9D49C5DCD06A0AFA8B39BF09928FBD60111ACEE2F986FA485D098 DUP2 PUSH1 0x40 MLOAD PUSH2 0x811 SWAP2 SWAP1 PUSH2 0x12B6 JUMP JUMPDEST PUSH1 0x40 MLOAD DUP1 SWAP2 SUB SWAP1 LOG1 POP JUMP JUMPDEST PUSH0 PUSH1 0x1 PUSH0 DUP5 PUSH20 0xFFFFFFFFFFFFFFFFFFFFFFFFFFFFFFFFFFFFFFFF AND PUSH20 0xFFFFFFFFFFFFFFFFFFFFFFFFFFFFFFFFFFFFFFFF AND DUP2 MSTORE PUSH1 0x20 ADD SWAP1 DUP2 MSTORE PUSH1 0x20 ADD PUSH0 KECCAK256 PUSH0 DUP4 PUSH20 0xFFFFFFFFFFFFFFFFFFFFFFFFFFFFFFFFFFFFFFFF AND PUSH20 0xFFFFFFFFFFFFFFFFFFFFFFFFFFFFFFFFFFFFFFFF AND DUP2 MSTORE PUSH1 0x20 ADD SWAP1 DUP2 MSTORE PUSH1 0x20 ADD PUSH0 KECCAK256 SLOAD SWAP1 POP SWAP3 SWAP2 POP POP JUMP JUMPDEST PUSH2 0x8A6 PUSH2 0x969 JUMP JUMPDEST PUSH0 PUSH20 0xFFFFFFFFFFFFFFFFFFFFFFFFFFFFFFFFFFFFFFFF AND DUP2 PUSH20 0xFFFFFFFFFFFFFFFFFFFFFFFFFFFFFFFFFFFFFFFF AND SUB PUSH2 0x916 JUMPI PUSH0 PUSH1 0x40 MLOAD PUSH32 0x1E4FBDF700000000000000000000000000000000000000000000000000000000 DUP2 MSTORE PUSH1 0x4 ADD PUSH2 0x90D SWAP2 SWAP1 PUSH2 0x1448 JUMP JUMPDEST PUSH1 0x40 MLOAD DUP1 SWAP2 SUB SWAP1 REVERT JUMPDEST PUSH2 0x91F DUP2 PUSH2 0xAEE JUMP JUMPDEST POP JUMP JUMPDEST PUSH0 CALLER SWAP1 POP SWAP1 JUMP JUMPDEST PUSH2 0x936 DUP4 DUP4 DUP4 PUSH1 0x1 PUSH2 0xC65 JUMP JUMPDEST POP POP POP JUMP JUMPDEST PUSH0 DUP1 PUSH2 0x945 PUSH2 0x922 JUMP JUMPDEST SWAP1 POP PUSH2 0x952 DUP6 DUP3 DUP6 PUSH2 0xBB1 JUMP JUMPDEST PUSH2 0x95D DUP6 DUP6 DUP6 PUSH2 0xE34 JUMP JUMPDEST PUSH1 0x1 SWAP2 POP POP SWAP4 SWAP3 POP POP POP JUMP JUMPDEST PUSH2 0x971 PUSH2 0x922 JUMP JUMPDEST PUSH20 0xFFFFFFFFFFFFFFFFFFFFFFFFFFFFFFFFFFFFFFFF AND PUSH2 0x98F PUSH2 0x637 JUMP JUMPDEST PUSH20 0xFFFFFFFFFFFFFFFFFFFFFFFFFFFFFFFFFFFFFFFF AND EQ PUSH2 0x9EE JUMPI PUSH2 0x9B2 PUSH2 0x922 JUMP JUMPDEST PUSH1 0x40 MLOAD PUSH32 0x118CDAA700000000000000000000000000000000000000000000000000000000 DUP2 MSTORE PUSH1 0x4 ADD PUSH2 0x9E5 SWAP2 SWAP1 PUSH2 0x1448 JUMP JUMPDEST PUSH1 0x40 MLOAD DUP1 SWAP2 SUB SWAP1 REVERT JUMPDEST JUMP JUMPDEST PUSH0 PUSH20 0xFFFFFFFFFFFFFFFFFFFFFFFFFFFFFFFFFFFFFFFF AND DUP3 PUSH20 0xFFFFFFFFFFFFFFFFFFFFFFFFFFFFFFFFFFFFFFFF AND SUB PUSH2 0xA60 JUMPI PUSH0 PUSH1 0x40 MLOAD PUSH32 0xEC442F0500000000000000000000000000000000000000000000000000000000 DUP2 MSTORE PUSH1 0x4 ADD PUSH2 0xA57 SWAP2 SWAP1 PUSH2 0x1448 JUMP JUMPDEST PUSH1 0x40 MLOAD DUP1 SWAP2 SUB SWAP1 REVERT JUMPDEST PUSH2 0xA6B PUSH0 DUP4 DUP4 PUSH2 0xF24 JUMP JUMPDEST POP POP JUMP JUMPDEST PUSH0 PUSH20 0xFFFFFFFFFFFFFFFFFFFFFFFFFFFFFFFFFFFFFFFF AND DUP3 PUSH20 0xFFFFFFFFFFFFFFFFFFFFFFFFFFFFFFFFFFFFFFFF AND SUB PUSH2 0xADF JUMPI PUSH0 PUSH1 0x40 MLOAD PUSH32 0x96C6FD1E00000000000000000000000000000000000000000000000000000000 DUP2 MSTORE PUSH1 0x4 ADD PUSH2 0xAD6 SWAP2 SWAP1 PUSH2 0x1448 JUMP JUMPDEST PUSH1 0x40 MLOAD DUP1 SWAP2 SUB SWAP1 REVERT JUMPDEST PUSH2 0xAEA DUP3 PUSH0 DUP4 PUSH2 0xF24 JUMP JUMPDEST POP POP JUMP JUMPDEST PUSH0 PUSH1 0x5 PUSH0 SWAP1 SLOAD SWAP1 PUSH2 0x100 EXP SWAP1 DIV PUSH20 0xFFFFFFFFFFFFFFFFFFFFFFFFFFFFFFFFFFFFFFFF AND SWAP1 POP DUP2 PUSH1 0x5 PUSH0 PUSH2 0x100 EXP DUP2 SLOAD DUP2 PUSH20 0xFFFFFFFFFFFFFFFFFFFFFFFFFFFFFFFFFFFFFFFF MUL NOT AND SWAP1 DUP4 PUSH20 0xFFFFFFFFFFFFFFFFFFFFFFFFFFFFFFFFFFFFFFFF AND MUL OR SWAP1 SSTORE POP DUP2 PUSH20 0xFFFFFFFFFFFFFFFFFFFFFFFFFFFFFFFFFFFFFFFF AND DUP2 PUSH20 0xFFFFFFFFFFFFFFFFFFFFFFFFFFFFFFFFFFFFFFFF AND PUSH32 0x8BE0079C531659141344CD1FD0A4F28419497F9722A3DAAFE3B4186F6B6457E0 PUSH1 0x40 MLOAD PUSH1 0x40 MLOAD DUP1 SWAP2 SUB SWAP1 LOG3 POP POP JUMP JUMPDEST PUSH0 PUSH2 0xBBC DUP5 DUP5 PUSH2 0x81C JUMP JUMPDEST SWAP1 POP PUSH32 0xFFFFFFFFFFFFFFFFFFFFFFFFFFFFFFFFFFFFFFFFFFFFFFFFFFFFFFFFFFFFFFFF DUP2 EQ PUSH2 0xC3D JUMPI DUP2 DUP2 LT ISZERO PUSH2 0xC2E JUMPI DUP3 DUP2 DUP4 PUSH1 0x40 MLOAD PUSH32 0xFB8F41B200000000000000000000000000000000000000000000000000000000 DUP2 MSTORE PUSH1 0x4 ADD PUSH2 0xC25 SWAP4 SWAP3 SWAP2 SWAP1 PUSH2 0x15B5 JUMP JUMPDEST PUSH1 0x40 MLOAD DUP1 SWAP2 SUB SWAP1 REVERT JUMPDEST PUSH2 0xC3C DUP5 DUP5 DUP5 DUP5 SUB PUSH0 PUSH2 0xC65 JUMP JUMPDEST JUMPDEST POP POP POP POP JUMP JUMPDEST PUSH0 DUP1 PUSH2 0xC4D PUSH2 0x922 JUMP JUMPDEST SWAP1 POP PUSH2 0xC5A DUP2 DUP6 DUP6 PUSH2 0xE34 JUMP JUMPDEST PUSH1 0x1 SWAP2 POP POP SWAP3 SWAP2 POP POP JUMP JUMPDEST PUSH0 PUSH20 0xFFFFFFFFFFFFFFFFFFFFFFFFFFFFFFFFFFFFFFFF AND DUP5 PUSH20 0xFFFFFFFFFFFFFFFFFFFFFFFFFFFFFFFFFFFFFFFF AND SUB PUSH2 0xCD5 JUMPI PUSH0 PUSH1 0x40 MLOAD PUSH32 0xE602DF0500000000000000000000000000000000000000000000000000000000 DUP2 MSTORE PUSH1 0x4 ADD PUSH2 0xCCC SWAP2 SWAP1 PUSH2 0x1448 JUMP JUMPDEST PUSH1 0x40 MLOAD DUP1 SWAP2 SUB SWAP1 REVERT JUMPDEST PUSH0 PUSH20 0xFFFFFFFFFFFFFFFFFFFFFFFFFFFFFFFFFFFFFFFF AND DUP4 PUSH20 0xFFFFFFFFFFFFFFFFFFFFFFFFFFFFFFFFFFFFFFFF AND SUB PUSH2 0xD45 JUMPI PUSH0 PUSH1 0x40 MLOAD PUSH32 0x94280D6200000000000000000000000000000000000000000000000000000000 DUP2 MSTORE PUSH1 0x4 ADD PUSH2 0xD3C SWAP2 SWAP1 PUSH2 0x1448 JUMP JUMPDEST PUSH1 0x40 MLOAD DUP1 SWAP2 SUB SWAP1 REVERT JUMPDEST DUP2 PUSH1 0x1 PUSH0 DUP7 PUSH20 0xFFFFFFFFFFFFFFFFFFFFFFFFFFFFFFFFFFFFFFFF AND PUSH20 0xFFFFFFFFFFFFFFFFFFFFFFFFFFFFFFFFFFFFFFFF AND DUP2 MSTORE PUSH1 0x20 ADD SWAP1 DUP2 MSTORE PUSH1 0x20 ADD PUSH0 KECCAK256 PUSH0 DUP6 PUSH20 0xFFFFFFFFFFFFFFFFFFFFFFFFFFFFFFFFFFFFFFFF AND PUSH20 0xFFFFFFFFFFFFFFFFFFFFFFFFFFFFFFFFFFFFFFFF AND DUP2 MSTORE PUSH1 0x20 ADD SWAP1 DUP2 MSTORE PUSH1 0x20 ADD PUSH0 KECCAK256 DUP2 SWAP1 SSTORE POP DUP1 ISZERO PUSH2 0xE2E JUMPI DUP3 PUSH20 0xFFFFFFFFFFFFFFFFFFFFFFFFFFFFFFFFFFFFFFFF AND DUP5 PUSH20 0xFFFFFFFFFFFFFFFFFFFFFFFFFFFFFFFFFFFFFFFF AND PUSH32 0x8C5BE1E5EBEC7D5BD14F71427D1E84F3DD0314C0F7B2291E5B200AC8C7C3B925 DUP5 PUSH1 0x40 MLOAD PUSH2 0xE25 SWAP2 SWAP1 PUSH2 0x12DE JUMP JUMPDEST PUSH1 0x40 MLOAD DUP1 SWAP2 SUB SWAP1 LOG3 JUMPDEST POP POP POP POP JUMP JUMPDEST PUSH0 PUSH20 0xFFFFFFFFFFFFFFFFFFFFFFFFFFFFFFFFFFFFFFFF AND DUP4 PUSH20 0xFFFFFFFFFFFFFFFFFFFFFFFFFFFFFFFFFFFFFFFF AND SUB PUSH2 0xEA4 JUMPI PUSH0 PUSH1 0x40 MLOAD PUSH32 0x96C6FD1E00000000000000000000000000000000000000000000000000000000 DUP2 MSTORE PUSH1 0x4 ADD PUSH2 0xE9B SWAP2 SWAP1 PUSH2 0x1448 JUMP JUMPDEST PUSH1 0x40 MLOAD DUP1 SWAP2 SUB SWAP1 REVERT JUMPDEST PUSH0 PUSH20 0xFFFFFFFFFFFFFFFFFFFFFFFFFFFFFFFFFFFFFFFF AND DUP3 PUSH20 0xFFFFFFFFFFFFFFFFFFFFFFFFFFFFFFFFFFFFFFFF AND SUB PUSH2 0xF14 JUMPI PUSH0 PUSH1 0x40 MLOAD PUSH32 0xEC442F0500000000000000000000000000000000000000000000000000000000 DUP2 MSTORE PUSH1 0x4 ADD PUSH2 0xF0B SWAP2 SWAP1 PUSH2 0x1448 JUMP JUMPDEST PUSH1 0x40 MLOAD DUP1 SWAP2 SUB SWAP1 REVERT JUMPDEST PUSH2 0xF1F DUP4 DUP4 DUP4 PUSH2 0xF24 JUMP JUMPDEST POP POP POP JUMP JUMPDEST PUSH0 PUSH20 0xFFFFFFFFFFFFFFFFFFFFFFFFFFFFFFFFFFFFFFFF AND DUP4 PUSH20 0xFFFFFFFFFFFFFFFFFFFFFFFFFFFFFFFFFFFFFFFF AND SUB PUSH2 0xF74 JUMPI DUP1 PUSH1 0x2 PUSH0 DUP3 DUP3 SLOAD PUSH2 0xF68 SWAP2 SWAP1 PUSH2 0x1617 JUMP JUMPDEST SWAP3 POP POP DUP2 SWAP1 SSTORE POP PUSH2 0x1042 JUMP JUMPDEST PUSH0 DUP1 PUSH0 DUP6 PUSH20 0xFFFFFFFFFFFFFFFFFFFFFFFFFFFFFFFFFFFFFFFF AND PUSH20 0xFFFFFFFFFFFFFFFFFFFFFFFFFFFFFFFFFFFFFFFF AND DUP2 MSTORE PUSH1 0x20 ADD SWAP1 DUP2 MSTORE PUSH1 0x20 ADD PUSH0 KECCAK256 SLOAD SWAP1 POP DUP2 DUP2 LT ISZERO PUSH2 0xFFD JUMPI DUP4 DUP2 DUP4 PUSH1 0x40 MLOAD PUSH32 0xE450D38C00000000000000000000000000000000000000000000000000000000 DUP2 MSTORE PUSH1 0x4 ADD PUSH2 0xFF4 SWAP4 SWAP3 SWAP2 SWAP1 PUSH2 0x15B5 JUMP JUMPDEST PUSH1 0x40 MLOAD DUP1 SWAP2 SUB SWAP1 REVERT JUMPDEST DUP2 DUP2 SUB PUSH0 DUP1 DUP7 PUSH20 0xFFFFFFFFFFFFFFFFFFFFFFFFFFFFFFFFFFFFFFFF AND PUSH20 0xFFFFFFFFFFFFFFFFFFFFFFFFFFFFFFFFFFFFFFFF AND DUP2 MSTORE PUSH1 0x20 ADD SWAP1 DUP2 MSTORE PUSH1 0x20 ADD PUSH0 KECCAK256 DUP2 SWAP1 SSTORE POP POP JUMPDEST PUSH0 PUSH20 0xFFFFFFFFFFFFFFFFFFFFFFFFFFFFFFFFFFFFFFFF AND DUP3 PUSH20 0xFFFFFFFFFFFFFFFFFFFFFFFFFFFFFFFFFFFFFFFF AND SUB PUSH2 0x1089 JUMPI DUP1 PUSH1 0x2 PUSH0 DUP3 DUP3 SLOAD SUB SWAP3 POP POP DUP2 SWAP1 SSTORE POP PUSH2 0x10D3 JUMP JUMPDEST DUP1 PUSH0 DUP1 DUP5 PUSH20 0xFFFFFFFFFFFFFFFFFFFFFFFFFFFFFFFFFFFFFFFF AND PUSH20 0xFFFFFFFFFFFFFFFFFFFFFFFFFFFFFFFFFFFFFFFF AND DUP2 MSTORE PUSH1 0x20 ADD SWAP1 DUP2 MSTORE PUSH1 0x20 ADD PUSH0 KECCAK256 PUSH0 DUP3 DUP3 SLOAD ADD SWAP3 POP POP DUP2 SWAP1 SSTORE POP JUMPDEST DUP2 PUSH20 0xFFFFFFFFFFFFFFFFFFFFFFFFFFFFFFFFFFFFFFFF AND DUP4 PUSH20 0xFFFFFFFFFFFFFFFFFFFFFFFFFFFFFFFFFFFFFFFF AND PUSH32 0xDDF252AD1BE2C89B69C2B068FC378DAA952BA7F163C4A11628F55A4DF523B3EF DUP4 PUSH1 0x40 MLOAD PUSH2 0x1130 SWAP2 SWAP1 PUSH2 0x12DE JUMP JUMPDEST PUSH1 0x40 MLOAD DUP1 SWAP2 SUB SWAP1 LOG3 POP POP POP JUMP JUMPDEST PUSH0 DUP2 MLOAD SWAP1 POP SWAP2 SWAP1 POP JUMP JUMPDEST PUSH0 DUP3 DUP3 MSTORE PUSH1 0x20 DUP3 ADD SWAP1 POP SWAP3 SWAP2 POP POP JUMP JUMPDEST DUP3 DUP2 DUP4 MCOPY PUSH0 DUP4 DUP4 ADD MSTORE POP POP POP JUMP JUMPDEST PUSH0 PUSH1 0x1F NOT PUSH1 0x1F DUP4 ADD AND SWAP1 POP SWAP2 SWAP1 POP JUMP JUMPDEST PUSH0 PUSH2 0x117F DUP3 PUSH2 0x113D JUMP JUMPDEST PUSH2 0x1189 DUP2 DUP6 PUSH2 0x1147 JUMP JUMPDEST SWAP4 POP PUSH2 0x1199 DUP2 DUP6 PUSH1 0x20 DUP7 ADD PUSH2 0x1157 JUMP JUMPDEST PUSH2 0x11A2 DUP2 PUSH2 0x1165 JUMP JUMPDEST DUP5 ADD SWAP2 POP POP SWAP3 SWAP2 POP POP JUMP JUMPDEST PUSH0 PUSH1 0x20 DUP3 ADD SWAP1 POP DUP2 DUP2 SUB PUSH0 DUP4 ADD MSTORE PUSH2 0x11C5 DUP2 DUP5 PUSH2 0x1175 JUMP JUMPDEST SWAP1 POP SWAP3 SWAP2 POP POP JUMP JUMPDEST PUSH0 DUP1 REVERT JUMPDEST PUSH0 PUSH20 0xFFFFFFFFFFFFFFFFFFFFFFFFFFFFFFFFFFFFFFFF DUP3 AND SWAP1 POP SWAP2 SWAP1 POP JUMP JUMPDEST PUSH0 PUSH2 0x11FA DUP3 PUSH2 0x11D1 JUMP JUMPDEST SWAP1 POP SWAP2 SWAP1 POP JUMP JUMPDEST PUSH2 0x120A DUP2 PUSH2 0x11F0 JUMP JUMPDEST DUP2 EQ PUSH2 0x1214 JUMPI PUSH0 DUP1 REVERT JUMPDEST POP JUMP JUMPDEST PUSH0 DUP2 CALLDATALOAD SWAP1 POP PUSH2 0x1225 DUP2 PUSH2 0x1201 JUMP JUMPDEST SWAP3 SWAP2 POP POP JUMP JUMPDEST PUSH0 DUP2 SWAP1 POP SWAP2 SWAP1 POP JUMP JUMPDEST PUSH2 0x123D DUP2 PUSH2 0x122B JUMP JUMPDEST DUP2 EQ PUSH2 0x1247 JUMPI PUSH0 DUP1 REVERT JUMPDEST POP JUMP JUMPDEST PUSH0 DUP2 CALLDATALOAD SWAP1 POP PUSH2 0x1258 DUP2 PUSH2 0x1234 JUMP JUMPDEST SWAP3 SWAP2 POP POP JUMP JUMPDEST PUSH0 DUP1 PUSH1 0x40 DUP4 DUP6 SUB SLT ISZERO PUSH2 0x1274 JUMPI PUSH2 0x1273 PUSH2 0x11CD JUMP JUMPDEST JUMPDEST PUSH0 PUSH2 0x1281 DUP6 DUP3 DUP7 ADD PUSH2 0x1217 JUMP JUMPDEST SWAP3 POP POP PUSH1 0x20 PUSH2 0x1292 DUP6 DUP3 DUP7 ADD PUSH2 0x124A JUMP JUMPDEST SWAP2 POP POP SWAP3 POP SWAP3 SWAP1 POP JUMP JUMPDEST PUSH0 DUP2 ISZERO ISZERO SWAP1 POP SWAP2 SWAP1 POP JUMP JUMPDEST PUSH2 0x12B0 DUP2 PUSH2 0x129C JUMP JUMPDEST DUP3 MSTORE POP POP JUMP JUMPDEST PUSH0 PUSH1 0x20 DUP3 ADD SWAP1 POP PUSH2 0x12C9 PUSH0 DUP4 ADD DUP5 PUSH2 0x12A7 JUMP JUMPDEST SWAP3 SWAP2 POP POP JUMP JUMPDEST PUSH2 0x12D8 DUP2 PUSH2 0x122B JUMP JUMPDEST DUP3 MSTORE POP POP JUMP JUMPDEST PUSH0 PUSH1 0x20 DUP3 ADD SWAP1 POP PUSH2 0x12F1 PUSH0 DUP4 ADD DUP5 PUSH2 0x12CF JUMP JUMPDEST SWAP3 SWAP2 POP POP JUMP JUMPDEST PUSH0 DUP1 PUSH0 PUSH1 0x60 DUP5 DUP7 SUB SLT ISZERO PUSH2 0x130E JUMPI PUSH2 0x130D PUSH2 0x11CD JUMP JUMPDEST JUMPDEST PUSH0 PUSH2 0x131B DUP7 DUP3 DUP8 ADD PUSH2 0x1217 JUMP JUMPDEST SWAP4 POP POP PUSH1 0x20 PUSH2 0x132C DUP7 DUP3 DUP8 ADD PUSH2 0x1217 JUMP JUMPDEST SWAP3 POP POP PUSH1 0x40 PUSH2 0x133D DUP7 DUP3 DUP8 ADD PUSH2 0x124A JUMP JUMPDEST SWAP2 POP POP SWAP3 POP SWAP3 POP SWAP3 JUMP JUMPDEST PUSH0 PUSH1 0xFF DUP3 AND SWAP1 POP SWAP2 SWAP1 POP JUMP JUMPDEST PUSH2 0x135C DUP2 PUSH2 0x1347 JUMP JUMPDEST DUP3 MSTORE POP POP JUMP JUMPDEST PUSH0 PUSH1 0x20 DUP3 ADD SWAP1 POP PUSH2 0x1375 PUSH0 DUP4 ADD DUP5 PUSH2 0x1353 JUMP JUMPDEST SWAP3 SWAP2 POP POP JUMP JUMPDEST PUSH0 PUSH1 0x20 DUP3 DUP5 SUB SLT ISZERO PUSH2 0x1390 JUMPI PUSH2 0x138F PUSH2 0x11CD JUMP JUMPDEST JUMPDEST PUSH0 PUSH2 0x139D DUP5 DUP3 DUP6 ADD PUSH2 0x124A JUMP JUMPDEST SWAP2 POP POP SWAP3 SWAP2 POP POP JUMP JUMPDEST PUSH0 PUSH1 0x20 DUP3 DUP5 SUB SLT ISZERO PUSH2 0x13BB JUMPI PUSH2 0x13BA PUSH2 0x11CD JUMP JUMPDEST JUMPDEST PUSH0 PUSH2 0x13C8 DUP5 DUP3 DUP6 ADD PUSH2 0x1217 JUMP JUMPDEST SWAP2 POP POP SWAP3 SWAP2 POP POP JUMP JUMPDEST PUSH2 0x13DA DUP2 PUSH2 0x129C JUMP JUMPDEST DUP2 EQ PUSH2 0x13E4 JUMPI PUSH0 DUP1 REVERT JUMPDEST POP JUMP JUMPDEST PUSH0 DUP2 CALLDATALOAD SWAP1 POP PUSH2 0x13F5 DUP2 PUSH2 0x13D1 JUMP JUMPDEST SWAP3 SWAP2 POP POP JUMP JUMPDEST PUSH0 DUP1 PUSH1 0x40 DUP4 DUP6 SUB SLT ISZERO PUSH2 0x1411 JUMPI PUSH2 0x1410 PUSH2 0x11CD JUMP JUMPDEST JUMPDEST PUSH0 PUSH2 0x141E DUP6 DUP3 DUP7 ADD PUSH2 0x1217 JUMP JUMPDEST SWAP3 POP POP PUSH1 0x20 PUSH2 0x142F DUP6 DUP3 DUP7 ADD PUSH2 0x13E7 JUMP JUMPDEST SWAP2 POP POP SWAP3 POP SWAP3 SWAP1 POP JUMP JUMPDEST PUSH2 0x1442 DUP2 PUSH2 0x11F0 JUMP JUMPDEST DUP3 MSTORE POP POP JUMP JUMPDEST PUSH0 PUSH1 0x20 DUP3 ADD SWAP1 POP PUSH2 0x145B PUSH0 DUP4 ADD DUP5 PUSH2 0x1439 JUMP JUMPDEST SWAP3 SWAP2 POP POP JUMP JUMPDEST PUSH0 PUSH1 0x20 DUP3 DUP5 SUB SLT ISZERO PUSH2 0x1476 JUMPI PUSH2 0x1475 PUSH2 0x11CD JUMP JUMPDEST JUMPDEST PUSH0 PUSH2 0x1483 DUP5 DUP3 DUP6 ADD PUSH2 0x13E7 JUMP JUMPDEST SWAP2 POP POP SWAP3 SWAP2 POP POP JUMP JUMPDEST PUSH0 DUP1 PUSH1 0x40 DUP4 DUP6 SUB SLT ISZERO PUSH2 0x14A2 JUMPI PUSH2 0x14A1 PUSH2 0x11CD JUMP JUMPDEST JUMPDEST PUSH0 PUSH2 0x14AF DUP6 DUP3 DUP7 ADD PUSH2 0x1217 JUMP JUMPDEST SWAP3 POP POP PUSH1 0x20 PUSH2 0x14C0 DUP6 DUP3 DUP7 ADD PUSH2 0x1217 JUMP JUMPDEST SWAP2 POP POP SWAP3 POP SWAP3 SWAP1 POP JUMP JUMPDEST PUSH32 0x4E487B7100000000000000000000000000000000000000000000000000000000 PUSH0 MSTORE PUSH1 0x22 PUSH1 0x4 MSTORE PUSH1 0x24 PUSH0 REVERT JUMPDEST PUSH0 PUSH1 0x2 DUP3 DIV SWAP1 POP PUSH1 0x1 DUP3 AND DUP1 PUSH2 0x150E JUMPI PUSH1 0x7F DUP3 AND SWAP2 POP JUMPDEST PUSH1 0x20 DUP3 LT DUP2 SUB PUSH2 0x1521 JUMPI PUSH2 0x1520 PUSH2 0x14CA JUMP JUMPDEST JUMPDEST POP SWAP2 SWAP1 POP JUMP JUMPDEST PUSH32 0x5472616E736665727320617265207265737472696374656420647572696E6720 PUSH0 DUP3 ADD MSTORE PUSH32 0x6469737075746573000000000000000000000000000000000000000000000000 PUSH1 0x20 DUP3 ADD MSTORE POP JUMP JUMPDEST PUSH0 PUSH2 0x1581 PUSH1 0x28 DUP4 PUSH2 0x1147 JUMP JUMPDEST SWAP2 POP PUSH2 0x158C DUP3 PUSH2 0x1527 JUMP JUMPDEST PUSH1 0x40 DUP3 ADD SWAP1 POP SWAP2 SWAP1 POP JUMP JUMPDEST PUSH0 PUSH1 0x20 DUP3 ADD SWAP1 POP DUP2 DUP2 SUB PUSH0 DUP4 ADD MSTORE PUSH2 0x15AE DUP2 PUSH2 0x1575 JUMP JUMPDEST SWAP1 POP SWAP2 SWAP1 POP JUMP JUMPDEST PUSH0 PUSH1 0x60 DUP3 ADD SWAP1 POP PUSH2 0x15C8 PUSH0 DUP4 ADD DUP7 PUSH2 0x1439 JUMP JUMPDEST PUSH2 0x15D5 PUSH1 0x20 DUP4 ADD DUP6 PUSH2 0x12CF JUMP JUMPDEST PUSH2 0x15E2 PUSH1 0x40 DUP4 ADD DUP5 PUSH2 0x12CF JUMP JUMPDEST SWAP5 SWAP4 POP POP POP POP JUMP JUMPDEST PUSH32 0x4E487B7100000000000000000000000000000000000000000000000000000000 PUSH0 MSTORE PUSH1 0x11 PUSH1 0x4 MSTORE PUSH1 0x24 PUSH0 REVERT JUMPDEST PUSH0 PUSH2 0x1621 DUP3 PUSH2 0x122B JUMP JUMPDEST SWAP2 POP PUSH2 0x162C DUP4 PUSH2 0x122B JUMP JUMPDEST SWAP3 POP DUP3 DUP3 ADD SWAP1 POP DUP1 DUP3 GT ISZERO PUSH2 0x1644 JUMPI PUSH2 0x1643 PUSH2 0x15EA JUMP JUMPDEST JUMPDEST SWAP3 SWAP2 POP POP JUMP INVALID LOG2 PUSH5 0x6970667358 0x22 SLT KECCAK256 0xDE SWAP11 JUMPDEST 0xC4 0xB2 0xD9 0xC 0xFC DUP13 SIGNEXTEND 0xD9 0xB9 0xFB LOG3 SWAP6 SWAP13 CODESIZE ADD 0xAB PUSH2 0xAE2E SUB 0xE4 BLOBBASEFEE DUP1 0xBC DUP8 PUSH23 0x19B46564736F6C634300081A0033000000000000000000 "
		},
		"gasEstimates": {
			"creation": {
				"codeDepositCost": "1152000",
				"executionCost": "infinite",
				"totalCost": "infinite"
			},
			"external": {
				"allowance(address,address)": "infinite",
				"approve(address,uint256)": "infinite",
				"balanceOf(address)": "2918",
				"burn(uint256)": "infinite",
				"burnFrom(address,uint256)": "infinite",
				"decimals()": "361",
				"exemptedAddresses(address)": "2855",
				"mint(address,uint256)": "infinite",
				"name()": "infinite",
				"owner()": "2604",
				"renounceOwnership()": "infinite",
				"setExemptedAddress(address,bool)": "infinite",
				"setTransfersRestricted(bool)": "infinite",
				"symbol()": "infinite",
				"totalSupply()": "2500",
				"transfer(address,uint256)": "infinite",
				"transferFrom(address,address,uint256)": "infinite",
				"transferOwnership(address)": "infinite",
				"transfersRestricted()": "2562"
			}
		},
		"methodIdentifiers": {
			"allowance(address,address)": "dd62ed3e",
			"approve(address,uint256)": "095ea7b3",
			"balanceOf(address)": "70a08231",
			"burn(uint256)": "42966c68",
			"burnFrom(address,uint256)": "79cc6790",
			"decimals()": "313ce567",
			"exemptedAddresses(address)": "a777a940",
			"mint(address,uint256)": "40c10f19",
			"name()": "06fdde03",
			"owner()": "8da5cb5b",
			"renounceOwnership()": "715018a6",
			"setExemptedAddress(address,bool)": "85f390fd",
			"setTransfersRestricted(bool)": "c22dc7e7",
			"symbol()": "95d89b41",
			"totalSupply()": "18160ddd",
			"transfer(address,uint256)": "a9059cbb",
			"transferFrom(address,address,uint256)": "23b872dd",
			"transferOwnership(address)": "f2fde38b",
			"transfersRestricted()": "8423df79"
		}
	},
	"abi": [
		{
			"inputs": [
				{
					"internalType": "address",
					"name": "initialOwner",
					"type": "address"
				}
			],
			"stateMutability": "nonpayable",
			"type": "constructor"
		},
		{
			"inputs": [
				{
					"internalType": "address",
					"name": "spender",
					"type": "address"
				},
				{
					"internalType": "uint256",
					"name": "allowance",
					"type": "uint256"
				},
				{
					"internalType": "uint256",
					"name": "needed",
					"type": "uint256"
				}
			],
			"name": "ERC20InsufficientAllowance",
			"type": "error"
		},
		{
			"inputs": [
				{
					"internalType": "address",
					"name": "sender",
					"type": "address"
				},
				{
					"internalType": "uint256",
					"name": "balance",
					"type": "uint256"
				},
				{
					"internalType": "uint256",
					"name": "needed",
					"type": "uint256"
				}
			],
			"name": "ERC20InsufficientBalance",
			"type": "error"
		},
		{
			"inputs": [
				{
					"internalType": "address",
					"name": "approver",
					"type": "address"
				}
			],
			"name": "ERC20InvalidApprover",
			"type": "error"
		},
		{
			"inputs": [
				{
					"internalType": "address",
					"name": "receiver",
					"type": "address"
				}
			],
			"name": "ERC20InvalidReceiver",
			"type": "error"
		},
		{
			"inputs": [
				{
					"internalType": "address",
					"name": "sender",
					"type": "address"
				}
			],
			"name": "ERC20InvalidSender",
			"type": "error"
		},
		{
			"inputs": [
				{
					"internalType": "address",
					"name": "spender",
					"type": "address"
				}
			],
			"name": "ERC20InvalidSpender",
			"type": "error"
		},
		{
			"inputs": [
				{
					"internalType": "address",
					"name": "owner",
					"type": "address"
				}
			],
			"name": "OwnableInvalidOwner",
			"type": "error"
		},
		{
			"inputs": [
				{
					"internalType": "address",
					"name": "account",
					"type": "address"
				}
			],
			"name": "OwnableUnauthorizedAccount",
			"type": "error"
		},
		{
			"anonymous": false,
			"inputs": [
				{
					"indexed": true,
					"internalType": "address",
					"name": "owner",
					"type": "address"
				},
				{
					"indexed": true,
					"internalType": "address",
					"name": "spender",
					"type": "address"
				},
				{
					"indexed": false,
					"internalType": "uint256",
					"name": "value",
					"type": "uint256"
				}
			],
			"name": "Approval",
			"type": "event"
		},
		{
			"anonymous": false,
			"inputs": [
				{
					"indexed": true,
					"internalType": "address",
					"name": "previousOwner",
					"type": "address"
				},
				{
					"indexed": true,
					"internalType": "address",
					"name": "newOwner",
					"type": "address"
				}
			],
			"name": "OwnershipTransferred",
			"type": "event"
		},
		{
			"anonymous": false,
			"inputs": [
				{
					"indexed": true,
					"internalType": "address",
					"name": "from",
					"type": "address"
				},
				{
					"indexed": true,
					"internalType": "address",
					"name": "to",
					"type": "address"
				},
				{
					"indexed": false,
					"internalType": "uint256",
					"name": "value",
					"type": "uint256"
				}
			],
			"name": "Transfer",
			"type": "event"
		},
		{
			"anonymous": false,
			"inputs": [
				{
					"indexed": false,
					"internalType": "bool",
					"name": "restricted",
					"type": "bool"
				}
			],
			"name": "TransfersRestricted",
			"type": "event"
		},
		{
			"inputs": [
				{
					"internalType": "address",
					"name": "owner",
					"type": "address"
				},
				{
					"internalType": "address",
					"name": "spender",
					"type": "address"
				}
			],
			"name": "allowance",
			"outputs": [
				{
					"internalType": "uint256",
					"name": "",
					"type": "uint256"
				}
			],
			"stateMutability": "view",
			"type": "function"
		},
		{
			"inputs": [
				{
					"internalType": "address",
					"name": "spender",
					"type": "address"
				},
				{
					"internalType": "uint256",
					"name": "value",
					"type": "uint256"
				}
			],
			"name": "approve",
			"outputs": [
				{
					"internalType": "bool",
					"name": "",
					"type": "bool"
				}
			],
			"stateMutability": "nonpayable",
			"type": "function"
		},
		{
			"inputs": [
				{
					"internalType": "address",
					"name": "account",
					"type": "address"
				}
			],
			"name": "balanceOf",
			"outputs": [
				{
					"internalType": "uint256",
					"name": "",
					"type": "uint256"
				}
			],
			"stateMutability": "view",
			"type": "function"
		},
		{
			"inputs": [
				{
					"internalType": "uint256",
					"name": "value",
					"type": "uint256"
				}
			],
			"name": "burn",
			"outputs": [],
			"stateMutability": "nonpayable",
			"type": "function"
		},
		{
			"inputs": [
				{
					"internalType": "address",
					"name": "account",
					"type": "address"
				},
				{
					"internalType": "uint256",
					"name": "value",
					"type": "uint256"
				}
			],
			"name": "burnFrom",
			"outputs": [],
			"stateMutability": "nonpayable",
			"type": "function"
		},
		{
			"inputs": [],
			"name": "decimals",
			"outputs": [
				{
					"internalType": "uint8",
					"name": "",
					"type": "uint8"
				}
			],
			"stateMutability": "view",
			"type": "function"
		},
		{
			"inputs": [
				{
					"internalType": "address",
					"name": "",
					"type": "address"
				}
			],
			"name": "exemptedAddresses",
			"outputs": [
				{
					"internalType": "bool",
					"name": "",
					"type": "bool"
				}
			],
			"stateMutability": "view",
			"type": "function"
		},
		{
			"inputs": [
				{
					"internalType": "address",
					"name": "to",
					"type": "address"
				},
				{
					"internalType": "uint256",
					"name": "amount",
					"type": "uint256"
				}
			],
			"name": "mint",
			"outputs": [],
			"stateMutability": "nonpayable",
			"type": "function"
		},
		{
			"inputs": [],
			"name": "name",
			"outputs": [
				{
					"internalType": "string",
					"name": "",
					"type": "string"
				}
			],
			"stateMutability": "view",
			"type": "function"
		},
		{
			"inputs": [],
			"name": "owner",
			"outputs": [
				{
					"internalType": "address",
					"name": "",
					"type": "address"
				}
			],
			"stateMutability": "view",
			"type": "function"
		},
		{
			"inputs": [],
			"name": "renounceOwnership",
			"outputs": [],
			"stateMutability": "nonpayable",
			"type": "function"
		},
		{
			"inputs": [
				{
					"internalType": "address",
					"name": "account",
					"type": "address"
				},
				{
					"internalType": "bool",
					"name": "exempted",
					"type": "bool"
				}
			],
			"name": "setExemptedAddress",
			"outputs": [],
			"stateMutability": "nonpayable",
			"type": "function"
		},
		{
			"inputs": [
				{
					"internalType": "bool",
					"name": "restricted",
					"type": "bool"
				}
			],
			"name": "setTransfersRestricted",
			"outputs": [],
			"stateMutability": "nonpayable",
			"type": "function"
		},
		{
			"inputs": [],
			"name": "symbol",
			"outputs": [
				{
					"internalType": "string",
					"name": "",
					"type": "string"
				}
			],
			"stateMutability": "view",
			"type": "function"
		},
		{
			"inputs": [],
			"name": "totalSupply",
			"outputs": [
				{
					"internalType": "uint256",
					"name": "",
					"type": "uint256"
				}
			],
			"stateMutability": "view",
			"type": "function"
		},
		{
			"inputs": [
				{
					"internalType": "address",
					"name": "to",
					"type": "address"
				},
				{
					"internalType": "uint256",
					"name": "amount",
					"type": "uint256"
				}
			],
			"name": "transfer",
			"outputs": [
				{
					"internalType": "bool",
					"name": "",
					"type": "bool"
				}
			],
			"stateMutability": "nonpayable",
			"type": "function"
		},
		{
			"inputs": [
				{
					"internalType": "address",
					"name": "from",
					"type": "address"
				},
				{
					"internalType": "address",
					"name": "to",
					"type": "address"
				},
				{
					"internalType": "uint256",
					"name": "amount",
					"type": "uint256"
				}
			],
			"name": "transferFrom",
			"outputs": [
				{
					"internalType": "bool",
					"name": "",
					"type": "bool"
				}
			],
			"stateMutability": "nonpayable",
			"type": "function"
		},
		{
			"inputs": [
				{
					"internalType": "address",
					"name": "newOwner",
					"type": "address"
				}
			],
			"name": "transferOwnership",
			"outputs": [],
			"stateMutability": "nonpayable",
			"type": "function"
		},
		{
			"inputs": [],
			"name": "transfersRestricted",
			"outputs": [
				{
					"internalType": "bool",
					"name": "",
					"type": "bool"
				}
			],
			"stateMutability": "view",
			"type": "function"
		}
	]
}