{
	"data": {
		"bytecode": {
			"linkReferences": {},
			"object": "608060405262015180600355606460045560058055348015601e575f80fd5b506110f58061002c5f395ff3fe608060405234801561000f575f80fd5b5060043610610086575f3560e01c806383617e7a1161005957806383617e7a14610124578063b88a802f14610142578063c9cf5ddf1461014c578063fdea36571461016a57610086565b8063013eba921461008a5780630700037d146100ba578063143ba4f3146100ea5780633d3125f714610106575b5f80fd5b6100a4600480360381019061009f91906107ad565b610188565b6040516100b191906107f0565b60405180910390f35b6100d460048036038101906100cf91906107ad565b61019d565b6040516100e191906107f0565b60405180910390f35b61010460048036038101906100ff9190610a43565b6101b2565b005b61010e610450565b60405161011b91906107f0565b60405180910390f35b61012c610456565b60405161013991906107f0565b60405180910390f35b61014a61045c565b005b610154610719565b6040516101619190610b14565b60405180910390f35b61017261073c565b60405161017f91906107f0565b60405180910390f35b6002602052805f5260405f205f915090505481565b6001602052805f5260405f205f915090505481565b80518251146101f6576040517f08c379a00000000000000000000000000000000000000000000000000000000081526004016101ed90610b87565b60405180910390fd5b5f805f9054906101000a900473ffffffffffffffffffffffffffffffffffffffff1673ffffffffffffffffffffffffffffffffffffffff166370a08231306040518263ffffffff1660e01b81526004016102509190610bb4565b602060405180830381865afa15801561026b573d5f803e3d5ffd5b505050506040513d601f19601f8201168201806040525081019061028f9190610be1565b90505f805b8351811015610331576004548482815181106102b3576102b2610c0c565b5b602002602001015111156102fc576040517f08c379a00000000000000000000000000000000000000000000000000000000081526004016102f390610ca9565b60405180910390fd5b83818151811061030f5761030e610c0c565b5b6020026020010151826103229190610cf4565b91508080600101915050610294565b505f5b84518110156104105760055484828151811061035357610352610c0c565b5b602002602001015110610403575f8285838151811061037557610374610c0c565b5b6020026020010151856103889190610d27565b6103929190610d95565b90508060015f8885815181106103ab576103aa610c0c565b5b602002602001015173ffffffffffffffffffffffffffffffffffffffff1673ffffffffffffffffffffffffffffffffffffffff1681526020019081526020015f205f8282546103fa9190610cf4565b92505081905550505b8080600101915050610334565b507fe69d325558610ba73c441901deb46d7f251108348dc5dc9447e8866774c12edc8484604051610442929190610f33565b60405180910390a150505050565b60045481565b60055481565b5f60015f3373ffffffffffffffffffffffffffffffffffffffff1673ffffffffffffffffffffffffffffffffffffffff1681526020019081526020015f2054116104db576040517f08c379a00000000000000000000000000000000000000000000000000000000081526004016104d290610fb2565b60405180910390fd5b60035460025f3373ffffffffffffffffffffffffffffffffffffffff1673ffffffffffffffffffffffffffffffffffffffff1681526020019081526020015f20546105269190610cf4565b421015610568576040517f08c379a000000000000000000000000000000000000000000000000000000000815260040161055f9061101a565b60405180910390fd5b5f60015f3373ffffffffffffffffffffffffffffffffffffffff1673ffffffffffffffffffffffffffffffffffffffff1681526020019081526020015f205490505f60015f3373ffffffffffffffffffffffffffffffffffffffff1673ffffffffffffffffffffffffffffffffffffffff1681526020019081526020015f20819055504260025f3373ffffffffffffffffffffffffffffffffffffffff1673ffffffffffffffffffffffffffffffffffffffff1681526020019081526020015f20819055505f8054906101000a900473ffffffffffffffffffffffffffffffffffffffff1673ffffffffffffffffffffffffffffffffffffffff1663a9059cbb33836040518363ffffffff1660e01b8152600401610687929190611038565b6020604051808303815f875af11580156106a3573d5f803e3d5ffd5b505050506040513d601f19601f820116820180604052508101906106c79190611094565b503373ffffffffffffffffffffffffffffffffffffffff167f106f923f993c2149d49b4255ff723acafa1f2d94393f561d3eda32ae348f72418260405161070e91906107f0565b60405180910390a250565b5f8054906101000a900473ffffffffffffffffffffffffffffffffffffffff1681565b60035481565b5f604051905090565b5f80fd5b5f80fd5b5f73ffffffffffffffffffffffffffffffffffffffff82169050919050565b5f61077c82610753565b9050919050565b61078c81610772565b8114610796575f80fd5b50565b5f813590506107a781610783565b92915050565b5f602082840312156107c2576107c161074b565b5b5f6107cf84828501610799565b91505092915050565b5f819050919050565b6107ea816107d8565b82525050565b5f6020820190506108035f8301846107e1565b92915050565b5f80fd5b5f601f19601f8301169050919050565b7f4e487b71000000000000000000000000000000000000000000000000000000005f52604160045260245ffd5b6108538261080d565b810181811067ffffffffffffffff821117156108725761087161081d565b5b80604052505050565b5f610884610742565b9050610890828261084a565b919050565b5f67ffffffffffffffff8211156108af576108ae61081d565b5b602082029050602081019050919050565b5f80fd5b5f6108d66108d184610895565b61087b565b905080838252602082019050602084028301858111156108f9576108f86108c0565b5b835b81811015610922578061090e8882610799565b8452602084019350506020810190506108fb565b5050509392505050565b5f82601f8301126109405761093f610809565b5b81356109508482602086016108c4565b91505092915050565b5f67ffffffffffffffff8211156109735761097261081d565b5b602082029050602081019050919050565b61098d816107d8565b8114610997575f80fd5b50565b5f813590506109a881610984565b92915050565b5f6109c06109bb84610959565b61087b565b905080838252602082019050602084028301858111156109e3576109e26108c0565b5b835b81811015610a0c57806109f8888261099a565b8452602084019350506020810190506109e5565b5050509392505050565b5f82601f830112610a2a57610a29610809565b5b8135610a3a8482602086016109ae565b91505092915050565b5f8060408385031215610a5957610a5861074b565b5b5f83013567ffffffffffffffff811115610a7657610a7561074f565b5b610a828582860161092c565b925050602083013567ffffffffffffffff811115610aa357610aa261074f565b5b610aaf85828601610a16565b9150509250929050565b5f819050919050565b5f610adc610ad7610ad284610753565b610ab9565b610753565b9050919050565b5f610aed82610ac2565b9050919050565b5f610afe82610ae3565b9050919050565b610b0e81610af4565b82525050565b5f602082019050610b275f830184610b05565b92915050565b5f82825260208201905092915050565b7f4d69736d617463686564206172726179730000000000000000000000000000005f82015250565b5f610b71601183610b2d565b9150610b7c82610b3d565b602082019050919050565b5f6020820190508181035f830152610b9e81610b65565b9050919050565b610bae81610772565b82525050565b5f602082019050610bc75f830184610ba5565b92915050565b5f81519050610bdb81610984565b92915050565b5f60208284031215610bf657610bf561074b565b5b5f610c0384828501610bcd565b91505092915050565b7f4e487b71000000000000000000000000000000000000000000000000000000005f52603260045260245ffd5b7f566f7465207765696768742065786365656473206d6178696d756d20616c6c6f5f8201527f7765640000000000000000000000000000000000000000000000000000000000602082015250565b5f610c93602383610b2d565b9150610c9e82610c39565b604082019050919050565b5f6020820190508181035f830152610cc081610c87565b9050919050565b7f4e487b71000000000000000000000000000000000000000000000000000000005f52601160045260245ffd5b5f610cfe826107d8565b9150610d09836107d8565b9250828201905080821115610d2157610d20610cc7565b5b92915050565b5f610d31826107d8565b9150610d3c836107d8565b9250828202610d4a816107d8565b91508282048414831517610d6157610d60610cc7565b5b5092915050565b7f4e487b71000000000000000000000000000000000000000000000000000000005f52601260045260245ffd5b5f610d9f826107d8565b9150610daa836107d8565b925082610dba57610db9610d68565b5b828204905092915050565b5f81519050919050565b5f82825260208201905092915050565b5f819050602082019050919050565b610df781610772565b82525050565b5f610e088383610dee565b60208301905092915050565b5f602082019050919050565b5f610e2a82610dc5565b610e348185610dcf565b9350610e3f83610ddf565b805f5b83811015610e6f578151610e568882610dfd565b9750610e6183610e14565b925050600181019050610e42565b5085935050505092915050565b5f81519050919050565b5f82825260208201905092915050565b5f819050602082019050919050565b610eae816107d8565b82525050565b5f610ebf8383610ea5565b60208301905092915050565b5f602082019050919050565b5f610ee182610e7c565b610eeb8185610e86565b9350610ef683610e96565b805f5b83811015610f26578151610f0d8882610eb4565b9750610f1883610ecb565b925050600181019050610ef9565b5085935050505092915050565b5f6040820190508181035f830152610f4b8185610e20565b90508181036020830152610f5f8184610ed7565b90509392505050565b7f4e6f207265776172647320746f20636c61696d000000000000000000000000005f82015250565b5f610f9c601383610b2d565b9150610fa782610f68565b602082019050919050565b5f6020820190508181035f830152610fc981610f90565b9050919050565b7f436c61696d20636f6f6c646f776e206e6f7420796574207265616368656400005f82015250565b5f611004601e83610b2d565b915061100f82610fd0565b602082019050919050565b5f6020820190508181035f83015261103181610ff8565b9050919050565b5f60408201905061104b5f830185610ba5565b61105860208301846107e1565b9392505050565b5f8115159050919050565b6110738161105f565b811461107d575f80fd5b50565b5f8151905061108e8161106a565b92915050565b5f602082840312156110a9576110a861074b565b5b5f6110b684828501611080565b9150509291505056fea26469706673582212205cab2c747f7b8c544578bb066012c370d97dd762bddb376fa54d000bb8220bb164736f6c634300081a0033",
			"opcodes": "PUSH1 0x80 PUSH1 0x40 MSTORE PUSH3 0x15180 PUSH1 0x3 SSTORE PUSH1 0x64 PUSH1 0x4 SSTORE PUSH1 0x5 DUP1 SSTORE CALLVALUE DUP1 ISZERO PUSH1 0x1E JUMPI PUSH0 DUP1 REVERT JUMPDEST POP PUSH2 0x10F5 DUP1 PUSH2 0x2C PUSH0 CODECOPY PUSH0 RETURN INVALID PUSH1 0x80 PUSH1 0x40 MSTORE CALLVALUE DUP1 ISZERO PUSH2 0xF JUMPI PUSH0 DUP1 REVERT JUMPDEST POP PUSH1 0x4 CALLDATASIZE LT PUSH2 0x86 JUMPI PUSH0 CALLDATALOAD PUSH1 0xE0 SHR DUP1 PUSH4 0x83617E7A GT PUSH2 0x59 JUMPI DUP1 PUSH4 0x83617E7A EQ PUSH2 0x124 JUMPI DUP1 PUSH4 0xB88A802F EQ PUSH2 0x142 JUMPI DUP1 PUSH4 0xC9CF5DDF EQ PUSH2 0x14C JUMPI DUP1 PUSH4 0xFDEA3657 EQ PUSH2 0x16A JUMPI PUSH2 0x86 JUMP JUMPDEST DUP1 PUSH4 0x13EBA92 EQ PUSH2 0x8A JUMPI DUP1 PUSH4 0x700037D EQ PUSH2 0xBA JUMPI DUP1 PUSH4 0x143BA4F3 EQ PUSH2 0xEA JUMPI DUP1 PUSH4 0x3D3125F7 EQ PUSH2 0x106 JUMPI JUMPDEST PUSH0 DUP1 REVERT JUMPDEST PUSH2 0xA4 PUSH1 0x4 DUP1 CALLDATASIZE SUB DUP2 ADD SWAP1 PUSH2 0x9F SWAP2 SWAP1 PUSH2 0x7AD JUMP JUMPDEST PUSH2 0x188 JUMP JUMPDEST PUSH1 0x40 MLOAD PUSH2 0xB1 SWAP2 SWAP1 PUSH2 0x7F0 JUMP JUMPDEST PUSH1 0x40 MLOAD DUP1 SWAP2 SUB SWAP1 RETURN JUMPDEST PUSH2 0xD4 PUSH1 0x4 DUP1 CALLDATASIZE SUB DUP2 ADD SWAP1 PUSH2 0xCF SWAP2 SWAP1 PUSH2 0x7AD JUMP JUMPDEST PUSH2 0x19D JUMP JUMPDEST PUSH1 0x40 MLOAD PUSH2 0xE1 SWAP2 SWAP1 PUSH2 0x7F0 JUMP JUMPDEST PUSH1 0x40 MLOAD DUP1 SWAP2 SUB SWAP1 RETURN JUMPDEST PUSH2 0x104 PUSH1 0x4 DUP1 CALLDATASIZE SUB DUP2 ADD SWAP1 PUSH2 0xFF SWAP2 SWAP1 PUSH2 0xA43 JUMP JUMPDEST PUSH2 0x1B2 JUMP JUMPDEST STOP JUMPDEST PUSH2 0x10E PUSH2 0x450 JUMP JUMPDEST PUSH1 0x40 MLOAD PUSH2 0x11B SWAP2 SWAP1 PUSH2 0x7F0 JUMP JUMPDEST PUSH1 0x40 MLOAD DUP1 SWAP2 SUB SWAP1 RETURN JUMPDEST PUSH2 0x12C PUSH2 0x456 JUMP JUMPDEST PUSH1 0x40 MLOAD PUSH2 0x139 SWAP2 SWAP1 PUSH2 0x7F0 JUMP JUMPDEST PUSH1 0x40 MLOAD DUP1 SWAP2 SUB SWAP1 RETURN JUMPDEST PUSH2 0x14A PUSH2 0x45C JUMP JUMPDEST STOP JUMPDEST PUSH2 0x154 PUSH2 0x719 JUMP JUMPDEST PUSH1 0x40 MLOAD PUSH2 0x161 SWAP2 SWAP1 PUSH2 0xB14 JUMP JUMPDEST PUSH1 0x40 MLOAD DUP1 SWAP2 SUB SWAP1 RETURN JUMPDEST PUSH2 0x172 PUSH2 0x73C JUMP JUMPDEST PUSH1 0x40 MLOAD PUSH2 0x17F SWAP2 SWAP1 PUSH2 0x7F0 JUMP JUMPDEST PUSH1 0x40 MLOAD DUP1 SWAP2 SUB SWAP1 RETURN JUMPDEST PUSH1 0x2 PUSH1 0x20 MSTORE DUP1 PUSH0 MSTORE PUSH1 0x40 PUSH0 KECCAK256 PUSH0 SWAP2 POP SWAP1 POP SLOAD DUP2 JUMP JUMPDEST PUSH1 0x1 PUSH1 0x20 MSTORE DUP1 PUSH0 MSTORE PUSH1 0x40 PUSH0 KECCAK256 PUSH0 SWAP2 POP SWAP1 POP SLOAD DUP2 JUMP JUMPDEST DUP1 MLOAD DUP3 MLOAD EQ PUSH2 0x1F6 JUMPI PUSH1 0x40 MLOAD PUSH32 0x8C379A000000000000000000000000000000000000000000000000000000000 DUP2 MSTORE PUSH1 0x4 ADD PUSH2 0x1ED SWAP1 PUSH2 0xB87 JUMP JUMPDEST PUSH1 0x40 MLOAD DUP1 SWAP2 SUB SWAP1 REVERT JUMPDEST PUSH0 DUP1 PUSH0 SWAP1 SLOAD SWAP1 PUSH2 0x100 EXP SWAP1 DIV PUSH20 0xFFFFFFFFFFFFFFFFFFFFFFFFFFFFFFFFFFFFFFFF AND PUSH20 0xFFFFFFFFFFFFFFFFFFFFFFFFFFFFFFFFFFFFFFFF AND PUSH4 0x70A08231 ADDRESS PUSH1 0x40 MLOAD DUP3 PUSH4 0xFFFFFFFF AND PUSH1 0xE0 SHL DUP2 MSTORE PUSH1 0x4 ADD PUSH2 0x250 SWAP2 SWAP1 PUSH2 0xBB4 JUMP JUMPDEST PUSH1 0x20 PUSH1 0x40 MLOAD DUP1 DUP4 SUB DUP2 DUP7 GAS STATICCALL ISZERO DUP1 ISZERO PUSH2 0x26B JUMPI RETURNDATASIZE PUSH0 DUP1 RETURNDATACOPY RETURNDATASIZE PUSH0 REVERT JUMPDEST POP POP POP POP PUSH1 0x40 MLOAD RETURNDATASIZE PUSH1 0x1F NOT PUSH1 0x1F DUP3 ADD AND DUP3 ADD DUP1 PUSH1 0x40 MSTORE POP DUP2 ADD SWAP1 PUSH2 0x28F SWAP2 SWAP1 PUSH2 0xBE1 JUMP JUMPDEST SWAP1 POP PUSH0 DUP1 JUMPDEST DUP4 MLOAD DUP2 LT ISZERO PUSH2 0x331 JUMPI PUSH1 0x4 SLOAD DUP5 DUP3 DUP2 MLOAD DUP2 LT PUSH2 0x2B3 JUMPI PUSH2 0x2B2 PUSH2 0xC0C JUMP JUMPDEST JUMPDEST PUSH1 0x20 MUL PUSH1 0x20 ADD ADD MLOAD GT ISZERO PUSH2 0x2FC JUMPI PUSH1 0x40 MLOAD PUSH32 0x8C379A000000000000000000000000000000000000000000000000000000000 DUP2 MSTORE PUSH1 0x4 ADD PUSH2 0x2F3 SWAP1 PUSH2 0xCA9 JUMP JUMPDEST PUSH1 0x40 MLOAD DUP1 SWAP2 SUB SWAP1 REVERT JUMPDEST DUP4 DUP2 DUP2 MLOAD DUP2 LT PUSH2 0x30F JUMPI PUSH2 0x30E PUSH2 0xC0C JUMP JUMPDEST JUMPDEST PUSH1 0x20 MUL PUSH1 0x20 ADD ADD MLOAD DUP3 PUSH2 0x322 SWAP2 SWAP1 PUSH2 0xCF4 JUMP JUMPDEST SWAP2 POP DUP1 DUP1 PUSH1 0x1 ADD SWAP2 POP POP PUSH2 0x294 JUMP JUMPDEST POP PUSH0 JUMPDEST DUP5 MLOAD DUP2 LT ISZERO PUSH2 0x410 JUMPI PUSH1 0x5 SLOAD DUP5 DUP3 DUP2 MLOAD DUP2 LT PUSH2 0x353 JUMPI PUSH2 0x352 PUSH2 0xC0C JUMP JUMPDEST JUMPDEST PUSH1 0x20 MUL PUSH1 0x20 ADD ADD MLOAD LT PUSH2 0x403 JUMPI PUSH0 DUP3 DUP6 DUP4 DUP2 MLOAD DUP2 LT PUSH2 0x375 JUMPI PUSH2 0x374 PUSH2 0xC0C JUMP JUMPDEST JUMPDEST PUSH1 0x20 MUL PUSH1 0x20 ADD ADD MLOAD DUP6 PUSH2 0x388 SWAP2 SWAP1 PUSH2 0xD27 JUMP JUMPDEST PUSH2 0x392 SWAP2 SWAP1 PUSH2 0xD95 JUMP JUMPDEST SWAP1 POP DUP1 PUSH1 0x1 PUSH0 DUP9 DUP6 DUP2 MLOAD DUP2 LT PUSH2 0x3AB JUMPI PUSH2 0x3AA PUSH2 0xC0C JUMP JUMPDEST JUMPDEST PUSH1 0x20 MUL PUSH1 0x20 ADD ADD MLOAD PUSH20 0xFFFFFFFFFFFFFFFFFFFFFFFFFFFFFFFFFFFFFFFF AND PUSH20 0xFFFFFFFFFFFFFFFFFFFFFFFFFFFFFFFFFFFFFFFF AND DUP2 MSTORE PUSH1 0x20 ADD SWAP1 DUP2 MSTORE PUSH1 0x20 ADD PUSH0 KECCAK256 PUSH0 DUP3 DUP3 SLOAD PUSH2 0x3FA SWAP2 SWAP1 PUSH2 0xCF4 JUMP JUMPDEST SWAP3 POP POP DUP2 SWAP1 SSTORE POP POP JUMPDEST DUP1 DUP1 PUSH1 0x1 ADD SWAP2 POP POP PUSH2 0x334 JUMP JUMPDEST POP PUSH32 0xE69D325558610BA73C441901DEB46D7F251108348DC5DC9447E8866774C12EDC DUP5 DUP5 PUSH1 0x40 MLOAD PUSH2 0x442 SWAP3 SWAP2 SWAP1 PUSH2 0xF33 JUMP JUMPDEST PUSH1 0x40 MLOAD DUP1 SWAP2 SUB SWAP1 LOG1 POP POP POP POP JUMP JUMPDEST PUSH1 0x4 SLOAD DUP2 JUMP JUMPDEST PUSH1 0x5 SLOAD DUP2 JUMP JUMPDEST PUSH0 PUSH1 0x1 PUSH0 CALLER PUSH20 0xFFFFFFFFFFFFFFFFFFFFFFFFFFFFFFFFFFFFFFFF AND PUSH20 0xFFFFFFFFFFFFFFFFFFFFFFFFFFFFFFFFFFFFFFFF AND DUP2 MSTORE PUSH1 0x20 ADD SWAP1 DUP2 MSTORE PUSH1 0x20 ADD PUSH0 KECCAK256 SLOAD GT PUSH2 0x4DB JUMPI PUSH1 0x40 MLOAD PUSH32 0x8C379A000000000000000000000000000000000000000000000000000000000 DUP2 MSTORE PUSH1 0x4 ADD PUSH2 0x4D2 SWAP1 PUSH2 0xFB2 JUMP JUMPDEST PUSH1 0x40 MLOAD DUP1 SWAP2 SUB SWAP1 REVERT JUMPDEST PUSH1 0x3 SLOAD PUSH1 0x2 PUSH0 CALLER PUSH20 0xFFFFFFFFFFFFFFFFFFFFFFFFFFFFFFFFFFFFFFFF AND PUSH20 0xFFFFFFFFFFFFFFFFFFFFFFFFFFFFFFFFFFFFFFFF AND DUP2 MSTORE PUSH1 0x20 ADD SWAP1 DUP2 MSTORE PUSH1 0x20 ADD PUSH0 KECCAK256 SLOAD PUSH2 0x526 SWAP2 SWAP1 PUSH2 0xCF4 JUMP JUMPDEST TIMESTAMP LT ISZERO PUSH2 0x568 JUMPI PUSH1 0x40 MLOAD PUSH32 0x8C379A000000000000000000000000000000000000000000000000000000000 DUP2 MSTORE PUSH1 0x4 ADD PUSH2 0x55F SWAP1 PUSH2 0x101A JUMP JUMPDEST PUSH1 0x40 MLOAD DUP1 SWAP2 SUB SWAP1 REVERT JUMPDEST PUSH0 PUSH1 0x1 PUSH0 CALLER PUSH20 0xFFFFFFFFFFFFFFFFFFFFFFFFFFFFFFFFFFFFFFFF AND PUSH20 0xFFFFFFFFFFFFFFFFFFFFFFFFFFFFFFFFFFFFFFFF AND DUP2 MSTORE PUSH1 0x20 ADD SWAP1 DUP2 MSTORE PUSH1 0x20 ADD PUSH0 KECCAK256 SLOAD SWAP1 POP PUSH0 PUSH1 0x1 PUSH0 CALLER PUSH20 0xFFFFFFFFFFFFFFFFFFFFFFFFFFFFFFFFFFFFFFFF AND PUSH20 0xFFFFFFFFFFFFFFFFFFFFFFFFFFFFFFFFFFFFFFFF AND DUP2 MSTORE PUSH1 0x20 ADD SWAP1 DUP2 MSTORE PUSH1 0x20 ADD PUSH0 KECCAK256 DUP2 SWAP1 SSTORE POP TIMESTAMP PUSH1 0x2 PUSH0 CALLER PUSH20 0xFFFFFFFFFFFFFFFFFFFFFFFFFFFFFFFFFFFFFFFF AND PUSH20 0xFFFFFFFFFFFFFFFFFFFFFFFFFFFFFFFFFFFFFFFF AND DUP2 MSTORE PUSH1 0x20 ADD SWAP1 DUP2 MSTORE PUSH1 0x20 ADD PUSH0 KECCAK256 DUP2 SWAP1 SSTORE POP PUSH0 DUP1 SLOAD SWAP1 PUSH2 0x100 EXP SWAP1 DIV PUSH20 0xFFFFFFFFFFFFFFFFFFFFFFFFFFFFFFFFFFFFFFFF AND PUSH20 0xFFFFFFFFFFFFFFFFFFFFFFFFFFFFFFFFFFFFFFFF AND PUSH4 0xA9059CBB CALLER DUP4 PUSH1 0x40 MLOAD DUP4 PUSH4 0xFFFFFFFF AND PUSH1 0xE0 SHL DUP2 MSTORE PUSH1 0x4 ADD PUSH2 0x687 SWAP3 SWAP2 SWAP1 PUSH2 0x1038 JUMP JUMPDEST PUSH1 0x20 PUSH1 0x40 MLOAD DUP1 DUP4 SUB DUP2 PUSH0 DUP8 GAS CALL ISZERO DUP1 ISZERO PUSH2 0x6A3 JUMPI RETURNDATASIZE PUSH0 DUP1 RETURNDATACOPY RETURNDATASIZE PUSH0 REVERT JUMPDEST POP POP POP POP PUSH1 0x40 MLOAD RETURNDATASIZE PUSH1 0x1F NOT PUSH1 0x1F DUP3 ADD AND DUP3 ADD DUP1 PUSH1 0x40 MSTORE POP DUP2 ADD SWAP1 PUSH2 0x6C7 SWAP2 SWAP1 PUSH2 0x1094 JUMP JUMPDEST POP CALLER PUSH20 0xFFFFFFFFFFFFFFFFFFFFFFFFFFFFFFFFFFFFFFFF AND PUSH32 0x106F923F993C2149D49B4255FF723ACAFA1F2D94393F561D3EDA32AE348F7241 DUP3 PUSH1 0x40 MLOAD PUSH2 0x70E SWAP2 SWAP1 PUSH2 0x7F0 JUMP JUMPDEST PUSH1 0x40 MLOAD DUP1 SWAP2 SUB SWAP1 LOG2 POP JUMP JUMPDEST PUSH0 DUP1 SLOAD SWAP1 PUSH2 0x100 EXP SWAP1 DIV PUSH20 0xFFFFFFFFFFFFFFFFFFFFFFFFFFFFFFFFFFFFFFFF AND DUP2 JUMP JUMPDEST PUSH1 0x3 SLOAD DUP2 JUMP JUMPDEST PUSH0 PUSH1 0x40 MLOAD SWAP1 POP SWAP1 JUMP JUMPDEST PUSH0 DUP1 REVERT JUMPDEST PUSH0 DUP1 REVERT JUMPDEST PUSH0 PUSH20 0xFFFFFFFFFFFFFFFFFFFFFFFFFFFFFFFFFFFFFFFF DUP3 AND SWAP1 POP SWAP2 SWAP1 POP JUMP JUMPDEST PUSH0 PUSH2 0x77C DUP3 PUSH2 0x753 JUMP JUMPDEST SWAP1 POP SWAP2 SWAP1 POP JUMP JUMPDEST PUSH2 0x78C DUP2 PUSH2 0x772 JUMP JUMPDEST DUP2 EQ PUSH2 0x796 JUMPI PUSH0 DUP1 REVERT JUMPDEST POP JUMP JUMPDEST PUSH0 DUP2 CALLDATALOAD SWAP1 POP PUSH2 0x7A7 DUP2 PUSH2 0x783 JUMP JUMPDEST SWAP3 SWAP2 POP POP JUMP JUMPDEST PUSH0 PUSH1 0x20 DUP3 DUP5 SUB SLT ISZERO PUSH2 0x7C2 JUMPI PUSH2 0x7C1 PUSH2 0x74B JUMP JUMPDEST JUMPDEST PUSH0 PUSH2 0x7CF DUP5 DUP3 DUP6 ADD PUSH2 0x799 JUMP JUMPDEST SWAP2 POP POP SWAP3 SWAP2 POP POP JUMP JUMPDEST PUSH0 DUP2 SWAP1 POP SWAP2 SWAP1 POP JUMP JUMPDEST PUSH2 0x7EA DUP2 PUSH2 0x7D8 JUMP JUMPDEST DUP3 MSTORE POP POP JUMP JUMPDEST PUSH0 PUSH1 0x20 DUP3 ADD SWAP1 POP PUSH2 0x803 PUSH0 DUP4 ADD DUP5 PUSH2 0x7E1 JUMP JUMPDEST SWAP3 SWAP2 POP POP JUMP JUMPDEST PUSH0 DUP1 REVERT JUMPDEST PUSH0 PUSH1 0x1F NOT PUSH1 0x1F DUP4 ADD AND SWAP1 POP SWAP2 SWAP1 POP JUMP JUMPDEST PUSH32 0x4E487B7100000000000000000000000000000000000000000000000000000000 PUSH0 MSTORE PUSH1 0x41 PUSH1 0x4 MSTORE PUSH1 0x24 PUSH0 REVERT JUMPDEST PUSH2 0x853 DUP3 PUSH2 0x80D JUMP JUMPDEST DUP2 ADD DUP2 DUP2 LT PUSH8 0xFFFFFFFFFFFFFFFF DUP3 GT OR ISZERO PUSH2 0x872 JUMPI PUSH2 0x871 PUSH2 0x81D JUMP JUMPDEST JUMPDEST DUP1 PUSH1 0x40 MSTORE POP POP POP JUMP JUMPDEST PUSH0 PUSH2 0x884 PUSH2 0x742 JUMP JUMPDEST SWAP1 POP PUSH2 0x890 DUP3 DUP3 PUSH2 0x84A JUMP JUMPDEST SWAP2 SWAP1 POP JUMP JUMPDEST PUSH0 PUSH8 0xFFFFFFFFFFFFFFFF DUP3 GT ISZERO PUSH2 0x8AF JUMPI PUSH2 0x8AE PUSH2 0x81D JUMP JUMPDEST JUMPDEST PUSH1 0x20 DUP3 MUL SWAP1 POP PUSH1 0x20 DUP2 ADD SWAP1 POP SWAP2 SWAP1 POP JUMP JUMPDEST PUSH0 DUP1 REVERT JUMPDEST PUSH0 PUSH2 0x8D6 PUSH2 0x8D1 DUP5 PUSH2 0x895 JUMP JUMPDEST PUSH2 0x87B JUMP JUMPDEST SWAP1 POP DUP1 DUP4 DUP3 MSTORE PUSH1 0x20 DUP3 ADD SWAP1 POP PUSH1 0x20 DUP5 MUL DUP4 ADD DUP6 DUP2 GT ISZERO PUSH2 0x8F9 JUMPI PUSH2 0x8F8 PUSH2 0x8C0 JUMP JUMPDEST JUMPDEST DUP4 JUMPDEST DUP2 DUP2 LT ISZERO PUSH2 0x922 JUMPI DUP1 PUSH2 0x90E DUP9 DUP3 PUSH2 0x799 JUMP JUMPDEST DUP5 MSTORE PUSH1 0x20 DUP5 ADD SWAP4 POP POP PUSH1 0x20 DUP2 ADD SWAP1 POP PUSH2 0x8FB JUMP JUMPDEST POP POP POP SWAP4 SWAP3 POP POP POP JUMP JUMPDEST PUSH0 DUP3 PUSH1 0x1F DUP4 ADD SLT PUSH2 0x940 JUMPI PUSH2 0x93F PUSH2 0x809 JUMP JUMPDEST JUMPDEST DUP2 CALLDATALOAD PUSH2 0x950 DUP5 DUP3 PUSH1 0x20 DUP7 ADD PUSH2 0x8C4 JUMP JUMPDEST SWAP2 POP POP SWAP3 SWAP2 POP POP JUMP JUMPDEST PUSH0 PUSH8 0xFFFFFFFFFFFFFFFF DUP3 GT ISZERO PUSH2 0x973 JUMPI PUSH2 0x972 PUSH2 0x81D JUMP JUMPDEST JUMPDEST PUSH1 0x20 DUP3 MUL SWAP1 POP PUSH1 0x20 DUP2 ADD SWAP1 POP SWAP2 SWAP1 POP JUMP JUMPDEST PUSH2 0x98D DUP2 PUSH2 0x7D8 JUMP JUMPDEST DUP2 EQ PUSH2 0x997 JUMPI PUSH0 DUP1 REVERT JUMPDEST POP JUMP JUMPDEST PUSH0 DUP2 CALLDATALOAD SWAP1 POP PUSH2 0x9A8 DUP2 PUSH2 0x984 JUMP JUMPDEST SWAP3 SWAP2 POP POP JUMP JUMPDEST PUSH0 PUSH2 0x9C0 PUSH2 0x9BB DUP5 PUSH2 0x959 JUMP JUMPDEST PUSH2 0x87B JUMP JUMPDEST SWAP1 POP DUP1 DUP4 DUP3 MSTORE PUSH1 0x20 DUP3 ADD SWAP1 POP PUSH1 0x20 DUP5 MUL DUP4 ADD DUP6 DUP2 GT ISZERO PUSH2 0x9E3 JUMPI PUSH2 0x9E2 PUSH2 0x8C0 JUMP JUMPDEST JUMPDEST DUP4 JUMPDEST DUP2 DUP2 LT ISZERO PUSH2 0xA0C JUMPI DUP1 PUSH2 0x9F8 DUP9 DUP3 PUSH2 0x99A JUMP JUMPDEST DUP5 MSTORE PUSH1 0x20 DUP5 ADD SWAP4 POP POP PUSH1 0x20 DUP2 ADD SWAP1 POP PUSH2 0x9E5 JUMP JUMPDEST POP POP POP SWAP4 SWAP3 POP POP POP JUMP JUMPDEST PUSH0 DUP3 PUSH1 0x1F DUP4 ADD SLT PUSH2 0xA2A JUMPI PUSH2 0xA29 PUSH2 0x809 JUMP JUMPDEST JUMPDEST DUP2 CALLDATALOAD PUSH2 0xA3A DUP5 DUP3 PUSH1 0x20 DUP7 ADD PUSH2 0x9AE JUMP JUMPDEST SWAP2 POP POP SWAP3 SWAP2 POP POP JUMP JUMPDEST PUSH0 DUP1 PUSH1 0x40 DUP4 DUP6 SUB SLT ISZERO PUSH2 0xA59 JUMPI PUSH2 0xA58 PUSH2 0x74B JUMP JUMPDEST JUMPDEST PUSH0 DUP4 ADD CALLDATALOAD PUSH8 0xFFFFFFFFFFFFFFFF DUP2 GT ISZERO PUSH2 0xA76 JUMPI PUSH2 0xA75 PUSH2 0x74F JUMP JUMPDEST JUMPDEST PUSH2 0xA82 DUP6 DUP3 DUP7 ADD PUSH2 0x92C JUMP JUMPDEST SWAP3 POP POP PUSH1 0x20 DUP4 ADD CALLDATALOAD PUSH8 0xFFFFFFFFFFFFFFFF DUP2 GT ISZERO PUSH2 0xAA3 JUMPI PUSH2 0xAA2 PUSH2 0x74F JUMP JUMPDEST JUMPDEST PUSH2 0xAAF DUP6 DUP3 DUP7 ADD PUSH2 0xA16 JUMP JUMPDEST SWAP2 POP POP SWAP3 POP SWAP3 SWAP1 POP JUMP JUMPDEST PUSH0 DUP2 SWAP1 POP SWAP2 SWAP1 POP JUMP JUMPDEST PUSH0 PUSH2 0xADC PUSH2 0xAD7 PUSH2 0xAD2 DUP5 PUSH2 0x753 JUMP JUMPDEST PUSH2 0xAB9 JUMP JUMPDEST PUSH2 0x753 JUMP JUMPDEST SWAP1 POP SWAP2 SWAP1 POP JUMP JUMPDEST PUSH0 PUSH2 0xAED DUP3 PUSH2 0xAC2 JUMP JUMPDEST SWAP1 POP SWAP2 SWAP1 POP JUMP JUMPDEST PUSH0 PUSH2 0xAFE DUP3 PUSH2 0xAE3 JUMP JUMPDEST SWAP1 POP SWAP2 SWAP1 POP JUMP JUMPDEST PUSH2 0xB0E DUP2 PUSH2 0xAF4 JUMP JUMPDEST DUP3 MSTORE POP POP JUMP JUMPDEST PUSH0 PUSH1 0x20 DUP3 ADD SWAP1 POP PUSH2 0xB27 PUSH0 DUP4 ADD DUP5 PUSH2 0xB05 JUMP JUMPDEST SWAP3 SWAP2 POP POP JUMP JUMPDEST PUSH0 DUP3 DUP3 MSTORE PUSH1 0x20 DUP3 ADD SWAP1 POP SWAP3 SWAP2 POP POP JUMP JUMPDEST PUSH32 0x4D69736D61746368656420617272617973000000000000000000000000000000 PUSH0 DUP3 ADD MSTORE POP JUMP JUMPDEST PUSH0 PUSH2 0xB71 PUSH1 0x11 DUP4 PUSH2 0xB2D JUMP JUMPDEST SWAP2 POP PUSH2 0xB7C DUP3 PUSH2 0xB3D JUMP JUMPDEST PUSH1 0x20 DUP3 ADD SWAP1 POP SWAP2 SWAP1 POP JUMP JUMPDEST PUSH0 PUSH1 0x20 DUP3 ADD SWAP1 POP DUP2 DUP2 SUB PUSH0 DUP4 ADD MSTORE PUSH2 0xB9E DUP2 PUSH2 0xB65 JUMP JUMPDEST SWAP1 POP SWAP2 SWAP1 POP JUMP JUMPDEST PUSH2 0xBAE DUP2 PUSH2 0x772 JUMP JUMPDEST DUP3 MSTORE POP POP JUMP JUMPDEST PUSH0 PUSH1 0x20 DUP3 ADD SWAP1 POP PUSH2 0xBC7 PUSH0 DUP4 ADD DUP5 PUSH2 0xBA5 JUMP JUMPDEST SWAP3 SWAP2 POP POP JUMP JUMPDEST PUSH0 DUP2 MLOAD SWAP1 POP PUSH2 0xBDB DUP2 PUSH2 0x984 JUMP JUMPDEST SWAP3 SWAP2 POP POP JUMP JUMPDEST PUSH0 PUSH1 0x20 DUP3 DUP5 SUB SLT ISZERO PUSH2 0xBF6 JUMPI PUSH2 0xBF5 PUSH2 0x74B JUMP JUMPDEST JUMPDEST PUSH0 PUSH2 0xC03 DUP5 DUP3 DUP6 ADD PUSH2 0xBCD JUMP JUMPDEST SWAP2 POP POP SWAP3 SWAP2 POP POP JUMP JUMPDEST PUSH32 0x4E487B7100000000000000000000000000000000000000000000000000000000 PUSH0 MSTORE PUSH1 0x32 PUSH1 0x4 MSTORE PUSH1 0x24 PUSH0 REVERT JUMPDEST PUSH32 0x566F7465207765696768742065786365656473206D6178696D756D20616C6C6F PUSH0 DUP3 ADD MSTORE PUSH32 0x7765640000000000000000000000000000000000000000000000000000000000 PUSH1 0x20 DUP3 ADD MSTORE POP JUMP JUMPDEST PUSH0 PUSH2 0xC93 PUSH1 0x23 DUP4 PUSH2 0xB2D JUMP JUMPDEST SWAP2 POP PUSH2 0xC9E DUP3 PUSH2 0xC39 JUMP JUMPDEST PUSH1 0x40 DUP3 ADD SWAP1 POP SWAP2 SWAP1 POP JUMP JUMPDEST PUSH0 PUSH1 0x20 DUP3 ADD SWAP1 POP DUP2 DUP2 SUB PUSH0 DUP4 ADD MSTORE PUSH2 0xCC0 DUP2 PUSH2 0xC87 JUMP JUMPDEST SWAP1 POP SWAP2 SWAP1 POP JUMP JUMPDEST PUSH32 0x4E487B7100000000000000000000000000000000000000000000000000000000 PUSH0 MSTORE PUSH1 0x11 PUSH1 0x4 MSTORE PUSH1 0x24 PUSH0 REVERT JUMPDEST PUSH0 PUSH2 0xCFE DUP3 PUSH2 0x7D8 JUMP JUMPDEST SWAP2 POP PUSH2 0xD09 DUP4 PUSH2 0x7D8 JUMP JUMPDEST SWAP3 POP DUP3 DUP3 ADD SWAP1 POP DUP1 DUP3 GT ISZERO PUSH2 0xD21 JUMPI PUSH2 0xD20 PUSH2 0xCC7 JUMP JUMPDEST JUMPDEST SWAP3 SWAP2 POP POP JUMP JUMPDEST PUSH0 PUSH2 0xD31 DUP3 PUSH2 0x7D8 JUMP JUMPDEST SWAP2 POP PUSH2 0xD3C DUP4 PUSH2 0x7D8 JUMP JUMPDEST SWAP3 POP DUP3 DUP3 MUL PUSH2 0xD4A DUP2 PUSH2 0x7D8 JUMP JUMPDEST SWAP2 POP DUP3 DUP3 DIV DUP5 EQ DUP4 ISZERO OR PUSH2 0xD61 JUMPI PUSH2 0xD60 PUSH2 0xCC7 JUMP JUMPDEST JUMPDEST POP SWAP3 SWAP2 POP POP JUMP JUMPDEST PUSH32 0x4E487B7100000000000000000000000000000000000000000000000000000000 PUSH0 MSTORE PUSH1 0x12 PUSH1 0x4 MSTORE PUSH1 0x24 PUSH0 REVERT JUMPDEST PUSH0 PUSH2 0xD9F DUP3 PUSH2 0x7D8 JUMP JUMPDEST SWAP2 POP PUSH2 0xDAA DUP4 PUSH2 0x7D8 JUMP JUMPDEST SWAP3 POP DUP3 PUSH2 0xDBA JUMPI PUSH2 0xDB9 PUSH2 0xD68 JUMP JUMPDEST JUMPDEST DUP3 DUP3 DIV SWAP1 POP SWAP3 SWAP2 POP POP JUMP JUMPDEST PUSH0 DUP2 MLOAD SWAP1 POP SWAP2 SWAP1 POP JUMP JUMPDEST PUSH0 DUP3 DUP3 MSTORE PUSH1 0x20 DUP3 ADD SWAP1 POP SWAP3 SWAP2 POP POP JUMP JUMPDEST PUSH0 DUP2 SWAP1 POP PUSH1 0x20 DUP3 ADD SWAP1 POP SWAP2 SWAP1 POP JUMP JUMPDEST PUSH2 0xDF7 DUP2 PUSH2 0x772 JUMP JUMPDEST DUP3 MSTORE POP POP JUMP JUMPDEST PUSH0 PUSH2 0xE08 DUP4 DUP4 PUSH2 0xDEE JUMP JUMPDEST PUSH1 0x20 DUP4 ADD SWAP1 POP SWAP3 SWAP2 POP POP JUMP JUMPDEST PUSH0 PUSH1 0x20 DUP3 ADD SWAP1 POP SWAP2 SWAP1 POP JUMP JUMPDEST PUSH0 PUSH2 0xE2A DUP3 PUSH2 0xDC5 JUMP JUMPDEST PUSH2 0xE34 DUP2 DUP6 PUSH2 0xDCF JUMP JUMPDEST SWAP4 POP PUSH2 0xE3F DUP4 PUSH2 0xDDF JUMP JUMPDEST DUP1 PUSH0 JUMPDEST DUP4 DUP2 LT ISZERO PUSH2 0xE6F JUMPI DUP2 MLOAD PUSH2 0xE56 DUP9 DUP3 PUSH2 0xDFD JUMP JUMPDEST SWAP8 POP PUSH2 0xE61 DUP4 PUSH2 0xE14 JUMP JUMPDEST SWAP3 POP POP PUSH1 0x1 DUP2 ADD SWAP1 POP PUSH2 0xE42 JUMP JUMPDEST POP DUP6 SWAP4 POP POP POP POP SWAP3 SWAP2 POP POP JUMP JUMPDEST PUSH0 DUP2 MLOAD SWAP1 POP SWAP2 SWAP1 POP JUMP JUMPDEST PUSH0 DUP3 DUP3 MSTORE PUSH1 0x20 DUP3 ADD SWAP1 POP SWAP3 SWAP2 POP POP JUMP JUMPDEST PUSH0 DUP2 SWAP1 POP PUSH1 0x20 DUP3 ADD SWAP1 POP SWAP2 SWAP1 POP JUMP JUMPDEST PUSH2 0xEAE DUP2 PUSH2 0x7D8 JUMP JUMPDEST DUP3 MSTORE POP POP JUMP JUMPDEST PUSH0 PUSH2 0xEBF DUP4 DUP4 PUSH2 0xEA5 JUMP JUMPDEST PUSH1 0x20 DUP4 ADD SWAP1 POP SWAP3 SWAP2 POP POP JUMP JUMPDEST PUSH0 PUSH1 0x20 DUP3 ADD SWAP1 POP SWAP2 SWAP1 POP JUMP JUMPDEST PUSH0 PUSH2 0xEE1 DUP3 PUSH2 0xE7C JUMP JUMPDEST PUSH2 0xEEB DUP2 DUP6 PUSH2 0xE86 JUMP JUMPDEST SWAP4 POP PUSH2 0xEF6 DUP4 PUSH2 0xE96 JUMP JUMPDEST DUP1 PUSH0 JUMPDEST DUP4 DUP2 LT ISZERO PUSH2 0xF26 JUMPI DUP2 MLOAD PUSH2 0xF0D DUP9 DUP3 PUSH2 0xEB4 JUMP JUMPDEST SWAP8 POP PUSH2 0xF18 DUP4 PUSH2 0xECB JUMP JUMPDEST SWAP3 POP POP PUSH1 0x1 DUP2 ADD SWAP1 POP PUSH2 0xEF9 JUMP JUMPDEST POP DUP6 SWAP4 POP POP POP POP SWAP3 SWAP2 POP POP JUMP JUMPDEST PUSH0 PUSH1 0x40 DUP3 ADD SWAP1 POP DUP2 DUP2 SUB PUSH0 DUP4 ADD MSTORE PUSH2 0xF4B DUP2 DUP6 PUSH2 0xE20 JUMP JUMPDEST SWAP1 POP DUP2 DUP2 SUB PUSH1 0x20 DUP4 ADD MSTORE PUSH2 0xF5F DUP2 DUP5 PUSH2 0xED7 JUMP JUMPDEST SWAP1 POP SWAP4 SWAP3 POP POP POP JUMP JUMPDEST PUSH32 0x4E6F207265776172647320746F20636C61696D00000000000000000000000000 PUSH0 DUP3 ADD MSTORE POP JUMP JUMPDEST PUSH0 PUSH2 0xF9C PUSH1 0x13 DUP4 PUSH2 0xB2D JUMP JUMPDEST SWAP2 POP PUSH2 0xFA7 DUP3 PUSH2 0xF68 JUMP JUMPDEST PUSH1 0x20 DUP3 ADD SWAP1 POP SWAP2 SWAP1 POP JUMP JUMPDEST PUSH0 PUSH1 0x20 DUP3 ADD SWAP1 POP DUP2 DUP2 SUB PUSH0 DUP4 ADD MSTORE PUSH2 0xFC9 DUP2 PUSH2 0xF90 JUMP JUMPDEST SWAP1 POP SWAP2 SWAP1 POP JUMP JUMPDEST PUSH32 0x436C61696D20636F6F6C646F776E206E6F742079657420726561636865640000 PUSH0 DUP3 ADD MSTORE POP JUMP JUMPDEST PUSH0 PUSH2 0x1004 PUSH1 0x1E DUP4 PUSH2 0xB2D JUMP JUMPDEST SWAP2 POP PUSH2 0x100F DUP3 PUSH2 0xFD0 JUMP JUMPDEST PUSH1 0x20 DUP3 ADD SWAP1 POP SWAP2 SWAP1 POP JUMP JUMPDEST PUSH0 PUSH1 0x20 DUP3 ADD SWAP1 POP DUP2 DUP2 SUB PUSH0 DUP4 ADD MSTORE PUSH2 0x1031 DUP2 PUSH2 0xFF8 JUMP JUMPDEST SWAP1 POP SWAP2 SWAP1 POP JUMP JUMPDEST PUSH0 PUSH1 0x40 DUP3 ADD SWAP1 POP PUSH2 0x104B PUSH0 DUP4 ADD DUP6 PUSH2 0xBA5 JUMP JUMPDEST PUSH2 0x1058 PUSH1 0x20 DUP4 ADD DUP5 PUSH2 0x7E1 JUMP JUMPDEST SWAP4 SWAP3 POP POP POP JUMP JUMPDEST PUSH0 DUP2 ISZERO ISZERO SWAP1 POP SWAP2 SWAP1 POP JUMP JUMPDEST PUSH2 0x1073 DUP2 PUSH2 0x105F JUMP JUMPDEST DUP2 EQ PUSH2 0x107D JUMPI PUSH0 DUP1 REVERT JUMPDEST POP JUMP JUMPDEST PUSH0 DUP2 MLOAD SWAP1 POP PUSH2 0x108E DUP2 PUSH2 0x106A JUMP JUMPDEST SWAP3 SWAP2 POP POP JUMP JUMPDEST PUSH0 PUSH1 0x20 DUP3 DUP5 SUB SLT ISZERO PUSH2 0x10A9 JUMPI PUSH2 0x10A8 PUSH2 0x74B JUMP JUMPDEST JUMPDEST PUSH0 PUSH2 0x10B6 DUP5 DUP3 DUP6 ADD PUSH2 0x1080 JUMP JUMPDEST SWAP2 POP POP SWAP3 SWAP2 POP POP JUMP INVALID LOG2 PUSH5 0x6970667358 0x22 SLT KECCAK256 TLOAD 0xAB 0x2C PUSH21 0x7F7B8C544578BB066012C370D97DD762BDDB376FA5 0x4D STOP SIGNEXTEND 0xB8 0x22 SIGNEXTEND 0xB1 PUSH5 0x736F6C6343 STOP ADDMOD BYTE STOP CALLER "
		},
		"gasEstimates": {
			"creation": {
				"codeDepositCost": "868200",
				"executionCost": "67219",
				"totalCost": "935419"
			},
			"external": {
				"claimCooldown()": "2491",
				"claimReward()": "infinite",
				"distributeRewards(address[],uint256[])": "infinite",
				"grullToken()": "infinite",
				"lastClaimed(address)": "2803",
				"maxVoteWeight()": "2492",
				"minVotesThreshold()": "2425",
				"rewards(address)": "2825"
			}
		},
		"methodIdentifiers": {
			"claimCooldown()": "fdea3657",
			"claimReward()": "b88a802f",
			"distributeRewards(address[],uint256[])": "143ba4f3",
			"grullToken()": "c9cf5ddf",
			"lastClaimed(address)": "013eba92",
			"maxVoteWeight()": "3d3125f7",
			"minVotesThreshold()": "83617e7a",
			"rewards(address)": "0700037d"
		}
	},
	"abi": [
		{
			"anonymous": false,
			"inputs": [
				{
					"indexed": true,
					"internalType": "address",
					"name": "juror",
					"type": "address"
				},
				{
					"indexed": false,
					"internalType": "uint256",
					"name": "amount",
					"type": "uint256"
				}
			],
			"name": "RewardClaimed",
			"type": "event"
		},
		{
			"anonymous": false,
			"inputs": [
				{
					"indexed": false,
					"internalType": "address[]",
					"name": "jurors",
					"type": "address[]"
				},
				{
					"indexed": false,
					"internalType": "uint256[]",
					"name": "rewards",
					"type": "uint256[]"
				}
			],
			"name": "RewardsDistributed",
			"type": "event"
		},
		{
			"inputs": [],
			"name": "claimCooldown",
			"outputs": [
				{
					"internalType": "uint256",
					"name": "",
					"type": "uint256"
				}
			],
			"stateMutability": "view",
			"type": "function"
		},
		{
			"inputs": [],
			"name": "claimReward",
			"outputs": [],
			"stateMutability": "nonpayable",
			"type": "function"
		},
		{
			"inputs": [
				{
					"internalType": "address[]",
					"name": "_jurors",
					"type": "address[]"
				},
				{
					"internalType": "uint256[]",
					"name": "_votes",
					"type": "uint256[]"
				}
			],
			"name": "distributeRewards",
			"outputs": [],
			"stateMutability": "nonpayable",
			"type": "function"
		},
		{
			"inputs": [],
			"name": "grullToken",
			"outputs": [
				{
					"internalType": "contract IERC20",
					"name": "",
					"type": "address"
				}
			],
			"stateMutability": "view",
			"type": "function"
		},
		{
			"inputs": [
				{
					"internalType": "address",
					"name": "",
					"type": "address"
				}
			],
			"name": "lastClaimed",
			"outputs": [
				{
					"internalType": "uint256",
					"name": "",
					"type": "uint256"
				}
			],
			"stateMutability": "view",
			"type": "function"
		},
		{
			"inputs": [],
			"name": "maxVoteWeight",
			"outputs": [
				{
					"internalType": "uint256",
					"name": "",
					"type": "uint256"
				}
			],
			"stateMutability": "view",
			"type": "function"
		},
		{
			"inputs": [],
			"name": "minVotesThreshold",
			"outputs": [
				{
					"internalType": "uint256",
					"name": "",
					"type": "uint256"
				}
			],
			"stateMutability": "view",
			"type": "function"
		},
		{
			"inputs": [
				{
					"internalType": "address",
					"name": "",
					"type": "address"
				}
			],
			"name": "rewards",
			"outputs": [
				{
					"internalType": "uint256",
					"name": "",
					"type": "uint256"
				}
			],
			"stateMutability": "view",
			"type": "function"
		}
	]
}