{
	"data": {
		"bytecode": {
			"linkReferences": {},
			"object": "60806040526802b5e3af16b1880000600155600a600255348015610021575f80fd5b5060405161154e38038061154e833981810160405281019061004391906100e6565b805f806101000a81548173ffffffffffffffffffffffffffffffffffffffff021916908373ffffffffffffffffffffffffffffffffffffffff16021790555050610111565b5f80fd5b5f73ffffffffffffffffffffffffffffffffffffffff82169050919050565b5f6100b58261008c565b9050919050565b6100c5816100ab565b81146100cf575f80fd5b50565b5f815190506100e0816100bc565b92915050565b5f602082840312156100fb576100fa610088565b5b5f610108848285016100d2565b91505092915050565b6114308061011e5f395ff3fe608060405234801561000f575f80fd5b5060043610610091575f3560e01c80637547c7a3116100645780637547c7a314610134578063c2b7b86814610150578063c9cf5ddf1461016c578063c9d27afe1461018a578063f1887684146101a657610091565b806316934fc414610095578063403fb4a8146100c5578063564a565d146100e35780636817599614610118575b5f80fd5b6100af60048036038101906100aa9190610979565b6101c4565b6040516100bc91906109bc565b60405180910390f35b6100cd6101d9565b6040516100da91906109bc565b60405180910390f35b6100fd60048036038101906100f891906109ff565b6101df565b60405161010f96959493929190610ab4565b60405180910390f35b610132600480360381019061012d9190610c46565b6102b8565b005b61014e600480360381019061014991906109ff565b610379565b005b61016a600480360381019061016591906109ff565b6104b1565b005b6101746105d5565b6040516101819190610ce8565b60405180910390f35b6101a4600480360381019061019f9190610d2b565b6105f8565b005b6101ae610908565b6040516101bb91906109bc565b60405180910390f35b6004602052805f5260405f205f915090505481565b60025481565b600381815481106101ee575f80fd5b905f5260205f2090600802015f91509050805f01549080600101805461021390610d96565b80601f016020809104026020016040519081016040528092919081815260200182805461023f90610d96565b801561028a5780601f106102615761010080835404028352916020019161028a565b820191905f5260205f20905b81548152906001019060200180831161026d57829003601f168201915b505050505090806002015490806003015490806004015f9054906101000a900460ff16908060050154905086565b5f600360018160018154018082558091505003905f5260205f209060080201905060016003805490506102eb9190610df3565b815f0181905550818160010190816103039190610fba565b505f81600201819055505f81600301819055505f81600501819055505f816004015f6101000a81548160ff021916908315150217905550805f01547ff2a74a0a7737e3af9eb2f2252d44ef6b2a00a26642157914389a505ba946e0a98360405161036d9190611089565b60405180910390a25050565b6001548110156103be576040517f08c379a00000000000000000000000000000000000000000000000000000000081526004016103b590611119565b60405180910390fd5b5f8054906101000a900473ffffffffffffffffffffffffffffffffffffffff1673ffffffffffffffffffffffffffffffffffffffff166323b872dd3330846040518463ffffffff1660e01b815260040161041a93929190611146565b6020604051808303815f875af1158015610436573d5f803e3d5ffd5b505050506040513d601f19601f8201168201806040525081019061045a919061118f565b508060045f3373ffffffffffffffffffffffffffffffffffffffff1673ffffffffffffffffffffffffffffffffffffffff1681526020019081526020015f205f8282546104a791906111ba565b9250508190555050565b5f600382815481106104c6576104c56111ed565b5b905f5260205f2090600802019050806004015f9054906101000a900460ff1615610525576040517f08c379a000000000000000000000000000000000000000000000000000000000815260040161051c90611264565b60405180910390fd5b6002548160050154101561056e576040517f08c379a0000000000000000000000000000000000000000000000000000000008152600401610565906112cc565b60405180910390fd5b6001816004015f6101000a81548160ff0219169083151502179055505f81600301548260020154119050827f5a87909bff68caaaaf0b3fd9c74eeccc928832f879315e5c6fb7a73612f26c0c826040516105c891906112ea565b60405180910390a2505050565b5f8054906101000a900473ffffffffffffffffffffffffffffffffffffffff1681565b60015460045f3373ffffffffffffffffffffffffffffffffffffffff1673ffffffffffffffffffffffffffffffffffffffff1681526020019081526020015f2054101561067a576040517f08c379a00000000000000000000000000000000000000000000000000000000081526004016106719061134d565b60405180910390fd5b5f6003838154811061068f5761068e6111ed565b5b905f5260205f2090600802019050806004015f9054906101000a900460ff16156106ee576040517f08c379a00000000000000000000000000000000000000000000000000000000081526004016106e590611264565b60405180910390fd5b806006015f3373ffffffffffffffffffffffffffffffffffffffff1673ffffffffffffffffffffffffffffffffffffffff1681526020019081526020015f205f9054906101000a900460ff161561077a576040517f08c379a0000000000000000000000000000000000000000000000000000000008152600401610771906113b5565b60405180910390fd5b5f60045f3373ffffffffffffffffffffffffffffffffffffffff1673ffffffffffffffffffffffffffffffffffffffff1681526020019081526020015f205490506001826006015f3373ffffffffffffffffffffffffffffffffffffffff1673ffffffffffffffffffffffffffffffffffffffff1681526020019081526020015f205f6101000a81548160ff02191690831515021790555080826007015f3373ffffffffffffffffffffffffffffffffffffffff1673ffffffffffffffffffffffffffffffffffffffff1681526020019081526020015f20819055506001826005015f82825461086a91906111ba565b9250508190555082156108965780826002015f82825461088a91906111ba565b925050819055506108b1565b80826003015f8282546108a991906111ba565b925050819055505b833373ffffffffffffffffffffffffffffffffffffffff167f877856338e13f63d0c36822ff0ef736b80934cd90574a3a5bc9262c39d217c4685846040516108fa9291906113d3565b60405180910390a350505050565b60015481565b5f604051905090565b5f80fd5b5f80fd5b5f73ffffffffffffffffffffffffffffffffffffffff82169050919050565b5f6109488261091f565b9050919050565b6109588161093e565b8114610962575f80fd5b50565b5f813590506109738161094f565b92915050565b5f6020828403121561098e5761098d610917565b5b5f61099b84828501610965565b91505092915050565b5f819050919050565b6109b6816109a4565b82525050565b5f6020820190506109cf5f8301846109ad565b92915050565b6109de816109a4565b81146109e8575f80fd5b50565b5f813590506109f9816109d5565b92915050565b5f60208284031215610a1457610a13610917565b5b5f610a21848285016109eb565b91505092915050565b5f81519050919050565b5f82825260208201905092915050565b8281835e5f83830152505050565b5f601f19601f8301169050919050565b5f610a6c82610a2a565b610a768185610a34565b9350610a86818560208601610a44565b610a8f81610a52565b840191505092915050565b5f8115159050919050565b610aae81610a9a565b82525050565b5f60c082019050610ac75f8301896109ad565b8181036020830152610ad98188610a62565b9050610ae860408301876109ad565b610af560608301866109ad565b610b026080830185610aa5565b610b0f60a08301846109ad565b979650505050505050565b5f80fd5b5f80fd5b7f4e487b71000000000000000000000000000000000000000000000000000000005f52604160045260245ffd5b610b5882610a52565b810181811067ffffffffffffffff82111715610b7757610b76610b22565b5b80604052505050565b5f610b8961090e565b9050610b958282610b4f565b919050565b5f67ffffffffffffffff821115610bb457610bb3610b22565b5b610bbd82610a52565b9050602081019050919050565b828183375f83830152505050565b5f610bea610be584610b9a565b610b80565b905082815260208101848484011115610c0657610c05610b1e565b5b610c11848285610bca565b509392505050565b5f82601f830112610c2d57610c2c610b1a565b5b8135610c3d848260208601610bd8565b91505092915050565b5f60208284031215610c5b57610c5a610917565b5b5f82013567ffffffffffffffff811115610c7857610c7761091b565b5b610c8484828501610c19565b91505092915050565b5f819050919050565b5f610cb0610cab610ca68461091f565b610c8d565b61091f565b9050919050565b5f610cc182610c96565b9050919050565b5f610cd282610cb7565b9050919050565b610ce281610cc8565b82525050565b5f602082019050610cfb5f830184610cd9565b92915050565b610d0a81610a9a565b8114610d14575f80fd5b50565b5f81359050610d2581610d01565b92915050565b5f8060408385031215610d4157610d40610917565b5b5f610d4e858286016109eb565b9250506020610d5f85828601610d17565b9150509250929050565b7f4e487b71000000000000000000000000000000000000000000000000000000005f52602260045260245ffd5b5f6002820490506001821680610dad57607f821691505b602082108103610dc057610dbf610d69565b5b50919050565b7f4e487b71000000000000000000000000000000000000000000000000000000005f52601160045260245ffd5b5f610dfd826109a4565b9150610e08836109a4565b9250828203905081811115610e2057610e1f610dc6565b5b92915050565b5f819050815f5260205f209050919050565b5f6020601f8301049050919050565b5f82821b905092915050565b5f60088302610e827fffffffffffffffffffffffffffffffffffffffffffffffffffffffffffffffff82610e47565b610e8c8683610e47565b95508019841693508086168417925050509392505050565b5f610ebe610eb9610eb4846109a4565b610c8d565b6109a4565b9050919050565b5f819050919050565b610ed783610ea4565b610eeb610ee382610ec5565b848454610e53565b825550505050565b5f90565b610eff610ef3565b610f0a818484610ece565b505050565b5b81811015610f2d57610f225f82610ef7565b600181019050610f10565b5050565b601f821115610f7257610f4381610e26565b610f4c84610e38565b81016020851015610f5b578190505b610f6f610f6785610e38565b830182610f0f565b50505b505050565b5f82821c905092915050565b5f610f925f1984600802610f77565b1980831691505092915050565b5f610faa8383610f83565b9150826002028217905092915050565b610fc382610a2a565b67ffffffffffffffff811115610fdc57610fdb610b22565b5b610fe68254610d96565b610ff1828285610f31565b5f60209050601f831160018114611022575f8415611010578287015190505b61101a8582610f9f565b865550611081565b601f19841661103086610e26565b5f5b8281101561105757848901518255600182019150602085019450602081019050611032565b868310156110745784890151611070601f891682610f83565b8355505b6001600288020188555050505b505050505050565b5f6020820190508181035f8301526110a18184610a62565b905092915050565b7f416d6f756e74206d757374206265206174206c6561737420746865206d696e695f8201527f6d756d207374616b6520616d6f756e7400000000000000000000000000000000602082015250565b5f611103603083610a34565b915061110e826110a9565b604082019050919050565b5f6020820190508181035f830152611130816110f7565b9050919050565b6111408161093e565b82525050565b5f6060820190506111595f830186611137565b6111666020830185611137565b61117360408301846109ad565b949350505050565b5f8151905061118981610d01565b92915050565b5f602082840312156111a4576111a3610917565b5b5f6111b18482850161117b565b91505092915050565b5f6111c4826109a4565b91506111cf836109a4565b92508282019050808211156111e7576111e6610dc6565b5b92915050565b7f4e487b71000000000000000000000000000000000000000000000000000000005f52603260045260245ffd5b7f4469737075746520616c7265616479207265736f6c76656400000000000000005f82015250565b5f61124e601883610a34565b91506112598261121a565b602082019050919050565b5f6020820190508181035f83015261127b81611242565b9050919050565b7f4e6f7420656e6f75676820766f74657320746f207265736f6c766500000000005f82015250565b5f6112b6601b83610a34565b91506112c182611282565b602082019050919050565b5f6020820190508181035f8301526112e3816112aa565b9050919050565b5f6020820190506112fd5f830184610aa5565b92915050565b7f4d7573742068617665207374616b656420746f6b656e7320746f20766f7465005f82015250565b5f611337601f83610a34565b915061134282611303565b602082019050919050565b5f6020820190508181035f8301526113648161132b565b9050919050565b7f416c726561647920766f746564000000000000000000000000000000000000005f82015250565b5f61139f600d83610a34565b91506113aa8261136b565b602082019050919050565b5f6020820190508181035f8301526113cc81611393565b9050919050565b5f6040820190506113e65f830185610aa5565b6113f360208301846109ad565b939250505056fea264697066735822122061b9bf59fb27c285af62b9d454e0d9a7f94c3d0c5ad3075beaf6247ee48310e464736f6c634300081a0033",
			"opcodes": "PUSH1 0x80 PUSH1 0x40 MSTORE PUSH9 0x2B5E3AF16B1880000 PUSH1 0x1 SSTORE PUSH1 0xA PUSH1 0x2 SSTORE CALLVALUE DUP1 ISZERO PUSH2 0x21 JUMPI PUSH0 DUP1 REVERT JUMPDEST POP PUSH1 0x40 MLOAD PUSH2 0x154E CODESIZE SUB DUP1 PUSH2 0x154E DUP4 CODECOPY DUP2 DUP2 ADD PUSH1 0x40 MSTORE DUP2 ADD SWAP1 PUSH2 0x43 SWAP2 SWAP1 PUSH2 0xE6 JUMP JUMPDEST DUP1 PUSH0 DUP1 PUSH2 0x100 EXP DUP2 SLOAD DUP2 PUSH20 0xFFFFFFFFFFFFFFFFFFFFFFFFFFFFFFFFFFFFFFFF MUL NOT AND SWAP1 DUP4 PUSH20 0xFFFFFFFFFFFFFFFFFFFFFFFFFFFFFFFFFFFFFFFF AND MUL OR SWAP1 SSTORE POP POP PUSH2 0x111 JUMP JUMPDEST PUSH0 DUP1 REVERT JUMPDEST PUSH0 PUSH20 0xFFFFFFFFFFFFFFFFFFFFFFFFFFFFFFFFFFFFFFFF DUP3 AND SWAP1 POP SWAP2 SWAP1 POP JUMP JUMPDEST PUSH0 PUSH2 0xB5 DUP3 PUSH2 0x8C JUMP JUMPDEST SWAP1 POP SWAP2 SWAP1 POP JUMP JUMPDEST PUSH2 0xC5 DUP2 PUSH2 0xAB JUMP JUMPDEST DUP2 EQ PUSH2 0xCF JUMPI PUSH0 DUP1 REVERT JUMPDEST POP JUMP JUMPDEST PUSH0 DUP2 MLOAD SWAP1 POP PUSH2 0xE0 DUP2 PUSH2 0xBC JUMP JUMPDEST SWAP3 SWAP2 POP POP JUMP JUMPDEST PUSH0 PUSH1 0x20 DUP3 DUP5 SUB SLT ISZERO PUSH2 0xFB JUMPI PUSH2 0xFA PUSH2 0x88 JUMP JUMPDEST JUMPDEST PUSH0 PUSH2 0x108 DUP5 DUP3 DUP6 ADD PUSH2 0xD2 JUMP JUMPDEST SWAP2 POP POP SWAP3 SWAP2 POP POP JUMP JUMPDEST PUSH2 0x1430 DUP1 PUSH2 0x11E PUSH0 CODECOPY PUSH0 RETURN INVALID PUSH1 0x80 PUSH1 0x40 MSTORE CALLVALUE DUP1 ISZERO PUSH2 0xF JUMPI PUSH0 DUP1 REVERT JUMPDEST POP PUSH1 0x4 CALLDATASIZE LT PUSH2 0x91 JUMPI PUSH0 CALLDATALOAD PUSH1 0xE0 SHR DUP1 PUSH4 0x7547C7A3 GT PUSH2 0x64 JUMPI DUP1 PUSH4 0x7547C7A3 EQ PUSH2 0x134 JUMPI DUP1 PUSH4 0xC2B7B868 EQ PUSH2 0x150 JUMPI DUP1 PUSH4 0xC9CF5DDF EQ PUSH2 0x16C JUMPI DUP1 PUSH4 0xC9D27AFE EQ PUSH2 0x18A JUMPI DUP1 PUSH4 0xF1887684 EQ PUSH2 0x1A6 JUMPI PUSH2 0x91 JUMP JUMPDEST DUP1 PUSH4 0x16934FC4 EQ PUSH2 0x95 JUMPI DUP1 PUSH4 0x403FB4A8 EQ PUSH2 0xC5 JUMPI DUP1 PUSH4 0x564A565D EQ PUSH2 0xE3 JUMPI DUP1 PUSH4 0x68175996 EQ PUSH2 0x118 JUMPI JUMPDEST PUSH0 DUP1 REVERT JUMPDEST PUSH2 0xAF PUSH1 0x4 DUP1 CALLDATASIZE SUB DUP2 ADD SWAP1 PUSH2 0xAA SWAP2 SWAP1 PUSH2 0x979 JUMP JUMPDEST PUSH2 0x1C4 JUMP JUMPDEST PUSH1 0x40 MLOAD PUSH2 0xBC SWAP2 SWAP1 PUSH2 0x9BC JUMP JUMPDEST PUSH1 0x40 MLOAD DUP1 SWAP2 SUB SWAP1 RETURN JUMPDEST PUSH2 0xCD PUSH2 0x1D9 JUMP JUMPDEST PUSH1 0x40 MLOAD PUSH2 0xDA SWAP2 SWAP1 PUSH2 0x9BC JUMP JUMPDEST PUSH1 0x40 MLOAD DUP1 SWAP2 SUB SWAP1 RETURN JUMPDEST PUSH2 0xFD PUSH1 0x4 DUP1 CALLDATASIZE SUB DUP2 ADD SWAP1 PUSH2 0xF8 SWAP2 SWAP1 PUSH2 0x9FF JUMP JUMPDEST PUSH2 0x1DF JUMP JUMPDEST PUSH1 0x40 MLOAD PUSH2 0x10F SWAP7 SWAP6 SWAP5 SWAP4 SWAP3 SWAP2 SWAP1 PUSH2 0xAB4 JUMP JUMPDEST PUSH1 0x40 MLOAD DUP1 SWAP2 SUB SWAP1 RETURN JUMPDEST PUSH2 0x132 PUSH1 0x4 DUP1 CALLDATASIZE SUB DUP2 ADD SWAP1 PUSH2 0x12D SWAP2 SWAP1 PUSH2 0xC46 JUMP JUMPDEST PUSH2 0x2B8 JUMP JUMPDEST STOP JUMPDEST PUSH2 0x14E PUSH1 0x4 DUP1 CALLDATASIZE SUB DUP2 ADD SWAP1 PUSH2 0x149 SWAP2 SWAP1 PUSH2 0x9FF JUMP JUMPDEST PUSH2 0x379 JUMP JUMPDEST STOP JUMPDEST PUSH2 0x16A PUSH1 0x4 DUP1 CALLDATASIZE SUB DUP2 ADD SWAP1 PUSH2 0x165 SWAP2 SWAP1 PUSH2 0x9FF JUMP JUMPDEST PUSH2 0x4B1 JUMP JUMPDEST STOP JUMPDEST PUSH2 0x174 PUSH2 0x5D5 JUMP JUMPDEST PUSH1 0x40 MLOAD PUSH2 0x181 SWAP2 SWAP1 PUSH2 0xCE8 JUMP JUMPDEST PUSH1 0x40 MLOAD DUP1 SWAP2 SUB SWAP1 RETURN JUMPDEST PUSH2 0x1A4 PUSH1 0x4 DUP1 CALLDATASIZE SUB DUP2 ADD SWAP1 PUSH2 0x19F SWAP2 SWAP1 PUSH2 0xD2B JUMP JUMPDEST PUSH2 0x5F8 JUMP JUMPDEST STOP JUMPDEST PUSH2 0x1AE PUSH2 0x908 JUMP JUMPDEST PUSH1 0x40 MLOAD PUSH2 0x1BB SWAP2 SWAP1 PUSH2 0x9BC JUMP JUMPDEST PUSH1 0x40 MLOAD DUP1 SWAP2 SUB SWAP1 RETURN JUMPDEST PUSH1 0x4 PUSH1 0x20 MSTORE DUP1 PUSH0 MSTORE PUSH1 0x40 PUSH0 KECCAK256 PUSH0 SWAP2 POP SWAP1 POP SLOAD DUP2 JUMP JUMPDEST PUSH1 0x2 SLOAD DUP2 JUMP JUMPDEST PUSH1 0x3 DUP2 DUP2 SLOAD DUP2 LT PUSH2 0x1EE JUMPI PUSH0 DUP1 REVERT JUMPDEST SWAP1 PUSH0 MSTORE PUSH1 0x20 PUSH0 KECCAK256 SWAP1 PUSH1 0x8 MUL ADD PUSH0 SWAP2 POP SWAP1 POP DUP1 PUSH0 ADD SLOAD SWAP1 DUP1 PUSH1 0x1 ADD DUP1 SLOAD PUSH2 0x213 SWAP1 PUSH2 0xD96 JUMP JUMPDEST DUP1 PUSH1 0x1F ADD PUSH1 0x20 DUP1 SWAP2 DIV MUL PUSH1 0x20 ADD PUSH1 0x40 MLOAD SWAP1 DUP2 ADD PUSH1 0x40 MSTORE DUP1 SWAP3 SWAP2 SWAP1 DUP2 DUP2 MSTORE PUSH1 0x20 ADD DUP3 DUP1 SLOAD PUSH2 0x23F SWAP1 PUSH2 0xD96 JUMP JUMPDEST DUP1 ISZERO PUSH2 0x28A JUMPI DUP1 PUSH1 0x1F LT PUSH2 0x261 JUMPI PUSH2 0x100 DUP1 DUP4 SLOAD DIV MUL DUP4 MSTORE SWAP2 PUSH1 0x20 ADD SWAP2 PUSH2 0x28A JUMP JUMPDEST DUP3 ADD SWAP2 SWAP1 PUSH0 MSTORE PUSH1 0x20 PUSH0 KECCAK256 SWAP1 JUMPDEST DUP2 SLOAD DUP2 MSTORE SWAP1 PUSH1 0x1 ADD SWAP1 PUSH1 0x20 ADD DUP1 DUP4 GT PUSH2 0x26D JUMPI DUP3 SWAP1 SUB PUSH1 0x1F AND DUP3 ADD SWAP2 JUMPDEST POP POP POP POP POP SWAP1 DUP1 PUSH1 0x2 ADD SLOAD SWAP1 DUP1 PUSH1 0x3 ADD SLOAD SWAP1 DUP1 PUSH1 0x4 ADD PUSH0 SWAP1 SLOAD SWAP1 PUSH2 0x100 EXP SWAP1 DIV PUSH1 0xFF AND SWAP1 DUP1 PUSH1 0x5 ADD SLOAD SWAP1 POP DUP7 JUMP JUMPDEST PUSH0 PUSH1 0x3 PUSH1 0x1 DUP2 PUSH1 0x1 DUP2 SLOAD ADD DUP1 DUP3 SSTORE DUP1 SWAP2 POP POP SUB SWAP1 PUSH0 MSTORE PUSH1 0x20 PUSH0 KECCAK256 SWAP1 PUSH1 0x8 MUL ADD SWAP1 POP PUSH1 0x1 PUSH1 0x3 DUP1 SLOAD SWAP1 POP PUSH2 0x2EB SWAP2 SWAP1 PUSH2 0xDF3 JUMP JUMPDEST DUP2 PUSH0 ADD DUP2 SWAP1 SSTORE POP DUP2 DUP2 PUSH1 0x1 ADD SWAP1 DUP2 PUSH2 0x303 SWAP2 SWAP1 PUSH2 0xFBA JUMP JUMPDEST POP PUSH0 DUP2 PUSH1 0x2 ADD DUP2 SWAP1 SSTORE POP PUSH0 DUP2 PUSH1 0x3 ADD DUP2 SWAP1 SSTORE POP PUSH0 DUP2 PUSH1 0x5 ADD DUP2 SWAP1 SSTORE POP PUSH0 DUP2 PUSH1 0x4 ADD PUSH0 PUSH2 0x100 EXP DUP2 SLOAD DUP2 PUSH1 0xFF MUL NOT AND SWAP1 DUP4 ISZERO ISZERO MUL OR SWAP1 SSTORE POP DUP1 PUSH0 ADD SLOAD PUSH32 0xF2A74A0A7737E3AF9EB2F2252D44EF6B2A00A26642157914389A505BA946E0A9 DUP4 PUSH1 0x40 MLOAD PUSH2 0x36D SWAP2 SWAP1 PUSH2 0x1089 JUMP JUMPDEST PUSH1 0x40 MLOAD DUP1 SWAP2 SUB SWAP1 LOG2 POP POP JUMP JUMPDEST PUSH1 0x1 SLOAD DUP2 LT ISZERO PUSH2 0x3BE JUMPI PUSH1 0x40 MLOAD PUSH32 0x8C379A000000000000000000000000000000000000000000000000000000000 DUP2 MSTORE PUSH1 0x4 ADD PUSH2 0x3B5 SWAP1 PUSH2 0x1119 JUMP JUMPDEST PUSH1 0x40 MLOAD DUP1 SWAP2 SUB SWAP1 REVERT JUMPDEST PUSH0 DUP1 SLOAD SWAP1 PUSH2 0x100 EXP SWAP1 DIV PUSH20 0xFFFFFFFFFFFFFFFFFFFFFFFFFFFFFFFFFFFFFFFF AND PUSH20 0xFFFFFFFFFFFFFFFFFFFFFFFFFFFFFFFFFFFFFFFF AND PUSH4 0x23B872DD CALLER ADDRESS DUP5 PUSH1 0x40 MLOAD DUP5 PUSH4 0xFFFFFFFF AND PUSH1 0xE0 SHL DUP2 MSTORE PUSH1 0x4 ADD PUSH2 0x41A SWAP4 SWAP3 SWAP2 SWAP1 PUSH2 0x1146 JUMP JUMPDEST PUSH1 0x20 PUSH1 0x40 MLOAD DUP1 DUP4 SUB DUP2 PUSH0 DUP8 GAS CALL ISZERO DUP1 ISZERO PUSH2 0x436 JUMPI RETURNDATASIZE PUSH0 DUP1 RETURNDATACOPY RETURNDATASIZE PUSH0 REVERT JUMPDEST POP POP POP POP PUSH1 0x40 MLOAD RETURNDATASIZE PUSH1 0x1F NOT PUSH1 0x1F DUP3 ADD AND DUP3 ADD DUP1 PUSH1 0x40 MSTORE POP DUP2 ADD SWAP1 PUSH2 0x45A SWAP2 SWAP1 PUSH2 0x118F JUMP JUMPDEST POP DUP1 PUSH1 0x4 PUSH0 CALLER PUSH20 0xFFFFFFFFFFFFFFFFFFFFFFFFFFFFFFFFFFFFFFFF AND PUSH20 0xFFFFFFFFFFFFFFFFFFFFFFFFFFFFFFFFFFFFFFFF AND DUP2 MSTORE PUSH1 0x20 ADD SWAP1 DUP2 MSTORE PUSH1 0x20 ADD PUSH0 KECCAK256 PUSH0 DUP3 DUP3 SLOAD PUSH2 0x4A7 SWAP2 SWAP1 PUSH2 0x11BA JUMP JUMPDEST SWAP3 POP POP DUP2 SWAP1 SSTORE POP POP JUMP JUMPDEST PUSH0 PUSH1 0x3 DUP3 DUP2 SLOAD DUP2 LT PUSH2 0x4C6 JUMPI PUSH2 0x4C5 PUSH2 0x11ED JUMP JUMPDEST JUMPDEST SWAP1 PUSH0 MSTORE PUSH1 0x20 PUSH0 KECCAK256 SWAP1 PUSH1 0x8 MUL ADD SWAP1 POP DUP1 PUSH1 0x4 ADD PUSH0 SWAP1 SLOAD SWAP1 PUSH2 0x100 EXP SWAP1 DIV PUSH1 0xFF AND ISZERO PUSH2 0x525 JUMPI PUSH1 0x40 MLOAD PUSH32 0x8C379A000000000000000000000000000000000000000000000000000000000 DUP2 MSTORE PUSH1 0x4 ADD PUSH2 0x51C SWAP1 PUSH2 0x1264 JUMP JUMPDEST PUSH1 0x40 MLOAD DUP1 SWAP2 SUB SWAP1 REVERT JUMPDEST PUSH1 0x2 SLOAD DUP2 PUSH1 0x5 ADD SLOAD LT ISZERO PUSH2 0x56E JUMPI PUSH1 0x40 MLOAD PUSH32 0x8C379A000000000000000000000000000000000000000000000000000000000 DUP2 MSTORE PUSH1 0x4 ADD PUSH2 0x565 SWAP1 PUSH2 0x12CC JUMP JUMPDEST PUSH1 0x40 MLOAD DUP1 SWAP2 SUB SWAP1 REVERT JUMPDEST PUSH1 0x1 DUP2 PUSH1 0x4 ADD PUSH0 PUSH2 0x100 EXP DUP2 SLOAD DUP2 PUSH1 0xFF MUL NOT AND SWAP1 DUP4 ISZERO ISZERO MUL OR SWAP1 SSTORE POP PUSH0 DUP2 PUSH1 0x3 ADD SLOAD DUP3 PUSH1 0x2 ADD SLOAD GT SWAP1 POP DUP3 PUSH32 0x5A87909BFF68CAAAAF0B3FD9C74EECCC928832F879315E5C6FB7A73612F26C0C DUP3 PUSH1 0x40 MLOAD PUSH2 0x5C8 SWAP2 SWAP1 PUSH2 0x12EA JUMP JUMPDEST PUSH1 0x40 MLOAD DUP1 SWAP2 SUB SWAP1 LOG2 POP POP POP JUMP JUMPDEST PUSH0 DUP1 SLOAD SWAP1 PUSH2 0x100 EXP SWAP1 DIV PUSH20 0xFFFFFFFFFFFFFFFFFFFFFFFFFFFFFFFFFFFFFFFF AND DUP2 JUMP JUMPDEST PUSH1 0x1 SLOAD PUSH1 0x4 PUSH0 CALLER PUSH20 0xFFFFFFFFFFFFFFFFFFFFFFFFFFFFFFFFFFFFFFFF AND PUSH20 0xFFFFFFFFFFFFFFFFFFFFFFFFFFFFFFFFFFFFFFFF AND DUP2 MSTORE PUSH1 0x20 ADD SWAP1 DUP2 MSTORE PUSH1 0x20 ADD PUSH0 KECCAK256 SLOAD LT ISZERO PUSH2 0x67A JUMPI PUSH1 0x40 MLOAD PUSH32 0x8C379A000000000000000000000000000000000000000000000000000000000 DUP2 MSTORE PUSH1 0x4 ADD PUSH2 0x671 SWAP1 PUSH2 0x134D JUMP JUMPDEST PUSH1 0x40 MLOAD DUP1 SWAP2 SUB SWAP1 REVERT JUMPDEST PUSH0 PUSH1 0x3 DUP4 DUP2 SLOAD DUP2 LT PUSH2 0x68F JUMPI PUSH2 0x68E PUSH2 0x11ED JUMP JUMPDEST JUMPDEST SWAP1 PUSH0 MSTORE PUSH1 0x20 PUSH0 KECCAK256 SWAP1 PUSH1 0x8 MUL ADD SWAP1 POP DUP1 PUSH1 0x4 ADD PUSH0 SWAP1 SLOAD SWAP1 PUSH2 0x100 EXP SWAP1 DIV PUSH1 0xFF AND ISZERO PUSH2 0x6EE JUMPI PUSH1 0x40 MLOAD PUSH32 0x8C379A000000000000000000000000000000000000000000000000000000000 DUP2 MSTORE PUSH1 0x4 ADD PUSH2 0x6E5 SWAP1 PUSH2 0x1264 JUMP JUMPDEST PUSH1 0x40 MLOAD DUP1 SWAP2 SUB SWAP1 REVERT JUMPDEST DUP1 PUSH1 0x6 ADD PUSH0 CALLER PUSH20 0xFFFFFFFFFFFFFFFFFFFFFFFFFFFFFFFFFFFFFFFF AND PUSH20 0xFFFFFFFFFFFFFFFFFFFFFFFFFFFFFFFFFFFFFFFF AND DUP2 MSTORE PUSH1 0x20 ADD SWAP1 DUP2 MSTORE PUSH1 0x20 ADD PUSH0 KECCAK256 PUSH0 SWAP1 SLOAD SWAP1 PUSH2 0x100 EXP SWAP1 DIV PUSH1 0xFF AND ISZERO PUSH2 0x77A JUMPI PUSH1 0x40 MLOAD PUSH32 0x8C379A000000000000000000000000000000000000000000000000000000000 DUP2 MSTORE PUSH1 0x4 ADD PUSH2 0x771 SWAP1 PUSH2 0x13B5 JUMP JUMPDEST PUSH1 0x40 MLOAD DUP1 SWAP2 SUB SWAP1 REVERT JUMPDEST PUSH0 PUSH1 0x4 PUSH0 CALLER PUSH20 0xFFFFFFFFFFFFFFFFFFFFFFFFFFFFFFFFFFFFFFFF AND PUSH20 0xFFFFFFFFFFFFFFFFFFFFFFFFFFFFFFFFFFFFFFFF AND DUP2 MSTORE PUSH1 0x20 ADD SWAP1 DUP2 MSTORE PUSH1 0x20 ADD PUSH0 KECCAK256 SLOAD SWAP1 POP PUSH1 0x1 DUP3 PUSH1 0x6 ADD PUSH0 CALLER PUSH20 0xFFFFFFFFFFFFFFFFFFFFFFFFFFFFFFFFFFFFFFFF AND PUSH20 0xFFFFFFFFFFFFFFFFFFFFFFFFFFFFFFFFFFFFFFFF AND DUP2 MSTORE PUSH1 0x20 ADD SWAP1 DUP2 MSTORE PUSH1 0x20 ADD PUSH0 KECCAK256 PUSH0 PUSH2 0x100 EXP DUP2 SLOAD DUP2 PUSH1 0xFF MUL NOT AND SWAP1 DUP4 ISZERO ISZERO MUL OR SWAP1 SSTORE POP DUP1 DUP3 PUSH1 0x7 ADD PUSH0 CALLER PUSH20 0xFFFFFFFFFFFFFFFFFFFFFFFFFFFFFFFFFFFFFFFF AND PUSH20 0xFFFFFFFFFFFFFFFFFFFFFFFFFFFFFFFFFFFFFFFF AND DUP2 MSTORE PUSH1 0x20 ADD SWAP1 DUP2 MSTORE PUSH1 0x20 ADD PUSH0 KECCAK256 DUP2 SWAP1 SSTORE POP PUSH1 0x1 DUP3 PUSH1 0x5 ADD PUSH0 DUP3 DUP3 SLOAD PUSH2 0x86A SWAP2 SWAP1 PUSH2 0x11BA JUMP JUMPDEST SWAP3 POP POP DUP2 SWAP1 SSTORE POP DUP3 ISZERO PUSH2 0x896 JUMPI DUP1 DUP3 PUSH1 0x2 ADD PUSH0 DUP3 DUP3 SLOAD PUSH2 0x88A SWAP2 SWAP1 PUSH2 0x11BA JUMP JUMPDEST SWAP3 POP POP DUP2 SWAP1 SSTORE POP PUSH2 0x8B1 JUMP JUMPDEST DUP1 DUP3 PUSH1 0x3 ADD PUSH0 DUP3 DUP3 SLOAD PUSH2 0x8A9 SWAP2 SWAP1 PUSH2 0x11BA JUMP JUMPDEST SWAP3 POP POP DUP2 SWAP1 SSTORE POP JUMPDEST DUP4 CALLER PUSH20 0xFFFFFFFFFFFFFFFFFFFFFFFFFFFFFFFFFFFFFFFF AND PUSH32 0x877856338E13F63D0C36822FF0EF736B80934CD90574A3A5BC9262C39D217C46 DUP6 DUP5 PUSH1 0x40 MLOAD PUSH2 0x8FA SWAP3 SWAP2 SWAP1 PUSH2 0x13D3 JUMP JUMPDEST PUSH1 0x40 MLOAD DUP1 SWAP2 SUB SWAP1 LOG3 POP POP POP POP JUMP JUMPDEST PUSH1 0x1 SLOAD DUP2 JUMP JUMPDEST PUSH0 PUSH1 0x40 MLOAD SWAP1 POP SWAP1 JUMP JUMPDEST PUSH0 DUP1 REVERT JUMPDEST PUSH0 DUP1 REVERT JUMPDEST PUSH0 PUSH20 0xFFFFFFFFFFFFFFFFFFFFFFFFFFFFFFFFFFFFFFFF DUP3 AND SWAP1 POP SWAP2 SWAP1 POP JUMP JUMPDEST PUSH0 PUSH2 0x948 DUP3 PUSH2 0x91F JUMP JUMPDEST SWAP1 POP SWAP2 SWAP1 POP JUMP JUMPDEST PUSH2 0x958 DUP2 PUSH2 0x93E JUMP JUMPDEST DUP2 EQ PUSH2 0x962 JUMPI PUSH0 DUP1 REVERT JUMPDEST POP JUMP JUMPDEST PUSH0 DUP2 CALLDATALOAD SWAP1 POP PUSH2 0x973 DUP2 PUSH2 0x94F JUMP JUMPDEST SWAP3 SWAP2 POP POP JUMP JUMPDEST PUSH0 PUSH1 0x20 DUP3 DUP5 SUB SLT ISZERO PUSH2 0x98E JUMPI PUSH2 0x98D PUSH2 0x917 JUMP JUMPDEST JUMPDEST PUSH0 PUSH2 0x99B DUP5 DUP3 DUP6 ADD PUSH2 0x965 JUMP JUMPDEST SWAP2 POP POP SWAP3 SWAP2 POP POP JUMP JUMPDEST PUSH0 DUP2 SWAP1 POP SWAP2 SWAP1 POP JUMP JUMPDEST PUSH2 0x9B6 DUP2 PUSH2 0x9A4 JUMP JUMPDEST DUP3 MSTORE POP POP JUMP JUMPDEST PUSH0 PUSH1 0x20 DUP3 ADD SWAP1 POP PUSH2 0x9CF PUSH0 DUP4 ADD DUP5 PUSH2 0x9AD JUMP JUMPDEST SWAP3 SWAP2 POP POP JUMP JUMPDEST PUSH2 0x9DE DUP2 PUSH2 0x9A4 JUMP JUMPDEST DUP2 EQ PUSH2 0x9E8 JUMPI PUSH0 DUP1 REVERT JUMPDEST POP JUMP JUMPDEST PUSH0 DUP2 CALLDATALOAD SWAP1 POP PUSH2 0x9F9 DUP2 PUSH2 0x9D5 JUMP JUMPDEST SWAP3 SWAP2 POP POP JUMP JUMPDEST PUSH0 PUSH1 0x20 DUP3 DUP5 SUB SLT ISZERO PUSH2 0xA14 JUMPI PUSH2 0xA13 PUSH2 0x917 JUMP JUMPDEST JUMPDEST PUSH0 PUSH2 0xA21 DUP5 DUP3 DUP6 ADD PUSH2 0x9EB JUMP JUMPDEST SWAP2 POP POP SWAP3 SWAP2 POP POP JUMP JUMPDEST PUSH0 DUP2 MLOAD SWAP1 POP SWAP2 SWAP1 POP JUMP JUMPDEST PUSH0 DUP3 DUP3 MSTORE PUSH1 0x20 DUP3 ADD SWAP1 POP SWAP3 SWAP2 POP POP JUMP JUMPDEST DUP3 DUP2 DUP4 MCOPY PUSH0 DUP4 DUP4 ADD MSTORE POP POP POP JUMP JUMPDEST PUSH0 PUSH1 0x1F NOT PUSH1 0x1F DUP4 ADD AND SWAP1 POP SWAP2 SWAP1 POP JUMP JUMPDEST PUSH0 PUSH2 0xA6C DUP3 PUSH2 0xA2A JUMP JUMPDEST PUSH2 0xA76 DUP2 DUP6 PUSH2 0xA34 JUMP JUMPDEST SWAP4 POP PUSH2 0xA86 DUP2 DUP6 PUSH1 0x20 DUP7 ADD PUSH2 0xA44 JUMP JUMPDEST PUSH2 0xA8F DUP2 PUSH2 0xA52 JUMP JUMPDEST DUP5 ADD SWAP2 POP POP SWAP3 SWAP2 POP POP JUMP JUMPDEST PUSH0 DUP2 ISZERO ISZERO SWAP1 POP SWAP2 SWAP1 POP JUMP JUMPDEST PUSH2 0xAAE DUP2 PUSH2 0xA9A JUMP JUMPDEST DUP3 MSTORE POP POP JUMP JUMPDEST PUSH0 PUSH1 0xC0 DUP3 ADD SWAP1 POP PUSH2 0xAC7 PUSH0 DUP4 ADD DUP10 PUSH2 0x9AD JUMP JUMPDEST DUP2 DUP2 SUB PUSH1 0x20 DUP4 ADD MSTORE PUSH2 0xAD9 DUP2 DUP9 PUSH2 0xA62 JUMP JUMPDEST SWAP1 POP PUSH2 0xAE8 PUSH1 0x40 DUP4 ADD DUP8 PUSH2 0x9AD JUMP JUMPDEST PUSH2 0xAF5 PUSH1 0x60 DUP4 ADD DUP7 PUSH2 0x9AD JUMP JUMPDEST PUSH2 0xB02 PUSH1 0x80 DUP4 ADD DUP6 PUSH2 0xAA5 JUMP JUMPDEST PUSH2 0xB0F PUSH1 0xA0 DUP4 ADD DUP5 PUSH2 0x9AD JUMP JUMPDEST SWAP8 SWAP7 POP POP POP POP POP POP POP JUMP JUMPDEST PUSH0 DUP1 REVERT JUMPDEST PUSH0 DUP1 REVERT JUMPDEST PUSH32 0x4E487B7100000000000000000000000000000000000000000000000000000000 PUSH0 MSTORE PUSH1 0x41 PUSH1 0x4 MSTORE PUSH1 0x24 PUSH0 REVERT JUMPDEST PUSH2 0xB58 DUP3 PUSH2 0xA52 JUMP JUMPDEST DUP2 ADD DUP2 DUP2 LT PUSH8 0xFFFFFFFFFFFFFFFF DUP3 GT OR ISZERO PUSH2 0xB77 JUMPI PUSH2 0xB76 PUSH2 0xB22 JUMP JUMPDEST JUMPDEST DUP1 PUSH1 0x40 MSTORE POP POP POP JUMP JUMPDEST PUSH0 PUSH2 0xB89 PUSH2 0x90E JUMP JUMPDEST SWAP1 POP PUSH2 0xB95 DUP3 DUP3 PUSH2 0xB4F JUMP JUMPDEST SWAP2 SWAP1 POP JUMP JUMPDEST PUSH0 PUSH8 0xFFFFFFFFFFFFFFFF DUP3 GT ISZERO PUSH2 0xBB4 JUMPI PUSH2 0xBB3 PUSH2 0xB22 JUMP JUMPDEST JUMPDEST PUSH2 0xBBD DUP3 PUSH2 0xA52 JUMP JUMPDEST SWAP1 POP PUSH1 0x20 DUP2 ADD SWAP1 POP SWAP2 SWAP1 POP JUMP JUMPDEST DUP3 DUP2 DUP4 CALLDATACOPY PUSH0 DUP4 DUP4 ADD MSTORE POP POP POP JUMP JUMPDEST PUSH0 PUSH2 0xBEA PUSH2 0xBE5 DUP5 PUSH2 0xB9A JUMP JUMPDEST PUSH2 0xB80 JUMP JUMPDEST SWAP1 POP DUP3 DUP2 MSTORE PUSH1 0x20 DUP2 ADD DUP5 DUP5 DUP5 ADD GT ISZERO PUSH2 0xC06 JUMPI PUSH2 0xC05 PUSH2 0xB1E JUMP JUMPDEST JUMPDEST PUSH2 0xC11 DUP5 DUP3 DUP6 PUSH2 0xBCA JUMP JUMPDEST POP SWAP4 SWAP3 POP POP POP JUMP JUMPDEST PUSH0 DUP3 PUSH1 0x1F DUP4 ADD SLT PUSH2 0xC2D JUMPI PUSH2 0xC2C PUSH2 0xB1A JUMP JUMPDEST JUMPDEST DUP2 CALLDATALOAD PUSH2 0xC3D DUP5 DUP3 PUSH1 0x20 DUP7 ADD PUSH2 0xBD8 JUMP JUMPDEST SWAP2 POP POP SWAP3 SWAP2 POP POP JUMP JUMPDEST PUSH0 PUSH1 0x20 DUP3 DUP5 SUB SLT ISZERO PUSH2 0xC5B JUMPI PUSH2 0xC5A PUSH2 0x917 JUMP JUMPDEST JUMPDEST PUSH0 DUP3 ADD CALLDATALOAD PUSH8 0xFFFFFFFFFFFFFFFF DUP2 GT ISZERO PUSH2 0xC78 JUMPI PUSH2 0xC77 PUSH2 0x91B JUMP JUMPDEST JUMPDEST PUSH2 0xC84 DUP5 DUP3 DUP6 ADD PUSH2 0xC19 JUMP JUMPDEST SWAP2 POP POP SWAP3 SWAP2 POP POP JUMP JUMPDEST PUSH0 DUP2 SWAP1 POP SWAP2 SWAP1 POP JUMP JUMPDEST PUSH0 PUSH2 0xCB0 PUSH2 0xCAB PUSH2 0xCA6 DUP5 PUSH2 0x91F JUMP JUMPDEST PUSH2 0xC8D JUMP JUMPDEST PUSH2 0x91F JUMP JUMPDEST SWAP1 POP SWAP2 SWAP1 POP JUMP JUMPDEST PUSH0 PUSH2 0xCC1 DUP3 PUSH2 0xC96 JUMP JUMPDEST SWAP1 POP SWAP2 SWAP1 POP JUMP JUMPDEST PUSH0 PUSH2 0xCD2 DUP3 PUSH2 0xCB7 JUMP JUMPDEST SWAP1 POP SWAP2 SWAP1 POP JUMP JUMPDEST PUSH2 0xCE2 DUP2 PUSH2 0xCC8 JUMP JUMPDEST DUP3 MSTORE POP POP JUMP JUMPDEST PUSH0 PUSH1 0x20 DUP3 ADD SWAP1 POP PUSH2 0xCFB PUSH0 DUP4 ADD DUP5 PUSH2 0xCD9 JUMP JUMPDEST SWAP3 SWAP2 POP POP JUMP JUMPDEST PUSH2 0xD0A DUP2 PUSH2 0xA9A JUMP JUMPDEST DUP2 EQ PUSH2 0xD14 JUMPI PUSH0 DUP1 REVERT JUMPDEST POP JUMP JUMPDEST PUSH0 DUP2 CALLDATALOAD SWAP1 POP PUSH2 0xD25 DUP2 PUSH2 0xD01 JUMP JUMPDEST SWAP3 SWAP2 POP POP JUMP JUMPDEST PUSH0 DUP1 PUSH1 0x40 DUP4 DUP6 SUB SLT ISZERO PUSH2 0xD41 JUMPI PUSH2 0xD40 PUSH2 0x917 JUMP JUMPDEST JUMPDEST PUSH0 PUSH2 0xD4E DUP6 DUP3 DUP7 ADD PUSH2 0x9EB JUMP JUMPDEST SWAP3 POP POP PUSH1 0x20 PUSH2 0xD5F DUP6 DUP3 DUP7 ADD PUSH2 0xD17 JUMP JUMPDEST SWAP2 POP POP SWAP3 POP SWAP3 SWAP1 POP JUMP JUMPDEST PUSH32 0x4E487B7100000000000000000000000000000000000000000000000000000000 PUSH0 MSTORE PUSH1 0x22 PUSH1 0x4 MSTORE PUSH1 0x24 PUSH0 REVERT JUMPDEST PUSH0 PUSH1 0x2 DUP3 DIV SWAP1 POP PUSH1 0x1 DUP3 AND DUP1 PUSH2 0xDAD JUMPI PUSH1 0x7F DUP3 AND SWAP2 POP JUMPDEST PUSH1 0x20 DUP3 LT DUP2 SUB PUSH2 0xDC0 JUMPI PUSH2 0xDBF PUSH2 0xD69 JUMP JUMPDEST JUMPDEST POP SWAP2 SWAP1 POP JUMP JUMPDEST PUSH32 0x4E487B7100000000000000000000000000000000000000000000000000000000 PUSH0 MSTORE PUSH1 0x11 PUSH1 0x4 MSTORE PUSH1 0x24 PUSH0 REVERT JUMPDEST PUSH0 PUSH2 0xDFD DUP3 PUSH2 0x9A4 JUMP JUMPDEST SWAP2 POP PUSH2 0xE08 DUP4 PUSH2 0x9A4 JUMP JUMPDEST SWAP3 POP DUP3 DUP3 SUB SWAP1 POP DUP2 DUP2 GT ISZERO PUSH2 0xE20 JUMPI PUSH2 0xE1F PUSH2 0xDC6 JUMP JUMPDEST JUMPDEST SWAP3 SWAP2 POP POP JUMP JUMPDEST PUSH0 DUP2 SWAP1 POP DUP2 PUSH0 MSTORE PUSH1 0x20 PUSH0 KECCAK256 SWAP1 POP SWAP2 SWAP1 POP JUMP JUMPDEST PUSH0 PUSH1 0x20 PUSH1 0x1F DUP4 ADD DIV SWAP1 POP SWAP2 SWAP1 POP JUMP JUMPDEST PUSH0 DUP3 DUP3 SHL SWAP1 POP SWAP3 SWAP2 POP POP JUMP JUMPDEST PUSH0 PUSH1 0x8 DUP4 MUL PUSH2 0xE82 PUSH32 0xFFFFFFFFFFFFFFFFFFFFFFFFFFFFFFFFFFFFFFFFFFFFFFFFFFFFFFFFFFFFFFFF DUP3 PUSH2 0xE47 JUMP JUMPDEST PUSH2 0xE8C DUP7 DUP4 PUSH2 0xE47 JUMP JUMPDEST SWAP6 POP DUP1 NOT DUP5 AND SWAP4 POP DUP1 DUP7 AND DUP5 OR SWAP3 POP POP POP SWAP4 SWAP3 POP POP POP JUMP JUMPDEST PUSH0 PUSH2 0xEBE PUSH2 0xEB9 PUSH2 0xEB4 DUP5 PUSH2 0x9A4 JUMP JUMPDEST PUSH2 0xC8D JUMP JUMPDEST PUSH2 0x9A4 JUMP JUMPDEST SWAP1 POP SWAP2 SWAP1 POP JUMP JUMPDEST PUSH0 DUP2 SWAP1 POP SWAP2 SWAP1 POP JUMP JUMPDEST PUSH2 0xED7 DUP4 PUSH2 0xEA4 JUMP JUMPDEST PUSH2 0xEEB PUSH2 0xEE3 DUP3 PUSH2 0xEC5 JUMP JUMPDEST DUP5 DUP5 SLOAD PUSH2 0xE53 JUMP JUMPDEST DUP3 SSTORE POP POP POP POP JUMP JUMPDEST PUSH0 SWAP1 JUMP JUMPDEST PUSH2 0xEFF PUSH2 0xEF3 JUMP JUMPDEST PUSH2 0xF0A DUP2 DUP5 DUP5 PUSH2 0xECE JUMP JUMPDEST POP POP POP JUMP JUMPDEST JUMPDEST DUP2 DUP2 LT ISZERO PUSH2 0xF2D JUMPI PUSH2 0xF22 PUSH0 DUP3 PUSH2 0xEF7 JUMP JUMPDEST PUSH1 0x1 DUP2 ADD SWAP1 POP PUSH2 0xF10 JUMP JUMPDEST POP POP JUMP JUMPDEST PUSH1 0x1F DUP3 GT ISZERO PUSH2 0xF72 JUMPI PUSH2 0xF43 DUP2 PUSH2 0xE26 JUMP JUMPDEST PUSH2 0xF4C DUP5 PUSH2 0xE38 JUMP JUMPDEST DUP2 ADD PUSH1 0x20 DUP6 LT ISZERO PUSH2 0xF5B JUMPI DUP2 SWAP1 POP JUMPDEST PUSH2 0xF6F PUSH2 0xF67 DUP6 PUSH2 0xE38 JUMP JUMPDEST DUP4 ADD DUP3 PUSH2 0xF0F JUMP JUMPDEST POP POP JUMPDEST POP POP POP JUMP JUMPDEST PUSH0 DUP3 DUP3 SHR SWAP1 POP SWAP3 SWAP2 POP POP JUMP JUMPDEST PUSH0 PUSH2 0xF92 PUSH0 NOT DUP5 PUSH1 0x8 MUL PUSH2 0xF77 JUMP JUMPDEST NOT DUP1 DUP4 AND SWAP2 POP POP SWAP3 SWAP2 POP POP JUMP JUMPDEST PUSH0 PUSH2 0xFAA DUP4 DUP4 PUSH2 0xF83 JUMP JUMPDEST SWAP2 POP DUP3 PUSH1 0x2 MUL DUP3 OR SWAP1 POP SWAP3 SWAP2 POP POP JUMP JUMPDEST PUSH2 0xFC3 DUP3 PUSH2 0xA2A JUMP JUMPDEST PUSH8 0xFFFFFFFFFFFFFFFF DUP2 GT ISZERO PUSH2 0xFDC JUMPI PUSH2 0xFDB PUSH2 0xB22 JUMP JUMPDEST JUMPDEST PUSH2 0xFE6 DUP3 SLOAD PUSH2 0xD96 JUMP JUMPDEST PUSH2 0xFF1 DUP3 DUP3 DUP6 PUSH2 0xF31 JUMP JUMPDEST PUSH0 PUSH1 0x20 SWAP1 POP PUSH1 0x1F DUP4 GT PUSH1 0x1 DUP2 EQ PUSH2 0x1022 JUMPI PUSH0 DUP5 ISZERO PUSH2 0x1010 JUMPI DUP3 DUP8 ADD MLOAD SWAP1 POP JUMPDEST PUSH2 0x101A DUP6 DUP3 PUSH2 0xF9F JUMP JUMPDEST DUP7 SSTORE POP PUSH2 0x1081 JUMP JUMPDEST PUSH1 0x1F NOT DUP5 AND PUSH2 0x1030 DUP7 PUSH2 0xE26 JUMP JUMPDEST PUSH0 JUMPDEST DUP3 DUP2 LT ISZERO PUSH2 0x1057 JUMPI DUP5 DUP10 ADD MLOAD DUP3 SSTORE PUSH1 0x1 DUP3 ADD SWAP2 POP PUSH1 0x20 DUP6 ADD SWAP5 POP PUSH1 0x20 DUP2 ADD SWAP1 POP PUSH2 0x1032 JUMP JUMPDEST DUP7 DUP4 LT ISZERO PUSH2 0x1074 JUMPI DUP5 DUP10 ADD MLOAD PUSH2 0x1070 PUSH1 0x1F DUP10 AND DUP3 PUSH2 0xF83 JUMP JUMPDEST DUP4 SSTORE POP JUMPDEST PUSH1 0x1 PUSH1 0x2 DUP9 MUL ADD DUP9 SSTORE POP POP POP JUMPDEST POP POP POP POP POP POP JUMP JUMPDEST PUSH0 PUSH1 0x20 DUP3 ADD SWAP1 POP DUP2 DUP2 SUB PUSH0 DUP4 ADD MSTORE PUSH2 0x10A1 DUP2 DUP5 PUSH2 0xA62 JUMP JUMPDEST SWAP1 POP SWAP3 SWAP2 POP POP JUMP JUMPDEST PUSH32 0x416D6F756E74206D757374206265206174206C6561737420746865206D696E69 PUSH0 DUP3 ADD MSTORE PUSH32 0x6D756D207374616B6520616D6F756E7400000000000000000000000000000000 PUSH1 0x20 DUP3 ADD MSTORE POP JUMP JUMPDEST PUSH0 PUSH2 0x1103 PUSH1 0x30 DUP4 PUSH2 0xA34 JUMP JUMPDEST SWAP2 POP PUSH2 0x110E DUP3 PUSH2 0x10A9 JUMP JUMPDEST PUSH1 0x40 DUP3 ADD SWAP1 POP SWAP2 SWAP1 POP JUMP JUMPDEST PUSH0 PUSH1 0x20 DUP3 ADD SWAP1 POP DUP2 DUP2 SUB PUSH0 DUP4 ADD MSTORE PUSH2 0x1130 DUP2 PUSH2 0x10F7 JUMP JUMPDEST SWAP1 POP SWAP2 SWAP1 POP JUMP JUMPDEST PUSH2 0x1140 DUP2 PUSH2 0x93E JUMP JUMPDEST DUP3 MSTORE POP POP JUMP JUMPDEST PUSH0 PUSH1 0x60 DUP3 ADD SWAP1 POP PUSH2 0x1159 PUSH0 DUP4 ADD DUP7 PUSH2 0x1137 JUMP JUMPDEST PUSH2 0x1166 PUSH1 0x20 DUP4 ADD DUP6 PUSH2 0x1137 JUMP JUMPDEST PUSH2 0x1173 PUSH1 0x40 DUP4 ADD DUP5 PUSH2 0x9AD JUMP JUMPDEST SWAP5 SWAP4 POP POP POP POP JUMP JUMPDEST PUSH0 DUP2 MLOAD SWAP1 POP PUSH2 0x1189 DUP2 PUSH2 0xD01 JUMP JUMPDEST SWAP3 SWAP2 POP POP JUMP JUMPDEST PUSH0 PUSH1 0x20 DUP3 DUP5 SUB SLT ISZERO PUSH2 0x11A4 JUMPI PUSH2 0x11A3 PUSH2 0x917 JUMP JUMPDEST JUMPDEST PUSH0 PUSH2 0x11B1 DUP5 DUP3 DUP6 ADD PUSH2 0x117B JUMP JUMPDEST SWAP2 POP POP SWAP3 SWAP2 POP POP JUMP JUMPDEST PUSH0 PUSH2 0x11C4 DUP3 PUSH2 0x9A4 JUMP JUMPDEST SWAP2 POP PUSH2 0x11CF DUP4 PUSH2 0x9A4 JUMP JUMPDEST SWAP3 POP DUP3 DUP3 ADD SWAP1 POP DUP1 DUP3 GT ISZERO PUSH2 0x11E7 JUMPI PUSH2 0x11E6 PUSH2 0xDC6 JUMP JUMPDEST JUMPDEST SWAP3 SWAP2 POP POP JUMP JUMPDEST PUSH32 0x4E487B7100000000000000000000000000000000000000000000000000000000 PUSH0 MSTORE PUSH1 0x32 PUSH1 0x4 MSTORE PUSH1 0x24 PUSH0 REVERT JUMPDEST PUSH32 0x4469737075746520616C7265616479207265736F6C7665640000000000000000 PUSH0 DUP3 ADD MSTORE POP JUMP JUMPDEST PUSH0 PUSH2 0x124E PUSH1 0x18 DUP4 PUSH2 0xA34 JUMP JUMPDEST SWAP2 POP PUSH2 0x1259 DUP3 PUSH2 0x121A JUMP JUMPDEST PUSH1 0x20 DUP3 ADD SWAP1 POP SWAP2 SWAP1 POP JUMP JUMPDEST PUSH0 PUSH1 0x20 DUP3 ADD SWAP1 POP DUP2 DUP2 SUB PUSH0 DUP4 ADD MSTORE PUSH2 0x127B DUP2 PUSH2 0x1242 JUMP JUMPDEST SWAP1 POP SWAP2 SWAP1 POP JUMP JUMPDEST PUSH32 0x4E6F7420656E6F75676820766F74657320746F207265736F6C76650000000000 PUSH0 DUP3 ADD MSTORE POP JUMP JUMPDEST PUSH0 PUSH2 0x12B6 PUSH1 0x1B DUP4 PUSH2 0xA34 JUMP JUMPDEST SWAP2 POP PUSH2 0x12C1 DUP3 PUSH2 0x1282 JUMP JUMPDEST PUSH1 0x20 DUP3 ADD SWAP1 POP SWAP2 SWAP1 POP JUMP JUMPDEST PUSH0 PUSH1 0x20 DUP3 ADD SWAP1 POP DUP2 DUP2 SUB PUSH0 DUP4 ADD MSTORE PUSH2 0x12E3 DUP2 PUSH2 0x12AA JUMP JUMPDEST SWAP1 POP SWAP2 SWAP1 POP JUMP JUMPDEST PUSH0 PUSH1 0x20 DUP3 ADD SWAP1 POP PUSH2 0x12FD PUSH0 DUP4 ADD DUP5 PUSH2 0xAA5 JUMP JUMPDEST SWAP3 SWAP2 POP POP JUMP JUMPDEST PUSH32 0x4D7573742068617665207374616B656420746F6B656E7320746F20766F746500 PUSH0 DUP3 ADD MSTORE POP JUMP JUMPDEST PUSH0 PUSH2 0x1337 PUSH1 0x1F DUP4 PUSH2 0xA34 JUMP JUMPDEST SWAP2 POP PUSH2 0x1342 DUP3 PUSH2 0x1303 JUMP JUMPDEST PUSH1 0x20 DUP3 ADD SWAP1 POP SWAP2 SWAP1 POP JUMP JUMPDEST PUSH0 PUSH1 0x20 DUP3 ADD SWAP1 POP DUP2 DUP2 SUB PUSH0 DUP4 ADD MSTORE PUSH2 0x1364 DUP2 PUSH2 0x132B JUMP JUMPDEST SWAP1 POP SWAP2 SWAP1 POP JUMP JUMPDEST PUSH32 0x416C726561647920766F74656400000000000000000000000000000000000000 PUSH0 DUP3 ADD MSTORE POP JUMP JUMPDEST PUSH0 PUSH2 0x139F PUSH1 0xD DUP4 PUSH2 0xA34 JUMP JUMPDEST SWAP2 POP PUSH2 0x13AA DUP3 PUSH2 0x136B JUMP JUMPDEST PUSH1 0x20 DUP3 ADD SWAP1 POP SWAP2 SWAP1 POP JUMP JUMPDEST PUSH0 PUSH1 0x20 DUP3 ADD SWAP1 POP DUP2 DUP2 SUB PUSH0 DUP4 ADD MSTORE PUSH2 0x13CC DUP2 PUSH2 0x1393 JUMP JUMPDEST SWAP1 POP SWAP2 SWAP1 POP JUMP JUMPDEST PUSH0 PUSH1 0x40 DUP3 ADD SWAP1 POP PUSH2 0x13E6 PUSH0 DUP4 ADD DUP6 PUSH2 0xAA5 JUMP JUMPDEST PUSH2 0x13F3 PUSH1 0x20 DUP4 ADD DUP5 PUSH2 0x9AD JUMP JUMPDEST SWAP4 SWAP3 POP POP POP JUMP INVALID LOG2 PUSH5 0x6970667358 0x22 SLT KECCAK256 PUSH2 0xB9BF MSIZE 0xFB 0x27 0xC2 DUP6 0xAF PUSH3 0xB9D454 0xE0 0xD9 0xA7 0xF9 0x4C RETURNDATASIZE 0xC GAS 0xD3 SMOD JUMPDEST 0xEA 0xF6 0x24 PUSH31 0xE48310E464736F6C634300081A003300000000000000000000000000000000 "
		},
		"gasEstimates": {
			"creation": {
				"codeDepositCost": "1033600",
				"executionCost": "infinite",
				"totalCost": "infinite"
			},
			"external": {
				"createDispute(string)": "infinite",
				"disputes(uint256)": "infinite",
				"grullToken()": "infinite",
				"minStakeAmount()": "2513",
				"minVotesRequired()": "2448",
				"resolveDispute(uint256)": "39091",
				"stakeTokens(uint256)": "infinite",
				"stakes(address)": "2803",
				"vote(uint256,bool)": "infinite"
			}
		},
		"methodIdentifiers": {
			"createDispute(string)": "68175996",
			"disputes(uint256)": "564a565d",
			"grullToken()": "c9cf5ddf",
			"minStakeAmount()": "f1887684",
			"minVotesRequired()": "403fb4a8",
			"resolveDispute(uint256)": "c2b7b868",
			"stakeTokens(uint256)": "7547c7a3",
			"stakes(address)": "16934fc4",
			"vote(uint256,bool)": "c9d27afe"
		}
	},
	"abi": [
		{
			"inputs": [
				{
					"internalType": "address",
					"name": "_grullTokenAddress",
					"type": "address"
				}
			],
			"stateMutability": "nonpayable",
			"type": "constructor"
		},
		{
			"anonymous": false,
			"inputs": [
				{
					"indexed": true,
					"internalType": "uint256",
					"name": "disputeId",
					"type": "uint256"
				},
				{
					"indexed": false,
					"internalType": "string",
					"name": "description",
					"type": "string"
				}
			],
			"name": "DisputeCreated",
			"type": "event"
		},
		{
			"anonymous": false,
			"inputs": [
				{
					"indexed": true,
					"internalType": "uint256",
					"name": "disputeId",
					"type": "uint256"
				},
				{
					"indexed": false,
					"internalType": "bool",
					"name": "outcome",
					"type": "bool"
				}
			],
			"name": "DisputeResolved",
			"type": "event"
		},
		{
			"anonymous": false,
			"inputs": [
				{
					"indexed": true,
					"internalType": "address",
					"name": "voter",
					"type": "address"
				},
				{
					"indexed": true,
					"internalType": "uint256",
					"name": "disputeId",
					"type": "uint256"
				},
				{
					"indexed": false,
					"internalType": "bool",
					"name": "vote",
					"type": "bool"
				},
				{
					"indexed": false,
					"internalType": "uint256",
					"name": "weight",
					"type": "uint256"
				}
			],
			"name": "VoteCast",
			"type": "event"
		},
		{
			"inputs": [
				{
					"internalType": "string",
					"name": "_description",
					"type": "string"
				}
			],
			"name": "createDispute",
			"outputs": [],
			"stateMutability": "nonpayable",
			"type": "function"
		},
		{
			"inputs": [
				{
					"internalType": "uint256",
					"name": "",
					"type": "uint256"
				}
			],
			"name": "disputes",
			"outputs": [
				{
					"internalType": "uint256",
					"name": "id",
					"type": "uint256"
				},
				{
					"internalType": "string",
					"name": "description",
					"type": "string"
				},
				{
					"internalType": "uint256",
					"name": "inFavor",
					"type": "uint256"
				},
				{
					"internalType": "uint256",
					"name": "against",
					"type": "uint256"
				},
				{
					"internalType": "bool",
					"name": "resolved",
					"type": "bool"
				},
				{
					"internalType": "uint256",
					"name": "totalVotes",
					"type": "uint256"
				}
			],
			"stateMutability": "view",
			"type": "function"
		},
		{
			"inputs": [],
			"name": "grullToken",
			"outputs": [
				{
					"internalType": "contract IERC20",
					"name": "",
					"type": "address"
				}
			],
			"stateMutability": "view",
			"type": "function"
		},
		{
			"inputs": [],
			"name": "minStakeAmount",
			"outputs": [
				{
					"internalType": "uint256",
					"name": "",
					"type": "uint256"
				}
			],
			"stateMutability": "view",
			"type": "function"
		},
		{
			"inputs": [],
			"name": "minVotesRequired",
			"outputs": [
				{
					"internalType": "uint256",
					"name": "",
					"type": "uint256"
				}
			],
			"stateMutability": "view",
			"type": "function"
		},
		{
			"inputs": [
				{
					"internalType": "uint256",
					"name": "_disputeId",
					"type": "uint256"
				}
			],
			"name": "resolveDispute",
			"outputs": [],
			"stateMutability": "nonpayable",
			"type": "function"
		},
		{
			"inputs": [
				{
					"internalType": "uint256",
					"name": "_amount",
					"type": "uint256"
				}
			],
			"name": "stakeTokens",
			"outputs": [],
			"stateMutability": "nonpayable",
			"type": "function"
		},
		{
			"inputs": [
				{
					"internalType": "address",
					"name": "",
					"type": "address"
				}
			],
			"name": "stakes",
			"outputs": [
				{
					"internalType": "uint256",
					"name": "",
					"type": "uint256"
				}
			],
			"stateMutability": "view",
			"type": "function"
		},
		{
			"inputs": [
				{
					"internalType": "uint256",
					"name": "_disputeId",
					"type": "uint256"
				},
				{
					"internalType": "bool",
					"name": "_vote",
					"type": "bool"
				}
			],
			"name": "vote",
			"outputs": [],
			"stateMutability": "nonpayable",
			"type": "function"
		}
	]
}